{
    "abi": [
        {
            "type": "constructor",
            "inputs": [
                {
                    "name": "_routerContractAddress",
                    "type": "address",
                    "internalType": "address"
                },
                {
                    "name": "_linkTokenAddress",
                    "type": "address",
                    "internalType": "address"
                },
                {
                    "name": "_initialOwner",
                    "type": "address",
                    "internalType": "address"
                },
                {
                    "name": "_destinationChainSelector",
                    "type": "uint64",
                    "internalType": "uint64"
                },
                {
                    "name": "_nameOfToken",
                    "type": "string",
                    "internalType": "string"
                },
                {
                    "name": "_symbolOfToken",
                    "type": "string",
                    "internalType": "string"
                },
                {
                    "name": "_URIPrefix",
                    "type": "string",
                    "internalType": "string"
                },
                {
                    "name": "_URIHasId",
                    "type": "bool",
                    "internalType": "bool"
                },
                {
                    "name": "_URISuffix",
                    "type": "string",
                    "internalType": "string"
                },
                {
                    "name": "_feeNumerator",
                    "type": "uint96",
                    "internalType": "uint96"
                }
            ],
            "stateMutability": "nonpayable"
        },
        {
            "type": "receive",
            "stateMutability": "payable"
        },
        {
            "type": "function",
            "name": "CHAINLINK_ROLE",
            "inputs": [],
            "outputs": [
                {
                    "name": "",
                    "type": "bytes32",
                    "internalType": "bytes32"
                }
            ],
            "stateMutability": "view"
        },
        {
            "type": "function",
            "name": "DEFAULT_ADMIN_ROLE",
            "inputs": [],
            "outputs": [
                {
                    "name": "",
                    "type": "bytes32",
                    "internalType": "bytes32"
                }
            ],
            "stateMutability": "view"
        },
        {
            "type": "function",
            "name": "OWNER_ROLE",
            "inputs": [],
            "outputs": [
                {
                    "name": "",
                    "type": "bytes32",
                    "internalType": "bytes32"
                }
            ],
            "stateMutability": "view"
        },
        {
            "type": "function",
            "name": "OriginalChainReceiverContractAddress",
            "inputs": [],
            "outputs": [
                {
                    "name": "",
                    "type": "address",
                    "internalType": "address"
                }
            ],
            "stateMutability": "view"
        },
        {
            "type": "function",
            "name": "approve",
            "inputs": [
                {
                    "name": "to",
                    "type": "address",
                    "internalType": "address"
                },
                {
                    "name": "tokenId",
                    "type": "uint256",
                    "internalType": "uint256"
                }
            ],
            "outputs": [],
            "stateMutability": "nonpayable"
        },
        {
            "type": "function",
            "name": "balanceOf",
            "inputs": [
                {
                    "name": "owner",
                    "type": "address",
                    "internalType": "address"
                }
            ],
            "outputs": [
                {
                    "name": "",
                    "type": "uint256",
                    "internalType": "uint256"
                }
            ],
            "stateMutability": "view"
        },
        {
            "type": "function",
            "name": "blackListFunction",
            "inputs": [
                {
                    "name": "_functionHash",
                    "type": "bytes",
                    "internalType": "bytes"
                }
            ],
            "outputs": [],
            "stateMutability": "nonpayable"
        },
        {
            "type": "function",
            "name": "burn",
            "inputs": [
                {
                    "name": "tokenId",
                    "type": "uint256",
                    "internalType": "uint256"
                }
            ],
            "outputs": [],
            "stateMutability": "nonpayable"
        },
        {
            "type": "function",
            "name": "ccipSetMint",
            "inputs": [
                {
                    "name": "_tokenId",
                    "type": "uint256",
                    "internalType": "uint256"
                },
                {
                    "name": "_owner",
                    "type": "address",
                    "internalType": "address"
                },
                {
                    "name": "_signature",
                    "type": "string",
                    "internalType": "string"
                }
            ],
            "outputs": [],
            "stateMutability": "nonpayable"
        },
        {
            "type": "function",
            "name": "changeBaseURI",
            "inputs": [
                {
                    "name": "_URIPrefix",
                    "type": "string",
                    "internalType": "string"
                },
                {
                    "name": "_URIHasId",
                    "type": "bool",
                    "internalType": "bool"
                },
                {
                    "name": "_URISuffix",
                    "type": "string",
                    "internalType": "string"
                }
            ],
            "outputs": [],
            "stateMutability": "nonpayable"
        },
        {
            "type": "function",
            "name": "changeCreatorFees",
            "inputs": [
                {
                    "name": "_feeNumerator",
                    "type": "uint96",
                    "internalType": "uint96"
                }
            ],
            "outputs": [],
            "stateMutability": "nonpayable"
        },
        {
            "type": "function",
            "name": "changeOwner",
            "inputs": [
                {
                    "name": "newOwner",
                    "type": "address",
                    "internalType": "address"
                }
            ],
            "outputs": [],
            "stateMutability": "nonpayable"
        },
        {
            "type": "function",
            "name": "crossChainSolution",
            "inputs": [],
            "outputs": [
                {
                    "name": "",
                    "type": "uint8",
                    "internalType": "uint8"
                }
            ],
            "stateMutability": "pure"
        },
        {
            "type": "function",
            "name": "crossChainSolutionVariables",
            "inputs": [],
            "outputs": [
                {
                    "name": "",
                    "type": "bool",
                    "internalType": "bool"
                },
                {
                    "name": "",
                    "type": "address",
                    "internalType": "address"
                },
                {
                    "name": "",
                    "type": "uint64",
                    "internalType": "uint64"
                }
            ],
            "stateMutability": "view"
        },
        {
            "type": "function",
            "name": "getApproved",
            "inputs": [
                {
                    "name": "tokenId",
                    "type": "uint256",
                    "internalType": "uint256"
                }
            ],
            "outputs": [
                {
                    "name": "",
                    "type": "address",
                    "internalType": "address"
                }
            ],
            "stateMutability": "view"
        },
        {
            "type": "function",
            "name": "getFuntionHash",
            "inputs": [
                {
                    "name": "_data",
                    "type": "bytes",
                    "internalType": "bytes"
                }
            ],
            "outputs": [
                {
                    "name": "",
                    "type": "bytes",
                    "internalType": "bytes"
                }
            ],
            "stateMutability": "pure"
        },
        {
            "type": "function",
            "name": "getRoleAdmin",
            "inputs": [
                {
                    "name": "role",
                    "type": "bytes32",
                    "internalType": "bytes32"
                }
            ],
            "outputs": [
                {
                    "name": "",
                    "type": "bytes32",
                    "internalType": "bytes32"
                }
            ],
            "stateMutability": "view"
        },
        {
            "type": "function",
            "name": "goBackToOriginalCollection",
            "inputs": [
                {
                    "name": "tokenId",
                    "type": "uint256",
                    "internalType": "uint256"
                },
                {
                    "name": "_signature",
                    "type": "string",
                    "internalType": "string"
                }
            ],
            "outputs": [],
            "stateMutability": "nonpayable"
        },
        {
            "type": "function",
            "name": "grantRole",
            "inputs": [
                {
                    "name": "role",
                    "type": "bytes32",
                    "internalType": "bytes32"
                },
                {
                    "name": "account",
                    "type": "address",
                    "internalType": "address"
                }
            ],
            "outputs": [],
            "stateMutability": "nonpayable"
        },
        {
            "type": "function",
            "name": "hasRole",
            "inputs": [
                {
                    "name": "role",
                    "type": "bytes32",
                    "internalType": "bytes32"
                },
                {
                    "name": "account",
                    "type": "address",
                    "internalType": "address"
                }
            ],
            "outputs": [
                {
                    "name": "",
                    "type": "bool",
                    "internalType": "bool"
                }
            ],
            "stateMutability": "view"
        },
        {
            "type": "function",
            "name": "isApprovedForAll",
            "inputs": [
                {
                    "name": "owner",
                    "type": "address",
                    "internalType": "address"
                },
                {
                    "name": "operator",
                    "type": "address",
                    "internalType": "address"
                }
            ],
            "outputs": [
                {
                    "name": "",
                    "type": "bool",
                    "internalType": "bool"
                }
            ],
            "stateMutability": "view"
        },
        {
            "type": "function",
            "name": "makeAlbitratyCalls",
            "inputs": [
                {
                    "name": "_functionAndData",
                    "type": "bytes",
                    "internalType": "bytes"
                },
                {
                    "name": "_where",
                    "type": "address",
                    "internalType": "address"
                }
            ],
            "outputs": [
                {
                    "name": "",
                    "type": "bytes",
                    "internalType": "bytes"
                },
                {
                    "name": "",
                    "type": "bytes",
                    "internalType": "bytes"
                }
            ],
            "stateMutability": "nonpayable"
        },
        {
            "type": "function",
            "name": "name",
            "inputs": [],
            "outputs": [
                {
                    "name": "",
                    "type": "string",
                    "internalType": "string"
                }
            ],
            "stateMutability": "view"
        },
        {
            "type": "function",
            "name": "ownerOf",
            "inputs": [
                {
                    "name": "tokenId",
                    "type": "uint256",
                    "internalType": "uint256"
                }
            ],
            "outputs": [
                {
                    "name": "",
                    "type": "address",
                    "internalType": "address"
                }
            ],
            "stateMutability": "view"
        },
        {
            "type": "function",
            "name": "renounceRole",
            "inputs": [
                {
                    "name": "role",
                    "type": "bytes32",
                    "internalType": "bytes32"
                },
                {
                    "name": "callerConfirmation",
                    "type": "address",
                    "internalType": "address"
                }
            ],
            "outputs": [],
            "stateMutability": "nonpayable"
        },
        {
            "type": "function",
            "name": "revokeRole",
            "inputs": [
                {
                    "name": "role",
                    "type": "bytes32",
                    "internalType": "bytes32"
                },
                {
                    "name": "account",
                    "type": "address",
                    "internalType": "address"
                }
            ],
            "outputs": [],
            "stateMutability": "nonpayable"
        },
        {
            "type": "function",
            "name": "royaltyInfo",
            "inputs": [
                {
                    "name": "tokenId",
                    "type": "uint256",
                    "internalType": "uint256"
                },
                {
                    "name": "salePrice",
                    "type": "uint256",
                    "internalType": "uint256"
                }
            ],
            "outputs": [
                {
                    "name": "",
                    "type": "address",
                    "internalType": "address"
                },
                {
                    "name": "",
                    "type": "uint256",
                    "internalType": "uint256"
                }
            ],
            "stateMutability": "view"
        },
        {
            "type": "function",
            "name": "safeMint",
            "inputs": [
                {
                    "name": "id",
                    "type": "uint256",
                    "internalType": "uint256"
                },
                {
                    "name": "_signature",
                    "type": "string",
                    "internalType": "string"
                }
            ],
            "outputs": [],
            "stateMutability": "payable"
        },
        {
            "type": "function",
            "name": "safeTransferFrom",
            "inputs": [
                {
                    "name": "from",
                    "type": "address",
                    "internalType": "address"
                },
                {
                    "name": "to",
                    "type": "address",
                    "internalType": "address"
                },
                {
                    "name": "tokenId",
                    "type": "uint256",
                    "internalType": "uint256"
                }
            ],
            "outputs": [],
            "stateMutability": "nonpayable"
        },
        {
            "type": "function",
            "name": "safeTransferFrom",
            "inputs": [
                {
                    "name": "from",
                    "type": "address",
                    "internalType": "address"
                },
                {
                    "name": "to",
                    "type": "address",
                    "internalType": "address"
                },
                {
                    "name": "tokenId",
                    "type": "uint256",
                    "internalType": "uint256"
                },
                {
                    "name": "data",
                    "type": "bytes",
                    "internalType": "bytes"
                }
            ],
            "outputs": [],
            "stateMutability": "nonpayable"
        },
        {
            "type": "function",
            "name": "seeIfCanMint",
            "inputs": [
                {
                    "name": "_tokenId",
                    "type": "uint256",
                    "internalType": "uint256"
                }
            ],
            "outputs": [
                {
                    "name": "",
                    "type": "bool",
                    "internalType": "bool"
                }
            ],
            "stateMutability": "view"
        },
        {
            "type": "function",
            "name": "seeIfFunctionIsBlackListed",
            "inputs": [
                {
                    "name": "_functionHash",
                    "type": "bytes",
                    "internalType": "bytes"
                }
            ],
            "outputs": [
                {
                    "name": "",
                    "type": "bool",
                    "internalType": "bool"
                }
            ],
            "stateMutability": "view"
        },
        {
            "type": "function",
            "name": "seeIfFunctionIsWhiteListedAndWhen",
            "inputs": [
                {
                    "name": "_functionHash",
                    "type": "bytes",
                    "internalType": "bytes"
                }
            ],
            "outputs": [
                {
                    "name": "",
                    "type": "uint256",
                    "internalType": "uint256"
                },
                {
                    "name": "",
                    "type": "address",
                    "internalType": "address"
                }
            ],
            "stateMutability": "view"
        },
        {
            "type": "function",
            "name": "setApprovalForAll",
            "inputs": [
                {
                    "name": "operator",
                    "type": "address",
                    "internalType": "address"
                },
                {
                    "name": "approved",
                    "type": "bool",
                    "internalType": "bool"
                }
            ],
            "outputs": [],
            "stateMutability": "nonpayable"
        },
        {
            "type": "function",
            "name": "setOriginalChainReceiverContractAddres",
            "inputs": [
                {
                    "name": "_OriginalChainReceiverContractAddress",
                    "type": "address",
                    "internalType": "address"
                }
            ],
            "outputs": [],
            "stateMutability": "nonpayable"
        },
        {
            "type": "function",
            "name": "setReceiverAddress",
            "inputs": [
                {
                    "name": "_receiverAddress",
                    "type": "address",
                    "internalType": "address"
                }
            ],
            "outputs": [],
            "stateMutability": "nonpayable"
        },
        {
            "type": "function",
            "name": "supportsInterface",
            "inputs": [
                {
                    "name": "interfaceId",
                    "type": "bytes4",
                    "internalType": "bytes4"
                }
            ],
            "outputs": [
                {
                    "name": "",
                    "type": "bool",
                    "internalType": "bool"
                }
            ],
            "stateMutability": "view"
        },
        {
            "type": "function",
            "name": "symbol",
            "inputs": [],
            "outputs": [
                {
                    "name": "",
                    "type": "string",
                    "internalType": "string"
                }
            ],
            "stateMutability": "view"
        },
        {
            "type": "function",
            "name": "tokenURI",
            "inputs": [
                {
                    "name": "tokenId",
                    "type": "uint256",
                    "internalType": "uint256"
                }
            ],
            "outputs": [
                {
                    "name": "",
                    "type": "string",
                    "internalType": "string"
                }
            ],
            "stateMutability": "view"
        },
        {
            "type": "function",
            "name": "transferEthFunds",
            "inputs": [
                {
                    "name": "to",
                    "type": "address",
                    "internalType": "address payable"
                },
                {
                    "name": "amount",
                    "type": "uint256",
                    "internalType": "uint256"
                }
            ],
            "outputs": [],
            "stateMutability": "nonpayable"
        },
        {
            "type": "function",
            "name": "transferFrom",
            "inputs": [
                {
                    "name": "from",
                    "type": "address",
                    "internalType": "address"
                },
                {
                    "name": "to",
                    "type": "address",
                    "internalType": "address"
                },
                {
                    "name": "tokenId",
                    "type": "uint256",
                    "internalType": "uint256"
                }
            ],
            "outputs": [],
            "stateMutability": "nonpayable"
        },
        {
            "type": "function",
            "name": "viewOwnerAddress",
            "inputs": [],
            "outputs": [
                {
                    "name": "",
                    "type": "address",
                    "internalType": "address"
                }
            ],
            "stateMutability": "view"
        },
        {
            "type": "function",
            "name": "viewRecieverContractAddress",
            "inputs": [],
            "outputs": [
                {
                    "name": "",
                    "type": "address",
                    "internalType": "address"
                }
            ],
            "stateMutability": "view"
        },
        {
            "type": "function",
            "name": "whiteListFunction",
            "inputs": [
                {
                    "name": "_functionHash",
                    "type": "bytes",
                    "internalType": "bytes"
                },
                {
                    "name": "_allowedAddress",
                    "type": "address",
                    "internalType": "address"
                }
            ],
            "outputs": [],
            "stateMutability": "nonpayable"
        },
        {
            "type": "function",
            "name": "withdrawLinkFunds",
            "inputs": [
                {
                    "name": "beneficiary",
                    "type": "address",
                    "internalType": "address"
                }
            ],
            "outputs": [],
            "stateMutability": "nonpayable"
        },
        {
            "type": "event",
            "name": "Approval",
            "inputs": [
                {
                    "name": "owner",
                    "type": "address",
                    "indexed": true,
                    "internalType": "address"
                },
                {
                    "name": "approved",
                    "type": "address",
                    "indexed": true,
                    "internalType": "address"
                },
                {
                    "name": "tokenId",
                    "type": "uint256",
                    "indexed": true,
                    "internalType": "uint256"
                }
            ],
            "anonymous": false
        },
        {
            "type": "event",
            "name": "ApprovalForAll",
            "inputs": [
                {
                    "name": "owner",
                    "type": "address",
                    "indexed": true,
                    "internalType": "address"
                },
                {
                    "name": "operator",
                    "type": "address",
                    "indexed": true,
                    "internalType": "address"
                },
                {
                    "name": "approved",
                    "type": "bool",
                    "indexed": false,
                    "internalType": "bool"
                }
            ],
            "anonymous": false
        },
        {
            "type": "event",
            "name": "RoleAdminChanged",
            "inputs": [
                {
                    "name": "role",
                    "type": "bytes32",
                    "indexed": true,
                    "internalType": "bytes32"
                },
                {
                    "name": "previousAdminRole",
                    "type": "bytes32",
                    "indexed": true,
                    "internalType": "bytes32"
                },
                {
                    "name": "newAdminRole",
                    "type": "bytes32",
                    "indexed": true,
                    "internalType": "bytes32"
                }
            ],
            "anonymous": false
        },
        {
            "type": "event",
            "name": "RoleGranted",
            "inputs": [
                {
                    "name": "role",
                    "type": "bytes32",
                    "indexed": true,
                    "internalType": "bytes32"
                },
                {
                    "name": "account",
                    "type": "address",
                    "indexed": true,
                    "internalType": "address"
                },
                {
                    "name": "sender",
                    "type": "address",
                    "indexed": true,
                    "internalType": "address"
                }
            ],
            "anonymous": false
        },
        {
            "type": "event",
            "name": "RoleRevoked",
            "inputs": [
                {
                    "name": "role",
                    "type": "bytes32",
                    "indexed": true,
                    "internalType": "bytes32"
                },
                {
                    "name": "account",
                    "type": "address",
                    "indexed": true,
                    "internalType": "address"
                },
                {
                    "name": "sender",
                    "type": "address",
                    "indexed": true,
                    "internalType": "address"
                }
            ],
            "anonymous": false
        },
        {
            "type": "event",
            "name": "Transfer",
            "inputs": [
                {
                    "name": "from",
                    "type": "address",
                    "indexed": true,
                    "internalType": "address"
                },
                {
                    "name": "to",
                    "type": "address",
                    "indexed": true,
                    "internalType": "address"
                },
                {
                    "name": "tokenId",
                    "type": "uint256",
                    "indexed": true,
                    "internalType": "uint256"
                }
            ],
            "anonymous": false
        },
        {
            "type": "error",
            "name": "AccessControlBadConfirmation",
            "inputs": []
        },
        {
            "type": "error",
            "name": "AccessControlUnauthorizedAccount",
            "inputs": [
                {
                    "name": "account",
                    "type": "address",
                    "internalType": "address"
                },
                {
                    "name": "neededRole",
                    "type": "bytes32",
                    "internalType": "bytes32"
                }
            ]
        },
        {
            "type": "error",
            "name": "ERC2981InvalidDefaultRoyalty",
            "inputs": [
                {
                    "name": "numerator",
                    "type": "uint256",
                    "internalType": "uint256"
                },
                {
                    "name": "denominator",
                    "type": "uint256",
                    "internalType": "uint256"
                }
            ]
        },
        {
            "type": "error",
            "name": "ERC2981InvalidDefaultRoyaltyReceiver",
            "inputs": [
                {
                    "name": "receiver",
                    "type": "address",
                    "internalType": "address"
                }
            ]
        },
        {
            "type": "error",
            "name": "ERC2981InvalidTokenRoyalty",
            "inputs": [
                {
                    "name": "tokenId",
                    "type": "uint256",
                    "internalType": "uint256"
                },
                {
                    "name": "numerator",
                    "type": "uint256",
                    "internalType": "uint256"
                },
                {
                    "name": "denominator",
                    "type": "uint256",
                    "internalType": "uint256"
                }
            ]
        },
        {
            "type": "error",
            "name": "ERC2981InvalidTokenRoyaltyReceiver",
            "inputs": [
                {
                    "name": "tokenId",
                    "type": "uint256",
                    "internalType": "uint256"
                },
                {
                    "name": "receiver",
                    "type": "address",
                    "internalType": "address"
                }
            ]
        },
        {
            "type": "error",
            "name": "ERC721IncorrectOwner",
            "inputs": [
                {
                    "name": "sender",
                    "type": "address",
                    "internalType": "address"
                },
                {
                    "name": "tokenId",
                    "type": "uint256",
                    "internalType": "uint256"
                },
                {
                    "name": "owner",
                    "type": "address",
                    "internalType": "address"
                }
            ]
        },
        {
            "type": "error",
            "name": "ERC721InsufficientApproval",
            "inputs": [
                {
                    "name": "operator",
                    "type": "address",
                    "internalType": "address"
                },
                {
                    "name": "tokenId",
                    "type": "uint256",
                    "internalType": "uint256"
                }
            ]
        },
        {
            "type": "error",
            "name": "ERC721InvalidApprover",
            "inputs": [
                {
                    "name": "approver",
                    "type": "address",
                    "internalType": "address"
                }
            ]
        },
        {
            "type": "error",
            "name": "ERC721InvalidOperator",
            "inputs": [
                {
                    "name": "operator",
                    "type": "address",
                    "internalType": "address"
                }
            ]
        },
        {
            "type": "error",
            "name": "ERC721InvalidOwner",
            "inputs": [
                {
                    "name": "owner",
                    "type": "address",
                    "internalType": "address"
                }
            ]
        },
        {
            "type": "error",
            "name": "ERC721InvalidReceiver",
            "inputs": [
                {
                    "name": "receiver",
                    "type": "address",
                    "internalType": "address"
                }
            ]
        },
        {
            "type": "error",
            "name": "ERC721InvalidSender",
            "inputs": [
                {
                    "name": "sender",
                    "type": "address",
                    "internalType": "address"
                }
            ]
        },
        {
            "type": "error",
            "name": "ERC721NonexistentToken",
            "inputs": [
                {
                    "name": "tokenId",
                    "type": "uint256",
                    "internalType": "uint256"
                }
            ]
        },
        {
            "type": "error",
            "name": "GmFamWithCalls__AccessDenied",
            "inputs": []
        },
        {
            "type": "error",
            "name": "GmFamWithCalls__CantCallItself",
            "inputs": []
        },
        {
            "type": "error",
            "name": "GmFamWithCalls__CantDecreaseMaxSupply",
            "inputs": []
        },
        {
            "type": "error",
            "name": "GmFamWithCalls__FunctionAlreadyBlackListed",
            "inputs": []
        },
        {
            "type": "error",
            "name": "GmFamWithCalls__FunctionAlreadyWhiteListed",
            "inputs": []
        },
        {
            "type": "error",
            "name": "GmFamWithCalls__FunctionBlackListed",
            "inputs": []
        },
        {
            "type": "error",
            "name": "GmFamWithCalls__FunctionCanOnlyBeCalledByAllowedAddress",
            "inputs": []
        },
        {
            "type": "error",
            "name": "GmFamWithCalls__FunctionIsWhiteListedButNotEnoughTime",
            "inputs": []
        },
        {
            "type": "error",
            "name": "GmFamWithCalls__FunctionNotWhiteListed",
            "inputs": []
        },
        {
            "type": "error",
            "name": "GmFamWithCalls__MaxSupplyReached",
            "inputs": []
        },
        {
            "type": "error",
            "name": "GmFamWithCalls__NotEnoughFunds",
            "inputs": []
        },
        {
            "type": "error",
            "name": "GmFamWithCalls__OwnerMUSTSetUPTheReceiverContractFirst",
            "inputs": []
        },
        {
            "type": "error",
            "name": "GmFamWithCalls__OwnerMustSetTheOriginalChainReceiverContractAddres",
            "inputs": []
        },
        {
            "type": "error",
            "name": "GmFamWithCalls__ReceiverAddressAlreadySet",
            "inputs": []
        },
        {
            "type": "error",
            "name": "GmFamWithCalls__TransferFailed",
            "inputs": []
        },
        {
            "type": "error",
            "name": "GmFamWithCalls__YouAreNotTheOwner",
            "inputs": []
        },
        {
            "type": "error",
            "name": "GmFamWithCalls__YouMUSTWrapTheTokenFirst",
            "inputs": []
        }
    ],
    "bytecode": {
        "object": "0x60e0604052600d805460ff60a01b19169055600e80546001600160a01b03191690553480156200002e57600080fd5b5060405162003b1438038062003b148339810160408190526200005191620004a5565b8585600262000061838262000660565b50600362000070828262000660565b505050620000a57fb19546dff01e856fb3f010c267a7b1c60363cf8a4664e21cc89c26224620214e896200022460201b60201c565b50600c80546001600160a01b0319166001600160a01b038a8116919091179091558a81166080819052908a1660a08190526001600160401b03891660c05260405163095ea7b360e01b8152600481019290925260001960248301529063095ea7b3906044016020604051808303816000875af11580156200012a573d6000803e3d6000fd5b505050506040513d601f19601f820116820180604052508101906200015091906200072c565b5060096200015f858262000660565b50600a805460ff1916841515179055600b6200017c838262000660565b50620001893082620002d7565b60016011604051620001a5906306390c9d60e31b815260040190565b90815260408051918290036020018220805493151560ff19948516179055636a895ccb60e11b82526011600480840182905282519384900360249081018520805487166001908117909155639356be0160e01b865291850192909252915192839003019091208054909216179055506200075198505050505050505050565b60008281526008602090815260408083206001600160a01b038516845290915281205460ff16620002cd5760008381526008602090815260408083206001600160a01b03861684529091529020805460ff19166001179055620002843390565b6001600160a01b0316826001600160a01b0316847f2f8788117e7eff1d82e926ec794901d17c78024a50270940304540a733656f0d60405160405180910390a4506001620002d1565b5060005b92915050565b6127106001600160601b0382168110156200031c57604051636f483d0960e01b81526001600160601b0383166004820152602481018290526044015b60405180910390fd5b6001600160a01b0383166200034857604051635b6cc80560e11b81526000600482015260240162000313565b50604080518082019091526001600160a01b039092168083526001600160601b039091166020909201829052600160a01b90910217600055565b80516001600160a01b03811681146200039a57600080fd5b919050565b80516001600160401b03811681146200039a57600080fd5b634e487b7160e01b600052604160045260246000fd5b600082601f830112620003df57600080fd5b81516001600160401b0380821115620003fc57620003fc620003b7565b604051601f8301601f19908116603f01168101908282118183101715620004275762000427620003b7565b816040528381526020925086838588010111156200044457600080fd5b600091505b8382101562000468578582018301518183018401529082019062000449565b600093810190920192909252949350505050565b805180151581146200039a57600080fd5b80516001600160601b03811681146200039a57600080fd5b6000806000806000806000806000806101408b8d031215620004c657600080fd5b620004d18b62000382565b9950620004e160208c0162000382565b9850620004f160408c0162000382565b97506200050160608c016200039f565b60808c01519097506001600160401b03808211156200051f57600080fd5b6200052d8e838f01620003cd565b975060a08d01519150808211156200054457600080fd5b620005528e838f01620003cd565b965060c08d01519150808211156200056957600080fd5b620005778e838f01620003cd565b95506200058760e08e016200047c565b94506101008d01519150808211156200059f57600080fd5b50620005ae8d828e01620003cd565b925050620005c06101208c016200048d565b90509295989b9194979a5092959850565b600181811c90821680620005e657607f821691505b6020821081036200060757634e487b7160e01b600052602260045260246000fd5b50919050565b601f8211156200065b57600081815260208120601f850160051c81016020861015620006365750805b601f850160051c820191505b81811015620006575782815560010162000642565b5050505b505050565b81516001600160401b038111156200067c576200067c620003b7565b62000694816200068d8454620005d1565b846200060d565b602080601f831160018114620006cc5760008415620006b35750858301515b600019600386901b1c1916600185901b17855562000657565b600085815260208120601f198616915b82811015620006fd57888601518255948401946001909101908401620006dc565b50858210156200071c5787850151600019600388901b60f8161c191681555b5050505050600190811b01905550565b6000602082840312156200073f57600080fd5b6200074a826200047c565b9392505050565b60805160a05160c05161335b620007b96000396000818161055b01528181610e220152611030015260008181610d4101528181610ea501528181610f7e0152818161110601526111a5015260008181610df501528181610f4f0152611003015261335b6000f3fe6080604052600436106102765760003560e01c80638279c7db1161014f578063be23c6c4116100c1578063e58378bb1161007a578063e58378bb1461080f578063e985e9c514610831578063ed321c0c14610851578063f3bb2e7114610888578063f824083f146108a8578063fcf4f760146108c857600080fd5b8063be23c6c41461074f578063c87b56dd1461076f578063cb3f9db51461078f578063ceaa1620146107af578063d547741f146107cf578063dbb60007146107ef57600080fd5b8063a22cb46511610113578063a22cb4651461067f578063a6f9dae11461069f578063b1aa0d64146106bf578063b41d2c40146106df578063b88d4fde1461071c578063bb96e0821461073c57600080fd5b80638279c7db146105e757806391d14854146106075780639356be011461062757806395d89b4114610655578063a217fddf1461066a57600080fd5b80633c711920116101e85780635777a262116101ac5780635777a262146104ea5780636352211e14610508578063681782a51461052857806369929ee31461058757806370a08231146105a757806380965691146105c757600080fd5b80633c7119201461044c57806342842e0e1461046c57806342966c681461048c578063496bb328146104ac57806356ddf587146104ca57600080fd5b80631c35bbe51161023a5780631c35bbe51461035357806323b872dd1461036f578063248a9ca31461038f5780632a55205a146103cd5780632f2ff15d1461040c57806336568abe1461042c57600080fd5b806301ffc9a71461028257806306fdde03146102b7578063081812fc146102d9578063095ea7b314610311578063175d28da1461033357600080fd5b3661027d57005b600080fd5b34801561028e57600080fd5b506102a261029d366004612951565b6108fc565b60405190151581526020015b60405180910390f35b3480156102c357600080fd5b506102cc61090d565b6040516102ae91906129c5565b3480156102e557600080fd5b506102f96102f43660046129d8565b61099f565b6040516001600160a01b0390911681526020016102ae565b34801561031d57600080fd5b5061033161032c366004612a06565b6109c8565b005b34801561033f57600080fd5b5061033161034e366004612a32565b6109d7565b34801561035f57600080fd5b50604051600381526020016102ae565b34801561037b57600080fd5b5061033161038a366004612a5b565b610a19565b34801561039b57600080fd5b506103bf6103aa3660046129d8565b60009081526008602052604090206001015490565b6040519081526020016102ae565b3480156103d957600080fd5b506103ed6103e8366004612a9c565b610aa9565b604080516001600160a01b0390931683526020830191909152016102ae565b34801561041857600080fd5b50610331610427366004612abe565b610b55565b34801561043857600080fd5b50610331610447366004612abe565b610b7a565b34801561045857600080fd5b506102a2610467366004612b91565b610bb2565b34801561047857600080fd5b50610331610487366004612a5b565b610bdd565b34801561049857600080fd5b506103316104a73660046129d8565b610bf8565b3480156104b857600080fd5b50600c546001600160a01b03166102f9565b3480156104d657600080fd5b506103316104e5366004612bc6565b610c04565b3480156104f657600080fd5b50600d546001600160a01b03166102f9565b34801561051457600080fd5b506102f96105233660046129d8565b6110ae565b34801561053457600080fd5b50600e5460408051600181526001600160a01b03909216602083015267ffffffffffffffff7f000000000000000000000000000000000000000000000000000000000000000016908201526060016102ae565b34801561059357600080fd5b506103316105a2366004612c0d565b6110b9565b3480156105b357600080fd5b506103bf6105c2366004612c0d565b611232565b3480156105d357600080fd5b506103316105e2366004612c2a565b61127a565b3480156105f357600080fd5b50610331610602366004612c0d565b611358565b34801561061357600080fd5b506102a2610622366004612abe565b61140a565b34801561063357600080fd5b50610647610642366004612c2a565b611435565b6040516102ae929190612c71565b34801561066157600080fd5b506102cc611645565b34801561067657600080fd5b506103bf600081565b34801561068b57600080fd5b5061033161069a366004612cad565b611654565b3480156106ab57600080fd5b506103316106ba366004612c0d565b61165f565b3480156106cb57600080fd5b506103316106da366004612a06565b6116e8565b3480156106eb57600080fd5b506106ff6106fa366004612b91565b611780565b604080519283526001600160a01b039091166020830152016102ae565b34801561072857600080fd5b50610331610737366004612cdb565b6117d9565b61033161074a366004612bc6565b6117f0565b34801561075b57600080fd5b506102cc61076a366004612b91565b611954565b34801561077b57600080fd5b506102cc61078a3660046129d8565b611a9f565b34801561079b57600080fd5b506103316107aa366004612c0d565b611b20565b3480156107bb57600080fd5b506103316107ca366004612d47565b611b77565b3480156107db57600080fd5b506103316107ea366004612abe565b611bd3565b3480156107fb57600080fd5b50600e546102f9906001600160a01b031681565b34801561081b57600080fd5b506103bf60008051602061330683398151915281565b34801561083d57600080fd5b506102a261084c366004612dbf565b611bf8565b34801561085d57600080fd5b506102a261086c3660046129d8565b6000908152600f6020526040902054600160a01b900460ff1690565b34801561089457600080fd5b506103316108a3366004612b91565b611c26565b3480156108b457600080fd5b506103316108c3366004612ded565b611cd1565b3480156108d457600080fd5b506103bf7f47a82eb9b5b73b441b8cb87ac088aec65cb2b5df8599ec7a73af0e85167f375881565b600061090782611d8c565b92915050565b60606002805461091c90612e3c565b80601f016020809104026020016040519081016040528092919081815260200182805461094890612e3c565b80156109955780601f1061096a57610100808354040283529160200191610995565b820191906000526020600020905b81548152906001019060200180831161097857829003601f168201915b5050505050905090565b60006109aa82611db1565b506000828152600660205260409020546001600160a01b0316610907565b6109d3828233611dea565b5050565b6109ef6000805160206133068339815191523361140a565b610a0c57604051635c4f280b60e11b815260040160405180910390fd5b610a163082611df7565b50565b6001600160a01b038216610a4857604051633250574960e11b8152600060048201526024015b60405180910390fd5b6000610a55838333611e9a565b9050836001600160a01b0316816001600160a01b031614610aa3576040516364283d7b60e01b81526001600160a01b0380861660048301526024820184905282166044820152606401610a3f565b50505050565b60008281526001602090815260408083208151808301909252546001600160a01b038116808352600160a01b9091046001600160601b0316928201929092528291610b1e5750604080518082019091526000546001600160a01b0381168252600160a01b90046001600160601b031660208201525b602081015160009061271090610b3d906001600160601b031687612e8c565b610b479190612ea3565b915196919550909350505050565b600082815260086020526040902060010154610b7081611eaf565b610aa38383611eb9565b6001600160a01b0381163314610ba35760405163334bd91960e11b815260040160405180910390fd5b610bad8282611f4d565b505050565b6000601182604051610bc49190612ec5565b9081526040519081900360200190205460ff1692915050565b610bad838383604051806020016040528060008152506117d9565b6109d360008233611e9a565b610c0d826110ae565b6001600160a01b0316336001600160a01b031614610c3e57604051632a8bbfa760e11b815260040160405180910390fd5b6000610c4933611fba565b610c52846121a5565b83610c5c33611fba565b604051602001610c6f9493929190612ee1565b60408051808303601f1901815260a08301909152600e546001600160a01b031660c083015291506000908060e08101604051602081830303815290604052815260200183604051602401610cc391906129c5565b60408051601f19818403018152919052602080820180516001600160e01b0316634973273360e01b179052908252016000604051908082528060200260200182016040528015610d3957816020015b6040805180820190915260008082526020820152815260200190600190039081610d125790505b5081526020017f00000000000000000000000000000000000000000000000000000000000000006001600160a01b03168152602001610dd660405180604001604052806207a1208152602001600015158152506040805182516024820152602092830151151560448083019190915282518083039091018152606490910190915290810180516001600160e01b03166397a657c960e01b17905290565b90526040516320487ded60e01b81529091506000906001600160a01b037f000000000000000000000000000000000000000000000000000000000000000016906320487ded90610e4c907f0000000000000000000000000000000000000000000000000000000000000000908690600401612f87565b602060405180830381865afa158015610e69573d6000803e3d6000fd5b505050506040513d601f19601f82011682018060405250810190610e8d9190613061565b6040516370a0823160e01b81523060048201529091507f00000000000000000000000000000000000000000000000000000000000000006001600160a01b0316906370a0823190602401602060405180830381865afa158015610ef4573d6000803e3d6000fd5b505050506040513d601f19601f82011682018060405250810190610f189190613061565b811115610f385760405163ba6f044960e01b815260040160405180910390fd5b60405163095ea7b360e01b81526001600160a01b037f000000000000000000000000000000000000000000000000000000000000000081166004830152602482018390527f0000000000000000000000000000000000000000000000000000000000000000169063095ea7b3906044016020604051808303816000875af1158015610fc7573d6000803e3d6000fd5b505050506040513d601f19601f82011682018060405250810190610feb919061307a565b506040516396f4e9f960e01b81526001600160a01b037f000000000000000000000000000000000000000000000000000000000000000016906396f4e9f99061105a907f0000000000000000000000000000000000000000000000000000000000000000908690600401612f87565b6020604051808303816000875af1158015611079573d6000803e3d6000fd5b505050506040513d601f19601f8201168201806040525081019061109d9190613061565b506110a7856121b0565b5050505050565b600061090782611db1565b6110d16000805160206133068339815191523361140a565b6110ee57604051635c4f280b60e11b815260040160405180910390fd5b6040516370a0823160e01b81523060048201526000907f00000000000000000000000000000000000000000000000000000000000000006001600160a01b0316906370a0823190602401602060405180830381865afa158015611155573d6000803e3d6000fd5b505050506040513d601f19601f820116820180604052508101906111799190613061565b60405163a9059cbb60e01b81526001600160a01b038481166004830152602482018390529192506000917f0000000000000000000000000000000000000000000000000000000000000000169063a9059cbb906044016020604051808303816000875af11580156111ee573d6000803e3d6000fd5b505050506040513d601f19601f82011682018060405250810190611212919061307a565b905080610bad57604051633127b50760e21b815260040160405180910390fd5b60006001600160a01b03821661125e576040516322718ad960e21b815260006004820152602401610a3f565b506001600160a01b031660009081526005602052604090205490565b6112926000805160206133068339815191523361140a565b6112af57604051635c4f280b60e11b815260040160405180910390fd5b6010826040516112bf9190612ec5565b90815260405190819003602001902054156112ed5760405163d8fbaa7b60e01b815260040160405180910390fd5b6040518060400160405280428152602001826001600160a01b031681525060108360405161131b9190612ec5565b9081526040516020918190038201902082518155910151600190910180546001600160a01b0319166001600160a01b039092169190911790555050565b6113706000805160206133068339815191523361140a565b61138d57604051635c4f280b60e11b815260040160405180910390fd5b600d54600160a01b900460ff16156113b8576040516324ac3eeb60e11b815260040160405180910390fd5b6113e27f47a82eb9b5b73b441b8cb87ac088aec65cb2b5df8599ec7a73af0e85167f375882611eb9565b50600d80546001600160a81b0319166001600160a01b0390921691909117600160a01b179055565b60009182526008602090815260408084206001600160a01b0393909316845291905290205460ff1690565b6060806001600160a01b0383163003611461576040516378acca1560e01b815260040160405180910390fd5b600061146c85611954565b905060118160405161147e9190612ec5565b9081526040519081900360200190205460ff16156114af57604051631f2b174f60e31b815260040160405180910390fd5b6010816040516114bf9190612ec5565b908152604051908190036020019020541561157a57426010826040516114e59190612ec5565b908152604051908190036020019020546115029062015180613097565b11156115215760405163055f5af560e01b815260040160405180910390fd5b836001600160a01b031660108260405161153b9190612ec5565b908152604051908190036020019020600101546001600160a01b03161461157557604051638f9876a760e01b815260040160405180910390fd5b611593565b604051638f9876a760e01b815260040160405180910390fd5b600080856001600160a01b0316876040516115ae9190612ec5565b6000604051808303816000865af19150503d80600081146115eb576040519150601f19603f3d011682016040523d82523d6000602084013e6115f0565b606091505b5091509150816116395760405162461bcd60e51b8152602060048201526014602482015273119d5b98dd1a5bdb8818d85b1b0819985a5b195960621b6044820152606401610a3f565b96919550909350505050565b60606003805461091c90612e3c565b6109d33383836121eb565b6116776000805160206133068339815191523361140a565b61169457604051635c4f280b60e11b815260040160405180910390fd5b6116ac60008051602061330683398151915282611eb9565b506116c560008051602061330683398151915233611f4d565b50600c80546001600160a01b0319166001600160a01b0392909216919091179055565b6117006000805160206133068339815191523361140a565b61171d57604051635c4f280b60e11b815260040160405180910390fd5b8047101561173e5760405163ba6f044960e01b815260040160405180910390fd5b6040516001600160a01b0383169082156108fc029083906000818181858888f193505050506109d357604051633127b50760e21b815260040160405180910390fd5b6000806010836040516117939190612ec5565b90815260405190819003602001812054906010906117b2908690612ec5565b9081526040519081900360200190206001015490946001600160a01b039091169350915050565b6117e4848484610a19565b610aa38484848461228a565b6000828152600f6020526040902054600160a01b900460ff1661182657604051639df9ed3d60e01b815260040160405180910390fd5b6000828152600f60205260409020546001600160a01b0316331461185d57604051632a8bbfa760e11b815260040160405180910390fd5b8060405160200161186e9190612ec5565b60408051601f1981840301815282825280516020918201206000868152600f83529290922091926118a392600101910161311d565b60405160208183030381529060405280519060200120146118d757604051632a8bbfa760e11b815260040160405180910390fd5b6118e133836123ac565b604080516060810182526000808252602080830182815284518083018652838152848601908152878452600f909252939091208251815494511515600160a01b026001600160a81b03199095166001600160a01b0391909116179390931783555190919060018201906110a7908261316f565b604080516004808252818301909252606091600091906020820181803683370190505090508260008151811061198c5761198c61322f565b602001015160f81c60f81b816000815181106119aa576119aa61322f565b60200101906001600160f81b031916908160001a905350826001815181106119d4576119d461322f565b602001015160f81c60f81b816001815181106119f2576119f261322f565b60200101906001600160f81b031916908160001a90535082600281518110611a1c57611a1c61322f565b602001015160f81c60f81b81600281518110611a3a57611a3a61322f565b60200101906001600160f81b031916908160001a90535082600381518110611a6457611a6461322f565b602001015160f81c60f81b81600381518110611a8257611a8261322f565b60200101906001600160f81b031916908160001a90535092915050565b600a5460609060ff1615611b0557611ab56123c6565b611abe836123d5565b604051602001611acf929190613245565b60408051601f1981840301815290829052611aef91600b90602001613274565b6040516020818303038152906040529050919050565b611b0d6123c6565b600b604051602001611aef929190613274565b611b386000805160206133068339815191523361140a565b611b5557604051635c4f280b60e11b815260040160405180910390fd5b600e80546001600160a01b0319166001600160a01b0392909216919091179055565b611b8f6000805160206133068339815191523361140a565b611bac57604051635c4f280b60e11b815260040160405180910390fd5b6009611bb8848261316f565b50600a805460ff1916831515179055600b610aa3828261316f565b600082815260086020526040902060010154611bee81611eaf565b610aa38383611f4d565b6001600160a01b03918216600090815260076020908152604080832093909416825291909152205460ff1690565b611c3e6000805160206133068339815191523361140a565b611c5b57604051635c4f280b60e11b815260040160405180910390fd5b601181604051611c6b9190612ec5565b9081526040519081900360200190205460ff1615611c9c5760405163766d0c9960e01b815260040160405180910390fd5b6001601182604051611cae9190612ec5565b908152604051908190036020019020805491151560ff1990921691909117905550565b611cfb7f47a82eb9b5b73b441b8cb87ac088aec65cb2b5df8599ec7a73af0e85167f37583361140a565b611d1857604051635c4f280b60e11b815260040160405180910390fd5b604080516060810182526001600160a01b0380851682526001602080840182815284860187815260008a8152600f909352959091208451815492511515600160a01b026001600160a81b031990931694169390931717825592519192909190820190611d84908261316f565b505050505050565b60006001600160e01b03198216637965db0b60e01b1480610907575061090782612468565b6000818152600460205260408120546001600160a01b03168061090757604051637e27328960e01b815260048101849052602401610a3f565b610bad8383836001612473565b6127106001600160601b038216811015611e3657604051636f483d0960e01b81526001600160601b038316600482015260248101829052604401610a3f565b6001600160a01b038316611e6057604051635b6cc80560e11b815260006004820152602401610a3f565b50604080518082019091526001600160a01b039092168083526001600160601b039091166020909201829052600160a01b90910217600055565b6000611ea7848484612579565b949350505050565b610a168133612672565b6000611ec5838361140a565b611f455760008381526008602090815260408083206001600160a01b03861684529091529020805460ff19166001179055611efd3390565b6001600160a01b0316826001600160a01b0316847f2f8788117e7eff1d82e926ec794901d17c78024a50270940304540a733656f0d60405160405180910390a4506001610907565b506000610907565b6000611f59838361140a565b15611f455760008381526008602090815260408083206001600160a01b0386168085529252808320805460ff1916905551339286917ff6391f5c32d9c69d2a47ea670b442974b53935d1edc7fd64eb21e047a839171b9190a4506001610907565b604080518082018252601081526f181899199a1a9b1b9c1cb0b131b232b360811b60208201528151602a80825260608281019094526001600160a01b0385169291600091602082018180368337019050509050600360fc1b816000815181106120255761202561322f565b60200101906001600160f81b031916908160001a905350600f60fb1b816001815181106120545761205461322f565b60200101906001600160f81b031916908160001a90535060005b601481101561219c578260048561208684600c613097565b602081106120965761209661322f565b1a60f81b6001600160f81b031916901c60f81c60ff16815181106120bc576120bc61322f565b01602001516001600160f81b031916826120d7836002612e8c565b6120e2906002613097565b815181106120f2576120f261322f565b60200101906001600160f81b031916908160001a905350828461211683600c613097565b602081106121265761212661322f565b825191901a600f1690811061213d5761213d61322f565b01602001516001600160f81b03191682612158836002612e8c565b612163906003613097565b815181106121735761217361322f565b60200101906001600160f81b031916908160001a9053508061219481613292565b91505061206e565b50949350505050565b6060610907826123d5565b60006121bf6000836000611e9a565b90506001600160a01b0381166109d357604051637e27328960e01b815260048101839052602401610a3f565b6001600160a01b03821661221d57604051630b61174360e31b81526001600160a01b0383166004820152602401610a3f565b6001600160a01b03838116600081815260076020908152604080832094871680845294825291829020805460ff191686151590811790915591519182527f17307eab39ab6107e8899845ad3d59bd9653f200f220920489ca2b5937696c31910160405180910390a3505050565b6001600160a01b0383163b15610aa357604051630a85bd0160e11b81526001600160a01b0384169063150b7a02906122cc9033908890879087906004016132ab565b6020604051808303816000875af1925050508015612307575060408051601f3d908101601f19168201909252612304918101906132e8565b60015b612370573d808015612335576040519150601f19603f3d011682016040523d82523d6000602084013e61233a565b606091505b50805160000361236857604051633250574960e11b81526001600160a01b0385166004820152602401610a3f565b805181602001fd5b6001600160e01b03198116630a85bd0160e11b146110a757604051633250574960e11b81526001600160a01b0385166004820152602401610a3f565b6109d38282604051806020016040528060008152506126ab565b60606009805461091c90612e3c565b606060006123e2836126c2565b600101905060008167ffffffffffffffff81111561240257612402612aee565b6040519080825280601f01601f19166020018201604052801561242c576020820181803683370190505b5090508181016020015b600019016f181899199a1a9b1b9c1cb0b131b232b360811b600a86061a8153600a850494508461243657509392505050565b60006109078261279a565b808061248757506001600160a01b03821615155b1561254957600061249784611db1565b90506001600160a01b038316158015906124c35750826001600160a01b0316816001600160a01b031614155b80156124d657506124d48184611bf8565b155b156124ff5760405163a9fbf51f60e01b81526001600160a01b0384166004820152602401610a3f565b81156125475783856001600160a01b0316826001600160a01b03167f8c5be1e5ebec7d5bd14f71427d1e84f3dd0314c0f7b2291e5b200ac8c7c3b92560405160405180910390a45b505b5050600090815260066020526040902080546001600160a01b0319166001600160a01b0392909216919091179055565b6000828152600460205260408120546001600160a01b03908116908316156125a6576125a68184866127da565b6001600160a01b038116156125e4576125c3600085600080612473565b6001600160a01b038116600090815260056020526040902080546000190190555b6001600160a01b03851615612613576001600160a01b0385166000908152600560205260409020805460010190555b60008481526004602052604080822080546001600160a01b0319166001600160a01b0389811691821790925591518793918516917fddf252ad1be2c89b69c2b068fc378daa952ba7f163c4a11628f55a4df523b3ef91a4949350505050565b61267c828261140a565b6109d35760405163e2517d3f60e01b81526001600160a01b038216600482015260248101839052604401610a3f565b6126b5838361283e565b610bad600084848461228a565b60008072184f03e93ff9f4daa797ed6e38ed64bf6a1f0160401b83106127015772184f03e93ff9f4daa797ed6e38ed64bf6a1f0160401b830492506040015b6d04ee2d6d415b85acef8100000000831061272d576d04ee2d6d415b85acef8100000000830492506020015b662386f26fc10000831061274b57662386f26fc10000830492506010015b6305f5e1008310612763576305f5e100830492506008015b612710831061277757612710830492506004015b60648310612789576064830492506002015b600a83106109075760010192915050565b60006001600160e01b031982166380ac58cd60e01b14806127cb57506001600160e01b03198216635b5e139f60e01b145b806109075750610907826128a3565b6127e58383836128d8565b610bad576001600160a01b03831661281357604051637e27328960e01b815260048101829052602401610a3f565b60405163177e802f60e01b81526001600160a01b038316600482015260248101829052604401610a3f565b6001600160a01b03821661286857604051633250574960e11b815260006004820152602401610a3f565b600061287683836000611e9a565b90506001600160a01b03811615610bad576040516339e3563760e11b815260006004820152602401610a3f565b60006001600160e01b0319821663152a902d60e11b148061090757506301ffc9a760e01b6001600160e01b0319831614610907565b60006001600160a01b03831615801590611ea75750826001600160a01b0316846001600160a01b0316148061291257506129128484611bf8565b80611ea75750506000908152600660205260409020546001600160a01b03908116911614919050565b6001600160e01b031981168114610a1657600080fd5b60006020828403121561296357600080fd5b813561296e8161293b565b9392505050565b60005b83811015612990578181015183820152602001612978565b50506000910152565b600081518084526129b1816020860160208601612975565b601f01601f19169290920160200192915050565b60208152600061296e6020830184612999565b6000602082840312156129ea57600080fd5b5035919050565b6001600160a01b0381168114610a1657600080fd5b60008060408385031215612a1957600080fd5b8235612a24816129f1565b946020939093013593505050565b600060208284031215612a4457600080fd5b81356001600160601b038116811461296e57600080fd5b600080600060608486031215612a7057600080fd5b8335612a7b816129f1565b92506020840135612a8b816129f1565b929592945050506040919091013590565b60008060408385031215612aaf57600080fd5b50508035926020909101359150565b60008060408385031215612ad157600080fd5b823591506020830135612ae3816129f1565b809150509250929050565b634e487b7160e01b600052604160045260246000fd5b600082601f830112612b1557600080fd5b813567ffffffffffffffff80821115612b3057612b30612aee565b604051601f8301601f19908116603f01168101908282118183101715612b5857612b58612aee565b81604052838152866020858801011115612b7157600080fd5b836020870160208301376000602085830101528094505050505092915050565b600060208284031215612ba357600080fd5b813567ffffffffffffffff811115612bba57600080fd5b611ea784828501612b04565b60008060408385031215612bd957600080fd5b82359150602083013567ffffffffffffffff811115612bf757600080fd5b612c0385828601612b04565b9150509250929050565b600060208284031215612c1f57600080fd5b813561296e816129f1565b60008060408385031215612c3d57600080fd5b823567ffffffffffffffff811115612c5457600080fd5b612c6085828601612b04565b9250506020830135612ae3816129f1565b604081526000612c846040830185612999565b8281036020840152612c968185612999565b95945050505050565b8015158114610a1657600080fd5b60008060408385031215612cc057600080fd5b8235612ccb816129f1565b91506020830135612ae381612c9f565b60008060008060808587031215612cf157600080fd5b8435612cfc816129f1565b93506020850135612d0c816129f1565b925060408501359150606085013567ffffffffffffffff811115612d2f57600080fd5b612d3b87828801612b04565b91505092959194509250565b600080600060608486031215612d5c57600080fd5b833567ffffffffffffffff80821115612d7457600080fd5b612d8087838801612b04565b945060208601359150612d9282612c9f565b90925060408501359080821115612da857600080fd5b50612db586828701612b04565b9150509250925092565b60008060408385031215612dd257600080fd5b8235612ddd816129f1565b91506020830135612ae3816129f1565b600080600060608486031215612e0257600080fd5b833592506020840135612e14816129f1565b9150604084013567ffffffffffffffff811115612e3057600080fd5b612db586828701612b04565b600181811c90821680612e5057607f821691505b602082108103612e7057634e487b7160e01b600052602260045260246000fd5b50919050565b634e487b7160e01b600052601160045260246000fd5b808202811582820484141761090757610907612e76565b600082612ec057634e487b7160e01b600052601260045260246000fd5b500490565b60008251612ed7818460208701612975565b9190910192915050565b6000603d60f81b8083528651612efe816001860160208b01612975565b8084019050600b60fa1b8060018301528751612f21816002850160208c01612975565b601f60fa1b600293909101928301528651612f43816003850160208b01612975565b600392019182018190528551612f60816004850160208a01612975565b6004920191820152600360fc1b600582015260068101919091526007019695505050505050565b6000604067ffffffffffffffff8516835260208181850152845160a083860152612fb460e0860182612999565b905081860151603f1980878403016060880152612fd18383612999565b88860151888203830160808a01528051808352908601945060009350908501905b8084101561302457845180516001600160a01b0316835286015186830152938501936001939093019290860190612ff2565b5060608901516001600160a01b031660a08901526080890151888203830160c08a015295506130538187612999565b9a9950505050505050505050565b60006020828403121561307357600080fd5b5051919050565b60006020828403121561308c57600080fd5b815161296e81612c9f565b8082018082111561090757610907612e76565b600081546130b781612e3c565b600182811680156130cf57600181146130e457613113565b60ff1984168752821515830287019450613113565b8560005260208060002060005b8581101561310a5781548a8201529084019082016130f1565b50505082870194505b5050505092915050565b600061296e82846130aa565b601f821115610bad57600081815260208120601f850160051c810160208610156131505750805b601f850160051c820191505b81811015611d845782815560010161315c565b815167ffffffffffffffff81111561318957613189612aee565b61319d816131978454612e3c565b84613129565b602080601f8311600181146131d257600084156131ba5750858301515b600019600386901b1c1916600185901b178555611d84565b600085815260208120601f198616915b82811015613201578886015182559484019460019091019084016131e2565b508582101561321f5787850151600019600388901b60f8161c191681555b5050505050600190811b01905550565b634e487b7160e01b600052603260045260246000fd5b60008351613257818460208801612975565b83519083019061326b818360208801612975565b01949350505050565b60008351613286818460208801612975565b612c96818401856130aa565b6000600182016132a4576132a4612e76565b5060010190565b6001600160a01b03858116825284166020820152604081018390526080606082018190526000906132de90830184612999565b9695505050505050565b6000602082840312156132fa57600080fd5b815161296e8161293b56feb19546dff01e856fb3f010c267a7b1c60363cf8a4664e21cc89c26224620214ea264697066735822122024a9e9216a0bb2654628e918e45d0d270b3a293292c62f7a3de265ee2e60bd2664736f6c63430008140033",
        "linkReferences": {}
    },
    "methodIdentifiers": {
        "CHAINLINK_ROLE()": "fcf4f760",
        "DEFAULT_ADMIN_ROLE()": "a217fddf",
        "OWNER_ROLE()": "e58378bb",
        "OriginalChainReceiverContractAddress()": "dbb60007",
        "approve(address,uint256)": "095ea7b3",
        "balanceOf(address)": "70a08231",
        "blackListFunction(bytes)": "f3bb2e71",
        "burn(uint256)": "42966c68",
        "ccipSetMint(uint256,address,string)": "f824083f",
        "changeBaseURI(string,bool,string)": "ceaa1620",
        "changeCreatorFees(uint96)": "175d28da",
        "changeOwner(address)": "a6f9dae1",
        "crossChainSolution()": "1c35bbe5",
        "crossChainSolutionVariables()": "681782a5",
        "getApproved(uint256)": "081812fc",
        "getFuntionHash(bytes)": "be23c6c4",
        "getRoleAdmin(bytes32)": "248a9ca3",
        "goBackToOriginalCollection(uint256,string)": "56ddf587",
        "grantRole(bytes32,address)": "2f2ff15d",
        "hasRole(bytes32,address)": "91d14854",
        "isApprovedForAll(address,address)": "e985e9c5",
        "makeAlbitratyCalls(bytes,address)": "9356be01",
        "name()": "06fdde03",
        "ownerOf(uint256)": "6352211e",
        "renounceRole(bytes32,address)": "36568abe",
        "revokeRole(bytes32,address)": "d547741f",
        "royaltyInfo(uint256,uint256)": "2a55205a",
        "safeMint(uint256,string)": "bb96e082",
        "safeTransferFrom(address,address,uint256)": "42842e0e",
        "safeTransferFrom(address,address,uint256,bytes)": "b88d4fde",
        "seeIfCanMint(uint256)": "ed321c0c",
        "seeIfFunctionIsBlackListed(bytes)": "3c711920",
        "seeIfFunctionIsWhiteListedAndWhen(bytes)": "b41d2c40",
        "setApprovalForAll(address,bool)": "a22cb465",
        "setOriginalChainReceiverContractAddres(address)": "cb3f9db5",
        "setReceiverAddress(address)": "8279c7db",
        "supportsInterface(bytes4)": "01ffc9a7",
        "symbol()": "95d89b41",
        "tokenURI(uint256)": "c87b56dd",
        "transferEthFunds(address,uint256)": "b1aa0d64",
        "transferFrom(address,address,uint256)": "23b872dd",
        "viewOwnerAddress()": "496bb328",
        "viewRecieverContractAddress()": "5777a262",
        "whiteListFunction(bytes,address)": "80965691",
        "withdrawLinkFunds(address)": "69929ee3"
    },
    "id": 48
}