{
    "abi": [
        {
            "type": "constructor",
            "inputs": [
                {
                    "name": "_initialOwner",
                    "type": "address",
                    "internalType": "address"
                },
                {
                    "name": "_nftAddress",
                    "type": "address",
                    "internalType": "address"
                },
                {
                    "name": "_i_router",
                    "type": "address",
                    "internalType": "address"
                },
                {
                    "name": "_i_link",
                    "type": "address",
                    "internalType": "address"
                },
                {
                    "name": "_destinationChainSelector",
                    "type": "uint64",
                    "internalType": "uint64"
                }
            ],
            "stateMutability": "nonpayable"
        },
        {
            "type": "function",
            "name": "OriginalChain_ReceiverContractAddress",
            "inputs": [],
            "outputs": [
                {
                    "name": "",
                    "type": "address",
                    "internalType": "address"
                }
            ],
            "stateMutability": "view"
        },
        {
            "type": "function",
            "name": "VOTE_DURATION",
            "inputs": [],
            "outputs": [
                {
                    "name": "",
                    "type": "uint256",
                    "internalType": "uint256"
                }
            ],
            "stateMutability": "view"
        },
        {
            "type": "function",
            "name": "admin",
            "inputs": [],
            "outputs": [
                {
                    "name": "",
                    "type": "address",
                    "internalType": "address"
                }
            ],
            "stateMutability": "view"
        },
        {
            "type": "function",
            "name": "closeVoteForProposal",
            "inputs": [
                {
                    "name": "_idProposal",
                    "type": "uint256",
                    "internalType": "uint256"
                }
            ],
            "outputs": [],
            "stateMutability": "nonpayable"
        },
        {
            "type": "function",
            "name": "executeProposal",
            "inputs": [
                {
                    "name": "_idProposal",
                    "type": "uint256",
                    "internalType": "uint256"
                }
            ],
            "outputs": [],
            "stateMutability": "nonpayable"
        },
        {
            "type": "function",
            "name": "makeProposal",
            "inputs": [
                {
                    "name": "_name",
                    "type": "string",
                    "internalType": "string"
                },
                {
                    "name": "_description",
                    "type": "string",
                    "internalType": "string"
                },
                {
                    "name": "_isInTheOriginalChain",
                    "type": "bool",
                    "internalType": "bool"
                },
                {
                    "name": "_idProposalInTheOriginalChain",
                    "type": "uint256",
                    "internalType": "uint256"
                },
                {
                    "name": "_isBinary",
                    "type": "bool",
                    "internalType": "bool"
                },
                {
                    "name": "numberOfOptions",
                    "type": "uint256",
                    "internalType": "uint256"
                },
                {
                    "name": "_idNft",
                    "type": "uint256",
                    "internalType": "uint256"
                }
            ],
            "outputs": [],
            "stateMutability": "nonpayable"
        },
        {
            "type": "function",
            "name": "nftAddress",
            "inputs": [],
            "outputs": [
                {
                    "name": "",
                    "type": "address",
                    "internalType": "address"
                }
            ],
            "stateMutability": "view"
        },
        {
            "type": "function",
            "name": "owner",
            "inputs": [],
            "outputs": [
                {
                    "name": "",
                    "type": "address",
                    "internalType": "address"
                }
            ],
            "stateMutability": "view"
        },
        {
            "type": "function",
            "name": "proposalCount",
            "inputs": [],
            "outputs": [
                {
                    "name": "",
                    "type": "uint256",
                    "internalType": "uint256"
                }
            ],
            "stateMutability": "view"
        },
        {
            "type": "function",
            "name": "proposals",
            "inputs": [
                {
                    "name": "",
                    "type": "uint256",
                    "internalType": "uint256"
                }
            ],
            "outputs": [
                {
                    "name": "id",
                    "type": "uint256",
                    "internalType": "uint256"
                },
                {
                    "name": "nameOfTaco",
                    "type": "string",
                    "internalType": "string"
                },
                {
                    "name": "description",
                    "type": "string",
                    "internalType": "string"
                },
                {
                    "name": "orignalChainProposalId",
                    "type": "uint256",
                    "internalType": "uint256"
                },
                {
                    "name": "isBinary",
                    "type": "bool",
                    "internalType": "bool"
                },
                {
                    "name": "numberOfOptions",
                    "type": "uint256",
                    "internalType": "uint256"
                },
                {
                    "name": "votes",
                    "type": "uint256",
                    "internalType": "uint256"
                },
                {
                    "name": "endDate",
                    "type": "uint256",
                    "internalType": "uint256"
                },
                {
                    "name": "executed",
                    "type": "bool",
                    "internalType": "bool"
                },
                {
                    "name": "passed",
                    "type": "bool",
                    "internalType": "bool"
                },
                {
                    "name": "optionVoted",
                    "type": "uint256",
                    "internalType": "uint256"
                },
                {
                    "name": "isInTheOriginalChain",
                    "type": "bool",
                    "internalType": "bool"
                },
                {
                    "name": "idProposalInTheOriginalChain",
                    "type": "uint256",
                    "internalType": "uint256"
                }
            ],
            "stateMutability": "view"
        },
        {
            "type": "function",
            "name": "renounceOwnership",
            "inputs": [],
            "outputs": [],
            "stateMutability": "nonpayable"
        },
        {
            "type": "function",
            "name": "setOriginalChain_ReceiverContractAddress",
            "inputs": [
                {
                    "name": "_originalChain_ReceiverContractAddress",
                    "type": "address",
                    "internalType": "address"
                }
            ],
            "outputs": [],
            "stateMutability": "nonpayable"
        },
        {
            "type": "function",
            "name": "transferEthFunds",
            "inputs": [
                {
                    "name": "to",
                    "type": "address",
                    "internalType": "address payable"
                },
                {
                    "name": "amount",
                    "type": "uint256",
                    "internalType": "uint256"
                }
            ],
            "outputs": [],
            "stateMutability": "nonpayable"
        },
        {
            "type": "function",
            "name": "transferOwnership",
            "inputs": [
                {
                    "name": "newOwner",
                    "type": "address",
                    "internalType": "address"
                }
            ],
            "outputs": [],
            "stateMutability": "nonpayable"
        },
        {
            "type": "function",
            "name": "vote",
            "inputs": [
                {
                    "name": "_idProposal",
                    "type": "uint256",
                    "internalType": "uint256"
                },
                {
                    "name": "_option",
                    "type": "uint256",
                    "internalType": "uint256"
                },
                {
                    "name": "_idNft",
                    "type": "uint256",
                    "internalType": "uint256"
                }
            ],
            "outputs": [],
            "stateMutability": "nonpayable"
        },
        {
            "type": "function",
            "name": "withdrawLinkFunds",
            "inputs": [
                {
                    "name": "beneficiary",
                    "type": "address",
                    "internalType": "address"
                }
            ],
            "outputs": [],
            "stateMutability": "nonpayable"
        },
        {
            "type": "event",
            "name": "OwnershipTransferred",
            "inputs": [
                {
                    "name": "previousOwner",
                    "type": "address",
                    "indexed": true,
                    "internalType": "address"
                },
                {
                    "name": "newOwner",
                    "type": "address",
                    "indexed": true,
                    "internalType": "address"
                }
            ],
            "anonymous": false
        },
        {
            "type": "error",
            "name": "OwnableInvalidOwner",
            "inputs": [
                {
                    "name": "owner",
                    "type": "address",
                    "internalType": "address"
                }
            ]
        },
        {
            "type": "error",
            "name": "OwnableUnauthorizedAccount",
            "inputs": [
                {
                    "name": "account",
                    "type": "address",
                    "internalType": "address"
                }
            ]
        },
        {
            "type": "error",
            "name": "TacoDAO__NotEnoughFunds",
            "inputs": []
        },
        {
            "type": "error",
            "name": "TacoDAO__NotOwner",
            "inputs": []
        },
        {
            "type": "error",
            "name": "TacoDAO__ProposalExpired",
            "inputs": []
        },
        {
            "type": "error",
            "name": "TacoDAO__TheProposalHasAlreadyBeenExecuted",
            "inputs": []
        },
        {
            "type": "error",
            "name": "TacoDAO__TheProposalHasNotBeenExecuted",
            "inputs": []
        },
        {
            "type": "error",
            "name": "TacoDAO__TheProposalHasNotPassed",
            "inputs": []
        },
        {
            "type": "error",
            "name": "TacoDAO__TheVotePeriodHasNotExpired",
            "inputs": []
        },
        {
            "type": "error",
            "name": "TacoDAO__TransferFailed",
            "inputs": []
        }
    ],
    "bytecode": {
        "object": "0x60e06040523480156200001157600080fd5b5060405162001fae38038062001fae833981016040819052620000349162000126565b846001600160a01b0381166200006457604051631e4fbdf760e01b81526000600482015260240160405180910390fd5b6200006f81620000b9565b5060018054336001600160a01b031991821617909155600280549091166001600160a01b0395861617905591831660805290911660a0526001600160401b031660c05250620001a6565b600080546001600160a01b038381166001600160a01b0319831681178455604051919092169283917f8be0079c531659141344cd1fd0a4f28419497f9722a3daafe3b4186f6b6457e09190a35050565b80516001600160a01b03811681146200012157600080fd5b919050565b600080600080600060a086880312156200013f57600080fd5b6200014a8662000109565b94506200015a6020870162000109565b93506200016a6040870162000109565b92506200017a6060870162000109565b60808701519092506001600160401b03811681146200019857600080fd5b809150509295509295909350565b60805160a05160c051611da7620002076000396000818161068c015261089a0152600081816105ab0152818161070f015281816107e801528181610aa30152610b4201526000818161065f015281816107b9015261086d0152611da76000f3fe608060405234801561001057600080fd5b50600436106101005760003560e01c8063721a62ed11610097578063b1aa0d6411610066578063b1aa0d641461021b578063da35c6641461022e578063f2fde38b14610237578063f851a4401461024a57600080fd5b8063721a62ed146101d15780638a6655d6146101e45780638da5cb5b146101f75780639f3f39c71461020857600080fd5b80634654ff05116100d35780634654ff05146101755780635bf8633a1461018b57806369929ee3146101b6578063715018a6146101c957600080fd5b8063013cf08b1461010557806302fa82d11461013a5780630d61b5191461014f578063300d322f14610162575b600080fd5b6101186101133660046116db565b61025d565b6040516101319d9c9b9a99989796959493929190611744565b60405180910390f35b61014d6101483660046117f0565b6103dc565b005b61014d61015d3660046116db565b610406565b61014d6101703660046116db565b61092a565b61017d603c81565b604051908152602001610131565b60025461019e906001600160a01b031681565b6040516001600160a01b039091168152602001610131565b61014d6101c43660046117f0565b610a83565b61014d610bd4565b60045461019e906001600160a01b031681565b61014d6101f2366004611814565b610be8565b6000546001600160a01b031661019e565b61014d6102163660046118f1565b610dbc565b61014d610229366004611998565b6111e5565b61017d60035481565b61014d6102453660046117f0565b611254565b60015461019e906001600160a01b031681565b6005602052600090815260409020805460018201805491929161027f906119c4565b80601f01602080910402602001604051908101604052809291908181526020018280546102ab906119c4565b80156102f85780601f106102cd576101008083540402835291602001916102f8565b820191906000526020600020905b8154815290600101906020018083116102db57829003601f168201915b50505050509080600201805461030d906119c4565b80601f0160208091040260200160405190810160405280929190818152602001828054610339906119c4565b80156103865780601f1061035b57610100808354040283529160200191610386565b820191906000526020600020905b81548152906001019060200180831161036957829003601f168201915b505050600384015460048501546005860154600787015460088801546009890154600a8a0154600b8b0154600c909b0154999a969960ff968716995094975092959194818116946101009092048116939216908d565b6103e4611297565b600480546001600160a01b0319166001600160a01b0392909216919091179055565b600081815260056020526040902060090154610100900460ff1661043c57604051622b7bf960e01b815260040160405180910390fd5b60008181526005602052604090206009015460ff161561046e576040516276a5f360e51b815260040160405180910390fd5b6000818152600560205260409020600b015460ff161561090c576000818152600560205260408120600a01546104a3906112c4565b6000838152600560205260409020600301546104be906112c4565b6104c7306112d5565b6040516020016104d9939291906119fe565b60408051808303601f1901815260a083019091526004546001600160a01b031660c083015291506000908060e0810160405160208183030381529060405281526020018360405160240161052d9190611aa1565b60408051601f19818403018152919052602080820180516001600160e01b0316634973273360e01b1790529082520160006040519080825280602002602001820160405280156105a357816020015b604080518082019091526000808252602082015281526020019060019003908161057c5790505b5081526020017f00000000000000000000000000000000000000000000000000000000000000006001600160a01b0316815260200161064060405180604001604052806207a1208152602001600015158152506040805182516024820152602092830151151560448083019190915282518083039091018152606490910190915290810180516001600160e01b03166397a657c960e01b17905290565b90526040516320487ded60e01b81529091506000906001600160a01b037f000000000000000000000000000000000000000000000000000000000000000016906320487ded906106b6907f0000000000000000000000000000000000000000000000000000000000000000908690600401611ab4565b602060405180830381865afa1580156106d3573d6000803e3d6000fd5b505050506040513d601f19601f820116820180604052508101906106f79190611b8e565b6040516370a0823160e01b81523060048201529091507f00000000000000000000000000000000000000000000000000000000000000006001600160a01b0316906370a0823190602401602060405180830381865afa15801561075e573d6000803e3d6000fd5b505050506040513d601f19601f820116820180604052508101906107829190611b8e565b8111156107a257604051630989690760e21b815260040160405180910390fd5b60405163095ea7b360e01b81526001600160a01b037f000000000000000000000000000000000000000000000000000000000000000081166004830152602482018390527f0000000000000000000000000000000000000000000000000000000000000000169063095ea7b3906044016020604051808303816000875af1158015610831573d6000803e3d6000fd5b505050506040513d601f19601f820116820180604052508101906108559190611ba7565b506040516396f4e9f960e01b81526001600160a01b037f000000000000000000000000000000000000000000000000000000000000000016906396f4e9f9906108c4907f0000000000000000000000000000000000000000000000000000000000000000908690600401611ab4565b6020604051808303816000875af11580156108e3573d6000803e3d6000fd5b505050506040513d601f19601f820116820180604052508101906109079190611b8e565b505050505b6000908152600560205260409020600901805460ff19166001179055565b60008181526005602052604090206008015442101561095c57604051637ecf3dfd60e11b815260040160405180910390fd5b60008181526005602052604081206004015460ff16156109ee5760008281526005602052604090206006018054600190811061099a5761099a611bc4565b9060005260206000200154600560008481526020019081526020016000206006016000815481106109cd576109cd611bc4565b906000526020600020015411156109e657506000610a5a565b506001610a5a565b60005b60008381526005602081905260409091200154811015610a58576000838152600560205260409020600601805483919083908110610a3157610a31611bc4565b90600052602060002001541115610a46578091505b80610a5081611bf0565b9150506109f1565b505b600091825260056020526040909120600a810191909155600901805461ff001916610100179055565b610a8b611297565b6040516370a0823160e01b81523060048201526000907f00000000000000000000000000000000000000000000000000000000000000006001600160a01b0316906370a0823190602401602060405180830381865afa158015610af2573d6000803e3d6000fd5b505050506040513d601f19601f82011682018060405250810190610b169190611b8e565b60405163a9059cbb60e01b81526001600160a01b038481166004830152602482018390529192506000917f0000000000000000000000000000000000000000000000000000000000000000169063a9059cbb906044016020604051808303816000875af1158015610b8b573d6000803e3d6000fd5b505050506040513d601f19601f82011682018060405250810190610baf9190611ba7565b905080610bcf576040516379387f6160e11b815260040160405180910390fd5b505050565b610bdc611297565b610be660006114c0565b565b6002546040516331a9108f60e11b81526004810183905282916001600160a01b031690636352211e90602401602060405180830381865afa158015610c31573d6000803e3d6000fd5b505050506040513d601f19601f82011682018060405250810190610c559190611c09565b6001600160a01b0316336001600160a01b031614610c865760405163449f90d160e11b815260040160405180910390fd5b600084815260056020526040902060080154421115610cb85760405163be3ea1e160e01b815260040160405180910390fd5b60008481526005602052604090206004015460ff1615610d485782600003610d21576000848152600560205260408120600601805460019290610cfd57610cfd611bc4565b906000526020600020016000828254610d169190611c26565b90915550610d8f9050565b600084815260056020526040902060060180546001919082908110610cfd57610cfd611bc4565b600084815260056020819052604090912001548311610100576000848152600560205260409020600190600601610d7f8286611c39565b81548110610cfd57610cfd611bc4565b6000848152600560205260408120600701805460019290610db1908490611c26565b909155505050505050565b6002546040516331a9108f60e11b81526004810183905282916001600160a01b031690636352211e90602401602060405180830381865afa158015610e05573d6000803e3d6000fd5b505050506040513d601f19601f82011682018060405250810190610e299190611c09565b6001600160a01b0316336001600160a01b031614610e5a5760405163449f90d160e11b815260040160405180910390fd5b60038054906000610e6a83611bf0565b9190505550831561102b57604051806101c001604052806003548152602001898152602001888152602001868152602001851515815260200160028152602001600267ffffffffffffffff811115610ec457610ec4611840565b604051908082528060200260200182016040528015610eed578160200160208202803683370190505b50815260006020820152604001610f05603c42611c26565b8152600060208083018290526040808401839052606084018390528a1515608085015260a090930189905260035482526005815291902082518155908201516001820190610f539082611c9a565b5060408201516002820190610f689082611c9a565b5060608201516003820155608082015160048201805460ff191691151591909117905560a0820151600582015560c08201518051610fb091600684019160209091019061167b565b5060e0820151600782015561010080830151600883015561012083015160098301805461014086015161ffff1990911692151561ff00191692909217911515909202179055610160820151600a820155610180820151600b8201805460ff19169115159190911790556101a090910151600c909101556111db565b604051806101c00160405280600354815260200189815260200188815260200186815260200185151581526020018481526020018467ffffffffffffffff81111561107857611078611840565b6040519080825280602002602001820160405280156110a1578160200160208202803683370190505b508152600060208201526040016110b9603c42611c26565b8152600060208083018290526040808401839052606084018390528a1515608085015260a0909301899052600354825260058152919020825181559082015160018201906111079082611c9a565b506040820151600282019061111c9082611c9a565b5060608201516003820155608082015160048201805460ff191691151591909117905560a0820151600582015560c0820151805161116491600684019160209091019061167b565b5060e0820151600782015561010080830151600883015561012083015160098301805461014086015161ffff1990911692151561ff00191692909217911515909202179055610160820151600a820155610180820151600b8201805460ff19169115159190911790556101a090910151600c909101555b5050505050505050565b6111ed611297565b8047101561120e57604051630989690760e21b815260040160405180910390fd5b6040516001600160a01b0383169082156108fc029083906000818181858888f19350505050611250576040516379387f6160e11b815260040160405180910390fd5b5050565b61125c611297565b6001600160a01b03811661128b57604051631e4fbdf760e01b8152600060048201526024015b60405180910390fd5b611294816114c0565b50565b6000546001600160a01b03163314610be65760405163118cdaa760e01b8152336004820152602401611282565b60606112cf82611510565b92915050565b604080518082018252601081526f181899199a1a9b1b9c1cb0b131b232b360811b60208201528151602a80825260608281019094526001600160a01b0385169291600091602082018180368337019050509050600360fc1b8160008151811061134057611340611bc4565b60200101906001600160f81b031916908160001a905350600f60fb1b8160018151811061136f5761136f611bc4565b60200101906001600160f81b031916908160001a90535060005b60148110156114b757826004856113a184600c611c26565b602081106113b1576113b1611bc4565b1a60f81b6001600160f81b031916901c60f81c60ff16815181106113d7576113d7611bc4565b01602001516001600160f81b031916826113f2836002611d5a565b6113fd906002611c26565b8151811061140d5761140d611bc4565b60200101906001600160f81b031916908160001a905350828461143183600c611c26565b6020811061144157611441611bc4565b825191901a600f1690811061145857611458611bc4565b01602001516001600160f81b03191682611473836002611d5a565b61147e906003611c26565b8151811061148e5761148e611bc4565b60200101906001600160f81b031916908160001a905350806114af81611bf0565b915050611389565b50949350505050565b600080546001600160a01b038381166001600160a01b0319831681178455604051919092169283917f8be0079c531659141344cd1fd0a4f28419497f9722a3daafe3b4186f6b6457e09190a35050565b6060600061151d836115a3565b600101905060008167ffffffffffffffff81111561153d5761153d611840565b6040519080825280601f01601f191660200182016040528015611567576020820181803683370190505b5090508181016020015b600019016f181899199a1a9b1b9c1cb0b131b232b360811b600a86061a8153600a850494508461157157509392505050565b60008072184f03e93ff9f4daa797ed6e38ed64bf6a1f0160401b83106115e25772184f03e93ff9f4daa797ed6e38ed64bf6a1f0160401b830492506040015b6d04ee2d6d415b85acef8100000000831061160e576d04ee2d6d415b85acef8100000000830492506020015b662386f26fc10000831061162c57662386f26fc10000830492506010015b6305f5e1008310611644576305f5e100830492506008015b612710831061165857612710830492506004015b6064831061166a576064830492506002015b600a83106112cf5760010192915050565b8280548282559060005260206000209081019282156116b6579160200282015b828111156116b657825182559160200191906001019061169b565b506116c29291506116c6565b5090565b5b808211156116c257600081556001016116c7565b6000602082840312156116ed57600080fd5b5035919050565b60005b8381101561170f5781810151838201526020016116f7565b50506000910152565b600081518084526117308160208601602086016116f4565b601f01601f19169290920160200192915050565b8d81526101a06020820152600061175f6101a083018f611718565b8281036040840152611771818f611718565b9150508b60608301528a151560808301528960a08301528860c08301528760e08301528615156101008301526117ac61012083018715159052565b846101408301526117c261016083018515159052565b826101808301529e9d5050505050505050505050505050565b6001600160a01b038116811461129457600080fd5b60006020828403121561180257600080fd5b813561180d816117db565b9392505050565b60008060006060848603121561182957600080fd5b505081359360208301359350604090920135919050565b634e487b7160e01b600052604160045260246000fd5b600082601f83011261186757600080fd5b813567ffffffffffffffff8082111561188257611882611840565b604051601f8301601f19908116603f011681019082821181831017156118aa576118aa611840565b816040528381528660208588010111156118c357600080fd5b836020870160208301376000602085830101528094505050505092915050565b801515811461129457600080fd5b600080600080600080600060e0888a03121561190c57600080fd5b873567ffffffffffffffff8082111561192457600080fd5b6119308b838c01611856565b985060208a013591508082111561194657600080fd5b506119538a828b01611856565b9650506040880135611964816118e3565b945060608801359350608088013561197b816118e3565b9699959850939692959460a0840135945060c09093013592915050565b600080604083850312156119ab57600080fd5b82356119b6816117db565b946020939093013593505050565b600181811c908216806119d857607f821691505b6020821081036119f857634e487b7160e01b600052602260045260246000fd5b50919050565b6000603d60f81b8083528551611a1b816001860160208a016116f4565b8084019050600b60fa1b8060018301528651611a3e816002850160208b016116f4565b808301925050601f60fa1b60028301526a30785369676e617475726560a81b600383015280600e8301528551611a7b81600f850160208a016116f4565b600f920191820152600360fc1b6010820152601181019190915260120195945050505050565b60208152600061180d6020830184611718565b6000604067ffffffffffffffff8516835260208181850152845160a083860152611ae160e0860182611718565b905081860151603f1980878403016060880152611afe8383611718565b88860151888203830160808a01528051808352908601945060009350908501905b80841015611b5157845180516001600160a01b0316835286015186830152938501936001939093019290860190611b1f565b5060608901516001600160a01b031660a08901526080890151888203830160c08a01529550611b808187611718565b9a9950505050505050505050565b600060208284031215611ba057600080fd5b5051919050565b600060208284031215611bb957600080fd5b815161180d816118e3565b634e487b7160e01b600052603260045260246000fd5b634e487b7160e01b600052601160045260246000fd5b600060018201611c0257611c02611bda565b5060010190565b600060208284031215611c1b57600080fd5b815161180d816117db565b808201808211156112cf576112cf611bda565b818103818111156112cf576112cf611bda565b601f821115610bcf57600081815260208120601f850160051c81016020861015611c735750805b601f850160051c820191505b81811015611c9257828155600101611c7f565b505050505050565b815167ffffffffffffffff811115611cb457611cb4611840565b611cc881611cc284546119c4565b84611c4c565b602080601f831160018114611cfd5760008415611ce55750858301515b600019600386901b1c1916600185901b178555611c92565b600085815260208120601f198616915b82811015611d2c57888601518255948401946001909101908401611d0d565b5085821015611d4a5787850151600019600388901b60f8161c191681555b5050505050600190811b01905550565b80820281158282048414176112cf576112cf611bda56fea2646970667358221220b59e04faf389c9b5d7d5ed51d8d60af46c436f0e38d117216f890dd45a70c61d64736f6c63430008140033",
        "linkReferences": {}
    },
    "methodIdentifiers": {
        "OriginalChain_ReceiverContractAddress()": "721a62ed",
        "VOTE_DURATION()": "4654ff05",
        "admin()": "f851a440",
        "closeVoteForProposal(uint256)": "300d322f",
        "executeProposal(uint256)": "0d61b519",
        "makeProposal(string,string,bool,uint256,bool,uint256,uint256)": "9f3f39c7",
        "nftAddress()": "5bf8633a",
        "owner()": "8da5cb5b",
        "proposalCount()": "da35c664",
        "proposals(uint256)": "013cf08b",
        "renounceOwnership()": "715018a6",
        "setOriginalChain_ReceiverContractAddress(address)": "02fa82d1",
        "transferEthFunds(address,uint256)": "b1aa0d64",
        "transferOwnership(address)": "f2fde38b",
        "vote(uint256,uint256,uint256)": "8a6655d6",
        "withdrawLinkFunds(address)": "69929ee3"
    },
    "id": 50
}