{
    "abi": [
        {
            "type": "constructor",
            "inputs": [
                {
                    "name": "_initialOwner",
                    "type": "address",
                    "internalType": "address"
                },
                {
                    "name": "_nftAddress",
                    "type": "address",
                    "internalType": "address"
                }
            ],
            "stateMutability": "nonpayable"
        },
        {
            "type": "function",
            "name": "VOTE_DURATION",
            "inputs": [],
            "outputs": [
                {
                    "name": "",
                    "type": "uint256",
                    "internalType": "uint256"
                }
            ],
            "stateMutability": "view"
        },
        {
            "type": "function",
            "name": "admin",
            "inputs": [],
            "outputs": [
                {
                    "name": "",
                    "type": "address",
                    "internalType": "address"
                }
            ],
            "stateMutability": "view"
        },
        {
            "type": "function",
            "name": "closeVoteForProposal",
            "inputs": [
                {
                    "name": "_idProposal",
                    "type": "uint256",
                    "internalType": "uint256"
                }
            ],
            "outputs": [],
            "stateMutability": "nonpayable"
        },
        {
            "type": "function",
            "name": "executeProposal",
            "inputs": [
                {
                    "name": "_idProposal",
                    "type": "uint256",
                    "internalType": "uint256"
                }
            ],
            "outputs": [],
            "stateMutability": "nonpayable"
        },
        {
            "type": "function",
            "name": "makeProposal",
            "inputs": [
                {
                    "name": "_name",
                    "type": "string",
                    "internalType": "string"
                },
                {
                    "name": "_description",
                    "type": "string",
                    "internalType": "string"
                },
                {
                    "name": "_isInTheOriginalChain",
                    "type": "bool",
                    "internalType": "bool"
                },
                {
                    "name": "_idProposalInTheOriginalChain",
                    "type": "uint256",
                    "internalType": "uint256"
                },
                {
                    "name": "_isBinary",
                    "type": "bool",
                    "internalType": "bool"
                },
                {
                    "name": "numberOfOptions",
                    "type": "uint256",
                    "internalType": "uint256"
                },
                {
                    "name": "_idNft",
                    "type": "uint256",
                    "internalType": "uint256"
                }
            ],
            "outputs": [],
            "stateMutability": "nonpayable"
        },
        {
            "type": "function",
            "name": "nftAddress",
            "inputs": [],
            "outputs": [
                {
                    "name": "",
                    "type": "address",
                    "internalType": "address"
                }
            ],
            "stateMutability": "view"
        },
        {
            "type": "function",
            "name": "owner",
            "inputs": [],
            "outputs": [
                {
                    "name": "",
                    "type": "address",
                    "internalType": "address"
                }
            ],
            "stateMutability": "view"
        },
        {
            "type": "function",
            "name": "proposalCount",
            "inputs": [],
            "outputs": [
                {
                    "name": "",
                    "type": "uint256",
                    "internalType": "uint256"
                }
            ],
            "stateMutability": "view"
        },
        {
            "type": "function",
            "name": "proposals",
            "inputs": [
                {
                    "name": "",
                    "type": "uint256",
                    "internalType": "uint256"
                }
            ],
            "outputs": [
                {
                    "name": "id",
                    "type": "uint256",
                    "internalType": "uint256"
                },
                {
                    "name": "nameOfTaco",
                    "type": "string",
                    "internalType": "string"
                },
                {
                    "name": "description",
                    "type": "string",
                    "internalType": "string"
                },
                {
                    "name": "orignalChainProposalId",
                    "type": "uint256",
                    "internalType": "uint256"
                },
                {
                    "name": "isBinary",
                    "type": "bool",
                    "internalType": "bool"
                },
                {
                    "name": "numberOfOptions",
                    "type": "uint256",
                    "internalType": "uint256"
                },
                {
                    "name": "votes",
                    "type": "uint256",
                    "internalType": "uint256"
                },
                {
                    "name": "endDate",
                    "type": "uint256",
                    "internalType": "uint256"
                },
                {
                    "name": "executed",
                    "type": "bool",
                    "internalType": "bool"
                },
                {
                    "name": "passed",
                    "type": "bool",
                    "internalType": "bool"
                },
                {
                    "name": "optionVoted",
                    "type": "uint256",
                    "internalType": "uint256"
                },
                {
                    "name": "isInTheOriginalChain",
                    "type": "bool",
                    "internalType": "bool"
                },
                {
                    "name": "idProposalInTheOriginalChain",
                    "type": "uint256",
                    "internalType": "uint256"
                }
            ],
            "stateMutability": "view"
        },
        {
            "type": "function",
            "name": "renounceOwnership",
            "inputs": [],
            "outputs": [],
            "stateMutability": "nonpayable"
        },
        {
            "type": "function",
            "name": "transferEthFunds",
            "inputs": [
                {
                    "name": "to",
                    "type": "address",
                    "internalType": "address payable"
                },
                {
                    "name": "amount",
                    "type": "uint256",
                    "internalType": "uint256"
                }
            ],
            "outputs": [],
            "stateMutability": "nonpayable"
        },
        {
            "type": "function",
            "name": "transferOwnership",
            "inputs": [
                {
                    "name": "newOwner",
                    "type": "address",
                    "internalType": "address"
                }
            ],
            "outputs": [],
            "stateMutability": "nonpayable"
        },
        {
            "type": "function",
            "name": "vote",
            "inputs": [
                {
                    "name": "_idProposal",
                    "type": "uint256",
                    "internalType": "uint256"
                },
                {
                    "name": "_option",
                    "type": "uint256",
                    "internalType": "uint256"
                },
                {
                    "name": "_idNft",
                    "type": "uint256",
                    "internalType": "uint256"
                }
            ],
            "outputs": [],
            "stateMutability": "nonpayable"
        },
        {
            "type": "event",
            "name": "OwnershipTransferred",
            "inputs": [
                {
                    "name": "previousOwner",
                    "type": "address",
                    "indexed": true,
                    "internalType": "address"
                },
                {
                    "name": "newOwner",
                    "type": "address",
                    "indexed": true,
                    "internalType": "address"
                }
            ],
            "anonymous": false
        },
        {
            "type": "error",
            "name": "OwnableInvalidOwner",
            "inputs": [
                {
                    "name": "owner",
                    "type": "address",
                    "internalType": "address"
                }
            ]
        },
        {
            "type": "error",
            "name": "OwnableUnauthorizedAccount",
            "inputs": [
                {
                    "name": "account",
                    "type": "address",
                    "internalType": "address"
                }
            ]
        },
        {
            "type": "error",
            "name": "TacoDAO__NotEnoughFunds",
            "inputs": []
        },
        {
            "type": "error",
            "name": "TacoDAO__NotOwner",
            "inputs": []
        },
        {
            "type": "error",
            "name": "TacoDAO__ProposalExpired",
            "inputs": []
        },
        {
            "type": "error",
            "name": "TacoDAO__TheProposalHasAlreadyBeenExecuted",
            "inputs": []
        },
        {
            "type": "error",
            "name": "TacoDAO__TheProposalHasNotBeenExecuted",
            "inputs": []
        },
        {
            "type": "error",
            "name": "TacoDAO__TheProposalHasNotPassed",
            "inputs": []
        },
        {
            "type": "error",
            "name": "TacoDAO__TheVotePeriodHasNotExpired",
            "inputs": []
        },
        {
            "type": "error",
            "name": "TacoDAO__TransferFailed",
            "inputs": []
        }
    ],
    "bytecode": {
        "object": "0x608060405234801561001057600080fd5b506040516200132b3803806200132b8339810160408190526100319161010a565b816001600160a01b03811661006057604051631e4fbdf760e01b81526000600482015260240160405180910390fd5b6100698161009e565b5060018054336001600160a01b031991821617909155600280549091166001600160a01b03929092169190911790555061013d565b600080546001600160a01b038381166001600160a01b0319831681178455604051919092169283917f8be0079c531659141344cd1fd0a4f28419497f9722a3daafe3b4186f6b6457e09190a35050565b80516001600160a01b038116811461010557600080fd5b919050565b6000806040838503121561011d57600080fd5b610126836100ee565b9150610134602084016100ee565b90509250929050565b6111de806200014d6000396000f3fe608060405234801561001057600080fd5b50600436106100cf5760003560e01c80638a6655d61161008c578063b1aa0d6411610066578063b1aa0d64146101b1578063da35c664146101c4578063f2fde38b146101cd578063f851a440146101e057600080fd5b80638a6655d61461017a5780638da5cb5b1461018d5780639f3f39c71461019e57600080fd5b8063013cf08b146100d45780630d61b51914610109578063300d322f1461011e5780634654ff05146101315780635bf8633a14610147578063715018a614610172575b600080fd5b6100e76100e2366004610cf0565b6101f3565b6040516101009d9c9b9a99989796959493929190610d4f565b60405180910390f35b61011c610117366004610cf0565b610372565b005b61011c61012c366004610cf0565b6103f8565b610139603c81565b604051908152602001610100565b60025461015a906001600160a01b031681565b6040516001600160a01b039091168152602001610100565b61011c610550565b61011c610188366004610de6565b610564565b6000546001600160a01b031661015a565b61011c6101ac366004610eca565b610738565b61011c6101bf366004610f81565b610b61565b61013960035481565b61011c6101db366004610fad565b610bd0565b60015461015a906001600160a01b031681565b6004602052600090815260409020805460018201805491929161021590610fd1565b80601f016020809104026020016040519081016040528092919081815260200182805461024190610fd1565b801561028e5780601f106102635761010080835404028352916020019161028e565b820191906000526020600020905b81548152906001019060200180831161027157829003601f168201915b5050505050908060020180546102a390610fd1565b80601f01602080910402602001604051908101604052809291908181526020018280546102cf90610fd1565b801561031c5780601f106102f15761010080835404028352916020019161031c565b820191906000526020600020905b8154815290600101906020018083116102ff57829003601f168201915b505050600384015460048501546005860154600787015460088801546009890154600a8a0154600b8b0154600c909b0154999a969960ff968716995094975092959194818116946101009092048116939216908d565b600081815260046020526040902060090154610100900460ff166103a857604051622b7bf960e01b815260040160405180910390fd5b60008181526004602052604090206009015460ff16156103da576040516276a5f360e51b815260040160405180910390fd5b6000908152600460205260409020600901805460ff19166001179055565b60008181526004602052604090206008015442101561042a57604051637ecf3dfd60e11b815260040160405180910390fd5b60008181526004602081905260408220015460ff16156104bc576000828152600460205260409020600601805460019081106104685761046861100b565b90600052602060002001546004600084815260200190815260200160002060060160008154811061049b5761049b61100b565b906000526020600020015411156104b457506000610527565b506001610527565b60005b6000838152600460205260409020600501548110156105255760008381526004602052604090206006018054839190839081106104fe576104fe61100b565b90600052602060002001541115610513578091505b8061051d81611037565b9150506104bf565b505b600091825260046020526040909120600a810191909155600901805461ff001916610100179055565b610558610c13565b6105626000610c40565b565b6002546040516331a9108f60e11b81526004810183905282916001600160a01b031690636352211e90602401602060405180830381865afa1580156105ad573d6000803e3d6000fd5b505050506040513d601f19601f820116820180604052508101906105d19190611050565b6001600160a01b0316336001600160a01b0316146106025760405163449f90d160e11b815260040160405180910390fd5b6000848152600460205260409020600801544211156106345760405163be3ea1e160e01b815260040160405180910390fd5b6000848152600460208190526040909120015460ff16156106c5578260000361069e57600084815260046020526040812060060180546001929061067a5761067a61100b565b906000526020600020016000828254610693919061106d565b9091555061070b9050565b60008481526004602052604090206006018054600191908290811061067a5761067a61100b565b60008481526004602052604090206005015483116100cf5760008481526004602052604090206001906006016106fb8286611086565b8154811061067a5761067a61100b565b600084815260046020526040812060070180546001929061072d90849061106d565b909155505050505050565b6002546040516331a9108f60e11b81526004810183905282916001600160a01b031690636352211e90602401602060405180830381865afa158015610781573d6000803e3d6000fd5b505050506040513d601f19601f820116820180604052508101906107a59190611050565b6001600160a01b0316336001600160a01b0316146107d65760405163449f90d160e11b815260040160405180910390fd5b600380549060006107e683611037565b919050555083156109a757604051806101c001604052806003548152602001898152602001888152602001868152602001851515815260200160028152602001600267ffffffffffffffff81111561084057610840610e12565b604051908082528060200260200182016040528015610869578160200160208202803683370190505b50815260006020820152604001610881603c4261106d565b8152600060208083018290526040808401839052606084018390528a1515608085015260a0909301899052600354825260048152919020825181559082015160018201906108cf90826110e8565b50604082015160028201906108e490826110e8565b5060608201516003820155608082015160048201805460ff191691151591909117905560a0820151600582015560c0820151805161092c916006840191602090910190610c90565b5060e0820151600782015561010080830151600883015561012083015160098301805461014086015161ffff1990911692151561ff00191692909217911515909202179055610160820151600a820155610180820151600b8201805460ff19169115159190911790556101a090910151600c90910155610b57565b604051806101c00160405280600354815260200189815260200188815260200186815260200185151581526020018481526020018467ffffffffffffffff8111156109f4576109f4610e12565b604051908082528060200260200182016040528015610a1d578160200160208202803683370190505b50815260006020820152604001610a35603c4261106d565b8152600060208083018290526040808401839052606084018390528a1515608085015260a090930189905260035482526004815291902082518155908201516001820190610a8390826110e8565b5060408201516002820190610a9890826110e8565b5060608201516003820155608082015160048201805460ff191691151591909117905560a0820151600582015560c08201518051610ae0916006840191602090910190610c90565b5060e0820151600782015561010080830151600883015561012083015160098301805461014086015161ffff1990911692151561ff00191692909217911515909202179055610160820151600a820155610180820151600b8201805460ff19169115159190911790556101a090910151600c909101555b5050505050505050565b610b69610c13565b80471015610b8a57604051630989690760e21b815260040160405180910390fd5b6040516001600160a01b0383169082156108fc029083906000818181858888f19350505050610bcc576040516379387f6160e11b815260040160405180910390fd5b5050565b610bd8610c13565b6001600160a01b038116610c0757604051631e4fbdf760e01b8152600060048201526024015b60405180910390fd5b610c1081610c40565b50565b6000546001600160a01b031633146105625760405163118cdaa760e01b8152336004820152602401610bfe565b600080546001600160a01b038381166001600160a01b0319831681178455604051919092169283917f8be0079c531659141344cd1fd0a4f28419497f9722a3daafe3b4186f6b6457e09190a35050565b828054828255906000526020600020908101928215610ccb579160200282015b82811115610ccb578251825591602001919060010190610cb0565b50610cd7929150610cdb565b5090565b5b80821115610cd75760008155600101610cdc565b600060208284031215610d0257600080fd5b5035919050565b6000815180845260005b81811015610d2f57602081850181015186830182015201610d13565b506000602082860101526020601f19601f83011685010191505092915050565b8d81526101a060208201526000610d6a6101a083018f610d09565b8281036040840152610d7c818f610d09565b9150508b60608301528a151560808301528960a08301528860c08301528760e0830152861515610100830152610db761012083018715159052565b84610140830152610dcd61016083018515159052565b826101808301529e9d5050505050505050505050505050565b600080600060608486031215610dfb57600080fd5b505081359360208301359350604090920135919050565b634e487b7160e01b600052604160045260246000fd5b600082601f830112610e3957600080fd5b813567ffffffffffffffff80821115610e5457610e54610e12565b604051601f8301601f19908116603f01168101908282118183101715610e7c57610e7c610e12565b81604052838152866020858801011115610e9557600080fd5b836020870160208301376000602085830101528094505050505092915050565b80358015158114610ec557600080fd5b919050565b600080600080600080600060e0888a031215610ee557600080fd5b873567ffffffffffffffff80821115610efd57600080fd5b610f098b838c01610e28565b985060208a0135915080821115610f1f57600080fd5b50610f2c8a828b01610e28565b965050610f3b60408901610eb5565b945060608801359350610f5060808901610eb5565b925060a0880135915060c0880135905092959891949750929550565b6001600160a01b0381168114610c1057600080fd5b60008060408385031215610f9457600080fd5b8235610f9f81610f6c565b946020939093013593505050565b600060208284031215610fbf57600080fd5b8135610fca81610f6c565b9392505050565b600181811c90821680610fe557607f821691505b60208210810361100557634e487b7160e01b600052602260045260246000fd5b50919050565b634e487b7160e01b600052603260045260246000fd5b634e487b7160e01b600052601160045260246000fd5b60006001820161104957611049611021565b5060010190565b60006020828403121561106257600080fd5b8151610fca81610f6c565b8082018082111561108057611080611021565b92915050565b8181038181111561108057611080611021565b601f8211156110e357600081815260208120601f850160051c810160208610156110c05750805b601f850160051c820191505b818110156110df578281556001016110cc565b5050505b505050565b815167ffffffffffffffff81111561110257611102610e12565b611116816111108454610fd1565b84611099565b602080601f83116001811461114b57600084156111335750858301515b600019600386901b1c1916600185901b1785556110df565b600085815260208120601f198616915b8281101561117a5788860151825594840194600190910190840161115b565b50858210156111985787850151600019600388901b60f8161c191681555b5050505050600190811b0190555056fea264697066735822122057a06d4313d737695fc4a640df6da38a5802bbe19de6229d57f3124352809bbc64736f6c63430008140033",
        "linkReferences": {}
    },
    "methodIdentifiers": {
        "VOTE_DURATION()": "4654ff05",
        "admin()": "f851a440",
        "closeVoteForProposal(uint256)": "300d322f",
        "executeProposal(uint256)": "0d61b519",
        "makeProposal(string,string,bool,uint256,bool,uint256,uint256)": "9f3f39c7",
        "nftAddress()": "5bf8633a",
        "owner()": "8da5cb5b",
        "proposalCount()": "da35c664",
        "proposals(uint256)": "013cf08b",
        "renounceOwnership()": "715018a6",
        "transferEthFunds(address,uint256)": "b1aa0d64",
        "transferOwnership(address)": "f2fde38b",
        "vote(uint256,uint256,uint256)": "8a6655d6"
    },
    "id": 54
}