{
    "abi": [
        {
            "type": "constructor",
            "inputs": [
                {
                    "name": "_routerContractAddress",
                    "type": "address",
                    "internalType": "address"
                },
                {
                    "name": "_linkTokenAddress",
                    "type": "address",
                    "internalType": "address"
                },
                {
                    "name": "_initialOwner",
                    "type": "address",
                    "internalType": "address"
                },
                {
                    "name": "_oldContract",
                    "type": "address",
                    "internalType": "address"
                },
                {
                    "name": "_costPerMint",
                    "type": "uint256",
                    "internalType": "uint256"
                },
                {
                    "name": "_maxTokens",
                    "type": "uint256",
                    "internalType": "uint256"
                },
                {
                    "name": "_destinationChainSelector",
                    "type": "uint64",
                    "internalType": "uint64"
                },
                {
                    "name": "_tacoDaoAddress",
                    "type": "address",
                    "internalType": "address"
                }
            ],
            "stateMutability": "nonpayable"
        },
        {
            "type": "receive",
            "stateMutability": "payable"
        },
        {
            "type": "function",
            "name": "CHAINLINK_ROLE",
            "inputs": [],
            "outputs": [
                {
                    "name": "",
                    "type": "bytes32",
                    "internalType": "bytes32"
                }
            ],
            "stateMutability": "view"
        },
        {
            "type": "function",
            "name": "DEFAULT_ADMIN_ROLE",
            "inputs": [],
            "outputs": [
                {
                    "name": "",
                    "type": "bytes32",
                    "internalType": "bytes32"
                }
            ],
            "stateMutability": "view"
        },
        {
            "type": "function",
            "name": "NewChainReceiverContractAddress",
            "inputs": [],
            "outputs": [
                {
                    "name": "",
                    "type": "address",
                    "internalType": "address"
                }
            ],
            "stateMutability": "view"
        },
        {
            "type": "function",
            "name": "OWNER_ROLE",
            "inputs": [],
            "outputs": [
                {
                    "name": "",
                    "type": "bytes32",
                    "internalType": "bytes32"
                }
            ],
            "stateMutability": "view"
        },
        {
            "type": "function",
            "name": "ccipSetIdToMakeAVote",
            "inputs": [
                {
                    "name": "proposalID",
                    "type": "uint256",
                    "internalType": "uint256"
                },
                {
                    "name": "optionVote",
                    "type": "uint256",
                    "internalType": "uint256"
                }
            ],
            "outputs": [],
            "stateMutability": "nonpayable"
        },
        {
            "type": "function",
            "name": "ccipSetIdToUnwrap",
            "inputs": [
                {
                    "name": "_tokenId",
                    "type": "uint256",
                    "internalType": "uint256"
                },
                {
                    "name": "_owner",
                    "type": "address",
                    "internalType": "address"
                },
                {
                    "name": "_signature",
                    "type": "string",
                    "internalType": "string"
                }
            ],
            "outputs": [],
            "stateMutability": "nonpayable"
        },
        {
            "type": "function",
            "name": "changeCost",
            "inputs": [
                {
                    "name": "newCost",
                    "type": "uint256",
                    "internalType": "uint256"
                }
            ],
            "outputs": [],
            "stateMutability": "nonpayable"
        },
        {
            "type": "function",
            "name": "changeMaxTokens",
            "inputs": [
                {
                    "name": "newMaxTokens",
                    "type": "uint256",
                    "internalType": "uint256"
                }
            ],
            "outputs": [],
            "stateMutability": "nonpayable"
        },
        {
            "type": "function",
            "name": "changeOwner",
            "inputs": [
                {
                    "name": "newOwner",
                    "type": "address",
                    "internalType": "address"
                }
            ],
            "outputs": [],
            "stateMutability": "nonpayable"
        },
        {
            "type": "function",
            "name": "crossChainSolution",
            "inputs": [],
            "outputs": [
                {
                    "name": "",
                    "type": "uint8",
                    "internalType": "uint8"
                }
            ],
            "stateMutability": "pure"
        },
        {
            "type": "function",
            "name": "crossChainSolutionVariables",
            "inputs": [],
            "outputs": [
                {
                    "name": "",
                    "type": "bool",
                    "internalType": "bool"
                },
                {
                    "name": "",
                    "type": "address",
                    "internalType": "address"
                },
                {
                    "name": "",
                    "type": "address",
                    "internalType": "address"
                },
                {
                    "name": "",
                    "type": "uint64",
                    "internalType": "uint64"
                }
            ],
            "stateMutability": "view"
        },
        {
            "type": "function",
            "name": "getRoleAdmin",
            "inputs": [
                {
                    "name": "role",
                    "type": "bytes32",
                    "internalType": "bytes32"
                }
            ],
            "outputs": [
                {
                    "name": "",
                    "type": "bytes32",
                    "internalType": "bytes32"
                }
            ],
            "stateMutability": "view"
        },
        {
            "type": "function",
            "name": "grantRole",
            "inputs": [
                {
                    "name": "role",
                    "type": "bytes32",
                    "internalType": "bytes32"
                },
                {
                    "name": "account",
                    "type": "address",
                    "internalType": "address"
                }
            ],
            "outputs": [],
            "stateMutability": "nonpayable"
        },
        {
            "type": "function",
            "name": "hasRole",
            "inputs": [
                {
                    "name": "role",
                    "type": "bytes32",
                    "internalType": "bytes32"
                },
                {
                    "name": "account",
                    "type": "address",
                    "internalType": "address"
                }
            ],
            "outputs": [
                {
                    "name": "",
                    "type": "bool",
                    "internalType": "bool"
                }
            ],
            "stateMutability": "view"
        },
        {
            "type": "function",
            "name": "makeVote",
            "inputs": [
                {
                    "name": "proposalID",
                    "type": "uint256",
                    "internalType": "uint256"
                },
                {
                    "name": "nftID",
                    "type": "uint256",
                    "internalType": "uint256"
                }
            ],
            "outputs": [],
            "stateMutability": "nonpayable"
        },
        {
            "type": "function",
            "name": "passMint",
            "inputs": [
                {
                    "name": "tokenID",
                    "type": "uint256",
                    "internalType": "uint256"
                },
                {
                    "name": "_signature",
                    "type": "string",
                    "internalType": "string"
                }
            ],
            "outputs": [],
            "stateMutability": "payable"
        },
        {
            "type": "function",
            "name": "renounceRole",
            "inputs": [
                {
                    "name": "role",
                    "type": "bytes32",
                    "internalType": "bytes32"
                },
                {
                    "name": "callerConfirmation",
                    "type": "address",
                    "internalType": "address"
                }
            ],
            "outputs": [],
            "stateMutability": "nonpayable"
        },
        {
            "type": "function",
            "name": "revokeRole",
            "inputs": [
                {
                    "name": "role",
                    "type": "bytes32",
                    "internalType": "bytes32"
                },
                {
                    "name": "account",
                    "type": "address",
                    "internalType": "address"
                }
            ],
            "outputs": [],
            "stateMutability": "nonpayable"
        },
        {
            "type": "function",
            "name": "seeIfCanUnwrap",
            "inputs": [
                {
                    "name": "_tokenId",
                    "type": "uint256",
                    "internalType": "uint256"
                }
            ],
            "outputs": [
                {
                    "name": "",
                    "type": "bool",
                    "internalType": "bool"
                }
            ],
            "stateMutability": "view"
        },
        {
            "type": "function",
            "name": "seeIfCanVote",
            "inputs": [
                {
                    "name": "proposalID",
                    "type": "uint256",
                    "internalType": "uint256"
                }
            ],
            "outputs": [
                {
                    "name": "",
                    "type": "bool",
                    "internalType": "bool"
                }
            ],
            "stateMutability": "view"
        },
        {
            "type": "function",
            "name": "setNewChainReceiverContractAddress",
            "inputs": [
                {
                    "name": "_NewChainReceiverContractAddress",
                    "type": "address",
                    "internalType": "address"
                }
            ],
            "outputs": [],
            "stateMutability": "nonpayable"
        },
        {
            "type": "function",
            "name": "setReceiverAddress",
            "inputs": [
                {
                    "name": "_receiverAddress",
                    "type": "address",
                    "internalType": "address"
                },
                {
                    "name": "_receiverAddressForDAO",
                    "type": "address",
                    "internalType": "address"
                }
            ],
            "outputs": [],
            "stateMutability": "nonpayable"
        },
        {
            "type": "function",
            "name": "supportsInterface",
            "inputs": [
                {
                    "name": "interfaceId",
                    "type": "bytes4",
                    "internalType": "bytes4"
                }
            ],
            "outputs": [
                {
                    "name": "",
                    "type": "bool",
                    "internalType": "bool"
                }
            ],
            "stateMutability": "view"
        },
        {
            "type": "function",
            "name": "transferEthFunds",
            "inputs": [
                {
                    "name": "beneficiary",
                    "type": "address",
                    "internalType": "address payable"
                },
                {
                    "name": "amount",
                    "type": "uint256",
                    "internalType": "uint256"
                }
            ],
            "outputs": [],
            "stateMutability": "nonpayable"
        },
        {
            "type": "function",
            "name": "viewOwnerAddress",
            "inputs": [],
            "outputs": [
                {
                    "name": "",
                    "type": "address",
                    "internalType": "address"
                }
            ],
            "stateMutability": "view"
        },
        {
            "type": "function",
            "name": "viewRecieverContractAddress",
            "inputs": [],
            "outputs": [
                {
                    "name": "",
                    "type": "address",
                    "internalType": "address"
                }
            ],
            "stateMutability": "view"
        },
        {
            "type": "function",
            "name": "withdrawLinkFunds",
            "inputs": [
                {
                    "name": "beneficiary",
                    "type": "address",
                    "internalType": "address"
                }
            ],
            "outputs": [],
            "stateMutability": "nonpayable"
        },
        {
            "type": "function",
            "name": "withdrawMyToken",
            "inputs": [
                {
                    "name": "_tokenId",
                    "type": "uint256",
                    "internalType": "uint256"
                },
                {
                    "name": "_signature",
                    "type": "string",
                    "internalType": "string"
                }
            ],
            "outputs": [],
            "stateMutability": "nonpayable"
        },
        {
            "type": "event",
            "name": "RoleAdminChanged",
            "inputs": [
                {
                    "name": "role",
                    "type": "bytes32",
                    "indexed": true,
                    "internalType": "bytes32"
                },
                {
                    "name": "previousAdminRole",
                    "type": "bytes32",
                    "indexed": true,
                    "internalType": "bytes32"
                },
                {
                    "name": "newAdminRole",
                    "type": "bytes32",
                    "indexed": true,
                    "internalType": "bytes32"
                }
            ],
            "anonymous": false
        },
        {
            "type": "event",
            "name": "RoleGranted",
            "inputs": [
                {
                    "name": "role",
                    "type": "bytes32",
                    "indexed": true,
                    "internalType": "bytes32"
                },
                {
                    "name": "account",
                    "type": "address",
                    "indexed": true,
                    "internalType": "address"
                },
                {
                    "name": "sender",
                    "type": "address",
                    "indexed": true,
                    "internalType": "address"
                }
            ],
            "anonymous": false
        },
        {
            "type": "event",
            "name": "RoleRevoked",
            "inputs": [
                {
                    "name": "role",
                    "type": "bytes32",
                    "indexed": true,
                    "internalType": "bytes32"
                },
                {
                    "name": "account",
                    "type": "address",
                    "indexed": true,
                    "internalType": "address"
                },
                {
                    "name": "sender",
                    "type": "address",
                    "indexed": true,
                    "internalType": "address"
                }
            ],
            "anonymous": false
        },
        {
            "type": "error",
            "name": "AccessControlBadConfirmation",
            "inputs": []
        },
        {
            "type": "error",
            "name": "AccessControlUnauthorizedAccount",
            "inputs": [
                {
                    "name": "account",
                    "type": "address",
                    "internalType": "address"
                },
                {
                    "name": "neededRole",
                    "type": "bytes32",
                    "internalType": "bytes32"
                }
            ]
        },
        {
            "type": "error",
            "name": "GmFamTreasuryAndWraper__AccessDenied",
            "inputs": []
        },
        {
            "type": "error",
            "name": "GmFamTreasuryAndWraper__MaxSupplyReached",
            "inputs": []
        },
        {
            "type": "error",
            "name": "GmFamTreasuryAndWraper__NotEnoughFunds",
            "inputs": []
        },
        {
            "type": "error",
            "name": "GmFamTreasuryAndWraper__OwnerMUSTSetUPTheReceiverContractFirst",
            "inputs": []
        },
        {
            "type": "error",
            "name": "GmFamTreasuryAndWraper__OwnerMustSetTheNewChainReceiverContractAddress",
            "inputs": []
        },
        {
            "type": "error",
            "name": "GmFamTreasuryAndWraper__ReceiverAddressAlreadySet",
            "inputs": []
        },
        {
            "type": "error",
            "name": "GmFamTreasuryAndWraper__TheDaoHasNotVotedYet",
            "inputs": []
        },
        {
            "type": "error",
            "name": "GmFamTreasuryAndWraper__TheProposalHasAlreadyBeenExecuted",
            "inputs": []
        },
        {
            "type": "error",
            "name": "GmFamTreasuryAndWraper__TransferFailed",
            "inputs": []
        },
        {
            "type": "error",
            "name": "GmFamTreasuryAndWraper__YouAreNotTheOwner",
            "inputs": []
        },
        {
            "type": "error",
            "name": "GmFamTreasuryAndWraper__YouMUSTPayForMint",
            "inputs": []
        },
        {
            "type": "error",
            "name": "GmFamTreasuryAndWraper__YouMUSTUnwrapTheTokenFirst",
            "inputs": []
        },
        {
            "type": "error",
            "name": "GmFamTreasuryAndWraper__YouMUSTWrapTheTokenFirst",
            "inputs": []
        }
    ],
    "bytecode": {
        "object": "0x60e06040526008805460ff60a01b19169055600980546001600160a01b03191690553480156200002e57600080fd5b50604051620024eb380380620024eb833981016040819052620000519162000235565b6200007d7fb19546dff01e856fb3f010c267a7b1c60363cf8a4664e21cc89c26224620214e8762000169565b50600680546001600160a01b0319166001600160a01b0388811691909117909155888116608081905290881660a08190526001600160401b03841660c05260405163095ea7b360e01b8152600481019290925260001960248301529063095ea7b3906044016020604051808303816000875af115801562000102573d6000803e3d6000fd5b505050506040513d601f19601f82011682018060405250810190620001289190620002da565b5060029390935550600355600480546001600160a01b039384166001600160a01b031991821617909155600180549290931691161790555062000305915050565b6000828152602081815260408083206001600160a01b038516845290915281205460ff166200020e576000838152602081815260408083206001600160a01b03861684529091529020805460ff19166001179055620001c53390565b6001600160a01b0316826001600160a01b0316847f2f8788117e7eff1d82e926ec794901d17c78024a50270940304540a733656f0d60405160405180910390a450600162000212565b5060005b92915050565b80516001600160a01b03811681146200023057600080fd5b919050565b600080600080600080600080610100898b0312156200025357600080fd5b6200025e8962000218565b97506200026e60208a0162000218565b96506200027e60408a0162000218565b95506200028e60608a0162000218565b60808a015160a08b015160c08c015192975090955093506001600160401b0381168114620002bb57600080fd5b9150620002cb60e08a0162000218565b90509295985092959890939650565b600060208284031215620002ed57600080fd5b81518015158114620002fe57600080fd5b9392505050565b60805160a05160c05161217e6200036d600039600081816103b901528181610bc20152610dd0015260008181610ae101528181610c4501528181610d1e01528181610ee10152610f80015260008181610b9501528181610cef0152610da3015261217e6000f3fe6080604052600436106101bb5760003560e01c806391d14854116100ec578063debc68171161008a578063e58378bb11610064578063e58378bb14610552578063e730a8c714610574578063fa86811c14610594578063fcf4f760146105c757600080fd5b8063debc6817146104f2578063e395819014610512578063e47eaae41461053257600080fd5b8063a6f9dae1116100c6578063a6f9dae114610472578063b1aa0d6414610492578063bcd4ce2a146104b2578063d547741f146104d257600080fd5b806391d14854146104065780639bc3a5ef14610426578063a217fddf1461045d57600080fd5b8063496bb328116101595780635777a262116101335780635777a2621461033d5780635cb85cd21461035b578063681782a51461037b57806369929ee3146103e657600080fd5b8063496bb328146102d85780634f01541e1461030a578063536257a81461032a57600080fd5b80631c35bbe5116101955780631c35bbe51461023e578063248a9ca31461025a5780632f2ff15d1461029857806336568abe146102b857600080fd5b80630127c6d0146101c757806301ffc9a7146101e95780630b84c1611461021e57600080fd5b366101c257005b600080fd5b3480156101d357600080fd5b506101e76101e2366004611ace565b6105e9565b005b3480156101f557600080fd5b50610209610204366004611b27565b610692565b60405190151581526020015b60405180910390f35b34801561022a57600080fd5b506101e7610239366004611b58565b6106c9565b34801561024a57600080fd5b5060405160038152602001610215565b34801561026657600080fd5b5061028a610275366004611b75565b60009081526020819052604090206001015490565b604051908152602001610215565b3480156102a457600080fd5b506101e76102b3366004611b8e565b610720565b3480156102c457600080fd5b506101e76102d3366004611b8e565b61074b565b3480156102e457600080fd5b506006546001600160a01b03165b6040516001600160a01b039091168152602001610215565b34801561031657600080fd5b506101e7610325366004611bbe565b610783565b6101e7610338366004611bec565b610850565b34801561034957600080fd5b506007546001600160a01b03166102f2565b34801561036757600080fd5b506101e7610376366004611b75565b610e5a565b34801561038757600080fd5b5060095460085460408051600081526001600160a01b039384166020820152929091169082015267ffffffffffffffff7f0000000000000000000000000000000000000000000000000000000000000000166060820152608001610215565b3480156103f257600080fd5b506101e7610401366004611b58565b610e94565b34801561041257600080fd5b50610209610421366004611b8e565b61100d565b34801561043257600080fd5b50610209610441366004611b75565b6000908152600a6020526040902054600160a01b900460ff1690565b34801561046957600080fd5b5061028a600081565b34801561047e57600080fd5b506101e761048d366004611b58565b611036565b34801561049e57600080fd5b506101e76104ad366004611c33565b6110bf565b3480156104be57600080fd5b506101e76104cd366004611c5f565b61115b565b3480156104de57600080fd5b506101e76104ed366004611b8e565b611206565b3480156104fe57600080fd5b506101e761050d366004611bec565b61122b565b34801561051e57600080fd5b506009546102f2906001600160a01b031681565b34801561053e57600080fd5b506101e761054d366004611b75565b6113f7565b34801561055e57600080fd5b5061028a60008051602061210983398151915281565b34801561058057600080fd5b506101e761058f366004611c5f565b611431565b3480156105a057600080fd5b506102096105af366004611b75565b6000908152600b602052604090206001015460ff1690565b3480156105d357600080fd5b5061028a60008051602061212983398151915281565b6106016000805160206121298339815191523361100d565b61061e57604051636123936f60e11b815260040160405180910390fd5b604080516060810182526001600160a01b0380851682526001602080840182815284860187815260008a8152600a909352959091208451815492511515600160a01b026001600160a81b03199093169416939093171782559251919290919082019061068a9082611d01565b505050505050565b60006001600160e01b03198216637965db0b60e01b14806106c357506301ffc9a760e01b6001600160e01b03198316145b92915050565b6106e16000805160206121098339815191523361100d565b6106fe57604051636123936f60e11b815260040160405180910390fd5b600980546001600160a01b0319166001600160a01b0392909216919091179055565b60008281526020819052604090206001015461073b8161156e565b610745838361157b565b50505050565b6001600160a01b03811633146107745760405163334bd91960e11b815260040160405180910390fd5b61077e828261160d565b505050565b61079b6000805160206121098339815191523361100d565b6107b857604051636123936f60e11b815260040160405180910390fd5b600854600160a01b900460ff16156107e35760405163b8fcdc9560e01b815260040160405180910390fd5b6107fb6000805160206121298339815191528361157b565b506108146000805160206121298339815191528261157b565b50600780546001600160a01b039384166001600160a01b0319909116179055600880546001600160a81b0319169190921617600160a01b179055565b60035460055410610874576040516316654fdb60e01b815260040160405180910390fd5b60025434101561089757604051631d266a7360e01b815260040160405180910390fd5b600480546040516331a9108f60e11b81529182018490526001600160a01b031690636352211e90602401602060405180830381865afa1580156108de573d6000803e3d6000fd5b505050506040513d601f19601f820116820180604052508101906109029190611dc1565b6001600160a01b0316336001600160a01b031614610932576040516202895f60ed1b815260040160405180910390fd5b60405130903480156108fc02916000818181858888f1935050505061096a5760405163349189c560e21b815260040160405180910390fd5b600480546040516323b872dd60e01b81523392810192909252306024830152604482018490526001600160a01b0316906323b872dd90606401600060405180830381600087803b1580156109bd57600080fd5b505af11580156109d1573d6000803e3d6000fd5b5050505060006109e033611678565b6109e984611863565b836109f333611678565b6109fc34611863565b604051602001610a10959493929190611e02565b60408051808303601f1901815260a083019091526009546001600160a01b031660c083015291506000908060e08101604051602081830303815290604052815260200183604051602401610a649190611edf565b60408051601f19818403018152919052602080820180516001600160e01b031662543cc360e11b179052908252016000604051908082528060200260200182016040528015610ad957816020015b6040805180820190915260008082526020820152815260200190600190039081610ab25790505b5081526020017f00000000000000000000000000000000000000000000000000000000000000006001600160a01b03168152602001610b7660405180604001604052806207a1208152602001600015158152506040805182516024820152602092830151151560448083019190915282518083039091018152606490910190915290810180516001600160e01b03166397a657c960e01b17905290565b90526040516320487ded60e01b81529091506000906001600160a01b037f000000000000000000000000000000000000000000000000000000000000000016906320487ded90610bec907f0000000000000000000000000000000000000000000000000000000000000000908690600401611ef2565b602060405180830381865afa158015610c09573d6000803e3d6000fd5b505050506040513d601f19601f82011682018060405250810190610c2d9190611fcc565b6040516370a0823160e01b81523060048201529091507f00000000000000000000000000000000000000000000000000000000000000006001600160a01b0316906370a0823190602401602060405180830381865afa158015610c94573d6000803e3d6000fd5b505050506040513d601f19601f82011682018060405250810190610cb89190611fcc565b811115610cd857604051639a2e5f9b60e01b815260040160405180910390fd5b60405163095ea7b360e01b81526001600160a01b037f000000000000000000000000000000000000000000000000000000000000000081166004830152602482018390527f0000000000000000000000000000000000000000000000000000000000000000169063095ea7b3906044016020604051808303816000875af1158015610d67573d6000803e3d6000fd5b505050506040513d601f19601f82011682018060405250810190610d8b9190611fe5565b506040516396f4e9f960e01b81526001600160a01b037f000000000000000000000000000000000000000000000000000000000000000016906396f4e9f990610dfa907f0000000000000000000000000000000000000000000000000000000000000000908690600401611ef2565b6020604051808303816000875af1158015610e19573d6000803e3d6000fd5b505050506040513d601f19601f82011682018060405250810190610e3d9190611fcc565b5060058054906000610e4e8361201d565b91905055505050505050565b610e726000805160206121098339815191523361100d565b610e8f57604051636123936f60e11b815260040160405180910390fd5b600255565b610eac6000805160206121098339815191523361100d565b610ec957604051636123936f60e11b815260040160405180910390fd5b6040516370a0823160e01b81523060048201526000907f00000000000000000000000000000000000000000000000000000000000000006001600160a01b0316906370a0823190602401602060405180830381865afa158015610f30573d6000803e3d6000fd5b505050506040513d601f19601f82011682018060405250810190610f549190611fcc565b60405163a9059cbb60e01b81526001600160a01b038481166004830152602482018390529192506000917f0000000000000000000000000000000000000000000000000000000000000000169063a9059cbb906044016020604051808303816000875af1158015610fc9573d6000803e3d6000fd5b505050506040513d601f19601f82011682018060405250810190610fed9190611fe5565b90508061077e5760405163349189c560e21b815260040160405180910390fd5b6000918252602082815260408084206001600160a01b0393909316845291905290205460ff1690565b61104e6000805160206121098339815191523361100d565b61106b57604051636123936f60e11b815260040160405180910390fd5b6110836000805160206121098339815191528261157b565b5061109c6000805160206121098339815191523361160d565b50600680546001600160a01b0319166001600160a01b0392909216919091179055565b6110d76000805160206121098339815191523361100d565b6110f457604051636123936f60e11b815260040160405180910390fd5b8047101561111557604051639a2e5f9b60e01b815260040160405180910390fd5b6040516001600160a01b0383169082156108fc029083906000818181858888f193505050506111575760405163349189c560e21b815260040160405180910390fd5b5050565b6111736000805160206121298339815191523361100d565b61119057604051636123936f60e11b815260040160405180910390fd5b6000828152600b602052604090206001015460ff16156111af57600080fd5b60408051606081018252918252600160208084018281526000858501818152968152600b90925292902092518355905191018054925115156101000261ff00199215159290921661ffff1990931692909217179055565b6000828152602081905260409020600101546112218161156e565b610745838361160d565b6000828152600a6020526040902054600160a01b900460ff1661126157604051630ce5824960e41b815260040160405180910390fd5b6000828152600a60205260409020546001600160a01b03163314611297576040516202895f60ed1b815260040160405180910390fd5b806040516020016112a89190612036565b60408051601f1981840301815282825280516020918201206000868152600a83529290922091926112dd926001019101612052565b604051602081830303815290604052805190602001201461131157604051630ce5824960e41b815260040160405180910390fd5b600480546040516323b872dd60e01b81523092810192909252336024830152604482018490526001600160a01b0316906323b872dd90606401600060405180830381600087803b15801561136457600080fd5b505af1158015611378573d6000803e3d6000fd5b5050604080516060810182526000808252602080830182815284518083018652838152848601908152898452600a909252939091208251815494511515600160a01b026001600160a81b03199095166001600160a01b0391909116179390931783555190935090915060018201906113f09082611d01565b5050505050565b61140f6000805160206121098339815191523361100d565b61142c57604051636123936f60e11b815260040160405180910390fd5b600355565b6114496000805160206121098339815191523361100d565b61146657604051636123936f60e11b815260040160405180910390fd5b6000828152600b602052604090206001015460ff166114985760405163352963eb60e01b815260040160405180910390fd5b6000828152600b6020526040902060010154610100900460ff16156114d057604051634aca091360e11b815260040160405180910390fd5b6001546000838152600b6020526040908190205490516345332aeb60e11b8152600481018590526024810191909152604481018390526001600160a01b0390911690638a6655d690606401600060405180830381600087803b15801561153557600080fd5b505af1158015611549573d6000803e3d6000fd5b50505060009283525050600b60205260409020600101805461ff001916610100179055565b611578813361186e565b50565b6000611587838361100d565b611605576000838152602081815260408083206001600160a01b03861684529091529020805460ff191660011790556115bd3390565b6001600160a01b0316826001600160a01b0316847f2f8788117e7eff1d82e926ec794901d17c78024a50270940304540a733656f0d60405160405180910390a45060016106c3565b5060006106c3565b6000611619838361100d565b15611605576000838152602081815260408083206001600160a01b0386168085529252808320805460ff1916905551339286917ff6391f5c32d9c69d2a47ea670b442974b53935d1edc7fd64eb21e047a839171b9190a45060016106c3565b604080518082018252601081526f181899199a1a9b1b9c1cb0b131b232b360811b60208201528151602a80825260608281019094526001600160a01b0385169291600091602082018180368337019050509050600360fc1b816000815181106116e3576116e36120c8565b60200101906001600160f81b031916908160001a905350600f60fb1b81600181518110611712576117126120c8565b60200101906001600160f81b031916908160001a90535060005b601481101561185a578260048561174484600c6120de565b60208110611754576117546120c8565b1a60f81b6001600160f81b031916901c60f81c60ff168151811061177a5761177a6120c8565b01602001516001600160f81b031916826117958360026120f1565b6117a09060026120de565b815181106117b0576117b06120c8565b60200101906001600160f81b031916908160001a90535082846117d483600c6120de565b602081106117e4576117e46120c8565b825191901a600f169081106117fb576117fb6120c8565b01602001516001600160f81b031916826118168360026120f1565b6118219060036120de565b81518110611831576118316120c8565b60200101906001600160f81b031916908160001a905350806118528161201d565b91505061172c565b50949350505050565b60606106c3826118ab565b611878828261100d565b6111575760405163e2517d3f60e01b81526001600160a01b03821660048201526024810183905260440160405180910390fd5b606060006118b88361193e565b600101905060008167ffffffffffffffff8111156118d8576118d8611a2b565b6040519080825280601f01601f191660200182016040528015611902576020820181803683370190505b5090508181016020015b600019016f181899199a1a9b1b9c1cb0b131b232b360811b600a86061a8153600a850494508461190c57509392505050565b60008072184f03e93ff9f4daa797ed6e38ed64bf6a1f0160401b831061197d5772184f03e93ff9f4daa797ed6e38ed64bf6a1f0160401b830492506040015b6d04ee2d6d415b85acef810000000083106119a9576d04ee2d6d415b85acef8100000000830492506020015b662386f26fc1000083106119c757662386f26fc10000830492506010015b6305f5e10083106119df576305f5e100830492506008015b61271083106119f357612710830492506004015b60648310611a05576064830492506002015b600a83106106c35760010192915050565b6001600160a01b038116811461157857600080fd5b634e487b7160e01b600052604160045260246000fd5b600082601f830112611a5257600080fd5b813567ffffffffffffffff80821115611a6d57611a6d611a2b565b604051601f8301601f19908116603f01168101908282118183101715611a9557611a95611a2b565b81604052838152866020858801011115611aae57600080fd5b836020870160208301376000602085830101528094505050505092915050565b600080600060608486031215611ae357600080fd5b833592506020840135611af581611a16565b9150604084013567ffffffffffffffff811115611b1157600080fd5b611b1d86828701611a41565b9150509250925092565b600060208284031215611b3957600080fd5b81356001600160e01b031981168114611b5157600080fd5b9392505050565b600060208284031215611b6a57600080fd5b8135611b5181611a16565b600060208284031215611b8757600080fd5b5035919050565b60008060408385031215611ba157600080fd5b823591506020830135611bb381611a16565b809150509250929050565b60008060408385031215611bd157600080fd5b8235611bdc81611a16565b91506020830135611bb381611a16565b60008060408385031215611bff57600080fd5b82359150602083013567ffffffffffffffff811115611c1d57600080fd5b611c2985828601611a41565b9150509250929050565b60008060408385031215611c4657600080fd5b8235611c5181611a16565b946020939093013593505050565b60008060408385031215611c7257600080fd5b50508035926020909101359150565b600181811c90821680611c9557607f821691505b602082108103611cb557634e487b7160e01b600052602260045260246000fd5b50919050565b601f82111561077e57600081815260208120601f850160051c81016020861015611ce25750805b601f850160051c820191505b8181101561068a57828155600101611cee565b815167ffffffffffffffff811115611d1b57611d1b611a2b565b611d2f81611d298454611c81565b84611cbb565b602080601f831160018114611d645760008415611d4c5750858301515b600019600386901b1c1916600185901b17855561068a565b600085815260208120601f198616915b82811015611d9357888601518255948401946001909101908401611d74565b5085821015611db15787850151600019600388901b60f8161c191681555b5050505050600190811b01905550565b600060208284031215611dd357600080fd5b8151611b5181611a16565b60005b83811015611df9578181015183820152602001611de1565b50506000910152565b6000603d60f81b8083528751611e1f816001860160208c01611dde565b8084019050600b60fa1b8060018301528851611e42816002850160208d01611dde565b601f60fa1b600293909101928301528751611e64816003850160208c01611dde565b600392019182018190528651611e81816004850160208b01611dde565b60049201918201528451611e9c816005840160208901611dde565b016005810191909152600601979650505050505050565b60008151808452611ecb816020860160208601611dde565b601f01601f19169290920160200192915050565b602081526000611b516020830184611eb3565b6000604067ffffffffffffffff8516835260208181850152845160a083860152611f1f60e0860182611eb3565b905081860151603f1980878403016060880152611f3c8383611eb3565b88860151888203830160808a01528051808352908601945060009350908501905b80841015611f8f57845180516001600160a01b0316835286015186830152938501936001939093019290860190611f5d565b5060608901516001600160a01b031660a08901526080890151888203830160c08a01529550611fbe8187611eb3565b9a9950505050505050505050565b600060208284031215611fde57600080fd5b5051919050565b600060208284031215611ff757600080fd5b81518015158114611b5157600080fd5b634e487b7160e01b600052601160045260246000fd5b60006001820161202f5761202f612007565b5060010190565b60008251612048818460208701611dde565b9190910192915050565b600080835461206081611c81565b60018281168015612078576001811461208d576120bc565b60ff19841687528215158302870194506120bc565b8760005260208060002060005b858110156120b35781548a82015290840190820161209a565b50505082870194505b50929695505050505050565b634e487b7160e01b600052603260045260246000fd5b808201808211156106c3576106c3612007565b80820281158282048414176106c3576106c361200756feb19546dff01e856fb3f010c267a7b1c60363cf8a4664e21cc89c26224620214e47a82eb9b5b73b441b8cb87ac088aec65cb2b5df8599ec7a73af0e85167f3758a2646970667358221220a2ec73dae9771dacac066c9e6ccfea2ab598af993792ef9595c3012ec81bc9e264736f6c63430008140033",
        "linkReferences": {}
    },
    "methodIdentifiers": {
        "CHAINLINK_ROLE()": "fcf4f760",
        "DEFAULT_ADMIN_ROLE()": "a217fddf",
        "NewChainReceiverContractAddress()": "e3958190",
        "OWNER_ROLE()": "e58378bb",
        "ccipSetIdToMakeAVote(uint256,uint256)": "bcd4ce2a",
        "ccipSetIdToUnwrap(uint256,address,string)": "0127c6d0",
        "changeCost(uint256)": "5cb85cd2",
        "changeMaxTokens(uint256)": "e47eaae4",
        "changeOwner(address)": "a6f9dae1",
        "crossChainSolution()": "1c35bbe5",
        "crossChainSolutionVariables()": "681782a5",
        "getRoleAdmin(bytes32)": "248a9ca3",
        "grantRole(bytes32,address)": "2f2ff15d",
        "hasRole(bytes32,address)": "91d14854",
        "makeVote(uint256,uint256)": "e730a8c7",
        "passMint(uint256,string)": "536257a8",
        "renounceRole(bytes32,address)": "36568abe",
        "revokeRole(bytes32,address)": "d547741f",
        "seeIfCanUnwrap(uint256)": "9bc3a5ef",
        "seeIfCanVote(uint256)": "fa86811c",
        "setNewChainReceiverContractAddress(address)": "0b84c161",
        "setReceiverAddress(address,address)": "4f01541e",
        "supportsInterface(bytes4)": "01ffc9a7",
        "transferEthFunds(address,uint256)": "b1aa0d64",
        "viewOwnerAddress()": "496bb328",
        "viewRecieverContractAddress()": "5777a262",
        "withdrawLinkFunds(address)": "69929ee3",
        "withdrawMyToken(uint256,string)": "debc6817"
    },
    "id": 55
}