{
    "abi": [
        {
            "type": "constructor",
            "inputs": [
                {
                    "name": "_routerContractAddress",
                    "type": "address",
                    "internalType": "address"
                },
                {
                    "name": "_linkTokenAddress",
                    "type": "address",
                    "internalType": "address"
                },
                {
                    "name": "_initialOwner",
                    "type": "address",
                    "internalType": "address"
                },
                {
                    "name": "_destinationChainSelector",
                    "type": "uint64",
                    "internalType": "uint64"
                },
                {
                    "name": "_nameOfToken",
                    "type": "string",
                    "internalType": "string"
                },
                {
                    "name": "_symbolOfToken",
                    "type": "string",
                    "internalType": "string"
                },
                {
                    "name": "_URIPrefix",
                    "type": "string",
                    "internalType": "string"
                },
                {
                    "name": "_URIHasId",
                    "type": "bool",
                    "internalType": "bool"
                },
                {
                    "name": "_URISuffix",
                    "type": "string",
                    "internalType": "string"
                },
                {
                    "name": "_feeNumerator",
                    "type": "uint96",
                    "internalType": "uint96"
                }
            ],
            "stateMutability": "nonpayable"
        },
        {
            "type": "receive",
            "stateMutability": "payable"
        },
        {
            "type": "function",
            "name": "CHAINLINK_ROLE",
            "inputs": [],
            "outputs": [
                {
                    "name": "",
                    "type": "bytes32",
                    "internalType": "bytes32"
                }
            ],
            "stateMutability": "view"
        },
        {
            "type": "function",
            "name": "DEFAULT_ADMIN_ROLE",
            "inputs": [],
            "outputs": [
                {
                    "name": "",
                    "type": "bytes32",
                    "internalType": "bytes32"
                }
            ],
            "stateMutability": "view"
        },
        {
            "type": "function",
            "name": "OWNER_ROLE",
            "inputs": [],
            "outputs": [
                {
                    "name": "",
                    "type": "bytes32",
                    "internalType": "bytes32"
                }
            ],
            "stateMutability": "view"
        },
        {
            "type": "function",
            "name": "OriginalChainReceiverContractAddress",
            "inputs": [],
            "outputs": [
                {
                    "name": "",
                    "type": "address",
                    "internalType": "address"
                }
            ],
            "stateMutability": "view"
        },
        {
            "type": "function",
            "name": "approve",
            "inputs": [
                {
                    "name": "to",
                    "type": "address",
                    "internalType": "address"
                },
                {
                    "name": "tokenId",
                    "type": "uint256",
                    "internalType": "uint256"
                }
            ],
            "outputs": [],
            "stateMutability": "nonpayable"
        },
        {
            "type": "function",
            "name": "balanceOf",
            "inputs": [
                {
                    "name": "owner",
                    "type": "address",
                    "internalType": "address"
                }
            ],
            "outputs": [
                {
                    "name": "",
                    "type": "uint256",
                    "internalType": "uint256"
                }
            ],
            "stateMutability": "view"
        },
        {
            "type": "function",
            "name": "burn",
            "inputs": [
                {
                    "name": "tokenId",
                    "type": "uint256",
                    "internalType": "uint256"
                }
            ],
            "outputs": [],
            "stateMutability": "nonpayable"
        },
        {
            "type": "function",
            "name": "ccipSetMint",
            "inputs": [
                {
                    "name": "_tokenId",
                    "type": "uint256",
                    "internalType": "uint256"
                },
                {
                    "name": "_owner",
                    "type": "address",
                    "internalType": "address"
                },
                {
                    "name": "_signature",
                    "type": "string",
                    "internalType": "string"
                }
            ],
            "outputs": [],
            "stateMutability": "nonpayable"
        },
        {
            "type": "function",
            "name": "changeBaseURI",
            "inputs": [
                {
                    "name": "_URIPrefix",
                    "type": "string",
                    "internalType": "string"
                },
                {
                    "name": "_URIHasId",
                    "type": "bool",
                    "internalType": "bool"
                },
                {
                    "name": "_URISuffix",
                    "type": "string",
                    "internalType": "string"
                }
            ],
            "outputs": [],
            "stateMutability": "nonpayable"
        },
        {
            "type": "function",
            "name": "changeCreatorFees",
            "inputs": [
                {
                    "name": "_feeNumerator",
                    "type": "uint96",
                    "internalType": "uint96"
                }
            ],
            "outputs": [],
            "stateMutability": "nonpayable"
        },
        {
            "type": "function",
            "name": "changeOwner",
            "inputs": [
                {
                    "name": "newOwner",
                    "type": "address",
                    "internalType": "address"
                }
            ],
            "outputs": [],
            "stateMutability": "nonpayable"
        },
        {
            "type": "function",
            "name": "crossChainSolution",
            "inputs": [],
            "outputs": [
                {
                    "name": "",
                    "type": "uint8",
                    "internalType": "uint8"
                }
            ],
            "stateMutability": "pure"
        },
        {
            "type": "function",
            "name": "crossChainSolutionVariables",
            "inputs": [],
            "outputs": [
                {
                    "name": "",
                    "type": "bool",
                    "internalType": "bool"
                },
                {
                    "name": "",
                    "type": "address",
                    "internalType": "address"
                },
                {
                    "name": "",
                    "type": "uint64",
                    "internalType": "uint64"
                }
            ],
            "stateMutability": "view"
        },
        {
            "type": "function",
            "name": "getApproved",
            "inputs": [
                {
                    "name": "tokenId",
                    "type": "uint256",
                    "internalType": "uint256"
                }
            ],
            "outputs": [
                {
                    "name": "",
                    "type": "address",
                    "internalType": "address"
                }
            ],
            "stateMutability": "view"
        },
        {
            "type": "function",
            "name": "getRoleAdmin",
            "inputs": [
                {
                    "name": "role",
                    "type": "bytes32",
                    "internalType": "bytes32"
                }
            ],
            "outputs": [
                {
                    "name": "",
                    "type": "bytes32",
                    "internalType": "bytes32"
                }
            ],
            "stateMutability": "view"
        },
        {
            "type": "function",
            "name": "goBackToOriginalCollection",
            "inputs": [
                {
                    "name": "tokenId",
                    "type": "uint256",
                    "internalType": "uint256"
                },
                {
                    "name": "_signature",
                    "type": "string",
                    "internalType": "string"
                }
            ],
            "outputs": [],
            "stateMutability": "nonpayable"
        },
        {
            "type": "function",
            "name": "grantRole",
            "inputs": [
                {
                    "name": "role",
                    "type": "bytes32",
                    "internalType": "bytes32"
                },
                {
                    "name": "account",
                    "type": "address",
                    "internalType": "address"
                }
            ],
            "outputs": [],
            "stateMutability": "nonpayable"
        },
        {
            "type": "function",
            "name": "hasRole",
            "inputs": [
                {
                    "name": "role",
                    "type": "bytes32",
                    "internalType": "bytes32"
                },
                {
                    "name": "account",
                    "type": "address",
                    "internalType": "address"
                }
            ],
            "outputs": [
                {
                    "name": "",
                    "type": "bool",
                    "internalType": "bool"
                }
            ],
            "stateMutability": "view"
        },
        {
            "type": "function",
            "name": "isApprovedForAll",
            "inputs": [
                {
                    "name": "owner",
                    "type": "address",
                    "internalType": "address"
                },
                {
                    "name": "operator",
                    "type": "address",
                    "internalType": "address"
                }
            ],
            "outputs": [
                {
                    "name": "",
                    "type": "bool",
                    "internalType": "bool"
                }
            ],
            "stateMutability": "view"
        },
        {
            "type": "function",
            "name": "name",
            "inputs": [],
            "outputs": [
                {
                    "name": "",
                    "type": "string",
                    "internalType": "string"
                }
            ],
            "stateMutability": "view"
        },
        {
            "type": "function",
            "name": "ownerOf",
            "inputs": [
                {
                    "name": "tokenId",
                    "type": "uint256",
                    "internalType": "uint256"
                }
            ],
            "outputs": [
                {
                    "name": "",
                    "type": "address",
                    "internalType": "address"
                }
            ],
            "stateMutability": "view"
        },
        {
            "type": "function",
            "name": "renounceRole",
            "inputs": [
                {
                    "name": "role",
                    "type": "bytes32",
                    "internalType": "bytes32"
                },
                {
                    "name": "callerConfirmation",
                    "type": "address",
                    "internalType": "address"
                }
            ],
            "outputs": [],
            "stateMutability": "nonpayable"
        },
        {
            "type": "function",
            "name": "revokeRole",
            "inputs": [
                {
                    "name": "role",
                    "type": "bytes32",
                    "internalType": "bytes32"
                },
                {
                    "name": "account",
                    "type": "address",
                    "internalType": "address"
                }
            ],
            "outputs": [],
            "stateMutability": "nonpayable"
        },
        {
            "type": "function",
            "name": "royaltyInfo",
            "inputs": [
                {
                    "name": "tokenId",
                    "type": "uint256",
                    "internalType": "uint256"
                },
                {
                    "name": "salePrice",
                    "type": "uint256",
                    "internalType": "uint256"
                }
            ],
            "outputs": [
                {
                    "name": "",
                    "type": "address",
                    "internalType": "address"
                },
                {
                    "name": "",
                    "type": "uint256",
                    "internalType": "uint256"
                }
            ],
            "stateMutability": "view"
        },
        {
            "type": "function",
            "name": "safeMint",
            "inputs": [
                {
                    "name": "id",
                    "type": "uint256",
                    "internalType": "uint256"
                },
                {
                    "name": "_signature",
                    "type": "string",
                    "internalType": "string"
                }
            ],
            "outputs": [],
            "stateMutability": "payable"
        },
        {
            "type": "function",
            "name": "safeTransferFrom",
            "inputs": [
                {
                    "name": "from",
                    "type": "address",
                    "internalType": "address"
                },
                {
                    "name": "to",
                    "type": "address",
                    "internalType": "address"
                },
                {
                    "name": "tokenId",
                    "type": "uint256",
                    "internalType": "uint256"
                }
            ],
            "outputs": [],
            "stateMutability": "nonpayable"
        },
        {
            "type": "function",
            "name": "safeTransferFrom",
            "inputs": [
                {
                    "name": "from",
                    "type": "address",
                    "internalType": "address"
                },
                {
                    "name": "to",
                    "type": "address",
                    "internalType": "address"
                },
                {
                    "name": "tokenId",
                    "type": "uint256",
                    "internalType": "uint256"
                },
                {
                    "name": "data",
                    "type": "bytes",
                    "internalType": "bytes"
                }
            ],
            "outputs": [],
            "stateMutability": "nonpayable"
        },
        {
            "type": "function",
            "name": "seeIfCanMint",
            "inputs": [
                {
                    "name": "_tokenId",
                    "type": "uint256",
                    "internalType": "uint256"
                }
            ],
            "outputs": [
                {
                    "name": "",
                    "type": "bool",
                    "internalType": "bool"
                }
            ],
            "stateMutability": "view"
        },
        {
            "type": "function",
            "name": "setApprovalForAll",
            "inputs": [
                {
                    "name": "operator",
                    "type": "address",
                    "internalType": "address"
                },
                {
                    "name": "approved",
                    "type": "bool",
                    "internalType": "bool"
                }
            ],
            "outputs": [],
            "stateMutability": "nonpayable"
        },
        {
            "type": "function",
            "name": "setOriginalChainReceiverContractAddres",
            "inputs": [
                {
                    "name": "_OriginalChainReceiverContractAddress",
                    "type": "address",
                    "internalType": "address"
                }
            ],
            "outputs": [],
            "stateMutability": "nonpayable"
        },
        {
            "type": "function",
            "name": "setReceiverAddress",
            "inputs": [
                {
                    "name": "_receiverAddress",
                    "type": "address",
                    "internalType": "address"
                }
            ],
            "outputs": [],
            "stateMutability": "nonpayable"
        },
        {
            "type": "function",
            "name": "supportsInterface",
            "inputs": [
                {
                    "name": "interfaceId",
                    "type": "bytes4",
                    "internalType": "bytes4"
                }
            ],
            "outputs": [
                {
                    "name": "",
                    "type": "bool",
                    "internalType": "bool"
                }
            ],
            "stateMutability": "view"
        },
        {
            "type": "function",
            "name": "symbol",
            "inputs": [],
            "outputs": [
                {
                    "name": "",
                    "type": "string",
                    "internalType": "string"
                }
            ],
            "stateMutability": "view"
        },
        {
            "type": "function",
            "name": "tokenURI",
            "inputs": [
                {
                    "name": "tokenId",
                    "type": "uint256",
                    "internalType": "uint256"
                }
            ],
            "outputs": [
                {
                    "name": "",
                    "type": "string",
                    "internalType": "string"
                }
            ],
            "stateMutability": "view"
        },
        {
            "type": "function",
            "name": "transferEthFunds",
            "inputs": [
                {
                    "name": "to",
                    "type": "address",
                    "internalType": "address payable"
                },
                {
                    "name": "amount",
                    "type": "uint256",
                    "internalType": "uint256"
                }
            ],
            "outputs": [],
            "stateMutability": "nonpayable"
        },
        {
            "type": "function",
            "name": "transferFrom",
            "inputs": [
                {
                    "name": "from",
                    "type": "address",
                    "internalType": "address"
                },
                {
                    "name": "to",
                    "type": "address",
                    "internalType": "address"
                },
                {
                    "name": "tokenId",
                    "type": "uint256",
                    "internalType": "uint256"
                }
            ],
            "outputs": [],
            "stateMutability": "nonpayable"
        },
        {
            "type": "function",
            "name": "viewOwnerAddress",
            "inputs": [],
            "outputs": [
                {
                    "name": "",
                    "type": "address",
                    "internalType": "address"
                }
            ],
            "stateMutability": "view"
        },
        {
            "type": "function",
            "name": "viewRecieverContractAddress",
            "inputs": [],
            "outputs": [
                {
                    "name": "",
                    "type": "address",
                    "internalType": "address"
                }
            ],
            "stateMutability": "view"
        },
        {
            "type": "function",
            "name": "withdrawLinkFunds",
            "inputs": [
                {
                    "name": "beneficiary",
                    "type": "address",
                    "internalType": "address"
                }
            ],
            "outputs": [],
            "stateMutability": "nonpayable"
        },
        {
            "type": "event",
            "name": "Approval",
            "inputs": [
                {
                    "name": "owner",
                    "type": "address",
                    "indexed": true,
                    "internalType": "address"
                },
                {
                    "name": "approved",
                    "type": "address",
                    "indexed": true,
                    "internalType": "address"
                },
                {
                    "name": "tokenId",
                    "type": "uint256",
                    "indexed": true,
                    "internalType": "uint256"
                }
            ],
            "anonymous": false
        },
        {
            "type": "event",
            "name": "ApprovalForAll",
            "inputs": [
                {
                    "name": "owner",
                    "type": "address",
                    "indexed": true,
                    "internalType": "address"
                },
                {
                    "name": "operator",
                    "type": "address",
                    "indexed": true,
                    "internalType": "address"
                },
                {
                    "name": "approved",
                    "type": "bool",
                    "indexed": false,
                    "internalType": "bool"
                }
            ],
            "anonymous": false
        },
        {
            "type": "event",
            "name": "RoleAdminChanged",
            "inputs": [
                {
                    "name": "role",
                    "type": "bytes32",
                    "indexed": true,
                    "internalType": "bytes32"
                },
                {
                    "name": "previousAdminRole",
                    "type": "bytes32",
                    "indexed": true,
                    "internalType": "bytes32"
                },
                {
                    "name": "newAdminRole",
                    "type": "bytes32",
                    "indexed": true,
                    "internalType": "bytes32"
                }
            ],
            "anonymous": false
        },
        {
            "type": "event",
            "name": "RoleGranted",
            "inputs": [
                {
                    "name": "role",
                    "type": "bytes32",
                    "indexed": true,
                    "internalType": "bytes32"
                },
                {
                    "name": "account",
                    "type": "address",
                    "indexed": true,
                    "internalType": "address"
                },
                {
                    "name": "sender",
                    "type": "address",
                    "indexed": true,
                    "internalType": "address"
                }
            ],
            "anonymous": false
        },
        {
            "type": "event",
            "name": "RoleRevoked",
            "inputs": [
                {
                    "name": "role",
                    "type": "bytes32",
                    "indexed": true,
                    "internalType": "bytes32"
                },
                {
                    "name": "account",
                    "type": "address",
                    "indexed": true,
                    "internalType": "address"
                },
                {
                    "name": "sender",
                    "type": "address",
                    "indexed": true,
                    "internalType": "address"
                }
            ],
            "anonymous": false
        },
        {
            "type": "event",
            "name": "Transfer",
            "inputs": [
                {
                    "name": "from",
                    "type": "address",
                    "indexed": true,
                    "internalType": "address"
                },
                {
                    "name": "to",
                    "type": "address",
                    "indexed": true,
                    "internalType": "address"
                },
                {
                    "name": "tokenId",
                    "type": "uint256",
                    "indexed": true,
                    "internalType": "uint256"
                }
            ],
            "anonymous": false
        },
        {
            "type": "error",
            "name": "AccessControlBadConfirmation",
            "inputs": []
        },
        {
            "type": "error",
            "name": "AccessControlUnauthorizedAccount",
            "inputs": [
                {
                    "name": "account",
                    "type": "address",
                    "internalType": "address"
                },
                {
                    "name": "neededRole",
                    "type": "bytes32",
                    "internalType": "bytes32"
                }
            ]
        },
        {
            "type": "error",
            "name": "ERC2981InvalidDefaultRoyalty",
            "inputs": [
                {
                    "name": "numerator",
                    "type": "uint256",
                    "internalType": "uint256"
                },
                {
                    "name": "denominator",
                    "type": "uint256",
                    "internalType": "uint256"
                }
            ]
        },
        {
            "type": "error",
            "name": "ERC2981InvalidDefaultRoyaltyReceiver",
            "inputs": [
                {
                    "name": "receiver",
                    "type": "address",
                    "internalType": "address"
                }
            ]
        },
        {
            "type": "error",
            "name": "ERC2981InvalidTokenRoyalty",
            "inputs": [
                {
                    "name": "tokenId",
                    "type": "uint256",
                    "internalType": "uint256"
                },
                {
                    "name": "numerator",
                    "type": "uint256",
                    "internalType": "uint256"
                },
                {
                    "name": "denominator",
                    "type": "uint256",
                    "internalType": "uint256"
                }
            ]
        },
        {
            "type": "error",
            "name": "ERC2981InvalidTokenRoyaltyReceiver",
            "inputs": [
                {
                    "name": "tokenId",
                    "type": "uint256",
                    "internalType": "uint256"
                },
                {
                    "name": "receiver",
                    "type": "address",
                    "internalType": "address"
                }
            ]
        },
        {
            "type": "error",
            "name": "ERC721IncorrectOwner",
            "inputs": [
                {
                    "name": "sender",
                    "type": "address",
                    "internalType": "address"
                },
                {
                    "name": "tokenId",
                    "type": "uint256",
                    "internalType": "uint256"
                },
                {
                    "name": "owner",
                    "type": "address",
                    "internalType": "address"
                }
            ]
        },
        {
            "type": "error",
            "name": "ERC721InsufficientApproval",
            "inputs": [
                {
                    "name": "operator",
                    "type": "address",
                    "internalType": "address"
                },
                {
                    "name": "tokenId",
                    "type": "uint256",
                    "internalType": "uint256"
                }
            ]
        },
        {
            "type": "error",
            "name": "ERC721InvalidApprover",
            "inputs": [
                {
                    "name": "approver",
                    "type": "address",
                    "internalType": "address"
                }
            ]
        },
        {
            "type": "error",
            "name": "ERC721InvalidOperator",
            "inputs": [
                {
                    "name": "operator",
                    "type": "address",
                    "internalType": "address"
                }
            ]
        },
        {
            "type": "error",
            "name": "ERC721InvalidOwner",
            "inputs": [
                {
                    "name": "owner",
                    "type": "address",
                    "internalType": "address"
                }
            ]
        },
        {
            "type": "error",
            "name": "ERC721InvalidReceiver",
            "inputs": [
                {
                    "name": "receiver",
                    "type": "address",
                    "internalType": "address"
                }
            ]
        },
        {
            "type": "error",
            "name": "ERC721InvalidSender",
            "inputs": [
                {
                    "name": "sender",
                    "type": "address",
                    "internalType": "address"
                }
            ]
        },
        {
            "type": "error",
            "name": "ERC721NonexistentToken",
            "inputs": [
                {
                    "name": "tokenId",
                    "type": "uint256",
                    "internalType": "uint256"
                }
            ]
        },
        {
            "type": "error",
            "name": "GmFam__AccessDenied",
            "inputs": []
        },
        {
            "type": "error",
            "name": "GmFam__CantDecreaseMaxSupply",
            "inputs": []
        },
        {
            "type": "error",
            "name": "GmFam__MaxSupplyReached",
            "inputs": []
        },
        {
            "type": "error",
            "name": "GmFam__NotEnoughFunds",
            "inputs": []
        },
        {
            "type": "error",
            "name": "GmFam__OwnerMUSTSetUPTheReceiverContractFirst",
            "inputs": []
        },
        {
            "type": "error",
            "name": "GmFam__OwnerMustSetTheOriginalChainReceiverContractAddres",
            "inputs": []
        },
        {
            "type": "error",
            "name": "GmFam__ReceiverAddressAlreadySet",
            "inputs": []
        },
        {
            "type": "error",
            "name": "GmFam__TransferFailed",
            "inputs": []
        },
        {
            "type": "error",
            "name": "GmFam__YouAreNotTheOwner",
            "inputs": []
        },
        {
            "type": "error",
            "name": "GmFam__YouMUSTWrapTheTokenFirst",
            "inputs": []
        }
    ],
    "bytecode": {
        "object": "0x60e0604052600d805460ff60a01b19169055600e80546001600160a01b03191690553480156200002e57600080fd5b50604051620033703803806200337083398101604081905262000051916200041a565b85856002620000618382620005d5565b506003620000708282620005d5565b505050620000a57fb19546dff01e856fb3f010c267a7b1c60363cf8a4664e21cc89c26224620214e896200019960201b60201c565b50600c80546001600160a01b0319166001600160a01b038a8116919091179091558a81166080819052908a1660a08190526001600160401b03891660c05260405163095ea7b360e01b8152600481019290925260001960248301529063095ea7b3906044016020604051808303816000875af11580156200012a573d6000803e3d6000fd5b505050506040513d601f19601f82011682018060405250810190620001509190620006a1565b5060096200015f8582620005d5565b50600a805460ff1916841515179055600b6200017c8382620005d5565b506200018930826200024c565b50505050505050505050620006c6565b60008281526008602090815260408083206001600160a01b038516845290915281205460ff16620002425760008381526008602090815260408083206001600160a01b03861684529091529020805460ff19166001179055620001f93390565b6001600160a01b0316826001600160a01b0316847f2f8788117e7eff1d82e926ec794901d17c78024a50270940304540a733656f0d60405160405180910390a450600162000246565b5060005b92915050565b6127106001600160601b0382168110156200029157604051636f483d0960e01b81526001600160601b0383166004820152602481018290526044015b60405180910390fd5b6001600160a01b038316620002bd57604051635b6cc80560e11b81526000600482015260240162000288565b50604080518082019091526001600160a01b039092168083526001600160601b039091166020909201829052600160a01b90910217600055565b80516001600160a01b03811681146200030f57600080fd5b919050565b80516001600160401b03811681146200030f57600080fd5b634e487b7160e01b600052604160045260246000fd5b600082601f8301126200035457600080fd5b81516001600160401b03808211156200037157620003716200032c565b604051601f8301601f19908116603f011681019082821181831017156200039c576200039c6200032c565b81604052838152602092508683858801011115620003b957600080fd5b600091505b83821015620003dd5785820183015181830184015290820190620003be565b600093810190920192909252949350505050565b805180151581146200030f57600080fd5b80516001600160601b03811681146200030f57600080fd5b6000806000806000806000806000806101408b8d0312156200043b57600080fd5b620004468b620002f7565b99506200045660208c01620002f7565b98506200046660408c01620002f7565b97506200047660608c0162000314565b60808c01519097506001600160401b03808211156200049457600080fd5b620004a28e838f0162000342565b975060a08d0151915080821115620004b957600080fd5b620004c78e838f0162000342565b965060c08d0151915080821115620004de57600080fd5b620004ec8e838f0162000342565b9550620004fc60e08e01620003f1565b94506101008d01519150808211156200051457600080fd5b50620005238d828e0162000342565b925050620005356101208c0162000402565b90509295989b9194979a5092959850565b600181811c908216806200055b57607f821691505b6020821081036200057c57634e487b7160e01b600052602260045260246000fd5b50919050565b601f821115620005d057600081815260208120601f850160051c81016020861015620005ab5750805b601f850160051c820191505b81811015620005cc57828155600101620005b7565b5050505b505050565b81516001600160401b03811115620005f157620005f16200032c565b620006098162000602845462000546565b8462000582565b602080601f831160018114620006415760008415620006285750858301515b600019600386901b1c1916600185901b178555620005cc565b600085815260208120601f198616915b82811015620006725788860151825594840194600190910190840162000651565b5085821015620006915787850151600019600388901b60f8161c191681555b5050505050600190811b01905550565b600060208284031215620006b457600080fd5b620006bf82620003f1565b9392505050565b60805160a05160c051612c426200072e600039600081816104f901528181610cca0152610ed8015260008181610be901528181610d4d01528181610e2601528181610fae015261104d015260008181610c9d01528181610df70152610eab0152612c426000f3fe6080604052600436106102345760003560e01c806370a082311161012e578063c87b56dd116100ab578063e58378bb1161006f578063e58378bb14610702578063e985e9c514610724578063ed321c0c14610744578063f824083f1461077b578063fcf4f7601461079b57600080fd5b8063c87b56dd14610662578063cb3f9db514610682578063ceaa1620146106a2578063d547741f146106c2578063dbb60007146106e257600080fd5b8063a22cb465116100f2578063a22cb465146105cf578063a6f9dae1146105ef578063b1aa0d641461060f578063b88d4fde1461062f578063bb96e0821461064f57600080fd5b806370a08231146105455780638279c7db1461056557806391d148541461058557806395d89b41146105a5578063a217fddf146105ba57600080fd5b80632f2ff15d116101bc57806356ddf5871161018057806356ddf587146104685780635777a262146104885780636352211e146104a6578063681782a5146104c657806369929ee31461052557600080fd5b80632f2ff15d146103ca57806336568abe146103ea57806342842e0e1461040a57806342966c681461042a578063496bb3281461044a57600080fd5b8063175d28da11610203578063175d28da146102f15780631c35bbe51461031157806323b872dd1461032d578063248a9ca31461034d5780632a55205a1461038b57600080fd5b806301ffc9a71461024057806306fdde0314610275578063081812fc14610297578063095ea7b3146102cf57600080fd5b3661023b57005b600080fd5b34801561024c57600080fd5b5061026061025b3660046122bc565b6107cf565b60405190151581526020015b60405180910390f35b34801561028157600080fd5b5061028a6107e0565b60405161026c9190612330565b3480156102a357600080fd5b506102b76102b2366004612343565b610872565b6040516001600160a01b03909116815260200161026c565b3480156102db57600080fd5b506102ef6102ea366004612371565b61089b565b005b3480156102fd57600080fd5b506102ef61030c36600461239d565b6108aa565b34801561031d57600080fd5b506040516001815260200161026c565b34801561033957600080fd5b506102ef6103483660046123c6565b6108ec565b34801561035957600080fd5b5061037d610368366004612343565b60009081526008602052604090206001015490565b60405190815260200161026c565b34801561039757600080fd5b506103ab6103a6366004612407565b61097c565b604080516001600160a01b03909316835260208301919091520161026c565b3480156103d657600080fd5b506102ef6103e5366004612429565b610a28565b3480156103f657600080fd5b506102ef610405366004612429565b610a4d565b34801561041657600080fd5b506102ef6104253660046123c6565b610a85565b34801561043657600080fd5b506102ef610445366004612343565b610aa0565b34801561045657600080fd5b50600c546001600160a01b03166102b7565b34801561047457600080fd5b506102ef610483366004612505565b610aac565b34801561049457600080fd5b50600d546001600160a01b03166102b7565b3480156104b257600080fd5b506102b76104c1366004612343565b610f56565b3480156104d257600080fd5b50600e5460408051600181526001600160a01b03909216602083015267ffffffffffffffff7f0000000000000000000000000000000000000000000000000000000000000000169082015260600161026c565b34801561053157600080fd5b506102ef61054036600461254c565b610f61565b34801561055157600080fd5b5061037d61056036600461254c565b6110da565b34801561057157600080fd5b506102ef61058036600461254c565b611122565b34801561059157600080fd5b506102606105a0366004612429565b6111d4565b3480156105b157600080fd5b5061028a6111ff565b3480156105c657600080fd5b5061037d600081565b3480156105db57600080fd5b506102ef6105ea366004612577565b61120e565b3480156105fb57600080fd5b506102ef61060a36600461254c565b611219565b34801561061b57600080fd5b506102ef61062a366004612371565b6112a2565b34801561063b57600080fd5b506102ef61064a3660046125a5565b61133a565b6102ef61065d366004612505565b611351565b34801561066e57600080fd5b5061028a61067d366004612343565b6114b5565b34801561068e57600080fd5b506102ef61069d36600461254c565b611536565b3480156106ae57600080fd5b506102ef6106bd366004612625565b61158d565b3480156106ce57600080fd5b506102ef6106dd366004612429565b6115e9565b3480156106ee57600080fd5b50600e546102b7906001600160a01b031681565b34801561070e57600080fd5b5061037d600080516020612bed83398151915281565b34801561073057600080fd5b5061026061073f36600461269d565b61160e565b34801561075057600080fd5b5061026061075f366004612343565b6000908152600f6020526040902054600160a01b900460ff1690565b34801561078757600080fd5b506102ef6107963660046126cb565b61163c565b3480156107a757600080fd5b5061037d7f47a82eb9b5b73b441b8cb87ac088aec65cb2b5df8599ec7a73af0e85167f375881565b60006107da826116f7565b92915050565b6060600280546107ef9061271a565b80601f016020809104026020016040519081016040528092919081815260200182805461081b9061271a565b80156108685780601f1061083d57610100808354040283529160200191610868565b820191906000526020600020905b81548152906001019060200180831161084b57829003601f168201915b5050505050905090565b600061087d8261171c565b506000828152600660205260409020546001600160a01b03166107da565b6108a6828233611755565b5050565b6108c2600080516020612bed833981519152336111d4565b6108df57604051632f4535e760e01b815260040160405180910390fd5b6108e93082611762565b50565b6001600160a01b03821661091b57604051633250574960e11b8152600060048201526024015b60405180910390fd5b6000610928838333611805565b9050836001600160a01b0316816001600160a01b031614610976576040516364283d7b60e01b81526001600160a01b0380861660048301526024820184905282166044820152606401610912565b50505050565b60008281526001602090815260408083208151808301909252546001600160a01b038116808352600160a01b9091046001600160601b03169282019290925282916109f15750604080518082019091526000546001600160a01b0381168252600160a01b90046001600160601b031660208201525b602081015160009061271090610a10906001600160601b03168761276a565b610a1a9190612781565b915196919550909350505050565b600082815260086020526040902060010154610a438161181a565b6109768383611824565b6001600160a01b0381163314610a765760405163334bd91960e11b815260040160405180910390fd5b610a8082826118b8565b505050565b610a808383836040518060200160405280600081525061133a565b6108a660008233611805565b610ab582610f56565b6001600160a01b0316336001600160a01b031614610ae657604051633f8ed84960e21b815260040160405180910390fd5b6000610af133611925565b610afa84611b10565b83610b0433611925565b604051602001610b1794939291906127a3565b60408051808303601f1901815260a08301909152600e546001600160a01b031660c083015291506000908060e08101604051602081830303815290604052815260200183604051602401610b6b9190612330565b60408051601f19818403018152919052602080820180516001600160e01b0316634973273360e01b179052908252016000604051908082528060200260200182016040528015610be157816020015b6040805180820190915260008082526020820152815260200190600190039081610bba5790505b5081526020017f00000000000000000000000000000000000000000000000000000000000000006001600160a01b03168152602001610c7e60405180604001604052806207a1208152602001600015158152506040805182516024820152602092830151151560448083019190915282518083039091018152606490910190915290810180516001600160e01b03166397a657c960e01b17905290565b90526040516320487ded60e01b81529091506000906001600160a01b037f000000000000000000000000000000000000000000000000000000000000000016906320487ded90610cf4907f0000000000000000000000000000000000000000000000000000000000000000908690600401612849565b602060405180830381865afa158015610d11573d6000803e3d6000fd5b505050506040513d601f19601f82011682018060405250810190610d359190612923565b6040516370a0823160e01b81523060048201529091507f00000000000000000000000000000000000000000000000000000000000000006001600160a01b0316906370a0823190602401602060405180830381865afa158015610d9c573d6000803e3d6000fd5b505050506040513d601f19601f82011682018060405250810190610dc09190612923565b811115610de05760405163fcb193c560e01b815260040160405180910390fd5b60405163095ea7b360e01b81526001600160a01b037f000000000000000000000000000000000000000000000000000000000000000081166004830152602482018390527f0000000000000000000000000000000000000000000000000000000000000000169063095ea7b3906044016020604051808303816000875af1158015610e6f573d6000803e3d6000fd5b505050506040513d601f19601f82011682018060405250810190610e93919061293c565b506040516396f4e9f960e01b81526001600160a01b037f000000000000000000000000000000000000000000000000000000000000000016906396f4e9f990610f02907f0000000000000000000000000000000000000000000000000000000000000000908690600401612849565b6020604051808303816000875af1158015610f21573d6000803e3d6000fd5b505050506040513d601f19601f82011682018060405250810190610f459190612923565b50610f4f85611b1b565b5050505050565b60006107da8261171c565b610f79600080516020612bed833981519152336111d4565b610f9657604051632f4535e760e01b815260040160405180910390fd5b6040516370a0823160e01b81523060048201526000907f00000000000000000000000000000000000000000000000000000000000000006001600160a01b0316906370a0823190602401602060405180830381865afa158015610ffd573d6000803e3d6000fd5b505050506040513d601f19601f820116820180604052508101906110219190612923565b60405163a9059cbb60e01b81526001600160a01b038481166004830152602482018390529192506000917f0000000000000000000000000000000000000000000000000000000000000000169063a9059cbb906044016020604051808303816000875af1158015611096573d6000803e3d6000fd5b505050506040513d601f19601f820116820180604052508101906110ba919061293c565b905080610a805760405163ce6cb19960e01b815260040160405180910390fd5b60006001600160a01b038216611106576040516322718ad960e21b815260006004820152602401610912565b506001600160a01b031660009081526005602052604090205490565b61113a600080516020612bed833981519152336111d4565b61115757604051632f4535e760e01b815260040160405180910390fd5b600d54600160a01b900460ff161561118257604051637c3c88a360e01b815260040160405180910390fd5b6111ac7f47a82eb9b5b73b441b8cb87ac088aec65cb2b5df8599ec7a73af0e85167f375882611824565b50600d80546001600160a81b0319166001600160a01b0390921691909117600160a01b179055565b60009182526008602090815260408084206001600160a01b0393909316845291905290205460ff1690565b6060600380546107ef9061271a565b6108a6338383611b56565b611231600080516020612bed833981519152336111d4565b61124e57604051632f4535e760e01b815260040160405180910390fd5b611266600080516020612bed83398151915282611824565b5061127f600080516020612bed833981519152336118b8565b50600c80546001600160a01b0319166001600160a01b0392909216919091179055565b6112ba600080516020612bed833981519152336111d4565b6112d757604051632f4535e760e01b815260040160405180910390fd5b804710156112f85760405163fcb193c560e01b815260040160405180910390fd5b6040516001600160a01b0383169082156108fc029083906000818181858888f193505050506108a65760405163ce6cb19960e01b815260040160405180910390fd5b6113458484846108ec565b61097684848484611bf5565b6000828152600f6020526040902054600160a01b900460ff1661138757604051637a42b57560e01b815260040160405180910390fd5b6000828152600f60205260409020546001600160a01b031633146113be57604051633f8ed84960e21b815260040160405180910390fd5b806040516020016113cf9190612959565b60408051601f1981840301815282825280516020918201206000868152600f83529290922091926114049260010191016129e8565b604051602081830303815290604052805190602001201461143857604051633f8ed84960e21b815260040160405180910390fd5b6114423383611d17565b604080516060810182526000808252602080830182815284518083018652838152848601908152878452600f909252939091208251815494511515600160a01b026001600160a81b03199095166001600160a01b039190911617939093178355519091906001820190610f4f9082612a3a565b600a5460609060ff161561151b576114cb611d31565b6114d483611d40565b6040516020016114e5929190612afa565b60408051601f198184030181529082905261150591600b90602001612b29565b6040516020818303038152906040529050919050565b611523611d31565b600b604051602001611505929190612b29565b61154e600080516020612bed833981519152336111d4565b61156b57604051632f4535e760e01b815260040160405180910390fd5b600e80546001600160a01b0319166001600160a01b0392909216919091179055565b6115a5600080516020612bed833981519152336111d4565b6115c257604051632f4535e760e01b815260040160405180910390fd5b60096115ce8482612a3a565b50600a805460ff1916831515179055600b6109768282612a3a565b6000828152600860205260409020600101546116048161181a565b61097683836118b8565b6001600160a01b03918216600090815260076020908152604080832093909416825291909152205460ff1690565b6116667f47a82eb9b5b73b441b8cb87ac088aec65cb2b5df8599ec7a73af0e85167f3758336111d4565b61168357604051632f4535e760e01b815260040160405180910390fd5b604080516060810182526001600160a01b0380851682526001602080840182815284860187815260008a8152600f909352959091208451815492511515600160a01b026001600160a81b0319909316941693909317178255925191929091908201906116ef9082612a3a565b505050505050565b60006001600160e01b03198216637965db0b60e01b14806107da57506107da82611dd3565b6000818152600460205260408120546001600160a01b0316806107da57604051637e27328960e01b815260048101849052602401610912565b610a808383836001611dde565b6127106001600160601b0382168110156117a157604051636f483d0960e01b81526001600160601b038316600482015260248101829052604401610912565b6001600160a01b0383166117cb57604051635b6cc80560e11b815260006004820152602401610912565b50604080518082019091526001600160a01b039092168083526001600160601b039091166020909201829052600160a01b90910217600055565b6000611812848484611ee4565b949350505050565b6108e98133611fdd565b600061183083836111d4565b6118b05760008381526008602090815260408083206001600160a01b03861684529091529020805460ff191660011790556118683390565b6001600160a01b0316826001600160a01b0316847f2f8788117e7eff1d82e926ec794901d17c78024a50270940304540a733656f0d60405160405180910390a45060016107da565b5060006107da565b60006118c483836111d4565b156118b05760008381526008602090815260408083206001600160a01b0386168085529252808320805460ff1916905551339286917ff6391f5c32d9c69d2a47ea670b442974b53935d1edc7fd64eb21e047a839171b9190a45060016107da565b604080518082018252601081526f181899199a1a9b1b9c1cb0b131b232b360811b60208201528151602a80825260608281019094526001600160a01b0385169291600091602082018180368337019050509050600360fc1b8160008151811061199057611990612b50565b60200101906001600160f81b031916908160001a905350600f60fb1b816001815181106119bf576119bf612b50565b60200101906001600160f81b031916908160001a90535060005b6014811015611b0757826004856119f184600c612b66565b60208110611a0157611a01612b50565b1a60f81b6001600160f81b031916901c60f81c60ff1681518110611a2757611a27612b50565b01602001516001600160f81b03191682611a4283600261276a565b611a4d906002612b66565b81518110611a5d57611a5d612b50565b60200101906001600160f81b031916908160001a9053508284611a8183600c612b66565b60208110611a9157611a91612b50565b825191901a600f16908110611aa857611aa8612b50565b01602001516001600160f81b03191682611ac383600261276a565b611ace906003612b66565b81518110611ade57611ade612b50565b60200101906001600160f81b031916908160001a90535080611aff81612b79565b9150506119d9565b50949350505050565b60606107da82611d40565b6000611b2a6000836000611805565b90506001600160a01b0381166108a657604051637e27328960e01b815260048101839052602401610912565b6001600160a01b038216611b8857604051630b61174360e31b81526001600160a01b0383166004820152602401610912565b6001600160a01b03838116600081815260076020908152604080832094871680845294825291829020805460ff191686151590811790915591519182527f17307eab39ab6107e8899845ad3d59bd9653f200f220920489ca2b5937696c31910160405180910390a3505050565b6001600160a01b0383163b1561097657604051630a85bd0160e11b81526001600160a01b0384169063150b7a0290611c37903390889087908790600401612b92565b6020604051808303816000875af1925050508015611c72575060408051601f3d908101601f19168201909252611c6f91810190612bcf565b60015b611cdb573d808015611ca0576040519150601f19603f3d011682016040523d82523d6000602084013e611ca5565b606091505b508051600003611cd357604051633250574960e11b81526001600160a01b0385166004820152602401610912565b805181602001fd5b6001600160e01b03198116630a85bd0160e11b14610f4f57604051633250574960e11b81526001600160a01b0385166004820152602401610912565b6108a6828260405180602001604052806000815250612016565b6060600980546107ef9061271a565b60606000611d4d8361202d565b600101905060008167ffffffffffffffff811115611d6d57611d6d612459565b6040519080825280601f01601f191660200182016040528015611d97576020820181803683370190505b5090508181016020015b600019016f181899199a1a9b1b9c1cb0b131b232b360811b600a86061a8153600a8504945084611da157509392505050565b60006107da82612105565b8080611df257506001600160a01b03821615155b15611eb4576000611e028461171c565b90506001600160a01b03831615801590611e2e5750826001600160a01b0316816001600160a01b031614155b8015611e415750611e3f818461160e565b155b15611e6a5760405163a9fbf51f60e01b81526001600160a01b0384166004820152602401610912565b8115611eb25783856001600160a01b0316826001600160a01b03167f8c5be1e5ebec7d5bd14f71427d1e84f3dd0314c0f7b2291e5b200ac8c7c3b92560405160405180910390a45b505b5050600090815260066020526040902080546001600160a01b0319166001600160a01b0392909216919091179055565b6000828152600460205260408120546001600160a01b0390811690831615611f1157611f11818486612145565b6001600160a01b03811615611f4f57611f2e600085600080611dde565b6001600160a01b038116600090815260056020526040902080546000190190555b6001600160a01b03851615611f7e576001600160a01b0385166000908152600560205260409020805460010190555b60008481526004602052604080822080546001600160a01b0319166001600160a01b0389811691821790925591518793918516917fddf252ad1be2c89b69c2b068fc378daa952ba7f163c4a11628f55a4df523b3ef91a4949350505050565b611fe782826111d4565b6108a65760405163e2517d3f60e01b81526001600160a01b038216600482015260248101839052604401610912565b61202083836121a9565b610a806000848484611bf5565b60008072184f03e93ff9f4daa797ed6e38ed64bf6a1f0160401b831061206c5772184f03e93ff9f4daa797ed6e38ed64bf6a1f0160401b830492506040015b6d04ee2d6d415b85acef81000000008310612098576d04ee2d6d415b85acef8100000000830492506020015b662386f26fc1000083106120b657662386f26fc10000830492506010015b6305f5e10083106120ce576305f5e100830492506008015b61271083106120e257612710830492506004015b606483106120f4576064830492506002015b600a83106107da5760010192915050565b60006001600160e01b031982166380ac58cd60e01b148061213657506001600160e01b03198216635b5e139f60e01b145b806107da57506107da8261220e565b612150838383612243565b610a80576001600160a01b03831661217e57604051637e27328960e01b815260048101829052602401610912565b60405163177e802f60e01b81526001600160a01b038316600482015260248101829052604401610912565b6001600160a01b0382166121d357604051633250574960e11b815260006004820152602401610912565b60006121e183836000611805565b90506001600160a01b03811615610a80576040516339e3563760e11b815260006004820152602401610912565b60006001600160e01b0319821663152a902d60e11b14806107da57506301ffc9a760e01b6001600160e01b03198316146107da565b60006001600160a01b038316158015906118125750826001600160a01b0316846001600160a01b0316148061227d575061227d848461160e565b806118125750506000908152600660205260409020546001600160a01b03908116911614919050565b6001600160e01b0319811681146108e957600080fd5b6000602082840312156122ce57600080fd5b81356122d9816122a6565b9392505050565b60005b838110156122fb5781810151838201526020016122e3565b50506000910152565b6000815180845261231c8160208601602086016122e0565b601f01601f19169290920160200192915050565b6020815260006122d96020830184612304565b60006020828403121561235557600080fd5b5035919050565b6001600160a01b03811681146108e957600080fd5b6000806040838503121561238457600080fd5b823561238f8161235c565b946020939093013593505050565b6000602082840312156123af57600080fd5b81356001600160601b03811681146122d957600080fd5b6000806000606084860312156123db57600080fd5b83356123e68161235c565b925060208401356123f68161235c565b929592945050506040919091013590565b6000806040838503121561241a57600080fd5b50508035926020909101359150565b6000806040838503121561243c57600080fd5b82359150602083013561244e8161235c565b809150509250929050565b634e487b7160e01b600052604160045260246000fd5b600067ffffffffffffffff8084111561248a5761248a612459565b604051601f8501601f19908116603f011681019082821181831017156124b2576124b2612459565b816040528093508581528686860111156124cb57600080fd5b858560208301376000602087830101525050509392505050565b600082601f8301126124f657600080fd5b6122d98383356020850161246f565b6000806040838503121561251857600080fd5b82359150602083013567ffffffffffffffff81111561253657600080fd5b612542858286016124e5565b9150509250929050565b60006020828403121561255e57600080fd5b81356122d98161235c565b80151581146108e957600080fd5b6000806040838503121561258a57600080fd5b82356125958161235c565b9150602083013561244e81612569565b600080600080608085870312156125bb57600080fd5b84356125c68161235c565b935060208501356125d68161235c565b925060408501359150606085013567ffffffffffffffff8111156125f957600080fd5b8501601f8101871361260a57600080fd5b6126198782356020840161246f565b91505092959194509250565b60008060006060848603121561263a57600080fd5b833567ffffffffffffffff8082111561265257600080fd5b61265e878388016124e5565b94506020860135915061267082612569565b9092506040850135908082111561268657600080fd5b50612693868287016124e5565b9150509250925092565b600080604083850312156126b057600080fd5b82356126bb8161235c565b9150602083013561244e8161235c565b6000806000606084860312156126e057600080fd5b8335925060208401356126f28161235c565b9150604084013567ffffffffffffffff81111561270e57600080fd5b612693868287016124e5565b600181811c9082168061272e57607f821691505b60208210810361274e57634e487b7160e01b600052602260045260246000fd5b50919050565b634e487b7160e01b600052601160045260246000fd5b80820281158282048414176107da576107da612754565b60008261279e57634e487b7160e01b600052601260045260246000fd5b500490565b6000603d60f81b80835286516127c0816001860160208b016122e0565b8084019050600b60fa1b80600183015287516127e3816002850160208c016122e0565b601f60fa1b600293909101928301528651612805816003850160208b016122e0565b600392019182018190528551612822816004850160208a016122e0565b6004920191820152600360fc1b600582015260068101919091526007019695505050505050565b6000604067ffffffffffffffff8516835260208181850152845160a08386015261287660e0860182612304565b905081860151603f19808784030160608801526128938383612304565b88860151888203830160808a01528051808352908601945060009350908501905b808410156128e657845180516001600160a01b03168352860151868301529385019360019390930192908601906128b4565b5060608901516001600160a01b031660a08901526080890151888203830160c08a015295506129158187612304565b9a9950505050505050505050565b60006020828403121561293557600080fd5b5051919050565b60006020828403121561294e57600080fd5b81516122d981612569565b6000825161296b8184602087016122e0565b9190910192915050565b600081546129828161271a565b6001828116801561299a57600181146129af576129de565b60ff19841687528215158302870194506129de565b8560005260208060002060005b858110156129d55781548a8201529084019082016129bc565b50505082870194505b5050505092915050565b60006122d98284612975565b601f821115610a8057600081815260208120601f850160051c81016020861015612a1b5750805b601f850160051c820191505b818110156116ef57828155600101612a27565b815167ffffffffffffffff811115612a5457612a54612459565b612a6881612a62845461271a565b846129f4565b602080601f831160018114612a9d5760008415612a855750858301515b600019600386901b1c1916600185901b1785556116ef565b600085815260208120601f198616915b82811015612acc57888601518255948401946001909101908401612aad565b5085821015612aea5787850151600019600388901b60f8161c191681555b5050505050600190811b01905550565b60008351612b0c8184602088016122e0565b835190830190612b208183602088016122e0565b01949350505050565b60008351612b3b8184602088016122e0565b612b4781840185612975565b95945050505050565b634e487b7160e01b600052603260045260246000fd5b808201808211156107da576107da612754565b600060018201612b8b57612b8b612754565b5060010190565b6001600160a01b0385811682528416602082015260408101839052608060608201819052600090612bc590830184612304565b9695505050505050565b600060208284031215612be157600080fd5b81516122d9816122a656feb19546dff01e856fb3f010c267a7b1c60363cf8a4664e21cc89c26224620214ea264697066735822122076b6f44a52ba2af1ef723f30f9d81114fdc1c25ebd33bcdeb26d15a23067ad6564736f6c63430008140033",
        "linkReferences": {}
    },
    "methodIdentifiers": {
        "CHAINLINK_ROLE()": "fcf4f760",
        "DEFAULT_ADMIN_ROLE()": "a217fddf",
        "OWNER_ROLE()": "e58378bb",
        "OriginalChainReceiverContractAddress()": "dbb60007",
        "approve(address,uint256)": "095ea7b3",
        "balanceOf(address)": "70a08231",
        "burn(uint256)": "42966c68",
        "ccipSetMint(uint256,address,string)": "f824083f",
        "changeBaseURI(string,bool,string)": "ceaa1620",
        "changeCreatorFees(uint96)": "175d28da",
        "changeOwner(address)": "a6f9dae1",
        "crossChainSolution()": "1c35bbe5",
        "crossChainSolutionVariables()": "681782a5",
        "getApproved(uint256)": "081812fc",
        "getRoleAdmin(bytes32)": "248a9ca3",
        "goBackToOriginalCollection(uint256,string)": "56ddf587",
        "grantRole(bytes32,address)": "2f2ff15d",
        "hasRole(bytes32,address)": "91d14854",
        "isApprovedForAll(address,address)": "e985e9c5",
        "name()": "06fdde03",
        "ownerOf(uint256)": "6352211e",
        "renounceRole(bytes32,address)": "36568abe",
        "revokeRole(bytes32,address)": "d547741f",
        "royaltyInfo(uint256,uint256)": "2a55205a",
        "safeMint(uint256,string)": "bb96e082",
        "safeTransferFrom(address,address,uint256)": "42842e0e",
        "safeTransferFrom(address,address,uint256,bytes)": "b88d4fde",
        "seeIfCanMint(uint256)": "ed321c0c",
        "setApprovalForAll(address,bool)": "a22cb465",
        "setOriginalChainReceiverContractAddres(address)": "cb3f9db5",
        "setReceiverAddress(address)": "8279c7db",
        "supportsInterface(bytes4)": "01ffc9a7",
        "symbol()": "95d89b41",
        "tokenURI(uint256)": "c87b56dd",
        "transferEthFunds(address,uint256)": "b1aa0d64",
        "transferFrom(address,address,uint256)": "23b872dd",
        "viewOwnerAddress()": "496bb328",
        "viewRecieverContractAddress()": "5777a262",
        "withdrawLinkFunds(address)": "69929ee3"
    },
    "id": 48
}