{
    "abi": [
        {
            "type": "constructor",
            "inputs": [
                {
                    "name": "_routerContractAddress",
                    "type": "address",
                    "internalType": "address"
                },
                {
                    "name": "_linkTokenAddress",
                    "type": "address",
                    "internalType": "address"
                },
                {
                    "name": "_initialOwner",
                    "type": "address",
                    "internalType": "address"
                },
                {
                    "name": "_oldContract",
                    "type": "address",
                    "internalType": "address"
                },
                {
                    "name": "_costPerMint",
                    "type": "uint256",
                    "internalType": "uint256"
                },
                {
                    "name": "_maxTokens",
                    "type": "uint256",
                    "internalType": "uint256"
                },
                {
                    "name": "_destinationChainSelector",
                    "type": "uint64",
                    "internalType": "uint64"
                }
            ],
            "stateMutability": "nonpayable"
        },
        {
            "type": "receive",
            "stateMutability": "payable"
        },
        {
            "type": "function",
            "name": "CHAINLINK_ROLE",
            "inputs": [],
            "outputs": [
                {
                    "name": "",
                    "type": "bytes32",
                    "internalType": "bytes32"
                }
            ],
            "stateMutability": "view"
        },
        {
            "type": "function",
            "name": "DEFAULT_ADMIN_ROLE",
            "inputs": [],
            "outputs": [
                {
                    "name": "",
                    "type": "bytes32",
                    "internalType": "bytes32"
                }
            ],
            "stateMutability": "view"
        },
        {
            "type": "function",
            "name": "NewChainReceiverContractAddress",
            "inputs": [],
            "outputs": [
                {
                    "name": "",
                    "type": "address",
                    "internalType": "address"
                }
            ],
            "stateMutability": "view"
        },
        {
            "type": "function",
            "name": "OWNER_ROLE",
            "inputs": [],
            "outputs": [
                {
                    "name": "",
                    "type": "bytes32",
                    "internalType": "bytes32"
                }
            ],
            "stateMutability": "view"
        },
        {
            "type": "function",
            "name": "ccipSetIdToUnwrap",
            "inputs": [
                {
                    "name": "_tokenId",
                    "type": "uint256",
                    "internalType": "uint256"
                },
                {
                    "name": "_owner",
                    "type": "address",
                    "internalType": "address"
                },
                {
                    "name": "_signature",
                    "type": "string",
                    "internalType": "string"
                }
            ],
            "outputs": [],
            "stateMutability": "nonpayable"
        },
        {
            "type": "function",
            "name": "changeCost",
            "inputs": [
                {
                    "name": "newCost",
                    "type": "uint256",
                    "internalType": "uint256"
                }
            ],
            "outputs": [],
            "stateMutability": "nonpayable"
        },
        {
            "type": "function",
            "name": "changeMaxTokens",
            "inputs": [
                {
                    "name": "newMaxTokens",
                    "type": "uint256",
                    "internalType": "uint256"
                }
            ],
            "outputs": [],
            "stateMutability": "nonpayable"
        },
        {
            "type": "function",
            "name": "changeOwner",
            "inputs": [
                {
                    "name": "newOwner",
                    "type": "address",
                    "internalType": "address"
                }
            ],
            "outputs": [],
            "stateMutability": "nonpayable"
        },
        {
            "type": "function",
            "name": "crossChainSolution",
            "inputs": [],
            "outputs": [
                {
                    "name": "",
                    "type": "uint8",
                    "internalType": "uint8"
                }
            ],
            "stateMutability": "pure"
        },
        {
            "type": "function",
            "name": "crossChainSolutionVariables",
            "inputs": [],
            "outputs": [
                {
                    "name": "",
                    "type": "bool",
                    "internalType": "bool"
                },
                {
                    "name": "",
                    "type": "address",
                    "internalType": "address"
                },
                {
                    "name": "",
                    "type": "uint64",
                    "internalType": "uint64"
                }
            ],
            "stateMutability": "view"
        },
        {
            "type": "function",
            "name": "getRoleAdmin",
            "inputs": [
                {
                    "name": "role",
                    "type": "bytes32",
                    "internalType": "bytes32"
                }
            ],
            "outputs": [
                {
                    "name": "",
                    "type": "bytes32",
                    "internalType": "bytes32"
                }
            ],
            "stateMutability": "view"
        },
        {
            "type": "function",
            "name": "grantRole",
            "inputs": [
                {
                    "name": "role",
                    "type": "bytes32",
                    "internalType": "bytes32"
                },
                {
                    "name": "account",
                    "type": "address",
                    "internalType": "address"
                }
            ],
            "outputs": [],
            "stateMutability": "nonpayable"
        },
        {
            "type": "function",
            "name": "hasRole",
            "inputs": [
                {
                    "name": "role",
                    "type": "bytes32",
                    "internalType": "bytes32"
                },
                {
                    "name": "account",
                    "type": "address",
                    "internalType": "address"
                }
            ],
            "outputs": [
                {
                    "name": "",
                    "type": "bool",
                    "internalType": "bool"
                }
            ],
            "stateMutability": "view"
        },
        {
            "type": "function",
            "name": "passMint",
            "inputs": [
                {
                    "name": "tokenID",
                    "type": "uint256",
                    "internalType": "uint256"
                },
                {
                    "name": "_signature",
                    "type": "string",
                    "internalType": "string"
                }
            ],
            "outputs": [],
            "stateMutability": "payable"
        },
        {
            "type": "function",
            "name": "renounceRole",
            "inputs": [
                {
                    "name": "role",
                    "type": "bytes32",
                    "internalType": "bytes32"
                },
                {
                    "name": "callerConfirmation",
                    "type": "address",
                    "internalType": "address"
                }
            ],
            "outputs": [],
            "stateMutability": "nonpayable"
        },
        {
            "type": "function",
            "name": "revokeRole",
            "inputs": [
                {
                    "name": "role",
                    "type": "bytes32",
                    "internalType": "bytes32"
                },
                {
                    "name": "account",
                    "type": "address",
                    "internalType": "address"
                }
            ],
            "outputs": [],
            "stateMutability": "nonpayable"
        },
        {
            "type": "function",
            "name": "seeIfCanUnwrap",
            "inputs": [
                {
                    "name": "_tokenId",
                    "type": "uint256",
                    "internalType": "uint256"
                }
            ],
            "outputs": [
                {
                    "name": "",
                    "type": "bool",
                    "internalType": "bool"
                }
            ],
            "stateMutability": "view"
        },
        {
            "type": "function",
            "name": "setNewChainReceiverContractAddress",
            "inputs": [
                {
                    "name": "_NewChainReceiverContractAddress",
                    "type": "address",
                    "internalType": "address"
                }
            ],
            "outputs": [],
            "stateMutability": "nonpayable"
        },
        {
            "type": "function",
            "name": "setReceiverAddress",
            "inputs": [
                {
                    "name": "_receiverAddress",
                    "type": "address",
                    "internalType": "address"
                }
            ],
            "outputs": [],
            "stateMutability": "nonpayable"
        },
        {
            "type": "function",
            "name": "supportsInterface",
            "inputs": [
                {
                    "name": "interfaceId",
                    "type": "bytes4",
                    "internalType": "bytes4"
                }
            ],
            "outputs": [
                {
                    "name": "",
                    "type": "bool",
                    "internalType": "bool"
                }
            ],
            "stateMutability": "view"
        },
        {
            "type": "function",
            "name": "transferEthFunds",
            "inputs": [
                {
                    "name": "beneficiary",
                    "type": "address",
                    "internalType": "address payable"
                },
                {
                    "name": "amount",
                    "type": "uint256",
                    "internalType": "uint256"
                }
            ],
            "outputs": [],
            "stateMutability": "nonpayable"
        },
        {
            "type": "function",
            "name": "viewOwnerAddress",
            "inputs": [],
            "outputs": [
                {
                    "name": "",
                    "type": "address",
                    "internalType": "address"
                }
            ],
            "stateMutability": "view"
        },
        {
            "type": "function",
            "name": "viewRecieverContractAddress",
            "inputs": [],
            "outputs": [
                {
                    "name": "",
                    "type": "address",
                    "internalType": "address"
                }
            ],
            "stateMutability": "view"
        },
        {
            "type": "function",
            "name": "withdrawLinkFunds",
            "inputs": [
                {
                    "name": "beneficiary",
                    "type": "address",
                    "internalType": "address"
                }
            ],
            "outputs": [],
            "stateMutability": "nonpayable"
        },
        {
            "type": "function",
            "name": "withdrawMyToken",
            "inputs": [
                {
                    "name": "_tokenId",
                    "type": "uint256",
                    "internalType": "uint256"
                },
                {
                    "name": "_signature",
                    "type": "string",
                    "internalType": "string"
                }
            ],
            "outputs": [],
            "stateMutability": "nonpayable"
        },
        {
            "type": "event",
            "name": "RoleAdminChanged",
            "inputs": [
                {
                    "name": "role",
                    "type": "bytes32",
                    "indexed": true,
                    "internalType": "bytes32"
                },
                {
                    "name": "previousAdminRole",
                    "type": "bytes32",
                    "indexed": true,
                    "internalType": "bytes32"
                },
                {
                    "name": "newAdminRole",
                    "type": "bytes32",
                    "indexed": true,
                    "internalType": "bytes32"
                }
            ],
            "anonymous": false
        },
        {
            "type": "event",
            "name": "RoleGranted",
            "inputs": [
                {
                    "name": "role",
                    "type": "bytes32",
                    "indexed": true,
                    "internalType": "bytes32"
                },
                {
                    "name": "account",
                    "type": "address",
                    "indexed": true,
                    "internalType": "address"
                },
                {
                    "name": "sender",
                    "type": "address",
                    "indexed": true,
                    "internalType": "address"
                }
            ],
            "anonymous": false
        },
        {
            "type": "event",
            "name": "RoleRevoked",
            "inputs": [
                {
                    "name": "role",
                    "type": "bytes32",
                    "indexed": true,
                    "internalType": "bytes32"
                },
                {
                    "name": "account",
                    "type": "address",
                    "indexed": true,
                    "internalType": "address"
                },
                {
                    "name": "sender",
                    "type": "address",
                    "indexed": true,
                    "internalType": "address"
                }
            ],
            "anonymous": false
        },
        {
            "type": "error",
            "name": "AccessControlBadConfirmation",
            "inputs": []
        },
        {
            "type": "error",
            "name": "AccessControlUnauthorizedAccount",
            "inputs": [
                {
                    "name": "account",
                    "type": "address",
                    "internalType": "address"
                },
                {
                    "name": "neededRole",
                    "type": "bytes32",
                    "internalType": "bytes32"
                }
            ]
        },
        {
            "type": "error",
            "name": "GmFamTreasuryAndWraper__AccessDenied",
            "inputs": []
        },
        {
            "type": "error",
            "name": "GmFamTreasuryAndWraper__MaxSupplyReached",
            "inputs": []
        },
        {
            "type": "error",
            "name": "GmFamTreasuryAndWraper__NotEnoughFunds",
            "inputs": []
        },
        {
            "type": "error",
            "name": "GmFamTreasuryAndWraper__OwnerMUSTSetUPTheReceiverContractFirst",
            "inputs": []
        },
        {
            "type": "error",
            "name": "GmFamTreasuryAndWraper__OwnerMustSetTheNewChainReceiverContractAddress",
            "inputs": []
        },
        {
            "type": "error",
            "name": "GmFamTreasuryAndWraper__ReceiverAddressAlreadySet",
            "inputs": []
        },
        {
            "type": "error",
            "name": "GmFamTreasuryAndWraper__TransferFailed",
            "inputs": []
        },
        {
            "type": "error",
            "name": "GmFamTreasuryAndWraper__YouAreNotTheOwner",
            "inputs": []
        },
        {
            "type": "error",
            "name": "GmFamTreasuryAndWraper__YouMUSTPayForMint",
            "inputs": []
        },
        {
            "type": "error",
            "name": "GmFamTreasuryAndWraper__YouMUSTUnwrapTheTokenFirst",
            "inputs": []
        },
        {
            "type": "error",
            "name": "GmFamTreasuryAndWraper__YouMUSTWrapTheTokenFirst",
            "inputs": []
        }
    ],
    "bytecode": {
        "object": "0x60e06040526006805460ff60a01b19169055600780546001600160a01b03191690553480156200002e57600080fd5b50604051620021af380380620021af833981016040819052620000519162000229565b6200007d7fb19546dff01e856fb3f010c267a7b1c60363cf8a4664e21cc89c26224620214e866200015d565b50600580546001600160a01b0319166001600160a01b0387811691909117909155878116608081905290871660a08190526001600160401b03831660c05260405163095ea7b360e01b8152600481019290925260001960248301529063095ea7b3906044016020604051808303816000875af115801562000102573d6000803e3d6000fd5b505050506040513d601f19601f82011682018060405250810190620001289190620002bd565b5050600191909155600255600380546001600160a01b0319166001600160a01b039290921691909117905550620002e8915050565b6000828152602081815260408083206001600160a01b038516845290915281205460ff1662000202576000838152602081815260408083206001600160a01b03861684529091529020805460ff19166001179055620001b93390565b6001600160a01b0316826001600160a01b0316847f2f8788117e7eff1d82e926ec794901d17c78024a50270940304540a733656f0d60405160405180910390a450600162000206565b5060005b92915050565b80516001600160a01b03811681146200022457600080fd5b919050565b600080600080600080600060e0888a0312156200024557600080fd5b62000250886200020c565b965062000260602089016200020c565b955062000270604089016200020c565b945062000280606089016200020c565b608089015160a08a015160c08b015192965090945092506001600160401b0381168114620002ad57600080fd5b8091505092959891949750929550565b600060208284031215620002d057600080fd5b81518015158114620002e157600080fd5b9392505050565b60805160a05160c051611e5f620003506000396000818161033d01528181610a4a0152610c5801526000818161096901528181610acd01528181610ba601528181610d690152610e08015260008181610a1d01528181610b770152610c2b0152611e5f6000f3fe60806040526004361061016a5760003560e01c806369929ee3116100d1578063b1aa0d641161008a578063e395819011610064578063e395819014610495578063e47eaae4146104b5578063e58378bb146104d5578063fcf4f760146104f757600080fd5b8063b1aa0d6414610435578063d547741f14610455578063debc68171461047557600080fd5b806369929ee3146103695780638279c7db1461038957806391d14854146103a95780639bc3a5ef146103c9578063a217fddf14610400578063a6f9dae11461041557600080fd5b806336568abe1161012357806336568abe14610267578063496bb32814610287578063536257a8146102b95780635777a262146102cc5780635cb85cd2146102ea578063681782a51461030a57600080fd5b80630127c6d01461017657806301ffc9a7146101985780630b84c161146101cd5780631c35bbe5146101ed578063248a9ca3146102095780632f2ff15d1461024757600080fd5b3661017157005b600080fd5b34801561018257600080fd5b5061019661019136600461181f565b61052b565b005b3480156101a457600080fd5b506101b86101b3366004611878565b6105e6565b60405190151581526020015b60405180910390f35b3480156101d957600080fd5b506101966101e83660046118a9565b61061d565b3480156101f957600080fd5b50604051600181526020016101c4565b34801561021557600080fd5b506102396102243660046118c6565b60009081526020819052604090206001015490565b6040519081526020016101c4565b34801561025357600080fd5b506101966102623660046118df565b610674565b34801561027357600080fd5b506101966102823660046118df565b61069f565b34801561029357600080fd5b506005546001600160a01b03165b6040516001600160a01b0390911681526020016101c4565b6101966102c736600461190f565b6106d7565b3480156102d857600080fd5b506006546001600160a01b03166102a1565b3480156102f657600080fd5b506101966103053660046118c6565b610ce2565b34801561031657600080fd5b5060065460408051600081526001600160a01b03909216602083015267ffffffffffffffff7f000000000000000000000000000000000000000000000000000000000000000016908201526060016101c4565b34801561037557600080fd5b506101966103843660046118a9565b610d1c565b34801561039557600080fd5b506101966103a43660046118a9565b610e95565b3480156103b557600080fd5b506101b86103c43660046118df565b610f47565b3480156103d557600080fd5b506101b86103e43660046118c6565b600090815260086020526040902054600160a01b900460ff1690565b34801561040c57600080fd5b50610239600081565b34801561042157600080fd5b506101966104303660046118a9565b610f70565b34801561044157600080fd5b50610196610450366004611956565b610ff9565b34801561046157600080fd5b506101966104703660046118df565b611095565b34801561048157600080fd5b5061019661049036600461190f565b6110ba565b3480156104a157600080fd5b506007546102a1906001600160a01b031681565b3480156104c157600080fd5b506101966104d03660046118c6565b611285565b3480156104e157600080fd5b50610239600080516020611e0a83398151915281565b34801561050357600080fd5b506102397f47a82eb9b5b73b441b8cb87ac088aec65cb2b5df8599ec7a73af0e85167f375881565b6105557f47a82eb9b5b73b441b8cb87ac088aec65cb2b5df8599ec7a73af0e85167f375833610f47565b61057257604051636123936f60e11b815260040160405180910390fd5b604080516060810182526001600160a01b0380851682526001602080840182815284860187815260008a81526008909352959091208451815492511515600160a01b026001600160a81b0319909316941693909317178255925191929091908201906105de9082611a02565b505050505050565b60006001600160e01b03198216637965db0b60e01b148061061757506301ffc9a760e01b6001600160e01b03198316145b92915050565b610635600080516020611e0a83398151915233610f47565b61065257604051636123936f60e11b815260040160405180910390fd5b600780546001600160a01b0319166001600160a01b0392909216919091179055565b60008281526020819052604090206001015461068f816112bf565b61069983836112cc565b50505050565b6001600160a01b03811633146106c85760405163334bd91960e11b815260040160405180910390fd5b6106d2828261135e565b505050565b600254600454106106fb576040516316654fdb60e01b815260040160405180910390fd5b60015434101561071e57604051631d266a7360e01b815260040160405180910390fd5b6003546040516331a9108f60e11b8152600481018490526001600160a01b0390911690636352211e90602401602060405180830381865afa158015610767573d6000803e3d6000fd5b505050506040513d601f19601f8201168201806040525081019061078b9190611ac2565b6001600160a01b0316336001600160a01b0316146107bb576040516202895f60ed1b815260040160405180910390fd5b60405130903480156108fc02916000818181858888f193505050506107f35760405163349189c560e21b815260040160405180910390fd5b6003546040516323b872dd60e01b8152336004820152306024820152604481018490526001600160a01b03909116906323b872dd90606401600060405180830381600087803b15801561084557600080fd5b505af1158015610859573d6000803e3d6000fd5b505050506000610868336113c9565b610871846115b4565b8361087b336113c9565b610884346115b4565b604051602001610898959493929190611b03565b60408051808303601f1901815260a083019091526007546001600160a01b031660c083015291506000908060e081016040516020818303038152906040528152602001836040516024016108ec9190611be0565b60408051601f19818403018152919052602080820180516001600160e01b031662543cc360e11b17905290825201600060405190808252806020026020018201604052801561096157816020015b604080518082019091526000808252602082015281526020019060019003908161093a5790505b5081526020017f00000000000000000000000000000000000000000000000000000000000000006001600160a01b031681526020016109fe60405180604001604052806207a1208152602001600015158152506040805182516024820152602092830151151560448083019190915282518083039091018152606490910190915290810180516001600160e01b03166397a657c960e01b17905290565b90526040516320487ded60e01b81529091506000906001600160a01b037f000000000000000000000000000000000000000000000000000000000000000016906320487ded90610a74907f0000000000000000000000000000000000000000000000000000000000000000908690600401611bf3565b602060405180830381865afa158015610a91573d6000803e3d6000fd5b505050506040513d601f19601f82011682018060405250810190610ab59190611ccd565b6040516370a0823160e01b81523060048201529091507f00000000000000000000000000000000000000000000000000000000000000006001600160a01b0316906370a0823190602401602060405180830381865afa158015610b1c573d6000803e3d6000fd5b505050506040513d601f19601f82011682018060405250810190610b409190611ccd565b811115610b6057604051639a2e5f9b60e01b815260040160405180910390fd5b60405163095ea7b360e01b81526001600160a01b037f000000000000000000000000000000000000000000000000000000000000000081166004830152602482018390527f0000000000000000000000000000000000000000000000000000000000000000169063095ea7b3906044016020604051808303816000875af1158015610bef573d6000803e3d6000fd5b505050506040513d601f19601f82011682018060405250810190610c139190611ce6565b506040516396f4e9f960e01b81526001600160a01b037f000000000000000000000000000000000000000000000000000000000000000016906396f4e9f990610c82907f0000000000000000000000000000000000000000000000000000000000000000908690600401611bf3565b6020604051808303816000875af1158015610ca1573d6000803e3d6000fd5b505050506040513d601f19601f82011682018060405250810190610cc59190611ccd565b5060048054906000610cd683611d1e565b91905055505050505050565b610cfa600080516020611e0a83398151915233610f47565b610d1757604051636123936f60e11b815260040160405180910390fd5b600155565b610d34600080516020611e0a83398151915233610f47565b610d5157604051636123936f60e11b815260040160405180910390fd5b6040516370a0823160e01b81523060048201526000907f00000000000000000000000000000000000000000000000000000000000000006001600160a01b0316906370a0823190602401602060405180830381865afa158015610db8573d6000803e3d6000fd5b505050506040513d601f19601f82011682018060405250810190610ddc9190611ccd565b60405163a9059cbb60e01b81526001600160a01b038481166004830152602482018390529192506000917f0000000000000000000000000000000000000000000000000000000000000000169063a9059cbb906044016020604051808303816000875af1158015610e51573d6000803e3d6000fd5b505050506040513d601f19601f82011682018060405250810190610e759190611ce6565b9050806106d25760405163349189c560e21b815260040160405180910390fd5b610ead600080516020611e0a83398151915233610f47565b610eca57604051636123936f60e11b815260040160405180910390fd5b600654600160a01b900460ff1615610ef55760405163b8fcdc9560e01b815260040160405180910390fd5b610f1f7f47a82eb9b5b73b441b8cb87ac088aec65cb2b5df8599ec7a73af0e85167f3758826112cc565b50600680546001600160a81b0319166001600160a01b0390921691909117600160a01b179055565b6000918252602082815260408084206001600160a01b0393909316845291905290205460ff1690565b610f88600080516020611e0a83398151915233610f47565b610fa557604051636123936f60e11b815260040160405180910390fd5b610fbd600080516020611e0a833981519152826112cc565b50610fd6600080516020611e0a8339815191523361135e565b50600580546001600160a01b0319166001600160a01b0392909216919091179055565b611011600080516020611e0a83398151915233610f47565b61102e57604051636123936f60e11b815260040160405180910390fd5b8047101561104f57604051639a2e5f9b60e01b815260040160405180910390fd5b6040516001600160a01b0383169082156108fc029083906000818181858888f193505050506110915760405163349189c560e21b815260040160405180910390fd5b5050565b6000828152602081905260409020600101546110b0816112bf565b610699838361135e565b600082815260086020526040902054600160a01b900460ff166110f057604051630ce5824960e41b815260040160405180910390fd5b6000828152600860205260409020546001600160a01b03163314611126576040516202895f60ed1b815260040160405180910390fd5b806040516020016111379190611d37565b60408051601f19818403018152828252805160209182012060008681526008835292909220919261116c926001019101611d53565b60405160208183030381529060405280519060200120146111a057604051630ce5824960e41b815260040160405180910390fd5b6003546040516323b872dd60e01b8152306004820152336024820152604481018490526001600160a01b03909116906323b872dd90606401600060405180830381600087803b1580156111f257600080fd5b505af1158015611206573d6000803e3d6000fd5b50506040805160608101825260008082526020808301828152845180830186528381528486019081528984526008909252939091208251815494511515600160a01b026001600160a81b03199095166001600160a01b03919091161793909317835551909350909150600182019061127e9082611a02565b5050505050565b61129d600080516020611e0a83398151915233610f47565b6112ba57604051636123936f60e11b815260040160405180910390fd5b600255565b6112c981336115bf565b50565b60006112d88383610f47565b611356576000838152602081815260408083206001600160a01b03861684529091529020805460ff1916600117905561130e3390565b6001600160a01b0316826001600160a01b0316847f2f8788117e7eff1d82e926ec794901d17c78024a50270940304540a733656f0d60405160405180910390a4506001610617565b506000610617565b600061136a8383610f47565b15611356576000838152602081815260408083206001600160a01b0386168085529252808320805460ff1916905551339286917ff6391f5c32d9c69d2a47ea670b442974b53935d1edc7fd64eb21e047a839171b9190a4506001610617565b604080518082018252601081526f181899199a1a9b1b9c1cb0b131b232b360811b60208201528151602a80825260608281019094526001600160a01b0385169291600091602082018180368337019050509050600360fc1b8160008151811061143457611434611dc9565b60200101906001600160f81b031916908160001a905350600f60fb1b8160018151811061146357611463611dc9565b60200101906001600160f81b031916908160001a90535060005b60148110156115ab578260048561149584600c611ddf565b602081106114a5576114a5611dc9565b1a60f81b6001600160f81b031916901c60f81c60ff16815181106114cb576114cb611dc9565b01602001516001600160f81b031916826114e6836002611df2565b6114f1906002611ddf565b8151811061150157611501611dc9565b60200101906001600160f81b031916908160001a905350828461152583600c611ddf565b6020811061153557611535611dc9565b825191901a600f1690811061154c5761154c611dc9565b01602001516001600160f81b03191682611567836002611df2565b611572906003611ddf565b8151811061158257611582611dc9565b60200101906001600160f81b031916908160001a905350806115a381611d1e565b91505061147d565b50949350505050565b6060610617826115fc565b6115c98282610f47565b6110915760405163e2517d3f60e01b81526001600160a01b03821660048201526024810183905260440160405180910390fd5b606060006116098361168f565b600101905060008167ffffffffffffffff8111156116295761162961177c565b6040519080825280601f01601f191660200182016040528015611653576020820181803683370190505b5090508181016020015b600019016f181899199a1a9b1b9c1cb0b131b232b360811b600a86061a8153600a850494508461165d57509392505050565b60008072184f03e93ff9f4daa797ed6e38ed64bf6a1f0160401b83106116ce5772184f03e93ff9f4daa797ed6e38ed64bf6a1f0160401b830492506040015b6d04ee2d6d415b85acef810000000083106116fa576d04ee2d6d415b85acef8100000000830492506020015b662386f26fc10000831061171857662386f26fc10000830492506010015b6305f5e1008310611730576305f5e100830492506008015b612710831061174457612710830492506004015b60648310611756576064830492506002015b600a83106106175760010192915050565b6001600160a01b03811681146112c957600080fd5b634e487b7160e01b600052604160045260246000fd5b600082601f8301126117a357600080fd5b813567ffffffffffffffff808211156117be576117be61177c565b604051601f8301601f19908116603f011681019082821181831017156117e6576117e661177c565b816040528381528660208588010111156117ff57600080fd5b836020870160208301376000602085830101528094505050505092915050565b60008060006060848603121561183457600080fd5b83359250602084013561184681611767565b9150604084013567ffffffffffffffff81111561186257600080fd5b61186e86828701611792565b9150509250925092565b60006020828403121561188a57600080fd5b81356001600160e01b0319811681146118a257600080fd5b9392505050565b6000602082840312156118bb57600080fd5b81356118a281611767565b6000602082840312156118d857600080fd5b5035919050565b600080604083850312156118f257600080fd5b82359150602083013561190481611767565b809150509250929050565b6000806040838503121561192257600080fd5b82359150602083013567ffffffffffffffff81111561194057600080fd5b61194c85828601611792565b9150509250929050565b6000806040838503121561196957600080fd5b823561197481611767565b946020939093013593505050565b600181811c9082168061199657607f821691505b6020821081036119b657634e487b7160e01b600052602260045260246000fd5b50919050565b601f8211156106d257600081815260208120601f850160051c810160208610156119e35750805b601f850160051c820191505b818110156105de578281556001016119ef565b815167ffffffffffffffff811115611a1c57611a1c61177c565b611a3081611a2a8454611982565b846119bc565b602080601f831160018114611a655760008415611a4d5750858301515b600019600386901b1c1916600185901b1785556105de565b600085815260208120601f198616915b82811015611a9457888601518255948401946001909101908401611a75565b5085821015611ab25787850151600019600388901b60f8161c191681555b5050505050600190811b01905550565b600060208284031215611ad457600080fd5b81516118a281611767565b60005b83811015611afa578181015183820152602001611ae2565b50506000910152565b6000603d60f81b8083528751611b20816001860160208c01611adf565b8084019050600b60fa1b8060018301528851611b43816002850160208d01611adf565b601f60fa1b600293909101928301528751611b65816003850160208c01611adf565b600392019182018190528651611b82816004850160208b01611adf565b60049201918201528451611b9d816005840160208901611adf565b016005810191909152600601979650505050505050565b60008151808452611bcc816020860160208601611adf565b601f01601f19169290920160200192915050565b6020815260006118a26020830184611bb4565b6000604067ffffffffffffffff8516835260208181850152845160a083860152611c2060e0860182611bb4565b905081860151603f1980878403016060880152611c3d8383611bb4565b88860151888203830160808a01528051808352908601945060009350908501905b80841015611c9057845180516001600160a01b0316835286015186830152938501936001939093019290860190611c5e565b5060608901516001600160a01b031660a08901526080890151888203830160c08a01529550611cbf8187611bb4565b9a9950505050505050505050565b600060208284031215611cdf57600080fd5b5051919050565b600060208284031215611cf857600080fd5b815180151581146118a257600080fd5b634e487b7160e01b600052601160045260246000fd5b600060018201611d3057611d30611d08565b5060010190565b60008251611d49818460208701611adf565b9190910192915050565b6000808354611d6181611982565b60018281168015611d795760018114611d8e57611dbd565b60ff1984168752821515830287019450611dbd565b8760005260208060002060005b85811015611db45781548a820152908401908201611d9b565b50505082870194505b50929695505050505050565b634e487b7160e01b600052603260045260246000fd5b8082018082111561061757610617611d08565b808202811582820484141761061757610617611d0856feb19546dff01e856fb3f010c267a7b1c60363cf8a4664e21cc89c26224620214ea26469706673582212207795dcbe188a22448219d49d34a74ad1af44a8c53f17610709bbe5415223924d64736f6c63430008140033",
        "linkReferences": {}
    },
    "methodIdentifiers": {
        "CHAINLINK_ROLE()": "fcf4f760",
        "DEFAULT_ADMIN_ROLE()": "a217fddf",
        "NewChainReceiverContractAddress()": "e3958190",
        "OWNER_ROLE()": "e58378bb",
        "ccipSetIdToUnwrap(uint256,address,string)": "0127c6d0",
        "changeCost(uint256)": "5cb85cd2",
        "changeMaxTokens(uint256)": "e47eaae4",
        "changeOwner(address)": "a6f9dae1",
        "crossChainSolution()": "1c35bbe5",
        "crossChainSolutionVariables()": "681782a5",
        "getRoleAdmin(bytes32)": "248a9ca3",
        "grantRole(bytes32,address)": "2f2ff15d",
        "hasRole(bytes32,address)": "91d14854",
        "passMint(uint256,string)": "536257a8",
        "renounceRole(bytes32,address)": "36568abe",
        "revokeRole(bytes32,address)": "d547741f",
        "seeIfCanUnwrap(uint256)": "9bc3a5ef",
        "setNewChainReceiverContractAddress(address)": "0b84c161",
        "setReceiverAddress(address)": "8279c7db",
        "supportsInterface(bytes4)": "01ffc9a7",
        "transferEthFunds(address,uint256)": "b1aa0d64",
        "viewOwnerAddress()": "496bb328",
        "viewRecieverContractAddress()": "5777a262",
        "withdrawLinkFunds(address)": "69929ee3",
        "withdrawMyToken(uint256,string)": "debc6817"
    },
    "id": 53
}