{
    "abi": [
        {
            "type": "constructor",
            "inputs": [
                {
                    "name": "_initialOwner",
                    "type": "address",
                    "internalType": "address"
                },
                {
                    "name": "_nftAddress",
                    "type": "address",
                    "internalType": "address"
                },
                {
                    "name": "_i_router",
                    "type": "address",
                    "internalType": "address"
                },
                {
                    "name": "_i_link",
                    "type": "address",
                    "internalType": "address"
                },
                {
                    "name": "_destinationChainSelector",
                    "type": "uint64",
                    "internalType": "uint64"
                }
            ],
            "stateMutability": "nonpayable"
        },
        {
            "type": "function",
            "name": "OriginalChain_ReceiverContractAddress",
            "inputs": [],
            "outputs": [
                {
                    "name": "",
                    "type": "address",
                    "internalType": "address"
                }
            ],
            "stateMutability": "view"
        },
        {
            "type": "function",
            "name": "VOTE_DURATION",
            "inputs": [],
            "outputs": [
                {
                    "name": "",
                    "type": "uint256",
                    "internalType": "uint256"
                }
            ],
            "stateMutability": "view"
        },
        {
            "type": "function",
            "name": "admin",
            "inputs": [],
            "outputs": [
                {
                    "name": "",
                    "type": "address",
                    "internalType": "address"
                }
            ],
            "stateMutability": "view"
        },
        {
            "type": "function",
            "name": "closeVoteForProposal",
            "inputs": [
                {
                    "name": "_idProposal",
                    "type": "uint256",
                    "internalType": "uint256"
                }
            ],
            "outputs": [],
            "stateMutability": "nonpayable"
        },
        {
            "type": "function",
            "name": "crossChainSolution",
            "inputs": [],
            "outputs": [
                {
                    "name": "",
                    "type": "uint8",
                    "internalType": "uint8"
                }
            ],
            "stateMutability": "pure"
        },
        {
            "type": "function",
            "name": "crossChainSolutionVariables",
            "inputs": [],
            "outputs": [
                {
                    "name": "",
                    "type": "bool",
                    "internalType": "bool"
                },
                {
                    "name": "",
                    "type": "address",
                    "internalType": "address"
                },
                {
                    "name": "",
                    "type": "uint64",
                    "internalType": "uint64"
                }
            ],
            "stateMutability": "view"
        },
        {
            "type": "function",
            "name": "executeProposal",
            "inputs": [
                {
                    "name": "_idProposal",
                    "type": "uint256",
                    "internalType": "uint256"
                }
            ],
            "outputs": [],
            "stateMutability": "nonpayable"
        },
        {
            "type": "function",
            "name": "makeProposal",
            "inputs": [
                {
                    "name": "_name",
                    "type": "string",
                    "internalType": "string"
                },
                {
                    "name": "_description",
                    "type": "string",
                    "internalType": "string"
                },
                {
                    "name": "_isInTheOriginalChain",
                    "type": "bool",
                    "internalType": "bool"
                },
                {
                    "name": "_idProposalInTheOriginalChain",
                    "type": "uint256",
                    "internalType": "uint256"
                },
                {
                    "name": "_isBinary",
                    "type": "bool",
                    "internalType": "bool"
                },
                {
                    "name": "numberOfOptions",
                    "type": "uint256",
                    "internalType": "uint256"
                },
                {
                    "name": "_idNft",
                    "type": "uint256",
                    "internalType": "uint256"
                }
            ],
            "outputs": [],
            "stateMutability": "nonpayable"
        },
        {
            "type": "function",
            "name": "nftAddress",
            "inputs": [],
            "outputs": [
                {
                    "name": "",
                    "type": "address",
                    "internalType": "address"
                }
            ],
            "stateMutability": "view"
        },
        {
            "type": "function",
            "name": "owner",
            "inputs": [],
            "outputs": [
                {
                    "name": "",
                    "type": "address",
                    "internalType": "address"
                }
            ],
            "stateMutability": "view"
        },
        {
            "type": "function",
            "name": "proposalCount",
            "inputs": [],
            "outputs": [
                {
                    "name": "",
                    "type": "uint256",
                    "internalType": "uint256"
                }
            ],
            "stateMutability": "view"
        },
        {
            "type": "function",
            "name": "proposals",
            "inputs": [
                {
                    "name": "",
                    "type": "uint256",
                    "internalType": "uint256"
                }
            ],
            "outputs": [
                {
                    "name": "id",
                    "type": "uint256",
                    "internalType": "uint256"
                },
                {
                    "name": "nameOfTaco",
                    "type": "string",
                    "internalType": "string"
                },
                {
                    "name": "description",
                    "type": "string",
                    "internalType": "string"
                },
                {
                    "name": "isBinary",
                    "type": "bool",
                    "internalType": "bool"
                },
                {
                    "name": "numberOfOptions",
                    "type": "uint256",
                    "internalType": "uint256"
                },
                {
                    "name": "votes",
                    "type": "uint256",
                    "internalType": "uint256"
                },
                {
                    "name": "endDate",
                    "type": "uint256",
                    "internalType": "uint256"
                },
                {
                    "name": "executed",
                    "type": "bool",
                    "internalType": "bool"
                },
                {
                    "name": "passed",
                    "type": "bool",
                    "internalType": "bool"
                },
                {
                    "name": "optionVoted",
                    "type": "uint256",
                    "internalType": "uint256"
                },
                {
                    "name": "isInTheOriginalChain",
                    "type": "bool",
                    "internalType": "bool"
                },
                {
                    "name": "orignalChainProposalId",
                    "type": "uint256",
                    "internalType": "uint256"
                }
            ],
            "stateMutability": "view"
        },
        {
            "type": "function",
            "name": "renounceOwnership",
            "inputs": [],
            "outputs": [],
            "stateMutability": "nonpayable"
        },
        {
            "type": "function",
            "name": "seeProposal",
            "inputs": [
                {
                    "name": "_idProposal",
                    "type": "uint256",
                    "internalType": "uint256"
                }
            ],
            "outputs": [
                {
                    "name": "",
                    "type": "tuple",
                    "internalType": "struct ForkTacoDAO.Proposal",
                    "components": [
                        {
                            "name": "id",
                            "type": "uint256",
                            "internalType": "uint256"
                        },
                        {
                            "name": "nameOfTaco",
                            "type": "string",
                            "internalType": "string"
                        },
                        {
                            "name": "description",
                            "type": "string",
                            "internalType": "string"
                        },
                        {
                            "name": "isBinary",
                            "type": "bool",
                            "internalType": "bool"
                        },
                        {
                            "name": "numberOfOptions",
                            "type": "uint256",
                            "internalType": "uint256"
                        },
                        {
                            "name": "options",
                            "type": "uint256[]",
                            "internalType": "uint256[]"
                        },
                        {
                            "name": "votes",
                            "type": "uint256",
                            "internalType": "uint256"
                        },
                        {
                            "name": "endDate",
                            "type": "uint256",
                            "internalType": "uint256"
                        },
                        {
                            "name": "executed",
                            "type": "bool",
                            "internalType": "bool"
                        },
                        {
                            "name": "passed",
                            "type": "bool",
                            "internalType": "bool"
                        },
                        {
                            "name": "optionVoted",
                            "type": "uint256",
                            "internalType": "uint256"
                        },
                        {
                            "name": "isInTheOriginalChain",
                            "type": "bool",
                            "internalType": "bool"
                        },
                        {
                            "name": "orignalChainProposalId",
                            "type": "uint256",
                            "internalType": "uint256"
                        }
                    ]
                }
            ],
            "stateMutability": "view"
        },
        {
            "type": "function",
            "name": "seeTokenVoteAddress",
            "inputs": [],
            "outputs": [
                {
                    "name": "",
                    "type": "address",
                    "internalType": "address"
                }
            ],
            "stateMutability": "view"
        },
        {
            "type": "function",
            "name": "setOriginalChain_ReceiverContractAddress",
            "inputs": [
                {
                    "name": "_originalChain_ReceiverContractAddress",
                    "type": "address",
                    "internalType": "address"
                }
            ],
            "outputs": [],
            "stateMutability": "nonpayable"
        },
        {
            "type": "function",
            "name": "transferEthFunds",
            "inputs": [
                {
                    "name": "to",
                    "type": "address",
                    "internalType": "address payable"
                },
                {
                    "name": "amount",
                    "type": "uint256",
                    "internalType": "uint256"
                }
            ],
            "outputs": [],
            "stateMutability": "nonpayable"
        },
        {
            "type": "function",
            "name": "transferOwnership",
            "inputs": [
                {
                    "name": "newOwner",
                    "type": "address",
                    "internalType": "address"
                }
            ],
            "outputs": [],
            "stateMutability": "nonpayable"
        },
        {
            "type": "function",
            "name": "vote",
            "inputs": [
                {
                    "name": "_idProposal",
                    "type": "uint256",
                    "internalType": "uint256"
                },
                {
                    "name": "_option",
                    "type": "uint256",
                    "internalType": "uint256"
                },
                {
                    "name": "_idNft",
                    "type": "uint256",
                    "internalType": "uint256"
                }
            ],
            "outputs": [],
            "stateMutability": "nonpayable"
        },
        {
            "type": "function",
            "name": "withdrawLinkFunds",
            "inputs": [
                {
                    "name": "beneficiary",
                    "type": "address",
                    "internalType": "address"
                }
            ],
            "outputs": [],
            "stateMutability": "nonpayable"
        },
        {
            "type": "event",
            "name": "OwnershipTransferred",
            "inputs": [
                {
                    "name": "previousOwner",
                    "type": "address",
                    "indexed": true,
                    "internalType": "address"
                },
                {
                    "name": "newOwner",
                    "type": "address",
                    "indexed": true,
                    "internalType": "address"
                }
            ],
            "anonymous": false
        },
        {
            "type": "error",
            "name": "ForkTacoDao__NotEnoughFunds",
            "inputs": []
        },
        {
            "type": "error",
            "name": "ForkTacoDao__NotOwner",
            "inputs": []
        },
        {
            "type": "error",
            "name": "ForkTacoDao__ProposalExpired",
            "inputs": []
        },
        {
            "type": "error",
            "name": "ForkTacoDao__TheProposalHasAlreadyBeenExecuted",
            "inputs": []
        },
        {
            "type": "error",
            "name": "ForkTacoDao__TheProposalHasNotBeenExecuted",
            "inputs": []
        },
        {
            "type": "error",
            "name": "ForkTacoDao__TheProposalHasNotPassed",
            "inputs": []
        },
        {
            "type": "error",
            "name": "ForkTacoDao__TheVotePeriodHasNotExpired",
            "inputs": []
        },
        {
            "type": "error",
            "name": "ForkTacoDao__TransferFailed",
            "inputs": []
        },
        {
            "type": "error",
            "name": "OwnableInvalidOwner",
            "inputs": [
                {
                    "name": "owner",
                    "type": "address",
                    "internalType": "address"
                }
            ]
        },
        {
            "type": "error",
            "name": "OwnableUnauthorizedAccount",
            "inputs": [
                {
                    "name": "account",
                    "type": "address",
                    "internalType": "address"
                }
            ]
        }
    ],
    "bytecode": {
        "object": "0x60e06040523480156200001157600080fd5b506040516200240138038062002401833981016040819052620000349162000126565b846001600160a01b0381166200006457604051631e4fbdf760e01b81526000600482015260240160405180910390fd5b6200006f81620000b9565b5060018054336001600160a01b031991821617909155600280549091166001600160a01b0395861617905591831660805290911660a0526001600160401b031660c05250620001a6565b600080546001600160a01b038381166001600160a01b0319831681178455604051919092169283917f8be0079c531659141344cd1fd0a4f28419497f9722a3daafe3b4186f6b6457e09190a35050565b80516001600160a01b03811681146200012157600080fd5b919050565b600080600080600060a086880312156200013f57600080fd5b6200014a8662000109565b94506200015a6020870162000109565b93506200016a6040870162000109565b92506200017a6060870162000109565b60808701519092506001600160401b03811681146200019857600080fd5b809150509295509295909350565b60805160a05160c0516121f36200020e600039600081816102430152818161073f015261094d01526000818161065e015281816107c20152818161089b01528181610df10152610e900152600081816107120152818161086c015261092001526121f36000f3fe608060405234801561001057600080fd5b506004361061012c5760003560e01c806369929ee3116100ad5780639f3f39c7116100715780639f3f39c7146102c1578063b1aa0d64146102d4578063da35c664146102e7578063f2fde38b146102f0578063f851a4401461030357600080fd5b806369929ee31461026f578063715018a614610282578063721a62ed1461028a5780638a6655d61461029d5780638da5cb5b146102b057600080fd5b80634654ff05116100f45780634654ff05146101af5780634d5e00bd146101c5578063533cd9e0146101e55780635bf8633a1461020a578063681782a51461021d57600080fd5b8063013cf08b1461013157806302fa82d1146101655780630d61b5191461017a5780631c35bbe51461018d578063300d322f1461019c575b600080fd5b61014461013f366004611a0a565b610316565b60405161015c9c9b9a99989796959493929190611a73565b60405180910390f35b610178610173366004611b04565b61048d565b005b610178610188366004611a0a565b6104b7565b6040516001815260200161015c565b6101786101aa366004611a0a565b6109dd565b6101b7603c81565b60405190815260200161015c565b6101d86101d3366004611a0a565b610b38565b60405161015c9190611b63565b6002546001600160a01b03165b6040516001600160a01b03909116815260200161015c565b6002546101f2906001600160a01b031681565b60045460408051600181526001600160a01b03909216602083015267ffffffffffffffff7f0000000000000000000000000000000000000000000000000000000000000000169082015260600161015c565b61017861027d366004611b04565b610dd1565b610178610f22565b6004546101f2906001600160a01b031681565b6101786102ab366004611c60565b610f36565b6000546001600160a01b03166101f2565b6101786102cf366004611d3d565b61110d565b6101786102e2366004611de4565b611514565b6101b760035481565b6101786102fe366004611b04565b611583565b6001546101f2906001600160a01b031681565b6005602052600090815260409020805460018201805491929161033890611e10565b80601f016020809104026020016040519081016040528092919081815260200182805461036490611e10565b80156103b15780601f10610386576101008083540402835291602001916103b1565b820191906000526020600020905b81548152906001019060200180831161039457829003601f168201915b5050505050908060020180546103c690611e10565b80601f01602080910402602001604051908101604052809291908181526020018280546103f290611e10565b801561043f5780601f106104145761010080835404028352916020019161043f565b820191906000526020600020905b81548152906001019060200180831161042257829003601f168201915b505050600384015460048501546006860154600787015460088801546009890154600a8a0154600b909a0154989960ff9687169995985093965091948181169461010090920481169316908c565b6104956115c6565b600480546001600160a01b0319166001600160a01b0392909216919091179055565b600081815260056020526040902060080154610100900460ff166104ee576040516337dbc82760e11b815260040160405180910390fd5b60008181526005602052604090206008015460ff1615610521576040516379a8a69560e01b815260040160405180910390fd5b6000818152600560205260409020600a015460ff16156109bf57600081815260056020526040812060090154610556906115f3565b6000838152600560205260409020600b0154610571906115f3565b61057a30611604565b60405160200161058c93929190611e4a565b60408051808303601f1901815260a083019091526004546001600160a01b031660c083015291506000908060e081016040516020818303038152906040528152602001836040516024016105e09190611eed565b60408051601f19818403018152919052602080820180516001600160e01b0316634973273360e01b17905290825201600060405190808252806020026020018201604052801561065657816020015b604080518082019091526000808252602082015281526020019060019003908161062f5790505b5081526020017f00000000000000000000000000000000000000000000000000000000000000006001600160a01b031681526020016106f360405180604001604052806207a1208152602001600015158152506040805182516024820152602092830151151560448083019190915282518083039091018152606490910190915290810180516001600160e01b03166397a657c960e01b17905290565b90526040516320487ded60e01b81529091506000906001600160a01b037f000000000000000000000000000000000000000000000000000000000000000016906320487ded90610769907f0000000000000000000000000000000000000000000000000000000000000000908690600401611f00565b602060405180830381865afa158015610786573d6000803e3d6000fd5b505050506040513d601f19601f820116820180604052508101906107aa9190611fda565b6040516370a0823160e01b81523060048201529091507f00000000000000000000000000000000000000000000000000000000000000006001600160a01b0316906370a0823190602401602060405180830381865afa158015610811573d6000803e3d6000fd5b505050506040513d601f19601f820116820180604052508101906108359190611fda565b8111156108555760405163c334fbef60e01b815260040160405180910390fd5b60405163095ea7b360e01b81526001600160a01b037f000000000000000000000000000000000000000000000000000000000000000081166004830152602482018390527f0000000000000000000000000000000000000000000000000000000000000000169063095ea7b3906044016020604051808303816000875af11580156108e4573d6000803e3d6000fd5b505050506040513d601f19601f820116820180604052508101906109089190611ff3565b506040516396f4e9f960e01b81526001600160a01b037f000000000000000000000000000000000000000000000000000000000000000016906396f4e9f990610977907f0000000000000000000000000000000000000000000000000000000000000000908690600401611f00565b6020604051808303816000875af1158015610996573d6000803e3d6000fd5b505050506040513d601f19601f820116820180604052508101906109ba9190611fda565b505050505b6000908152600560205260409020600801805460ff19166001179055565b600081815260056020526040902060070154421015610a0f576040516388b6fa7f60e01b815260040160405180910390fd5b60008181526005602052604081206003015460ff1615610aa25760008281526005602081905260409091200180546001908110610a4e57610a4e612010565b906000526020600020015460056000848152602001908152602001600020600501600081548110610a8157610a81612010565b90600052602060002001541115610a9a57506000610b0f565b506001610b0f565b60005b600083815260056020526040902060040154811015610b0d5781600560008581526020019081526020016000206005018281548110610ae657610ae6612010565b90600052602060002001541115610afb578091505b80610b058161203c565b915050610aa5565b505b6000918252600560205260409091206009810191909155600801805461ff001916610100179055565b610bab604051806101a001604052806000815260200160608152602001606081526020016000151581526020016000815260200160608152602001600081526020016000815260200160001515815260200160001515815260200160008152602001600015158152602001600081525090565b60056000838152602001908152602001600020604051806101a001604052908160008201548152602001600182018054610be490611e10565b80601f0160208091040260200160405190810160405280929190818152602001828054610c1090611e10565b8015610c5d5780601f10610c3257610100808354040283529160200191610c5d565b820191906000526020600020905b815481529060010190602001808311610c4057829003601f168201915b50505050508152602001600282018054610c7690611e10565b80601f0160208091040260200160405190810160405280929190818152602001828054610ca290611e10565b8015610cef5780601f10610cc457610100808354040283529160200191610cef565b820191906000526020600020905b815481529060010190602001808311610cd257829003601f168201915b505050505081526020016003820160009054906101000a900460ff161515151581526020016004820154815260200160058201805480602002602001604051908101604052809291908181526020018280548015610d6c57602002820191906000526020600020905b815481526020019060010190808311610d58575b50505091835250506006820154602082015260078201546040820152600882015460ff80821615156060840152610100909104811615156080830152600983015460a0830152600a83015416151560c0820152600b9091015460e09091015292915050565b610dd96115c6565b6040516370a0823160e01b81523060048201526000907f00000000000000000000000000000000000000000000000000000000000000006001600160a01b0316906370a0823190602401602060405180830381865afa158015610e40573d6000803e3d6000fd5b505050506040513d601f19601f82011682018060405250810190610e649190611fda565b60405163a9059cbb60e01b81526001600160a01b038481166004830152602482018390529192506000917f0000000000000000000000000000000000000000000000000000000000000000169063a9059cbb906044016020604051808303816000875af1158015610ed9573d6000803e3d6000fd5b505050506040513d601f19601f82011682018060405250810190610efd9190611ff3565b905080610f1d5760405163926897ab60e01b815260040160405180910390fd5b505050565b610f2a6115c6565b610f3460006117ef565b565b6002546040516331a9108f60e11b81526004810183905282916001600160a01b031690636352211e90602401602060405180830381865afa158015610f7f573d6000803e3d6000fd5b505050506040513d601f19601f82011682018060405250810190610fa39190612055565b6001600160a01b0316336001600160a01b031614610fd457604051631899444b60e11b815260040160405180910390fd5b6000848152600560205260409020600701544211156110065760405163989aabc760e01b815260040160405180910390fd5b60008481526005602052604090206003015460ff1615611099578260000361106f57600084815260056020819052604082200180546001929061104b5761104b612010565b9060005260206000200160008282546110649190612072565b909155506110e09050565b60016005600086815260200190815260200160002060050160018154811061104b5761104b612010565b600084815260056020526040902060040154831161012c576000848152600560208190526040909120600191016110d08286612085565b8154811061104b5761104b612010565b6000848152600560205260408120600601805460019290611102908490612072565b909155505050505050565b6002546040516331a9108f60e11b81526004810183905282916001600160a01b031690636352211e90602401602060405180830381865afa158015611156573d6000803e3d6000fd5b505050506040513d601f19601f8201168201806040525081019061117a9190612055565b6001600160a01b0316336001600160a01b0316146111ab57604051631899444b60e11b815260040160405180910390fd5b600380549060006111bb8361203c565b9190505550831561136b57604051806101a001604052806003548152602001898152602001888152602001851515815260200160028152602001600267ffffffffffffffff81111561120f5761120f611c8c565b604051908082528060200260200182016040528015611238578160200160208202803683370190505b50815260006020820152604001611250603c42612072565b8152600060208083018290526040808401839052606084018390528a1515608085015260a09093018990526003548252600581529190208251815590820151600182019061129e90826120e6565b50604082015160028201906112b390826120e6565b50606082015160038201805460ff19169115159190911790556080820151600482015560a082015180516112f19160058401916020909101906119aa565b5060c0820151600682015560e082015160078201556101008083015160088301805461012086015161ffff1990911692151561ff001916929092179115159092021790556101408201516009820155610160820151600a8201805460ff191691151591909117905561018090910151600b9091015561150a565b604051806101a00160405280600354815260200189815260200188815260200185151581526020018481526020018467ffffffffffffffff8111156113b2576113b2611c8c565b6040519080825280602002602001820160405280156113db578160200160208202803683370190505b508152600060208201526040016113f3603c42612072565b8152600060208083018290526040808401839052606084018390528a1515608085015260a09093018990526003548252600581529190208251815590820151600182019061144190826120e6565b506040820151600282019061145690826120e6565b50606082015160038201805460ff19169115159190911790556080820151600482015560a082015180516114949160058401916020909101906119aa565b5060c0820151600682015560e082015160078201556101008083015160088301805461012086015161ffff1990911692151561ff001916929092179115159092021790556101408201516009820155610160820151600a8201805460ff191691151591909117905561018090910151600b909101555b5050505050505050565b61151c6115c6565b8047101561153d5760405163c334fbef60e01b815260040160405180910390fd5b6040516001600160a01b0383169082156108fc029083906000818181858888f1935050505061157f5760405163926897ab60e01b815260040160405180910390fd5b5050565b61158b6115c6565b6001600160a01b0381166115ba57604051631e4fbdf760e01b8152600060048201526024015b60405180910390fd5b6115c3816117ef565b50565b6000546001600160a01b03163314610f345760405163118cdaa760e01b81523360048201526024016115b1565b60606115fe8261183f565b92915050565b604080518082018252601081526f181899199a1a9b1b9c1cb0b131b232b360811b60208201528151602a80825260608281019094526001600160a01b0385169291600091602082018180368337019050509050600360fc1b8160008151811061166f5761166f612010565b60200101906001600160f81b031916908160001a905350600f60fb1b8160018151811061169e5761169e612010565b60200101906001600160f81b031916908160001a90535060005b60148110156117e657826004856116d084600c612072565b602081106116e0576116e0612010565b1a60f81b6001600160f81b031916901c60f81c60ff168151811061170657611706612010565b01602001516001600160f81b031916826117218360026121a6565b61172c906002612072565b8151811061173c5761173c612010565b60200101906001600160f81b031916908160001a905350828461176083600c612072565b6020811061177057611770612010565b825191901a600f1690811061178757611787612010565b01602001516001600160f81b031916826117a28360026121a6565b6117ad906003612072565b815181106117bd576117bd612010565b60200101906001600160f81b031916908160001a905350806117de8161203c565b9150506116b8565b50949350505050565b600080546001600160a01b038381166001600160a01b0319831681178455604051919092169283917f8be0079c531659141344cd1fd0a4f28419497f9722a3daafe3b4186f6b6457e09190a35050565b6060600061184c836118d2565b600101905060008167ffffffffffffffff81111561186c5761186c611c8c565b6040519080825280601f01601f191660200182016040528015611896576020820181803683370190505b5090508181016020015b600019016f181899199a1a9b1b9c1cb0b131b232b360811b600a86061a8153600a85049450846118a057509392505050565b60008072184f03e93ff9f4daa797ed6e38ed64bf6a1f0160401b83106119115772184f03e93ff9f4daa797ed6e38ed64bf6a1f0160401b830492506040015b6d04ee2d6d415b85acef8100000000831061193d576d04ee2d6d415b85acef8100000000830492506020015b662386f26fc10000831061195b57662386f26fc10000830492506010015b6305f5e1008310611973576305f5e100830492506008015b612710831061198757612710830492506004015b60648310611999576064830492506002015b600a83106115fe5760010192915050565b8280548282559060005260206000209081019282156119e5579160200282015b828111156119e55782518255916020019190600101906119ca565b506119f19291506119f5565b5090565b5b808211156119f157600081556001016119f6565b600060208284031215611a1c57600080fd5b5035919050565b60005b83811015611a3e578181015183820152602001611a26565b50506000910152565b60008151808452611a5f816020860160208601611a23565b601f01601f19169290920160200192915050565b60006101808e8352806020840152611a8d8184018f611a47565b90508281036040840152611aa1818e611a47565b9b151560608401525050608081019890985260a088019690965260c087019490945291151560e086015215156101008501526101208401521515610140830152610160909101529392505050565b6001600160a01b03811681146115c357600080fd5b600060208284031215611b1657600080fd5b8135611b2181611aef565b9392505050565b600081518084526020808501945080840160005b83811015611b5857815187529582019590820190600101611b3c565b509495945050505050565b6020815281516020820152600060208301516101a0806040850152611b8c6101c0850183611a47565b91506040850151601f1980868503016060870152611baa8483611a47565b935060608701519150611bc1608087018315159052565b608087015160a087015260a08701519150808685030160c087015250611be78382611b28565b92505060c085015160e085015260e0850151610100818187015280870151915050610120611c188187018315159052565b8601519050610140611c2d8682018315159052565b860151610160868101919091528601519050610180611c4f8187018315159052565b959095015193019290925250919050565b600080600060608486031215611c7557600080fd5b505081359360208301359350604090920135919050565b634e487b7160e01b600052604160045260246000fd5b600082601f830112611cb357600080fd5b813567ffffffffffffffff80821115611cce57611cce611c8c565b604051601f8301601f19908116603f01168101908282118183101715611cf657611cf6611c8c565b81604052838152866020858801011115611d0f57600080fd5b836020870160208301376000602085830101528094505050505092915050565b80151581146115c357600080fd5b600080600080600080600060e0888a031215611d5857600080fd5b873567ffffffffffffffff80821115611d7057600080fd5b611d7c8b838c01611ca2565b985060208a0135915080821115611d9257600080fd5b50611d9f8a828b01611ca2565b9650506040880135611db081611d2f565b9450606088013593506080880135611dc781611d2f565b9699959850939692959460a0840135945060c09093013592915050565b60008060408385031215611df757600080fd5b8235611e0281611aef565b946020939093013593505050565b600181811c90821680611e2457607f821691505b602082108103611e4457634e487b7160e01b600052602260045260246000fd5b50919050565b6000603d60f81b8083528551611e67816001860160208a01611a23565b8084019050600b60fa1b8060018301528651611e8a816002850160208b01611a23565b808301925050601f60fa1b60028301526a30785369676e617475726560a81b600383015280600e8301528551611ec781600f850160208a01611a23565b600f920191820152600360fc1b6010820152601181019190915260120195945050505050565b602081526000611b216020830184611a47565b6000604067ffffffffffffffff8516835260208181850152845160a083860152611f2d60e0860182611a47565b905081860151603f1980878403016060880152611f4a8383611a47565b88860151888203830160808a01528051808352908601945060009350908501905b80841015611f9d57845180516001600160a01b0316835286015186830152938501936001939093019290860190611f6b565b5060608901516001600160a01b031660a08901526080890151888203830160c08a01529550611fcc8187611a47565b9a9950505050505050505050565b600060208284031215611fec57600080fd5b5051919050565b60006020828403121561200557600080fd5b8151611b2181611d2f565b634e487b7160e01b600052603260045260246000fd5b634e487b7160e01b600052601160045260246000fd5b60006001820161204e5761204e612026565b5060010190565b60006020828403121561206757600080fd5b8151611b2181611aef565b808201808211156115fe576115fe612026565b818103818111156115fe576115fe612026565b601f821115610f1d57600081815260208120601f850160051c810160208610156120bf5750805b601f850160051c820191505b818110156120de578281556001016120cb565b505050505050565b815167ffffffffffffffff81111561210057612100611c8c565b6121148161210e8454611e10565b84612098565b602080601f83116001811461214957600084156121315750858301515b600019600386901b1c1916600185901b1785556120de565b600085815260208120601f198616915b8281101561217857888601518255948401946001909101908401612159565b50858210156121965787850151600019600388901b60f8161c191681555b5050505050600190811b01905550565b80820281158282048414176115fe576115fe61202656fea2646970667358221220e07512480e89c5682c8b0b3a6be4caaefed04114b4da23c3ca3712690427fe6864736f6c63430008140033",
        "linkReferences": {}
    },
    "methodIdentifiers": {
        "OriginalChain_ReceiverContractAddress()": "721a62ed",
        "VOTE_DURATION()": "4654ff05",
        "admin()": "f851a440",
        "closeVoteForProposal(uint256)": "300d322f",
        "crossChainSolution()": "1c35bbe5",
        "crossChainSolutionVariables()": "681782a5",
        "executeProposal(uint256)": "0d61b519",
        "makeProposal(string,string,bool,uint256,bool,uint256,uint256)": "9f3f39c7",
        "nftAddress()": "5bf8633a",
        "owner()": "8da5cb5b",
        "proposalCount()": "da35c664",
        "proposals(uint256)": "013cf08b",
        "renounceOwnership()": "715018a6",
        "seeProposal(uint256)": "4d5e00bd",
        "seeTokenVoteAddress()": "533cd9e0",
        "setOriginalChain_ReceiverContractAddress(address)": "02fa82d1",
        "transferEthFunds(address,uint256)": "b1aa0d64",
        "transferOwnership(address)": "f2fde38b",
        "vote(uint256,uint256,uint256)": "8a6655d6",
        "withdrawLinkFunds(address)": "69929ee3"
    },
    "id": 33
}