{
    "abi": [
        {
            "type": "constructor",
            "inputs": [
                {
                    "name": "_initialOwner",
                    "type": "address",
                    "internalType": "address"
                },
                {
                    "name": "_nftAddress",
                    "type": "address",
                    "internalType": "address"
                }
            ],
            "stateMutability": "nonpayable"
        },
        {
            "type": "function",
            "name": "VOTE_DURATION",
            "inputs": [],
            "outputs": [
                {
                    "name": "",
                    "type": "uint256",
                    "internalType": "uint256"
                }
            ],
            "stateMutability": "view"
        },
        {
            "type": "function",
            "name": "admin",
            "inputs": [],
            "outputs": [
                {
                    "name": "",
                    "type": "address",
                    "internalType": "address"
                }
            ],
            "stateMutability": "view"
        },
        {
            "type": "function",
            "name": "closeVoteForProposal",
            "inputs": [
                {
                    "name": "_idProposal",
                    "type": "uint256",
                    "internalType": "uint256"
                }
            ],
            "outputs": [],
            "stateMutability": "nonpayable"
        },
        {
            "type": "function",
            "name": "executeProposal",
            "inputs": [
                {
                    "name": "_idProposal",
                    "type": "uint256",
                    "internalType": "uint256"
                }
            ],
            "outputs": [],
            "stateMutability": "nonpayable"
        },
        {
            "type": "function",
            "name": "makeProposal",
            "inputs": [
                {
                    "name": "_name",
                    "type": "string",
                    "internalType": "string"
                },
                {
                    "name": "_description",
                    "type": "string",
                    "internalType": "string"
                },
                {
                    "name": "_isBinary",
                    "type": "bool",
                    "internalType": "bool"
                },
                {
                    "name": "numberOfOptions",
                    "type": "uint256",
                    "internalType": "uint256"
                },
                {
                    "name": "_idNft",
                    "type": "uint256",
                    "internalType": "uint256"
                }
            ],
            "outputs": [],
            "stateMutability": "nonpayable"
        },
        {
            "type": "function",
            "name": "nftAddress",
            "inputs": [],
            "outputs": [
                {
                    "name": "",
                    "type": "address",
                    "internalType": "address"
                }
            ],
            "stateMutability": "view"
        },
        {
            "type": "function",
            "name": "owner",
            "inputs": [],
            "outputs": [
                {
                    "name": "",
                    "type": "address",
                    "internalType": "address"
                }
            ],
            "stateMutability": "view"
        },
        {
            "type": "function",
            "name": "proposalCount",
            "inputs": [],
            "outputs": [
                {
                    "name": "",
                    "type": "uint256",
                    "internalType": "uint256"
                }
            ],
            "stateMutability": "view"
        },
        {
            "type": "function",
            "name": "proposals",
            "inputs": [
                {
                    "name": "",
                    "type": "uint256",
                    "internalType": "uint256"
                }
            ],
            "outputs": [
                {
                    "name": "id",
                    "type": "uint256",
                    "internalType": "uint256"
                },
                {
                    "name": "nameOfTaco",
                    "type": "string",
                    "internalType": "string"
                },
                {
                    "name": "description",
                    "type": "string",
                    "internalType": "string"
                },
                {
                    "name": "isBinary",
                    "type": "bool",
                    "internalType": "bool"
                },
                {
                    "name": "numberOfOptions",
                    "type": "uint256",
                    "internalType": "uint256"
                },
                {
                    "name": "votes",
                    "type": "uint256",
                    "internalType": "uint256"
                },
                {
                    "name": "endDate",
                    "type": "uint256",
                    "internalType": "uint256"
                },
                {
                    "name": "executed",
                    "type": "bool",
                    "internalType": "bool"
                },
                {
                    "name": "passed",
                    "type": "bool",
                    "internalType": "bool"
                },
                {
                    "name": "optionVoted",
                    "type": "uint256",
                    "internalType": "uint256"
                }
            ],
            "stateMutability": "view"
        },
        {
            "type": "function",
            "name": "renounceOwnership",
            "inputs": [],
            "outputs": [],
            "stateMutability": "nonpayable"
        },
        {
            "type": "function",
            "name": "seeProposal",
            "inputs": [
                {
                    "name": "_idProposal",
                    "type": "uint256",
                    "internalType": "uint256"
                }
            ],
            "outputs": [
                {
                    "name": "",
                    "type": "tuple",
                    "internalType": "struct TacoDAO.Proposal",
                    "components": [
                        {
                            "name": "id",
                            "type": "uint256",
                            "internalType": "uint256"
                        },
                        {
                            "name": "nameOfTaco",
                            "type": "string",
                            "internalType": "string"
                        },
                        {
                            "name": "description",
                            "type": "string",
                            "internalType": "string"
                        },
                        {
                            "name": "isBinary",
                            "type": "bool",
                            "internalType": "bool"
                        },
                        {
                            "name": "numberOfOptions",
                            "type": "uint256",
                            "internalType": "uint256"
                        },
                        {
                            "name": "options",
                            "type": "uint256[]",
                            "internalType": "uint256[]"
                        },
                        {
                            "name": "votes",
                            "type": "uint256",
                            "internalType": "uint256"
                        },
                        {
                            "name": "endDate",
                            "type": "uint256",
                            "internalType": "uint256"
                        },
                        {
                            "name": "executed",
                            "type": "bool",
                            "internalType": "bool"
                        },
                        {
                            "name": "passed",
                            "type": "bool",
                            "internalType": "bool"
                        },
                        {
                            "name": "optionVoted",
                            "type": "uint256",
                            "internalType": "uint256"
                        }
                    ]
                }
            ],
            "stateMutability": "view"
        },
        {
            "type": "function",
            "name": "seeTokenVoteAddress",
            "inputs": [],
            "outputs": [
                {
                    "name": "",
                    "type": "address",
                    "internalType": "address"
                }
            ],
            "stateMutability": "view"
        },
        {
            "type": "function",
            "name": "transferEthFunds",
            "inputs": [
                {
                    "name": "to",
                    "type": "address",
                    "internalType": "address payable"
                },
                {
                    "name": "amount",
                    "type": "uint256",
                    "internalType": "uint256"
                }
            ],
            "outputs": [],
            "stateMutability": "nonpayable"
        },
        {
            "type": "function",
            "name": "transferOwnership",
            "inputs": [
                {
                    "name": "newOwner",
                    "type": "address",
                    "internalType": "address"
                }
            ],
            "outputs": [],
            "stateMutability": "nonpayable"
        },
        {
            "type": "function",
            "name": "vote",
            "inputs": [
                {
                    "name": "_idProposal",
                    "type": "uint256",
                    "internalType": "uint256"
                },
                {
                    "name": "_option",
                    "type": "uint256",
                    "internalType": "uint256"
                },
                {
                    "name": "_idNft",
                    "type": "uint256",
                    "internalType": "uint256"
                }
            ],
            "outputs": [],
            "stateMutability": "nonpayable"
        },
        {
            "type": "event",
            "name": "OwnershipTransferred",
            "inputs": [
                {
                    "name": "previousOwner",
                    "type": "address",
                    "indexed": true,
                    "internalType": "address"
                },
                {
                    "name": "newOwner",
                    "type": "address",
                    "indexed": true,
                    "internalType": "address"
                }
            ],
            "anonymous": false
        },
        {
            "type": "error",
            "name": "OwnableInvalidOwner",
            "inputs": [
                {
                    "name": "owner",
                    "type": "address",
                    "internalType": "address"
                }
            ]
        },
        {
            "type": "error",
            "name": "OwnableUnauthorizedAccount",
            "inputs": [
                {
                    "name": "account",
                    "type": "address",
                    "internalType": "address"
                }
            ]
        },
        {
            "type": "error",
            "name": "TacoDAO__NotEnoughFunds",
            "inputs": []
        },
        {
            "type": "error",
            "name": "TacoDAO__NotOwner",
            "inputs": []
        },
        {
            "type": "error",
            "name": "TacoDAO__ProposalExpired",
            "inputs": []
        },
        {
            "type": "error",
            "name": "TacoDAO__TheProposalHasAlreadyBeenExecuted",
            "inputs": []
        },
        {
            "type": "error",
            "name": "TacoDAO__TheProposalHasNotBeenExecuted",
            "inputs": []
        },
        {
            "type": "error",
            "name": "TacoDAO__TheProposalHasNotPassed",
            "inputs": []
        },
        {
            "type": "error",
            "name": "TacoDAO__TheVotePeriodHasNotExpired",
            "inputs": []
        },
        {
            "type": "error",
            "name": "TacoDAO__TransferFailed",
            "inputs": []
        }
    ],
    "bytecode": {
        "object": "0x60806040523480156200001157600080fd5b506040516200161838038062001618833981016040819052620000349162000112565b816001600160a01b0381166200006457604051631e4fbdf760e01b81526000600482015260240160405180910390fd5b6200006f81620000a5565b5060018054336001600160a01b031991821617909155600280549091166001600160a01b0392909216919091179055506200014a565b600080546001600160a01b038381166001600160a01b0319831681178455604051919092169283917f8be0079c531659141344cd1fd0a4f28419497f9722a3daafe3b4186f6b6457e09190a35050565b80516001600160a01b03811681146200010d57600080fd5b919050565b600080604083850312156200012657600080fd5b6200013183620000f5565b91506200014160208401620000f5565b90509250929050565b6114be806200015a6000396000f3fe608060405234801561001057600080fd5b50600436106100f55760003560e01c80635bf8633a11610097578063b1aa0d6411610066578063b1aa0d6414610201578063da35c66414610214578063f2fde38b1461021d578063f851a4401461023057600080fd5b80635bf8633a146101c2578063715018a6146101d55780638a6655d6146101dd5780638da5cb5b146101f057600080fd5b8063428ac154116100d3578063428ac154146101545780634654ff05146101675780634d5e00bd1461017d578063533cd9e01461019d57600080fd5b8063013cf08b146100fa5780630d61b5191461012c578063300d322f14610141575b600080fd5b61010d610108366004610f12565b610243565b6040516101239a99989796959493929190610f71565b60405180910390f35b61013f61013a366004610f12565b6103ac565b005b61013f61014f366004610f12565b610432565b61013f610162366004611081565b61058b565b61016f603c81565b604051908152602001610123565b61019061018b366004610f12565b61092a565b6040516101239190611149565b6002546001600160a01b03165b6040516001600160a01b039091168152602001610123565b6002546101aa906001600160a01b031681565b61013f610b9b565b61013f6101eb366004611224565b610baf565b6000546001600160a01b03166101aa565b61013f61020f366004611265565b610d83565b61016f60035481565b61013f61022b366004611291565b610df2565b6001546101aa906001600160a01b031681565b60046020526000908152604090208054600182018054919291610265906112b5565b80601f0160208091040260200160405190810160405280929190818152602001828054610291906112b5565b80156102de5780601f106102b3576101008083540402835291602001916102de565b820191906000526020600020905b8154815290600101906020018083116102c157829003601f168201915b5050505050908060020180546102f3906112b5565b80601f016020809104026020016040519081016040528092919081815260200182805461031f906112b5565b801561036c5780601f106103415761010080835404028352916020019161036c565b820191906000526020600020905b81548152906001019060200180831161034f57829003601f168201915b50505060038401546004850154600686015460078701546008880154600990980154969760ff94851697939650919450928181169261010090920416908a565b600081815260046020526040902060080154610100900460ff166103e257604051622b7bf960e01b815260040160405180910390fd5b60008181526004602052604090206008015460ff1615610414576040516276a5f360e51b815260040160405180910390fd5b6000908152600460205260409020600801805460ff19166001179055565b60008181526004602052604090206007015442101561046457604051637ecf3dfd60e11b815260040160405180910390fd5b60008181526004602052604081206003015460ff16156104f6576000828152600460205260409020600501805460019081106104a2576104a26112ef565b9060005260206000200154600460008481526020019081526020016000206005016000815481106104d5576104d56112ef565b906000526020600020015411156104ee57506000610562565b506001610562565b60005b60008381526004602081905260409091200154811015610560576000838152600460205260409020600501805483919083908110610539576105396112ef565b9060005260206000200154111561054e578091505b806105588161131b565b9150506104f9565b505b6000918252600460205260409091206009810191909155600801805461ff001916610100179055565b6002546040516331a9108f60e11b81526004810183905282916001600160a01b031690636352211e90602401602060405180830381865afa1580156105d4573d6000803e3d6000fd5b505050506040513d601f19601f820116820180604052508101906105f89190611334565b6001600160a01b0316336001600160a01b0316146106295760405163449f90d160e11b815260040160405180910390fd5b600380549060006106398361131b565b919050555083156107b6576040518061016001604052806003548152602001878152602001868152602001851515815260200160028152602001600267ffffffffffffffff81111561068d5761068d610fde565b6040519080825280602002602001820160405280156106b6578160200160208202803683370190505b508152600060208201526040016106ce603c42611351565b815260006020808301829052604080840183905260609093018290526003548252600481529190208251815590820151600182019061070d90826113b5565b506040820151600282019061072290826113b5565b50606082015160038201805460ff19169115159190911790556080820151600482015560a08201518051610760916005840191602090910190610eb2565b5060c0820151600682015560e082015160078201556101008083015160088301805461012086015161ffff1990911692151561ff0019169290921791151590920217905561014090910151600990910155610922565b604051806101600160405280600354815260200187815260200186815260200185151581526020018481526020018467ffffffffffffffff8111156107fd576107fd610fde565b604051908082528060200260200182016040528015610826578160200160208202803683370190505b5081526000602082015260400161083e603c42611351565b815260006020808301829052604080840183905260609093018290526003548252600481529190208251815590820151600182019061087d90826113b5565b506040820151600282019061089290826113b5565b50606082015160038201805460ff19169115159190911790556080820151600482015560a082015180516108d0916005840191602090910190610eb2565b5060c0820151600682015560e082015160078201556101008083015160088301805461012086015161ffff1990911692151561ff00191692909217911515909202179055610140909101516009909101555b505050505050565b61098d60405180610160016040528060008152602001606081526020016060815260200160001515815260200160008152602001606081526020016000815260200160008152602001600015158152602001600015158152602001600081525090565b6004600083815260200190815260200160002060405180610160016040529081600082015481526020016001820180546109c6906112b5565b80601f01602080910402602001604051908101604052809291908181526020018280546109f2906112b5565b8015610a3f5780601f10610a1457610100808354040283529160200191610a3f565b820191906000526020600020905b815481529060010190602001808311610a2257829003601f168201915b50505050508152602001600282018054610a58906112b5565b80601f0160208091040260200160405190810160405280929190818152602001828054610a84906112b5565b8015610ad15780601f10610aa657610100808354040283529160200191610ad1565b820191906000526020600020905b815481529060010190602001808311610ab457829003601f168201915b505050505081526020016003820160009054906101000a900460ff161515151581526020016004820154815260200160058201805480602002602001604051908101604052809291908181526020018280548015610b4e57602002820191906000526020600020905b815481526020019060010190808311610b3a575b50505091835250506006820154602082015260078201546040820152600882015460ff80821615156060840152610100909104161515608082015260099091015460a09091015292915050565b610ba3610e35565b610bad6000610e62565b565b6002546040516331a9108f60e11b81526004810183905282916001600160a01b031690636352211e90602401602060405180830381865afa158015610bf8573d6000803e3d6000fd5b505050506040513d601f19601f82011682018060405250810190610c1c9190611334565b6001600160a01b0316336001600160a01b031614610c4d5760405163449f90d160e11b815260040160405180910390fd5b600084815260046020526040902060070154421115610c7f5760405163be3ea1e160e01b815260040160405180910390fd5b60008481526004602052604090206003015460ff1615610d0f5782600003610ce8576000848152600460205260408120600501805460019290610cc457610cc46112ef565b906000526020600020016000828254610cdd9190611351565b90915550610d569050565b600084815260046020526040902060050180546001919082908110610cc457610cc46112ef565b6000848152600460208190526040909120015483116100f5576000848152600460205260409020600190600501610d468286611475565b81548110610cc457610cc46112ef565b6000848152600460205260408120600601805460019290610d78908490611351565b909155505050505050565b610d8b610e35565b80471015610dac57604051630989690760e21b815260040160405180910390fd5b6040516001600160a01b0383169082156108fc029083906000818181858888f19350505050610dee576040516379387f6160e11b815260040160405180910390fd5b5050565b610dfa610e35565b6001600160a01b038116610e2957604051631e4fbdf760e01b8152600060048201526024015b60405180910390fd5b610e3281610e62565b50565b6000546001600160a01b03163314610bad5760405163118cdaa760e01b8152336004820152602401610e20565b600080546001600160a01b038381166001600160a01b0319831681178455604051919092169283917f8be0079c531659141344cd1fd0a4f28419497f9722a3daafe3b4186f6b6457e09190a35050565b828054828255906000526020600020908101928215610eed579160200282015b82811115610eed578251825591602001919060010190610ed2565b50610ef9929150610efd565b5090565b5b80821115610ef95760008155600101610efe565b600060208284031215610f2457600080fd5b5035919050565b6000815180845260005b81811015610f5157602081850181015186830182015201610f35565b506000602082860101526020601f19601f83011685010191505092915050565b60006101408c8352806020840152610f8b8184018d610f2b565b90508281036040840152610f9f818c610f2b565b99151560608401525050608081019690965260a086019490945260c0850192909252151560e08401521515610100830152610120909101529392505050565b634e487b7160e01b600052604160045260246000fd5b600082601f83011261100557600080fd5b813567ffffffffffffffff8082111561102057611020610fde565b604051601f8301601f19908116603f0116810190828211818310171561104857611048610fde565b8160405283815286602085880101111561106157600080fd5b836020870160208301376000602085830101528094505050505092915050565b600080600080600060a0868803121561109957600080fd5b853567ffffffffffffffff808211156110b157600080fd5b6110bd89838a01610ff4565b965060208801359150808211156110d357600080fd5b506110e088828901610ff4565b945050604086013580151581146110f657600080fd5b94979396509394606081013594506080013592915050565b600081518084526020808501945080840160005b8381101561113e57815187529582019590820190600101611122565b509495945050505050565b602081528151602082015260006020830151610160806040850152611172610180850183610f2b565b91506040850151601f19808685030160608701526111908483610f2b565b9350606087015191506111a7608087018315159052565b608087015160a087015260a08701519150808685030160c0870152506111cd838261110e565b92505060c085015160e085015260e08501516101008181870152808701519150506101206111fe8187018315159052565b86015190506101406112138682018315159052565b959095015193019290925250919050565b60008060006060848603121561123957600080fd5b505081359360208301359350604090920135919050565b6001600160a01b0381168114610e3257600080fd5b6000806040838503121561127857600080fd5b823561128381611250565b946020939093013593505050565b6000602082840312156112a357600080fd5b81356112ae81611250565b9392505050565b600181811c908216806112c957607f821691505b6020821081036112e957634e487b7160e01b600052602260045260246000fd5b50919050565b634e487b7160e01b600052603260045260246000fd5b634e487b7160e01b600052601160045260246000fd5b60006001820161132d5761132d611305565b5060010190565b60006020828403121561134657600080fd5b81516112ae81611250565b8082018082111561136457611364611305565b92915050565b601f8211156113b057600081815260208120601f850160051c810160208610156113915750805b601f850160051c820191505b818110156109225782815560010161139d565b505050565b815167ffffffffffffffff8111156113cf576113cf610fde565b6113e3816113dd84546112b5565b8461136a565b602080601f83116001811461141857600084156114005750858301515b600019600386901b1c1916600185901b178555610922565b600085815260208120601f198616915b8281101561144757888601518255948401946001909101908401611428565b50858210156114655787850151600019600388901b60f8161c191681555b5050505050600190811b01905550565b818103818111156113645761136461130556fea2646970667358221220585b7c30ab3611b23a89a235f2956f087ebef66a912b02ae94d789b171a2d83764736f6c63430008140033",
        "linkReferences": {}
    },
    "methodIdentifiers": {
        "VOTE_DURATION()": "4654ff05",
        "admin()": "f851a440",
        "closeVoteForProposal(uint256)": "300d322f",
        "executeProposal(uint256)": "0d61b519",
        "makeProposal(string,string,bool,uint256,uint256)": "428ac154",
        "nftAddress()": "5bf8633a",
        "owner()": "8da5cb5b",
        "proposalCount()": "da35c664",
        "proposals(uint256)": "013cf08b",
        "renounceOwnership()": "715018a6",
        "seeProposal(uint256)": "4d5e00bd",
        "seeTokenVoteAddress()": "533cd9e0",
        "transferEthFunds(address,uint256)": "b1aa0d64",
        "transferOwnership(address)": "f2fde38b",
        "vote(uint256,uint256,uint256)": "8a6655d6"
    },
    "id": 54
}