{
    "abi": [
        {
            "type": "constructor",
            "inputs": [
                {
                    "name": "_routerContractAddress",
                    "type": "address",
                    "internalType": "address"
                },
                {
                    "name": "_linkTokenAddress",
                    "type": "address",
                    "internalType": "address"
                },
                {
                    "name": "_initialOwner",
                    "type": "address",
                    "internalType": "address"
                },
                {
                    "name": "_oldContract",
                    "type": "address",
                    "internalType": "address"
                },
                {
                    "name": "_costPerMint",
                    "type": "uint256",
                    "internalType": "uint256"
                },
                {
                    "name": "_maxTokens",
                    "type": "uint256",
                    "internalType": "uint256"
                },
                {
                    "name": "_destinationChainSelector",
                    "type": "uint64",
                    "internalType": "uint64"
                },
                {
                    "name": "_tacoDaoAddress",
                    "type": "address",
                    "internalType": "address"
                }
            ],
            "stateMutability": "nonpayable"
        },
        {
            "type": "receive",
            "stateMutability": "payable"
        },
        {
            "type": "function",
            "name": "CHAINLINK_ROLE",
            "inputs": [],
            "outputs": [
                {
                    "name": "",
                    "type": "bytes32",
                    "internalType": "bytes32"
                }
            ],
            "stateMutability": "view"
        },
        {
            "type": "function",
            "name": "DEFAULT_ADMIN_ROLE",
            "inputs": [],
            "outputs": [
                {
                    "name": "",
                    "type": "bytes32",
                    "internalType": "bytes32"
                }
            ],
            "stateMutability": "view"
        },
        {
            "type": "function",
            "name": "NewChainReceiverContractAddress",
            "inputs": [],
            "outputs": [
                {
                    "name": "",
                    "type": "address",
                    "internalType": "address"
                }
            ],
            "stateMutability": "view"
        },
        {
            "type": "function",
            "name": "OWNER_ROLE",
            "inputs": [],
            "outputs": [
                {
                    "name": "",
                    "type": "bytes32",
                    "internalType": "bytes32"
                }
            ],
            "stateMutability": "view"
        },
        {
            "type": "function",
            "name": "ccipSetIdToMakeAVote",
            "inputs": [
                {
                    "name": "proposalID",
                    "type": "uint256",
                    "internalType": "uint256"
                },
                {
                    "name": "optionVote",
                    "type": "uint256",
                    "internalType": "uint256"
                }
            ],
            "outputs": [],
            "stateMutability": "nonpayable"
        },
        {
            "type": "function",
            "name": "ccipSetIdToUnwrap",
            "inputs": [
                {
                    "name": "_tokenId",
                    "type": "uint256",
                    "internalType": "uint256"
                },
                {
                    "name": "_owner",
                    "type": "address",
                    "internalType": "address"
                },
                {
                    "name": "_signature",
                    "type": "string",
                    "internalType": "string"
                }
            ],
            "outputs": [],
            "stateMutability": "nonpayable"
        },
        {
            "type": "function",
            "name": "changeCost",
            "inputs": [
                {
                    "name": "newCost",
                    "type": "uint256",
                    "internalType": "uint256"
                }
            ],
            "outputs": [],
            "stateMutability": "nonpayable"
        },
        {
            "type": "function",
            "name": "changeMaxTokens",
            "inputs": [
                {
                    "name": "newMaxTokens",
                    "type": "uint256",
                    "internalType": "uint256"
                }
            ],
            "outputs": [],
            "stateMutability": "nonpayable"
        },
        {
            "type": "function",
            "name": "changeOwner",
            "inputs": [
                {
                    "name": "newOwner",
                    "type": "address",
                    "internalType": "address"
                }
            ],
            "outputs": [],
            "stateMutability": "nonpayable"
        },
        {
            "type": "function",
            "name": "crossChainSolution",
            "inputs": [],
            "outputs": [
                {
                    "name": "",
                    "type": "uint8",
                    "internalType": "uint8"
                }
            ],
            "stateMutability": "pure"
        },
        {
            "type": "function",
            "name": "crossChainSolutionVariables",
            "inputs": [],
            "outputs": [
                {
                    "name": "",
                    "type": "bool",
                    "internalType": "bool"
                },
                {
                    "name": "",
                    "type": "address",
                    "internalType": "address"
                },
                {
                    "name": "",
                    "type": "address",
                    "internalType": "address"
                },
                {
                    "name": "",
                    "type": "uint64",
                    "internalType": "uint64"
                }
            ],
            "stateMutability": "view"
        },
        {
            "type": "function",
            "name": "getRoleAdmin",
            "inputs": [
                {
                    "name": "role",
                    "type": "bytes32",
                    "internalType": "bytes32"
                }
            ],
            "outputs": [
                {
                    "name": "",
                    "type": "bytes32",
                    "internalType": "bytes32"
                }
            ],
            "stateMutability": "view"
        },
        {
            "type": "function",
            "name": "grantRole",
            "inputs": [
                {
                    "name": "role",
                    "type": "bytes32",
                    "internalType": "bytes32"
                },
                {
                    "name": "account",
                    "type": "address",
                    "internalType": "address"
                }
            ],
            "outputs": [],
            "stateMutability": "nonpayable"
        },
        {
            "type": "function",
            "name": "hasRole",
            "inputs": [
                {
                    "name": "role",
                    "type": "bytes32",
                    "internalType": "bytes32"
                },
                {
                    "name": "account",
                    "type": "address",
                    "internalType": "address"
                }
            ],
            "outputs": [
                {
                    "name": "",
                    "type": "bool",
                    "internalType": "bool"
                }
            ],
            "stateMutability": "view"
        },
        {
            "type": "function",
            "name": "makeVote",
            "inputs": [
                {
                    "name": "proposalID",
                    "type": "uint256",
                    "internalType": "uint256"
                },
                {
                    "name": "nftID",
                    "type": "uint256",
                    "internalType": "uint256"
                }
            ],
            "outputs": [],
            "stateMutability": "nonpayable"
        },
        {
            "type": "function",
            "name": "passMint",
            "inputs": [
                {
                    "name": "tokenID",
                    "type": "uint256",
                    "internalType": "uint256"
                },
                {
                    "name": "_signature",
                    "type": "string",
                    "internalType": "string"
                }
            ],
            "outputs": [],
            "stateMutability": "payable"
        },
        {
            "type": "function",
            "name": "renounceRole",
            "inputs": [
                {
                    "name": "role",
                    "type": "bytes32",
                    "internalType": "bytes32"
                },
                {
                    "name": "callerConfirmation",
                    "type": "address",
                    "internalType": "address"
                }
            ],
            "outputs": [],
            "stateMutability": "nonpayable"
        },
        {
            "type": "function",
            "name": "revokeRole",
            "inputs": [
                {
                    "name": "role",
                    "type": "bytes32",
                    "internalType": "bytes32"
                },
                {
                    "name": "account",
                    "type": "address",
                    "internalType": "address"
                }
            ],
            "outputs": [],
            "stateMutability": "nonpayable"
        },
        {
            "type": "function",
            "name": "seeDaoAddress",
            "inputs": [],
            "outputs": [
                {
                    "name": "",
                    "type": "address",
                    "internalType": "address"
                }
            ],
            "stateMutability": "view"
        },
        {
            "type": "function",
            "name": "seeIfCanUnwrap",
            "inputs": [
                {
                    "name": "_tokenId",
                    "type": "uint256",
                    "internalType": "uint256"
                }
            ],
            "outputs": [
                {
                    "name": "",
                    "type": "bool",
                    "internalType": "bool"
                }
            ],
            "stateMutability": "view"
        },
        {
            "type": "function",
            "name": "seeIfCanVote",
            "inputs": [
                {
                    "name": "proposalID",
                    "type": "uint256",
                    "internalType": "uint256"
                }
            ],
            "outputs": [
                {
                    "name": "",
                    "type": "bool",
                    "internalType": "bool"
                }
            ],
            "stateMutability": "view"
        },
        {
            "type": "function",
            "name": "seeOriginalContractAddress",
            "inputs": [],
            "outputs": [
                {
                    "name": "",
                    "type": "address",
                    "internalType": "address"
                }
            ],
            "stateMutability": "view"
        },
        {
            "type": "function",
            "name": "setNewChainReceiverContractAddress",
            "inputs": [
                {
                    "name": "_NewChainReceiverContractAddress",
                    "type": "address",
                    "internalType": "address"
                }
            ],
            "outputs": [],
            "stateMutability": "nonpayable"
        },
        {
            "type": "function",
            "name": "setReceiverAddress",
            "inputs": [
                {
                    "name": "_receiverAddress",
                    "type": "address",
                    "internalType": "address"
                },
                {
                    "name": "_receiverAddressForDAO",
                    "type": "address",
                    "internalType": "address"
                }
            ],
            "outputs": [],
            "stateMutability": "nonpayable"
        },
        {
            "type": "function",
            "name": "supportsInterface",
            "inputs": [
                {
                    "name": "interfaceId",
                    "type": "bytes4",
                    "internalType": "bytes4"
                }
            ],
            "outputs": [
                {
                    "name": "",
                    "type": "bool",
                    "internalType": "bool"
                }
            ],
            "stateMutability": "view"
        },
        {
            "type": "function",
            "name": "transferEthFunds",
            "inputs": [
                {
                    "name": "beneficiary",
                    "type": "address",
                    "internalType": "address payable"
                },
                {
                    "name": "amount",
                    "type": "uint256",
                    "internalType": "uint256"
                }
            ],
            "outputs": [],
            "stateMutability": "nonpayable"
        },
        {
            "type": "function",
            "name": "viewOwnerAddress",
            "inputs": [],
            "outputs": [
                {
                    "name": "",
                    "type": "address",
                    "internalType": "address"
                }
            ],
            "stateMutability": "view"
        },
        {
            "type": "function",
            "name": "viewRecieverContractAddress",
            "inputs": [],
            "outputs": [
                {
                    "name": "",
                    "type": "address",
                    "internalType": "address"
                },
                {
                    "name": "",
                    "type": "address",
                    "internalType": "address"
                }
            ],
            "stateMutability": "view"
        },
        {
            "type": "function",
            "name": "withdrawLinkFunds",
            "inputs": [
                {
                    "name": "beneficiary",
                    "type": "address",
                    "internalType": "address"
                }
            ],
            "outputs": [],
            "stateMutability": "nonpayable"
        },
        {
            "type": "function",
            "name": "withdrawMyToken",
            "inputs": [
                {
                    "name": "_tokenId",
                    "type": "uint256",
                    "internalType": "uint256"
                },
                {
                    "name": "_signature",
                    "type": "string",
                    "internalType": "string"
                }
            ],
            "outputs": [],
            "stateMutability": "nonpayable"
        },
        {
            "type": "event",
            "name": "RoleAdminChanged",
            "inputs": [
                {
                    "name": "role",
                    "type": "bytes32",
                    "indexed": true,
                    "internalType": "bytes32"
                },
                {
                    "name": "previousAdminRole",
                    "type": "bytes32",
                    "indexed": true,
                    "internalType": "bytes32"
                },
                {
                    "name": "newAdminRole",
                    "type": "bytes32",
                    "indexed": true,
                    "internalType": "bytes32"
                }
            ],
            "anonymous": false
        },
        {
            "type": "event",
            "name": "RoleGranted",
            "inputs": [
                {
                    "name": "role",
                    "type": "bytes32",
                    "indexed": true,
                    "internalType": "bytes32"
                },
                {
                    "name": "account",
                    "type": "address",
                    "indexed": true,
                    "internalType": "address"
                },
                {
                    "name": "sender",
                    "type": "address",
                    "indexed": true,
                    "internalType": "address"
                }
            ],
            "anonymous": false
        },
        {
            "type": "event",
            "name": "RoleRevoked",
            "inputs": [
                {
                    "name": "role",
                    "type": "bytes32",
                    "indexed": true,
                    "internalType": "bytes32"
                },
                {
                    "name": "account",
                    "type": "address",
                    "indexed": true,
                    "internalType": "address"
                },
                {
                    "name": "sender",
                    "type": "address",
                    "indexed": true,
                    "internalType": "address"
                }
            ],
            "anonymous": false
        },
        {
            "type": "error",
            "name": "AccessControlBadConfirmation",
            "inputs": []
        },
        {
            "type": "error",
            "name": "AccessControlUnauthorizedAccount",
            "inputs": [
                {
                    "name": "account",
                    "type": "address",
                    "internalType": "address"
                },
                {
                    "name": "neededRole",
                    "type": "bytes32",
                    "internalType": "bytes32"
                }
            ]
        },
        {
            "type": "error",
            "name": "GmFamTreasuryAndWraper__AccessDenied",
            "inputs": []
        },
        {
            "type": "error",
            "name": "GmFamTreasuryAndWraper__MaxSupplyReached",
            "inputs": []
        },
        {
            "type": "error",
            "name": "GmFamTreasuryAndWraper__NotEnoughFunds",
            "inputs": []
        },
        {
            "type": "error",
            "name": "GmFamTreasuryAndWraper__OwnerMUSTSetUPTheReceiverContractFirst",
            "inputs": []
        },
        {
            "type": "error",
            "name": "GmFamTreasuryAndWraper__OwnerMustSetTheNewChainReceiverContractAddress",
            "inputs": []
        },
        {
            "type": "error",
            "name": "GmFamTreasuryAndWraper__ReceiverAddressAlreadySet",
            "inputs": []
        },
        {
            "type": "error",
            "name": "GmFamTreasuryAndWraper__TheDaoHasNotVotedYet",
            "inputs": []
        },
        {
            "type": "error",
            "name": "GmFamTreasuryAndWraper__TheProposalHasAlreadyBeenExecuted",
            "inputs": []
        },
        {
            "type": "error",
            "name": "GmFamTreasuryAndWraper__TransferFailed",
            "inputs": []
        },
        {
            "type": "error",
            "name": "GmFamTreasuryAndWraper__YouAreNotTheOwner",
            "inputs": []
        },
        {
            "type": "error",
            "name": "GmFamTreasuryAndWraper__YouMUSTPayForMint",
            "inputs": []
        },
        {
            "type": "error",
            "name": "GmFamTreasuryAndWraper__YouMUSTUnwrapTheTokenFirst",
            "inputs": []
        },
        {
            "type": "error",
            "name": "GmFamTreasuryAndWraper__YouMUSTWrapTheTokenFirst",
            "inputs": []
        }
    ],
    "bytecode": {
        "object": "0x60e06040526008805460ff60a01b19169055600980546001600160a01b03191690553480156200002e57600080fd5b506040516200255238038062002552833981016040819052620000519162000235565b6200007d7fb19546dff01e856fb3f010c267a7b1c60363cf8a4664e21cc89c26224620214e8762000169565b50600680546001600160a01b0319166001600160a01b0388811691909117909155888116608081905290881660a08190526001600160401b03841660c05260405163095ea7b360e01b8152600481019290925260001960248301529063095ea7b3906044016020604051808303816000875af115801562000102573d6000803e3d6000fd5b505050506040513d601f19601f82011682018060405250810190620001289190620002da565b5060029390935550600355600480546001600160a01b039384166001600160a01b031991821617909155600180549290931691161790555062000305915050565b6000828152602081815260408083206001600160a01b038516845290915281205460ff166200020e576000838152602081815260408083206001600160a01b03861684529091529020805460ff19166001179055620001c53390565b6001600160a01b0316826001600160a01b0316847f2f8788117e7eff1d82e926ec794901d17c78024a50270940304540a733656f0d60405160405180910390a450600162000212565b5060005b92915050565b80516001600160a01b03811681146200023057600080fd5b919050565b600080600080600080600080610100898b0312156200025357600080fd5b6200025e8962000218565b97506200026e60208a0162000218565b96506200027e60408a0162000218565b95506200028e60608a0162000218565b60808a015160a08b015160c08c015192975090955093506001600160401b0381168114620002bb57600080fd5b9150620002cb60e08a0162000218565b90509295985092959890939650565b600060208284031215620002ed57600080fd5b81518015158114620002fe57600080fd5b9392505050565b60805160a05160c0516121e56200036d6000396000818161042001528181610c290152610e37015260008181610b4801528181610cac01528181610d8501528181610f480152610fe7015260008181610bfc01528181610d560152610e0a01526121e56000f3fe6080604052600436106101d15760003560e01c806369929ee3116100f7578063d547741f11610095578063e58378bb11610064578063e58378bb146105b9578063e730a8c7146105db578063fa86811c146105fb578063fcf4f7601461062e57600080fd5b8063d547741f14610539578063debc681714610559578063e395819014610579578063e47eaae41461059957600080fd5b8063a217fddf116100d1578063a217fddf146104c4578063a6f9dae1146104d9578063b1aa0d64146104f9578063bcd4ce2a1461051957600080fd5b806369929ee31461044d57806391d148541461046d5780639bc3a5ef1461048d57600080fd5b806336568abe1161016f578063536257a81161013e578063536257a81461037c5780635777a2621461038f5780635cb85cd2146103c2578063681782a5146103e257600080fd5b806336568abe14610300578063496bb328146103205780634a990ae31461033e5780634f01541e1461035c57600080fd5b8063150b44fd116101ab578063150b44fd146102545780631c35bbe514610286578063248a9ca3146102a25780632f2ff15d146102e057600080fd5b80630127c6d0146101dd57806301ffc9a7146101ff5780630b84c1611461023457600080fd5b366101d857005b600080fd5b3480156101e957600080fd5b506101fd6101f8366004611b35565b610650565b005b34801561020b57600080fd5b5061021f61021a366004611b8e565b6106f9565b60405190151581526020015b60405180910390f35b34801561024057600080fd5b506101fd61024f366004611bbf565b610730565b34801561026057600080fd5b506004546001600160a01b03165b6040516001600160a01b03909116815260200161022b565b34801561029257600080fd5b506040516003815260200161022b565b3480156102ae57600080fd5b506102d26102bd366004611bdc565b60009081526020819052604090206001015490565b60405190815260200161022b565b3480156102ec57600080fd5b506101fd6102fb366004611bf5565b610787565b34801561030c57600080fd5b506101fd61031b366004611bf5565b6107b2565b34801561032c57600080fd5b506006546001600160a01b031661026e565b34801561034a57600080fd5b506001546001600160a01b031661026e565b34801561036857600080fd5b506101fd610377366004611c25565b6107ea565b6101fd61038a366004611c53565b6108b7565b34801561039b57600080fd5b50600754600854604080516001600160a01b0393841681529290911660208301520161022b565b3480156103ce57600080fd5b506101fd6103dd366004611bdc565b610ec1565b3480156103ee57600080fd5b5060095460085460408051600081526001600160a01b039384166020820152929091169082015267ffffffffffffffff7f000000000000000000000000000000000000000000000000000000000000000016606082015260800161022b565b34801561045957600080fd5b506101fd610468366004611bbf565b610efb565b34801561047957600080fd5b5061021f610488366004611bf5565b611074565b34801561049957600080fd5b5061021f6104a8366004611bdc565b6000908152600a6020526040902054600160a01b900460ff1690565b3480156104d057600080fd5b506102d2600081565b3480156104e557600080fd5b506101fd6104f4366004611bbf565b61109d565b34801561050557600080fd5b506101fd610514366004611c9a565b611126565b34801561052557600080fd5b506101fd610534366004611cc6565b6111c2565b34801561054557600080fd5b506101fd610554366004611bf5565b61126d565b34801561056557600080fd5b506101fd610574366004611c53565b611292565b34801561058557600080fd5b5060095461026e906001600160a01b031681565b3480156105a557600080fd5b506101fd6105b4366004611bdc565b61145e565b3480156105c557600080fd5b506102d260008051602061217083398151915281565b3480156105e757600080fd5b506101fd6105f6366004611cc6565b611498565b34801561060757600080fd5b5061021f610616366004611bdc565b6000908152600b602052604090206001015460ff1690565b34801561063a57600080fd5b506102d260008051602061219083398151915281565b61066860008051602061219083398151915233611074565b61068557604051636123936f60e11b815260040160405180910390fd5b604080516060810182526001600160a01b0380851682526001602080840182815284860187815260008a8152600a909352959091208451815492511515600160a01b026001600160a81b0319909316941693909317178255925191929091908201906106f19082611d68565b505050505050565b60006001600160e01b03198216637965db0b60e01b148061072a57506301ffc9a760e01b6001600160e01b03198316145b92915050565b61074860008051602061217083398151915233611074565b61076557604051636123936f60e11b815260040160405180910390fd5b600980546001600160a01b0319166001600160a01b0392909216919091179055565b6000828152602081905260409020600101546107a2816115d5565b6107ac83836115e2565b50505050565b6001600160a01b03811633146107db5760405163334bd91960e11b815260040160405180910390fd5b6107e58282611674565b505050565b61080260008051602061217083398151915233611074565b61081f57604051636123936f60e11b815260040160405180910390fd5b600854600160a01b900460ff161561084a5760405163b8fcdc9560e01b815260040160405180910390fd5b610862600080516020612190833981519152836115e2565b5061087b600080516020612190833981519152826115e2565b50600780546001600160a01b039384166001600160a01b0319909116179055600880546001600160a81b0319169190921617600160a01b179055565b600354600554106108db576040516316654fdb60e01b815260040160405180910390fd5b6002543410156108fe57604051631d266a7360e01b815260040160405180910390fd5b600480546040516331a9108f60e11b81529182018490526001600160a01b031690636352211e90602401602060405180830381865afa158015610945573d6000803e3d6000fd5b505050506040513d601f19601f820116820180604052508101906109699190611e28565b6001600160a01b0316336001600160a01b031614610999576040516202895f60ed1b815260040160405180910390fd5b60405130903480156108fc02916000818181858888f193505050506109d15760405163349189c560e21b815260040160405180910390fd5b600480546040516323b872dd60e01b81523392810192909252306024830152604482018490526001600160a01b0316906323b872dd90606401600060405180830381600087803b158015610a2457600080fd5b505af1158015610a38573d6000803e3d6000fd5b505050506000610a47336116df565b610a50846118ca565b83610a5a336116df565b610a63346118ca565b604051602001610a77959493929190611e69565b60408051808303601f1901815260a083019091526009546001600160a01b031660c083015291506000908060e08101604051602081830303815290604052815260200183604051602401610acb9190611f46565b60408051601f19818403018152919052602080820180516001600160e01b031662543cc360e11b179052908252016000604051908082528060200260200182016040528015610b4057816020015b6040805180820190915260008082526020820152815260200190600190039081610b195790505b5081526020017f00000000000000000000000000000000000000000000000000000000000000006001600160a01b03168152602001610bdd6040518060400160405280620927c08152602001600015158152506040805182516024820152602092830151151560448083019190915282518083039091018152606490910190915290810180516001600160e01b03166397a657c960e01b17905290565b90526040516320487ded60e01b81529091506000906001600160a01b037f000000000000000000000000000000000000000000000000000000000000000016906320487ded90610c53907f0000000000000000000000000000000000000000000000000000000000000000908690600401611f59565b602060405180830381865afa158015610c70573d6000803e3d6000fd5b505050506040513d601f19601f82011682018060405250810190610c949190612033565b6040516370a0823160e01b81523060048201529091507f00000000000000000000000000000000000000000000000000000000000000006001600160a01b0316906370a0823190602401602060405180830381865afa158015610cfb573d6000803e3d6000fd5b505050506040513d601f19601f82011682018060405250810190610d1f9190612033565b811115610d3f57604051639a2e5f9b60e01b815260040160405180910390fd5b60405163095ea7b360e01b81526001600160a01b037f000000000000000000000000000000000000000000000000000000000000000081166004830152602482018390527f0000000000000000000000000000000000000000000000000000000000000000169063095ea7b3906044016020604051808303816000875af1158015610dce573d6000803e3d6000fd5b505050506040513d601f19601f82011682018060405250810190610df2919061204c565b506040516396f4e9f960e01b81526001600160a01b037f000000000000000000000000000000000000000000000000000000000000000016906396f4e9f990610e61907f0000000000000000000000000000000000000000000000000000000000000000908690600401611f59565b6020604051808303816000875af1158015610e80573d6000803e3d6000fd5b505050506040513d601f19601f82011682018060405250810190610ea49190612033565b5060058054906000610eb583612084565b91905055505050505050565b610ed960008051602061217083398151915233611074565b610ef657604051636123936f60e11b815260040160405180910390fd5b600255565b610f1360008051602061217083398151915233611074565b610f3057604051636123936f60e11b815260040160405180910390fd5b6040516370a0823160e01b81523060048201526000907f00000000000000000000000000000000000000000000000000000000000000006001600160a01b0316906370a0823190602401602060405180830381865afa158015610f97573d6000803e3d6000fd5b505050506040513d601f19601f82011682018060405250810190610fbb9190612033565b60405163a9059cbb60e01b81526001600160a01b038481166004830152602482018390529192506000917f0000000000000000000000000000000000000000000000000000000000000000169063a9059cbb906044016020604051808303816000875af1158015611030573d6000803e3d6000fd5b505050506040513d601f19601f82011682018060405250810190611054919061204c565b9050806107e55760405163349189c560e21b815260040160405180910390fd5b6000918252602082815260408084206001600160a01b0393909316845291905290205460ff1690565b6110b560008051602061217083398151915233611074565b6110d257604051636123936f60e11b815260040160405180910390fd5b6110ea600080516020612170833981519152826115e2565b5061110360008051602061217083398151915233611674565b50600680546001600160a01b0319166001600160a01b0392909216919091179055565b61113e60008051602061217083398151915233611074565b61115b57604051636123936f60e11b815260040160405180910390fd5b8047101561117c57604051639a2e5f9b60e01b815260040160405180910390fd5b6040516001600160a01b0383169082156108fc029083906000818181858888f193505050506111be5760405163349189c560e21b815260040160405180910390fd5b5050565b6111da60008051602061219083398151915233611074565b6111f757604051636123936f60e11b815260040160405180910390fd5b6000828152600b602052604090206001015460ff161561121657600080fd5b60408051606081018252918252600160208084018281526000858501818152968152600b90925292902092518355905191018054925115156101000261ff00199215159290921661ffff1990931692909217179055565b600082815260208190526040902060010154611288816115d5565b6107ac8383611674565b6000828152600a6020526040902054600160a01b900460ff166112c857604051630ce5824960e41b815260040160405180910390fd5b6000828152600a60205260409020546001600160a01b031633146112fe576040516202895f60ed1b815260040160405180910390fd5b8060405160200161130f919061209d565b60408051601f1981840301815282825280516020918201206000868152600a83529290922091926113449260010191016120b9565b604051602081830303815290604052805190602001201461137857604051630ce5824960e41b815260040160405180910390fd5b600480546040516323b872dd60e01b81523092810192909252336024830152604482018490526001600160a01b0316906323b872dd90606401600060405180830381600087803b1580156113cb57600080fd5b505af11580156113df573d6000803e3d6000fd5b5050604080516060810182526000808252602080830182815284518083018652838152848601908152898452600a909252939091208251815494511515600160a01b026001600160a81b03199095166001600160a01b0391909116179390931783555190935090915060018201906114579082611d68565b5050505050565b61147660008051602061217083398151915233611074565b61149357604051636123936f60e11b815260040160405180910390fd5b600355565b6114b060008051602061217083398151915233611074565b6114cd57604051636123936f60e11b815260040160405180910390fd5b6000828152600b602052604090206001015460ff166114ff5760405163352963eb60e01b815260040160405180910390fd5b6000828152600b6020526040902060010154610100900460ff161561153757604051634aca091360e11b815260040160405180910390fd5b6001546000838152600b6020526040908190205490516345332aeb60e11b8152600481018590526024810191909152604481018390526001600160a01b0390911690638a6655d690606401600060405180830381600087803b15801561159c57600080fd5b505af11580156115b0573d6000803e3d6000fd5b50505060009283525050600b60205260409020600101805461ff001916610100179055565b6115df81336118d5565b50565b60006115ee8383611074565b61166c576000838152602081815260408083206001600160a01b03861684529091529020805460ff191660011790556116243390565b6001600160a01b0316826001600160a01b0316847f2f8788117e7eff1d82e926ec794901d17c78024a50270940304540a733656f0d60405160405180910390a450600161072a565b50600061072a565b60006116808383611074565b1561166c576000838152602081815260408083206001600160a01b0386168085529252808320805460ff1916905551339286917ff6391f5c32d9c69d2a47ea670b442974b53935d1edc7fd64eb21e047a839171b9190a450600161072a565b604080518082018252601081526f181899199a1a9b1b9c1cb0b131b232b360811b60208201528151602a80825260608281019094526001600160a01b0385169291600091602082018180368337019050509050600360fc1b8160008151811061174a5761174a61212f565b60200101906001600160f81b031916908160001a905350600f60fb1b816001815181106117795761177961212f565b60200101906001600160f81b031916908160001a90535060005b60148110156118c157826004856117ab84600c612145565b602081106117bb576117bb61212f565b1a60f81b6001600160f81b031916901c60f81c60ff16815181106117e1576117e161212f565b01602001516001600160f81b031916826117fc836002612158565b611807906002612145565b815181106118175761181761212f565b60200101906001600160f81b031916908160001a905350828461183b83600c612145565b6020811061184b5761184b61212f565b825191901a600f169081106118625761186261212f565b01602001516001600160f81b0319168261187d836002612158565b611888906003612145565b815181106118985761189861212f565b60200101906001600160f81b031916908160001a905350806118b981612084565b915050611793565b50949350505050565b606061072a82611912565b6118df8282611074565b6111be5760405163e2517d3f60e01b81526001600160a01b03821660048201526024810183905260440160405180910390fd5b6060600061191f836119a5565b600101905060008167ffffffffffffffff81111561193f5761193f611a92565b6040519080825280601f01601f191660200182016040528015611969576020820181803683370190505b5090508181016020015b600019016f181899199a1a9b1b9c1cb0b131b232b360811b600a86061a8153600a850494508461197357509392505050565b60008072184f03e93ff9f4daa797ed6e38ed64bf6a1f0160401b83106119e45772184f03e93ff9f4daa797ed6e38ed64bf6a1f0160401b830492506040015b6d04ee2d6d415b85acef81000000008310611a10576d04ee2d6d415b85acef8100000000830492506020015b662386f26fc100008310611a2e57662386f26fc10000830492506010015b6305f5e1008310611a46576305f5e100830492506008015b6127108310611a5a57612710830492506004015b60648310611a6c576064830492506002015b600a831061072a5760010192915050565b6001600160a01b03811681146115df57600080fd5b634e487b7160e01b600052604160045260246000fd5b600082601f830112611ab957600080fd5b813567ffffffffffffffff80821115611ad457611ad4611a92565b604051601f8301601f19908116603f01168101908282118183101715611afc57611afc611a92565b81604052838152866020858801011115611b1557600080fd5b836020870160208301376000602085830101528094505050505092915050565b600080600060608486031215611b4a57600080fd5b833592506020840135611b5c81611a7d565b9150604084013567ffffffffffffffff811115611b7857600080fd5b611b8486828701611aa8565b9150509250925092565b600060208284031215611ba057600080fd5b81356001600160e01b031981168114611bb857600080fd5b9392505050565b600060208284031215611bd157600080fd5b8135611bb881611a7d565b600060208284031215611bee57600080fd5b5035919050565b60008060408385031215611c0857600080fd5b823591506020830135611c1a81611a7d565b809150509250929050565b60008060408385031215611c3857600080fd5b8235611c4381611a7d565b91506020830135611c1a81611a7d565b60008060408385031215611c6657600080fd5b82359150602083013567ffffffffffffffff811115611c8457600080fd5b611c9085828601611aa8565b9150509250929050565b60008060408385031215611cad57600080fd5b8235611cb881611a7d565b946020939093013593505050565b60008060408385031215611cd957600080fd5b50508035926020909101359150565b600181811c90821680611cfc57607f821691505b602082108103611d1c57634e487b7160e01b600052602260045260246000fd5b50919050565b601f8211156107e557600081815260208120601f850160051c81016020861015611d495750805b601f850160051c820191505b818110156106f157828155600101611d55565b815167ffffffffffffffff811115611d8257611d82611a92565b611d9681611d908454611ce8565b84611d22565b602080601f831160018114611dcb5760008415611db35750858301515b600019600386901b1c1916600185901b1785556106f1565b600085815260208120601f198616915b82811015611dfa57888601518255948401946001909101908401611ddb565b5085821015611e185787850151600019600388901b60f8161c191681555b5050505050600190811b01905550565b600060208284031215611e3a57600080fd5b8151611bb881611a7d565b60005b83811015611e60578181015183820152602001611e48565b50506000910152565b6000603d60f81b8083528751611e86816001860160208c01611e45565b8084019050600b60fa1b8060018301528851611ea9816002850160208d01611e45565b601f60fa1b600293909101928301528751611ecb816003850160208c01611e45565b600392019182018190528651611ee8816004850160208b01611e45565b60049201918201528451611f03816005840160208901611e45565b016005810191909152600601979650505050505050565b60008151808452611f32816020860160208601611e45565b601f01601f19169290920160200192915050565b602081526000611bb86020830184611f1a565b6000604067ffffffffffffffff8516835260208181850152845160a083860152611f8660e0860182611f1a565b905081860151603f1980878403016060880152611fa38383611f1a565b88860151888203830160808a01528051808352908601945060009350908501905b80841015611ff657845180516001600160a01b0316835286015186830152938501936001939093019290860190611fc4565b5060608901516001600160a01b031660a08901526080890151888203830160c08a015295506120258187611f1a565b9a9950505050505050505050565b60006020828403121561204557600080fd5b5051919050565b60006020828403121561205e57600080fd5b81518015158114611bb857600080fd5b634e487b7160e01b600052601160045260246000fd5b6000600182016120965761209661206e565b5060010190565b600082516120af818460208701611e45565b9190910192915050565b60008083546120c781611ce8565b600182811680156120df57600181146120f457612123565b60ff1984168752821515830287019450612123565b8760005260208060002060005b8581101561211a5781548a820152908401908201612101565b50505082870194505b50929695505050505050565b634e487b7160e01b600052603260045260246000fd5b8082018082111561072a5761072a61206e565b808202811582820484141761072a5761072a61206e56feb19546dff01e856fb3f010c267a7b1c60363cf8a4664e21cc89c26224620214e47a82eb9b5b73b441b8cb87ac088aec65cb2b5df8599ec7a73af0e85167f3758a2646970667358221220442f3d40df4169500b308bba1dea1996038cf4fd8b7e18d3040ce088bd654d0f64736f6c63430008140033",
        "linkReferences": {}
    },
    "methodIdentifiers": {
        "CHAINLINK_ROLE()": "fcf4f760",
        "DEFAULT_ADMIN_ROLE()": "a217fddf",
        "NewChainReceiverContractAddress()": "e3958190",
        "OWNER_ROLE()": "e58378bb",
        "ccipSetIdToMakeAVote(uint256,uint256)": "bcd4ce2a",
        "ccipSetIdToUnwrap(uint256,address,string)": "0127c6d0",
        "changeCost(uint256)": "5cb85cd2",
        "changeMaxTokens(uint256)": "e47eaae4",
        "changeOwner(address)": "a6f9dae1",
        "crossChainSolution()": "1c35bbe5",
        "crossChainSolutionVariables()": "681782a5",
        "getRoleAdmin(bytes32)": "248a9ca3",
        "grantRole(bytes32,address)": "2f2ff15d",
        "hasRole(bytes32,address)": "91d14854",
        "makeVote(uint256,uint256)": "e730a8c7",
        "passMint(uint256,string)": "536257a8",
        "renounceRole(bytes32,address)": "36568abe",
        "revokeRole(bytes32,address)": "d547741f",
        "seeDaoAddress()": "4a990ae3",
        "seeIfCanUnwrap(uint256)": "9bc3a5ef",
        "seeIfCanVote(uint256)": "fa86811c",
        "seeOriginalContractAddress()": "150b44fd",
        "setNewChainReceiverContractAddress(address)": "0b84c161",
        "setReceiverAddress(address,address)": "4f01541e",
        "supportsInterface(bytes4)": "01ffc9a7",
        "transferEthFunds(address,uint256)": "b1aa0d64",
        "viewOwnerAddress()": "496bb328",
        "viewRecieverContractAddress()": "5777a262",
        "withdrawLinkFunds(address)": "69929ee3",
        "withdrawMyToken(uint256,string)": "debc6817"
    },
    "id": 55
}