{
    "abi": [
        {
            "type": "constructor",
            "inputs": [
                {
                    "name": "_initialOwner",
                    "type": "address",
                    "internalType": "address"
                },
                {
                    "name": "_destinationBlockchainID",
                    "type": "bytes32",
                    "internalType": "bytes32"
                },
                {
                    "name": "_nameOfToken",
                    "type": "string",
                    "internalType": "string"
                },
                {
                    "name": "_symbolOfToken",
                    "type": "string",
                    "internalType": "string"
                },
                {
                    "name": "_URIPrefix",
                    "type": "string",
                    "internalType": "string"
                },
                {
                    "name": "_URIHasId",
                    "type": "bool",
                    "internalType": "bool"
                },
                {
                    "name": "_URISuffix",
                    "type": "string",
                    "internalType": "string"
                },
                {
                    "name": "_feeNumerator",
                    "type": "uint96",
                    "internalType": "uint96"
                }
            ],
            "stateMutability": "nonpayable"
        },
        {
            "type": "receive",
            "stateMutability": "payable"
        },
        {
            "type": "function",
            "name": "DEFAULT_ADMIN_ROLE",
            "inputs": [],
            "outputs": [
                {
                    "name": "",
                    "type": "bytes32",
                    "internalType": "bytes32"
                }
            ],
            "stateMutability": "view"
        },
        {
            "type": "function",
            "name": "OWNER_ROLE",
            "inputs": [],
            "outputs": [
                {
                    "name": "",
                    "type": "bytes32",
                    "internalType": "bytes32"
                }
            ],
            "stateMutability": "view"
        },
        {
            "type": "function",
            "name": "ReceiverContractAddress_OriginalSubnet",
            "inputs": [],
            "outputs": [
                {
                    "name": "",
                    "type": "address",
                    "internalType": "address"
                }
            ],
            "stateMutability": "view"
        },
        {
            "type": "function",
            "name": "TELEPORTER_ROLE",
            "inputs": [],
            "outputs": [
                {
                    "name": "",
                    "type": "bytes32",
                    "internalType": "bytes32"
                }
            ],
            "stateMutability": "view"
        },
        {
            "type": "function",
            "name": "approve",
            "inputs": [
                {
                    "name": "to",
                    "type": "address",
                    "internalType": "address"
                },
                {
                    "name": "tokenId",
                    "type": "uint256",
                    "internalType": "uint256"
                }
            ],
            "outputs": [],
            "stateMutability": "nonpayable"
        },
        {
            "type": "function",
            "name": "balanceOf",
            "inputs": [
                {
                    "name": "owner",
                    "type": "address",
                    "internalType": "address"
                }
            ],
            "outputs": [
                {
                    "name": "",
                    "type": "uint256",
                    "internalType": "uint256"
                }
            ],
            "stateMutability": "view"
        },
        {
            "type": "function",
            "name": "burn",
            "inputs": [
                {
                    "name": "tokenId",
                    "type": "uint256",
                    "internalType": "uint256"
                }
            ],
            "outputs": [],
            "stateMutability": "nonpayable"
        },
        {
            "type": "function",
            "name": "changeBaseURI",
            "inputs": [
                {
                    "name": "_URIPrefix",
                    "type": "string",
                    "internalType": "string"
                },
                {
                    "name": "_URIHasId",
                    "type": "bool",
                    "internalType": "bool"
                },
                {
                    "name": "_URISuffix",
                    "type": "string",
                    "internalType": "string"
                }
            ],
            "outputs": [],
            "stateMutability": "nonpayable"
        },
        {
            "type": "function",
            "name": "changeCreatorFees",
            "inputs": [
                {
                    "name": "_feeNumerator",
                    "type": "uint96",
                    "internalType": "uint96"
                }
            ],
            "outputs": [],
            "stateMutability": "nonpayable"
        },
        {
            "type": "function",
            "name": "changeOwner",
            "inputs": [
                {
                    "name": "newOwner",
                    "type": "address",
                    "internalType": "address"
                }
            ],
            "outputs": [],
            "stateMutability": "nonpayable"
        },
        {
            "type": "function",
            "name": "crossChainSolution",
            "inputs": [],
            "outputs": [
                {
                    "name": "",
                    "type": "uint8",
                    "internalType": "uint8"
                }
            ],
            "stateMutability": "pure"
        },
        {
            "type": "function",
            "name": "crossChainSolutionVariables",
            "inputs": [],
            "outputs": [
                {
                    "name": "",
                    "type": "bool",
                    "internalType": "bool"
                },
                {
                    "name": "",
                    "type": "address",
                    "internalType": "address"
                },
                {
                    "name": "",
                    "type": "bytes32",
                    "internalType": "bytes32"
                }
            ],
            "stateMutability": "view"
        },
        {
            "type": "function",
            "name": "getApproved",
            "inputs": [
                {
                    "name": "tokenId",
                    "type": "uint256",
                    "internalType": "uint256"
                }
            ],
            "outputs": [
                {
                    "name": "",
                    "type": "address",
                    "internalType": "address"
                }
            ],
            "stateMutability": "view"
        },
        {
            "type": "function",
            "name": "getRoleAdmin",
            "inputs": [
                {
                    "name": "role",
                    "type": "bytes32",
                    "internalType": "bytes32"
                }
            ],
            "outputs": [
                {
                    "name": "",
                    "type": "bytes32",
                    "internalType": "bytes32"
                }
            ],
            "stateMutability": "view"
        },
        {
            "type": "function",
            "name": "goBackToOriginalCollection",
            "inputs": [
                {
                    "name": "tokenID",
                    "type": "uint256",
                    "internalType": "uint256"
                },
                {
                    "name": "_signature",
                    "type": "string",
                    "internalType": "string"
                }
            ],
            "outputs": [
                {
                    "name": "",
                    "type": "uint256",
                    "internalType": "uint256"
                }
            ],
            "stateMutability": "nonpayable"
        },
        {
            "type": "function",
            "name": "grantRole",
            "inputs": [
                {
                    "name": "role",
                    "type": "bytes32",
                    "internalType": "bytes32"
                },
                {
                    "name": "account",
                    "type": "address",
                    "internalType": "address"
                }
            ],
            "outputs": [],
            "stateMutability": "nonpayable"
        },
        {
            "type": "function",
            "name": "hasRole",
            "inputs": [
                {
                    "name": "role",
                    "type": "bytes32",
                    "internalType": "bytes32"
                },
                {
                    "name": "account",
                    "type": "address",
                    "internalType": "address"
                }
            ],
            "outputs": [
                {
                    "name": "",
                    "type": "bool",
                    "internalType": "bool"
                }
            ],
            "stateMutability": "view"
        },
        {
            "type": "function",
            "name": "isApprovedForAll",
            "inputs": [
                {
                    "name": "owner",
                    "type": "address",
                    "internalType": "address"
                },
                {
                    "name": "operator",
                    "type": "address",
                    "internalType": "address"
                }
            ],
            "outputs": [
                {
                    "name": "",
                    "type": "bool",
                    "internalType": "bool"
                }
            ],
            "stateMutability": "view"
        },
        {
            "type": "function",
            "name": "name",
            "inputs": [],
            "outputs": [
                {
                    "name": "",
                    "type": "string",
                    "internalType": "string"
                }
            ],
            "stateMutability": "view"
        },
        {
            "type": "function",
            "name": "ownerOf",
            "inputs": [
                {
                    "name": "tokenId",
                    "type": "uint256",
                    "internalType": "uint256"
                }
            ],
            "outputs": [
                {
                    "name": "",
                    "type": "address",
                    "internalType": "address"
                }
            ],
            "stateMutability": "view"
        },
        {
            "type": "function",
            "name": "renounceRole",
            "inputs": [
                {
                    "name": "role",
                    "type": "bytes32",
                    "internalType": "bytes32"
                },
                {
                    "name": "account",
                    "type": "address",
                    "internalType": "address"
                }
            ],
            "outputs": [],
            "stateMutability": "nonpayable"
        },
        {
            "type": "function",
            "name": "revokeRole",
            "inputs": [
                {
                    "name": "role",
                    "type": "bytes32",
                    "internalType": "bytes32"
                },
                {
                    "name": "account",
                    "type": "address",
                    "internalType": "address"
                }
            ],
            "outputs": [],
            "stateMutability": "nonpayable"
        },
        {
            "type": "function",
            "name": "royaltyInfo",
            "inputs": [
                {
                    "name": "tokenId",
                    "type": "uint256",
                    "internalType": "uint256"
                },
                {
                    "name": "salePrice",
                    "type": "uint256",
                    "internalType": "uint256"
                }
            ],
            "outputs": [
                {
                    "name": "",
                    "type": "address",
                    "internalType": "address"
                },
                {
                    "name": "",
                    "type": "uint256",
                    "internalType": "uint256"
                }
            ],
            "stateMutability": "view"
        },
        {
            "type": "function",
            "name": "safeMint",
            "inputs": [
                {
                    "name": "id",
                    "type": "uint256",
                    "internalType": "uint256"
                },
                {
                    "name": "_signature",
                    "type": "string",
                    "internalType": "string"
                }
            ],
            "outputs": [],
            "stateMutability": "payable"
        },
        {
            "type": "function",
            "name": "safeTransferFrom",
            "inputs": [
                {
                    "name": "from",
                    "type": "address",
                    "internalType": "address"
                },
                {
                    "name": "to",
                    "type": "address",
                    "internalType": "address"
                },
                {
                    "name": "tokenId",
                    "type": "uint256",
                    "internalType": "uint256"
                }
            ],
            "outputs": [],
            "stateMutability": "nonpayable"
        },
        {
            "type": "function",
            "name": "safeTransferFrom",
            "inputs": [
                {
                    "name": "from",
                    "type": "address",
                    "internalType": "address"
                },
                {
                    "name": "to",
                    "type": "address",
                    "internalType": "address"
                },
                {
                    "name": "tokenId",
                    "type": "uint256",
                    "internalType": "uint256"
                },
                {
                    "name": "data",
                    "type": "bytes",
                    "internalType": "bytes"
                }
            ],
            "outputs": [],
            "stateMutability": "nonpayable"
        },
        {
            "type": "function",
            "name": "seeIfCanMint",
            "inputs": [
                {
                    "name": "_tokenId",
                    "type": "uint256",
                    "internalType": "uint256"
                }
            ],
            "outputs": [
                {
                    "name": "",
                    "type": "bool",
                    "internalType": "bool"
                }
            ],
            "stateMutability": "view"
        },
        {
            "type": "function",
            "name": "setApprovalForAll",
            "inputs": [
                {
                    "name": "operator",
                    "type": "address",
                    "internalType": "address"
                },
                {
                    "name": "approved",
                    "type": "bool",
                    "internalType": "bool"
                }
            ],
            "outputs": [],
            "stateMutability": "nonpayable"
        },
        {
            "type": "function",
            "name": "setOriginalSubnetReceiverContractAddres",
            "inputs": [
                {
                    "name": "_OriginalSubnetReceiverContractAddres",
                    "type": "address",
                    "internalType": "address"
                }
            ],
            "outputs": [],
            "stateMutability": "nonpayable"
        },
        {
            "type": "function",
            "name": "setReceiverAddress",
            "inputs": [
                {
                    "name": "_receiverAddress",
                    "type": "address",
                    "internalType": "address"
                }
            ],
            "outputs": [],
            "stateMutability": "nonpayable"
        },
        {
            "type": "function",
            "name": "supportsInterface",
            "inputs": [
                {
                    "name": "interfaceId",
                    "type": "bytes4",
                    "internalType": "bytes4"
                }
            ],
            "outputs": [
                {
                    "name": "",
                    "type": "bool",
                    "internalType": "bool"
                }
            ],
            "stateMutability": "view"
        },
        {
            "type": "function",
            "name": "symbol",
            "inputs": [],
            "outputs": [
                {
                    "name": "",
                    "type": "string",
                    "internalType": "string"
                }
            ],
            "stateMutability": "view"
        },
        {
            "type": "function",
            "name": "teleporterSetMint",
            "inputs": [
                {
                    "name": "_tokenId",
                    "type": "uint256",
                    "internalType": "uint256"
                },
                {
                    "name": "_owner",
                    "type": "address",
                    "internalType": "address"
                },
                {
                    "name": "_signature",
                    "type": "string",
                    "internalType": "string"
                }
            ],
            "outputs": [],
            "stateMutability": "nonpayable"
        },
        {
            "type": "function",
            "name": "tokenURI",
            "inputs": [
                {
                    "name": "tokenId",
                    "type": "uint256",
                    "internalType": "uint256"
                }
            ],
            "outputs": [
                {
                    "name": "",
                    "type": "string",
                    "internalType": "string"
                }
            ],
            "stateMutability": "view"
        },
        {
            "type": "function",
            "name": "transferEthFunds",
            "inputs": [
                {
                    "name": "to",
                    "type": "address",
                    "internalType": "address payable"
                },
                {
                    "name": "amount",
                    "type": "uint256",
                    "internalType": "uint256"
                }
            ],
            "outputs": [],
            "stateMutability": "nonpayable"
        },
        {
            "type": "function",
            "name": "transferFrom",
            "inputs": [
                {
                    "name": "from",
                    "type": "address",
                    "internalType": "address"
                },
                {
                    "name": "to",
                    "type": "address",
                    "internalType": "address"
                },
                {
                    "name": "tokenId",
                    "type": "uint256",
                    "internalType": "uint256"
                }
            ],
            "outputs": [],
            "stateMutability": "nonpayable"
        },
        {
            "type": "function",
            "name": "viewOwnerAddress",
            "inputs": [],
            "outputs": [
                {
                    "name": "",
                    "type": "address",
                    "internalType": "address"
                }
            ],
            "stateMutability": "view"
        },
        {
            "type": "function",
            "name": "viewRecieverContractAddress",
            "inputs": [],
            "outputs": [
                {
                    "name": "",
                    "type": "address",
                    "internalType": "address"
                }
            ],
            "stateMutability": "view"
        },
        {
            "type": "event",
            "name": "Approval",
            "inputs": [
                {
                    "name": "owner",
                    "type": "address",
                    "indexed": true,
                    "internalType": "address"
                },
                {
                    "name": "approved",
                    "type": "address",
                    "indexed": true,
                    "internalType": "address"
                },
                {
                    "name": "tokenId",
                    "type": "uint256",
                    "indexed": true,
                    "internalType": "uint256"
                }
            ],
            "anonymous": false
        },
        {
            "type": "event",
            "name": "ApprovalForAll",
            "inputs": [
                {
                    "name": "owner",
                    "type": "address",
                    "indexed": true,
                    "internalType": "address"
                },
                {
                    "name": "operator",
                    "type": "address",
                    "indexed": true,
                    "internalType": "address"
                },
                {
                    "name": "approved",
                    "type": "bool",
                    "indexed": false,
                    "internalType": "bool"
                }
            ],
            "anonymous": false
        },
        {
            "type": "event",
            "name": "RoleAdminChanged",
            "inputs": [
                {
                    "name": "role",
                    "type": "bytes32",
                    "indexed": true,
                    "internalType": "bytes32"
                },
                {
                    "name": "previousAdminRole",
                    "type": "bytes32",
                    "indexed": true,
                    "internalType": "bytes32"
                },
                {
                    "name": "newAdminRole",
                    "type": "bytes32",
                    "indexed": true,
                    "internalType": "bytes32"
                }
            ],
            "anonymous": false
        },
        {
            "type": "event",
            "name": "RoleGranted",
            "inputs": [
                {
                    "name": "role",
                    "type": "bytes32",
                    "indexed": true,
                    "internalType": "bytes32"
                },
                {
                    "name": "account",
                    "type": "address",
                    "indexed": true,
                    "internalType": "address"
                },
                {
                    "name": "sender",
                    "type": "address",
                    "indexed": true,
                    "internalType": "address"
                }
            ],
            "anonymous": false
        },
        {
            "type": "event",
            "name": "RoleRevoked",
            "inputs": [
                {
                    "name": "role",
                    "type": "bytes32",
                    "indexed": true,
                    "internalType": "bytes32"
                },
                {
                    "name": "account",
                    "type": "address",
                    "indexed": true,
                    "internalType": "address"
                },
                {
                    "name": "sender",
                    "type": "address",
                    "indexed": true,
                    "internalType": "address"
                }
            ],
            "anonymous": false
        },
        {
            "type": "event",
            "name": "Transfer",
            "inputs": [
                {
                    "name": "from",
                    "type": "address",
                    "indexed": true,
                    "internalType": "address"
                },
                {
                    "name": "to",
                    "type": "address",
                    "indexed": true,
                    "internalType": "address"
                },
                {
                    "name": "tokenId",
                    "type": "uint256",
                    "indexed": true,
                    "internalType": "uint256"
                }
            ],
            "anonymous": false
        },
        {
            "type": "error",
            "name": "GmFam__AccessDenied",
            "inputs": []
        },
        {
            "type": "error",
            "name": "GmFam__CantDecreaseMaxSupply",
            "inputs": []
        },
        {
            "type": "error",
            "name": "GmFam__MaxSupplyReached",
            "inputs": []
        },
        {
            "type": "error",
            "name": "GmFam__NotEnoughFunds",
            "inputs": []
        },
        {
            "type": "error",
            "name": "GmFam__OwnerMUSTSetUPTheReceiverContractFirst",
            "inputs": []
        },
        {
            "type": "error",
            "name": "GmFam__OwnerMustSetTheOriginalSubnetReceiverContractAddres",
            "inputs": []
        },
        {
            "type": "error",
            "name": "GmFam__ReceiverAddressAlreadySet",
            "inputs": []
        },
        {
            "type": "error",
            "name": "GmFam__TransferFailed",
            "inputs": []
        },
        {
            "type": "error",
            "name": "GmFam__YouAreNotTheOwner",
            "inputs": []
        },
        {
            "type": "error",
            "name": "GmFam__YouMUSTWrapTheTokenFirst",
            "inputs": []
        }
    ],
    "bytecode": {
        "object": "0x60a0604052600d805460ff60a01b191690553480156200001e57600080fd5b5060405162003477380380620034778339810160408190526200004191620003b0565b858560026200005183826200053b565b5060036200006082826200053b565b505050620000957fb19546dff01e856fb3f010c267a7b1c60363cf8a4664e21cc89c26224620214e89620000fb60201b60201c565b600c80546001600160a01b0319166001600160a01b038a1617905560808790526009620000c385826200053b565b50600a805460ff1916841515179055600b620000e083826200053b565b50620000ed3082620001a0565b505050505050505062000607565b60008281526008602090815260408083206001600160a01b038516845290915290205460ff166200019c5760008281526008602090815260408083206001600160a01b03851684529091529020805460ff191660011790556200015b3390565b6001600160a01b0316816001600160a01b0316837f2f8788117e7eff1d82e926ec794901d17c78024a50270940304540a733656f0d60405160405180910390a45b5050565b6127106001600160601b0382161115620002145760405162461bcd60e51b815260206004820152602a60248201527f455243323938313a20726f79616c7479206665652077696c6c206578636565646044820152692073616c65507269636560b01b60648201526084015b60405180910390fd5b6001600160a01b0382166200026c5760405162461bcd60e51b815260206004820152601960248201527f455243323938313a20696e76616c69642072656365697665720000000000000060448201526064016200020b565b604080518082019091526001600160a01b039092168083526001600160601b039091166020909201829052600160a01b90910217600055565b80516001600160a01b0381168114620002bd57600080fd5b919050565b634e487b7160e01b600052604160045260246000fd5b600082601f830112620002ea57600080fd5b81516001600160401b0380821115620003075762000307620002c2565b604051601f8301601f19908116603f01168101908282118183101715620003325762000332620002c2565b816040528381526020925086838588010111156200034f57600080fd5b600091505b8382101562000373578582018301518183018401529082019062000354565b600093810190920192909252949350505050565b80518015158114620002bd57600080fd5b80516001600160601b0381168114620002bd57600080fd5b600080600080600080600080610100898b031215620003ce57600080fd5b620003d989620002a5565b60208a015160408b015191995097506001600160401b0380821115620003fe57600080fd5b6200040c8c838d01620002d8565b975060608b01519150808211156200042357600080fd5b620004318c838d01620002d8565b965060808b01519150808211156200044857600080fd5b620004568c838d01620002d8565b95506200046660a08c0162000387565b945060c08b01519150808211156200047d57600080fd5b506200048c8b828c01620002d8565b9250506200049d60e08a0162000398565b90509295985092959890939650565b600181811c90821680620004c157607f821691505b602082108103620004e257634e487b7160e01b600052602260045260246000fd5b50919050565b601f8211156200053657600081815260208120601f850160051c81016020861015620005115750805b601f850160051c820191505b8181101562000532578281556001016200051d565b5050505b505050565b81516001600160401b03811115620005575762000557620002c2565b6200056f81620005688454620004ac565b84620004e8565b602080601f831160018114620005a757600084156200058e5750858301515b600019600386901b1c1916600185901b17855562000532565b600085815260208120601f198616915b82811015620005d857888601518255948401946001909101908401620005b7565b5085821015620005f75787850151600019600388901b60f8161c191681555b5050505050600190811b01905550565b608051612e4d6200062a600039600081816105190152610c400152612e4d6000f3fe6080604052600436106102295760003560e01c806370a0823111610123578063b88d4fde116100ab578063ceaa16201161006f578063ceaa1620146106e1578063d547741f14610701578063e58378bb14610721578063e985e9c514610743578063ed321c0c1461078c57600080fd5b8063b88d4fde1461064e578063baf7a1ee1461066e578063bb96e0821461068e578063c673af36146106a1578063c87b56dd146106c157600080fd5b806395d89b41116100f257806395d89b41146105c4578063a217fddf146105d9578063a22cb465146105ee578063a6f9dae11461060e578063b1aa0d641461062e57600080fd5b806370a08231146105445780637d188bfa146105645780638279c7db1461058457806391d14854146105a457600080fd5b80632f2ff15d116101b157806349a3ea901161017557806349a3ea901461045d57806356ddf587146104915780635777a262146104b15780636352211e146104cf578063681782a5146104ef57600080fd5b80632f2ff15d146103bf57806336568abe146103df57806342842e0e146103ff57806342966c681461041f578063496bb3281461043f57600080fd5b8063175d28da116101f8578063175d28da146102e65780631c35bbe51461030657806323b872dd14610322578063248a9ca3146103425780632a55205a1461038057600080fd5b806301ffc9a71461023557806306fdde031461026a578063081812fc1461028c578063095ea7b3146102c457600080fd5b3661023057005b600080fd5b34801561024157600080fd5b50610255610250366004612383565b6107c3565b60405190151581526020015b60405180910390f35b34801561027657600080fd5b5061027f6107d4565b60405161026191906123f0565b34801561029857600080fd5b506102ac6102a7366004612403565b610866565b6040516001600160a01b039091168152602001610261565b3480156102d057600080fd5b506102e46102df366004612431565b61088d565b005b3480156102f257600080fd5b506102e461030136600461245d565b6109a7565b34801561031257600080fd5b5060405160028152602001610261565b34801561032e57600080fd5b506102e461033d366004612486565b6109e9565b34801561034e57600080fd5b5061037261035d366004612403565b60009081526008602052604090206001015490565b604051908152602001610261565b34801561038c57600080fd5b506103a061039b3660046124c7565b610a1b565b604080516001600160a01b039093168352602083019190915201610261565b3480156103cb57600080fd5b506102e46103da3660046124e9565b610ac7565b3480156103eb57600080fd5b506102e46103fa3660046124e9565b610aec565b34801561040b57600080fd5b506102e461041a366004612486565b610b6a565b34801561042b57600080fd5b506102e461043a366004612403565b610b85565b34801561044b57600080fd5b50600c546001600160a01b03166102ac565b34801561046957600080fd5b506103727fa530591684edb8e247f0956f92e02a13ee688d96752d66afd292c690d952306981565b34801561049d57600080fd5b506103726104ac3660046125c5565b610bb3565b3480156104bd57600080fd5b50600d546001600160a01b03166102ac565b3480156104db57600080fd5b506102ac6104ea366004612403565b610d81565b3480156104fb57600080fd5b50600e5460408051600181526001600160a01b0390921660208301527f000000000000000000000000000000000000000000000000000000000000000090820152606001610261565b34801561055057600080fd5b5061037261055f36600461260c565b610de1565b34801561057057600080fd5b506102e461057f36600461260c565b610e67565b34801561059057600080fd5b506102e461059f36600461260c565b610ebe565b3480156105b057600080fd5b506102556105bf3660046124e9565b610f6f565b3480156105d057600080fd5b5061027f610f9a565b3480156105e557600080fd5b50610372600081565b3480156105fa57600080fd5b506102e4610609366004612639565b610fa9565b34801561061a57600080fd5b506102e461062936600461260c565b610fb4565b34801561063a57600080fd5b506102e4610649366004612431565b61103b565b34801561065a57600080fd5b506102e461066936600461266e565b6110d3565b34801561067a57600080fd5b50600e546102ac906001600160a01b031681565b6102e461069c3660046125c5565b61110b565b3480156106ad57600080fd5b506102e46106bc3660046126ee565b611276565b3480156106cd57600080fd5b5061027f6106dc366004612403565b611331565b3480156106ed57600080fd5b506102e46106fc366004612747565b6113b7565b34801561070d57600080fd5b506102e461071c3660046124e9565b611413565b34801561072d57600080fd5b50610372600080516020612df883398151915281565b34801561074f57600080fd5b5061025561075e3660046127b1565b6001600160a01b03918216600090815260076020908152604080832093909416825291909152205460ff1690565b34801561079857600080fd5b506102556107a7366004612403565b6000908152600f6020526040902054600160a01b900460ff1690565b60006107ce82611438565b92915050565b6060600280546107e3906127df565b80601f016020809104026020016040519081016040528092919081815260200182805461080f906127df565b801561085c5780601f106108315761010080835404028352916020019161085c565b820191906000526020600020905b81548152906001019060200180831161083f57829003601f168201915b5050505050905090565b60006108718261145d565b506000908152600660205260409020546001600160a01b031690565b600061089882610d81565b9050806001600160a01b0316836001600160a01b03160361090a5760405162461bcd60e51b815260206004820152602160248201527f4552433732313a20617070726f76616c20746f2063757272656e74206f776e656044820152603960f91b60648201526084015b60405180910390fd5b336001600160a01b03821614806109265750610926813361075e565b6109985760405162461bcd60e51b815260206004820152603d60248201527f4552433732313a20617070726f76652063616c6c6572206973206e6f7420746f60448201527f6b656e206f776e6572206f7220617070726f76656420666f7220616c6c0000006064820152608401610901565b6109a283836114bc565b505050565b6109bf600080516020612df883398151915233610f6f565b6109dc57604051632f4535e760e01b815260040160405180910390fd5b6109e6308261152a565b50565b6109f4335b82611627565b610a105760405162461bcd60e51b815260040161090190612819565b6109a28383836116a5565b60008281526001602090815260408083208151808301909252546001600160a01b038116808352600160a01b9091046001600160601b0316928201929092528291610a905750604080518082019091526000546001600160a01b0381168252600160a01b90046001600160601b031660208201525b602081015160009061271090610aaf906001600160601b03168761287c565b610ab99190612893565b915196919550909350505050565b600082815260086020526040902060010154610ae281611809565b6109a28383611813565b6001600160a01b0381163314610b5c5760405162461bcd60e51b815260206004820152602f60248201527f416363657373436f6e74726f6c3a2063616e206f6e6c792072656e6f756e636560448201526e103937b632b9903337b91039b2b63360891b6064820152608401610901565b610b668282611899565b5050565b6109a2838383604051806020016040528060008152506110d3565b610b8e336109ee565b610baa5760405162461bcd60e51b815260040161090190612819565b6109e681611900565b6000610bbe83610d81565b6001600160a01b0316336001600160a01b031614610bef57604051633f8ed84960e21b815260040160405180910390fd5b6000610bfa33611995565b610c0385611b80565b84610c0d33611995565b610c176000611b80565b604051602001610c2b9594939291906128b5565b60408051808303601f1901815260c0830182527f00000000000000000000000000000000000000000000000000000000000000008352600e546001600160a01b031660208085019190915282518084018452600080825281830181905285850191909152622dc6c06060860152835181815291820190935290935090917350a46aa7b2ecbe2b1abb7df865b9a87f5eed863591636244885091906080820190815260200185604051602401610ce091906123f0565b60408051601f198184030181529181526020820180516001600160e01b0316636339d79b60e11b17905291525160e083901b6001600160e01b0319168152610d2b91906004016129aa565b6020604051808303816000875af1158015610d4a573d6000803e3d6000fd5b505050506040513d601f19601f82011682018060405250810190610d6e9190612a31565b9050610d7985611900565b949350505050565b6000818152600460205260408120546001600160a01b0316806107ce5760405162461bcd60e51b8152602060048201526018602482015277115490cdcc8c4e881a5b9d985b1a59081d1bdad95b88125160421b6044820152606401610901565b60006001600160a01b038216610e4b5760405162461bcd60e51b815260206004820152602960248201527f4552433732313a2061646472657373207a65726f206973206e6f7420612076616044820152683634b21037bbb732b960b91b6064820152608401610901565b506001600160a01b031660009081526005602052604090205490565b610e7f600080516020612df883398151915233610f6f565b610e9c57604051632f4535e760e01b815260040160405180910390fd5b600e80546001600160a01b0319166001600160a01b0392909216919091179055565b610ed6600080516020612df883398151915233610f6f565b610ef357604051632f4535e760e01b815260040160405180910390fd5b600d54600160a01b900460ff1615610f1e57604051637c3c88a360e01b815260040160405180910390fd5b610f487fa530591684edb8e247f0956f92e02a13ee688d96752d66afd292c690d952306982611813565b600d80546001600160a81b0319166001600160a01b0390921691909117600160a01b179055565b60009182526008602090815260408084206001600160a01b0393909316845291905290205460ff1690565b6060600380546107e3906127df565b610b66338383611b8b565b610fcc600080516020612df883398151915233610f6f565b610fe957604051632f4535e760e01b815260040160405180910390fd5b611001600080516020612df883398151915282611813565b611019600080516020612df883398151915233611899565b600c80546001600160a01b0319166001600160a01b0392909216919091179055565b611053600080516020612df883398151915233610f6f565b61107057604051632f4535e760e01b815260040160405180910390fd5b804710156110915760405163fcb193c560e01b815260040160405180910390fd5b6040516001600160a01b0383169082156108fc029083906000818181858888f19350505050610b665760405163ce6cb19960e01b815260040160405180910390fd5b6110dd3383611627565b6110f95760405162461bcd60e51b815260040161090190612819565b61110584848484611c59565b50505050565b6000828152600f6020526040902054600160a01b900460ff1661114157604051637a42b57560e01b815260040160405180910390fd5b6000828152600f60205260409020546001600160a01b0316331461117857604051633f8ed84960e21b815260040160405180910390fd5b806040516020016111899190612a4a565b60408051601f1981840301815282825280516020918201206000868152600f83529290922091926111be926001019101612ad9565b60405160208183030381529060405280519060200120146111f257604051633f8ed84960e21b815260040160405180910390fd5b6111fc3383611c8c565b604080516060810182526000808252602080830182815284518083018652838152848601908152878452600f909252939091208251815494511515600160a01b026001600160a81b03199095166001600160a01b03919091161793909317835551909190600182019061126f9082612b2b565b5050505050565b6112a07fa530591684edb8e247f0956f92e02a13ee688d96752d66afd292c690d952306933610f6f565b6112bd57604051632f4535e760e01b815260040160405180910390fd5b604080516060810182526001600160a01b0380851682526001602080840182815284860187815260008a8152600f909352959091208451815492511515600160a01b026001600160a81b0319909316941693909317178255925191929091908201906113299082612b2b565b505050505050565b600a5460609060ff161561139757611347611ca6565b61135083611cb5565b604051602001611361929190612beb565b60408051601f198184030181529082905261138191600b90602001612c1a565b6040516020818303038152906040529050919050565b61139f611ca6565b600b604051602001611381929190612c1a565b919050565b6113cf600080516020612df883398151915233610f6f565b6113ec57604051632f4535e760e01b815260040160405180910390fd5b60096113f88482612b2b565b50600a805460ff1916831515179055600b6111058282612b2b565b60008281526008602052604090206001015461142e81611809565b6109a28383611899565b60006001600160e01b03198216637965db0b60e01b14806107ce57506107ce82611d48565b6000818152600460205260409020546001600160a01b03166109e65760405162461bcd60e51b8152602060048201526018602482015277115490cdcc8c4e881a5b9d985b1a59081d1bdad95b88125160421b6044820152606401610901565b600081815260066020526040902080546001600160a01b0319166001600160a01b03841690811790915581906114f182610d81565b6001600160a01b03167f8c5be1e5ebec7d5bd14f71427d1e84f3dd0314c0f7b2291e5b200ac8c7c3b92560405160405180910390a45050565b6127106001600160601b03821611156115985760405162461bcd60e51b815260206004820152602a60248201527f455243323938313a20726f79616c7479206665652077696c6c206578636565646044820152692073616c65507269636560b01b6064820152608401610901565b6001600160a01b0382166115ee5760405162461bcd60e51b815260206004820152601960248201527f455243323938313a20696e76616c6964207265636569766572000000000000006044820152606401610901565b604080518082019091526001600160a01b039092168083526001600160601b039091166020909201829052600160a01b90910217600055565b60008061163383610d81565b9050806001600160a01b0316846001600160a01b0316148061167a57506001600160a01b0380821660009081526007602090815260408083209388168352929052205460ff165b80610d795750836001600160a01b031661169384610866565b6001600160a01b031614949350505050565b826001600160a01b03166116b882610d81565b6001600160a01b0316146116de5760405162461bcd60e51b815260040161090190612c38565b6001600160a01b0382166117405760405162461bcd60e51b8152602060048201526024808201527f4552433732313a207472616e7366657220746f20746865207a65726f206164646044820152637265737360e01b6064820152608401610901565b826001600160a01b031661175382610d81565b6001600160a01b0316146117795760405162461bcd60e51b815260040161090190612c38565b600081815260066020908152604080832080546001600160a01b03199081169091556001600160a01b0387811680865260058552838620805460001901905590871680865283862080546001019055868652600490945282852080549092168417909155905184937fddf252ad1be2c89b69c2b068fc378daa952ba7f163c4a11628f55a4df523b3ef91a4505050565b6109e68133611d53565b61181d8282610f6f565b610b665760008281526008602090815260408083206001600160a01b03851684529091529020805460ff191660011790556118553390565b6001600160a01b0316816001600160a01b0316837f2f8788117e7eff1d82e926ec794901d17c78024a50270940304540a733656f0d60405160405180910390a45050565b6118a38282610f6f565b15610b665760008281526008602090815260408083206001600160a01b0385168085529252808320805460ff1916905551339285917ff6391f5c32d9c69d2a47ea670b442974b53935d1edc7fd64eb21e047a839171b9190a45050565b600061190b82610d81565b905061191682610d81565b600083815260066020908152604080832080546001600160a01b03199081169091556001600160a01b0385168085526005845282852080546000190190558785526004909352818420805490911690555192935084927fddf252ad1be2c89b69c2b068fc378daa952ba7f163c4a11628f55a4df523b3ef908390a45050565b604080518082018252601081526f181899199a1a9b1b9c1cb0b131b232b360811b60208201528151602a80825260608281019094526001600160a01b0385169291600091602082018180368337019050509050600360fc1b81600081518110611a0057611a00612c7d565b60200101906001600160f81b031916908160001a905350600f60fb1b81600181518110611a2f57611a2f612c7d565b60200101906001600160f81b031916908160001a90535060005b6014811015611b775782600485611a6184600c612c93565b60208110611a7157611a71612c7d565b1a60f81b6001600160f81b031916901c60f81c60ff1681518110611a9757611a97612c7d565b01602001516001600160f81b03191682611ab283600261287c565b611abd906002612c93565b81518110611acd57611acd612c7d565b60200101906001600160f81b031916908160001a9053508284611af183600c612c93565b60208110611b0157611b01612c7d565b825191901a600f16908110611b1857611b18612c7d565b01602001516001600160f81b03191682611b3383600261287c565b611b3e906003612c93565b81518110611b4e57611b4e612c7d565b60200101906001600160f81b031916908160001a90535080611b6f81612ca6565b915050611a49565b50949350505050565b60606107ce82611cb5565b816001600160a01b0316836001600160a01b031603611bec5760405162461bcd60e51b815260206004820152601960248201527f4552433732313a20617070726f766520746f2063616c6c6572000000000000006044820152606401610901565b6001600160a01b03838116600081815260076020908152604080832094871680845294825291829020805460ff191686151590811790915591519182527f17307eab39ab6107e8899845ad3d59bd9653f200f220920489ca2b5937696c31910160405180910390a3505050565b611c648484846116a5565b611c7084848484611dac565b6111055760405162461bcd60e51b815260040161090190612cbf565b610b66828260405180602001604052806000815250611ead565b6060600980546107e3906127df565b60606000611cc283611ee0565b600101905060008167ffffffffffffffff811115611ce257611ce2612519565b6040519080825280601f01601f191660200182016040528015611d0c576020820181803683370190505b5090508181016020015b600019016f181899199a1a9b1b9c1cb0b131b232b360811b600a86061a8153600a8504945084611d1657509392505050565b60006107ce82611fb8565b611d5d8282610f6f565b610b6657611d6a81611ff8565b611d7583602061200a565b604051602001611d86929190612d11565b60408051601f198184030181529082905262461bcd60e51b8252610901916004016123f0565b60006001600160a01b0384163b15611ea257604051630a85bd0160e11b81526001600160a01b0385169063150b7a0290611df0903390899088908890600401612d86565b6020604051808303816000875af1925050508015611e2b575060408051601f3d908101601f19168201909252611e2891810190612dc3565b60015b611e88573d808015611e59576040519150601f19603f3d011682016040523d82523d6000602084013e611e5e565b606091505b508051600003611e805760405162461bcd60e51b815260040161090190612cbf565b805181602001fd5b6001600160e01b031916630a85bd0160e11b149050610d79565b506001949350505050565b611eb783836121ad565b611ec46000848484611dac565b6109a25760405162461bcd60e51b815260040161090190612cbf565b60008072184f03e93ff9f4daa797ed6e38ed64bf6a1f0160401b8310611f1f5772184f03e93ff9f4daa797ed6e38ed64bf6a1f0160401b830492506040015b6d04ee2d6d415b85acef81000000008310611f4b576d04ee2d6d415b85acef8100000000830492506020015b662386f26fc100008310611f6957662386f26fc10000830492506010015b6305f5e1008310611f81576305f5e100830492506008015b6127108310611f9557612710830492506004015b60648310611fa7576064830492506002015b600a83106107ce5760010192915050565b60006001600160e01b031982166380ac58cd60e01b1480611fe957506001600160e01b03198216635b5e139f60e01b145b806107ce57506107ce82612338565b60606107ce6001600160a01b03831660145b6060600061201983600261287c565b612024906002612c93565b67ffffffffffffffff81111561203c5761203c612519565b6040519080825280601f01601f191660200182016040528015612066576020820181803683370190505b509050600360fc1b8160008151811061208157612081612c7d565b60200101906001600160f81b031916908160001a905350600f60fb1b816001815181106120b0576120b0612c7d565b60200101906001600160f81b031916908160001a90535060006120d484600261287c565b6120df906001612c93565b90505b6001811115612157576f181899199a1a9b1b9c1cb0b131b232b360811b85600f166010811061211357612113612c7d565b1a60f81b82828151811061212957612129612c7d565b60200101906001600160f81b031916908160001a90535060049490941c9361215081612de0565b90506120e2565b5083156121a65760405162461bcd60e51b815260206004820181905260248201527f537472696e67733a20686578206c656e67746820696e73756666696369656e746044820152606401610901565b9392505050565b6001600160a01b0382166122035760405162461bcd60e51b815260206004820181905260248201527f4552433732313a206d696e7420746f20746865207a65726f20616464726573736044820152606401610901565b6000818152600460205260409020546001600160a01b0316156122685760405162461bcd60e51b815260206004820152601c60248201527f4552433732313a20746f6b656e20616c7265616479206d696e746564000000006044820152606401610901565b6000818152600460205260409020546001600160a01b0316156122cd5760405162461bcd60e51b815260206004820152601c60248201527f4552433732313a20746f6b656e20616c7265616479206d696e746564000000006044820152606401610901565b6001600160a01b038216600081815260056020908152604080832080546001019055848352600490915280822080546001600160a01b0319168417905551839291907fddf252ad1be2c89b69c2b068fc378daa952ba7f163c4a11628f55a4df523b3ef908290a45050565b60006001600160e01b0319821663152a902d60e11b14806107ce57506301ffc9a760e01b6001600160e01b03198316146107ce565b6001600160e01b0319811681146109e657600080fd5b60006020828403121561239557600080fd5b81356121a68161236d565b60005b838110156123bb5781810151838201526020016123a3565b50506000910152565b600081518084526123dc8160208601602086016123a0565b601f01601f19169290920160200192915050565b6020815260006121a660208301846123c4565b60006020828403121561241557600080fd5b5035919050565b6001600160a01b03811681146109e657600080fd5b6000806040838503121561244457600080fd5b823561244f8161241c565b946020939093013593505050565b60006020828403121561246f57600080fd5b81356001600160601b03811681146121a657600080fd5b60008060006060848603121561249b57600080fd5b83356124a68161241c565b925060208401356124b68161241c565b929592945050506040919091013590565b600080604083850312156124da57600080fd5b50508035926020909101359150565b600080604083850312156124fc57600080fd5b82359150602083013561250e8161241c565b809150509250929050565b634e487b7160e01b600052604160045260246000fd5b600067ffffffffffffffff8084111561254a5761254a612519565b604051601f8501601f19908116603f0116810190828211818310171561257257612572612519565b8160405280935085815286868601111561258b57600080fd5b858560208301376000602087830101525050509392505050565b600082601f8301126125b657600080fd5b6121a68383356020850161252f565b600080604083850312156125d857600080fd5b82359150602083013567ffffffffffffffff8111156125f657600080fd5b612602858286016125a5565b9150509250929050565b60006020828403121561261e57600080fd5b81356121a68161241c565b803580151581146113b257600080fd5b6000806040838503121561264c57600080fd5b82356126578161241c565b915061266560208401612629565b90509250929050565b6000806000806080858703121561268457600080fd5b843561268f8161241c565b9350602085013561269f8161241c565b925060408501359150606085013567ffffffffffffffff8111156126c257600080fd5b8501601f810187136126d357600080fd5b6126e28782356020840161252f565b91505092959194509250565b60008060006060848603121561270357600080fd5b8335925060208401356127158161241c565b9150604084013567ffffffffffffffff81111561273157600080fd5b61273d868287016125a5565b9150509250925092565b60008060006060848603121561275c57600080fd5b833567ffffffffffffffff8082111561277457600080fd5b612780878388016125a5565b945061278e60208701612629565b935060408601359150808211156127a457600080fd5b5061273d868287016125a5565b600080604083850312156127c457600080fd5b82356127cf8161241c565b9150602083013561250e8161241c565b600181811c908216806127f357607f821691505b60208210810361281357634e487b7160e01b600052602260045260246000fd5b50919050565b6020808252602d908201527f4552433732313a2063616c6c6572206973206e6f7420746f6b656e206f776e6560408201526c1c881bdc88185c1c1c9bdd9959609a1b606082015260800190565b634e487b7160e01b600052601160045260246000fd5b80820281158282048414176107ce576107ce612866565b6000826128b057634e487b7160e01b600052601260045260246000fd5b500490565b6000603d60f81b80835287516128d2816001860160208c016123a0565b8084019050600b60fa1b80600183015288516128f5816002850160208d016123a0565b601f60fa1b600293909101928301528751612917816003850160208c016123a0565b600392019182018190528651612934816004850160208b016123a0565b6004920191820152845161294f8160058401602089016123a0565b016005810191909152600601979650505050505050565b600081518084526020808501945080840160005b8381101561299f5781516001600160a01b03168752958201959082019060010161297a565b509495945050505050565b60208152815160208201526000602083015160018060a01b03808216604085015260408501519150808251166060850152506020810151608084015250606083015160a0830152608083015160e060c0840152612a0b610100840182612966565b905060a0840151601f198483030160e0850152612a2882826123c4565b95945050505050565b600060208284031215612a4357600080fd5b5051919050565b60008251612a5c8184602087016123a0565b9190910192915050565b60008154612a73816127df565b60018281168015612a8b5760018114612aa057612acf565b60ff1984168752821515830287019450612acf565b8560005260208060002060005b85811015612ac65781548a820152908401908201612aad565b50505082870194505b5050505092915050565b60006121a68284612a66565b601f8211156109a257600081815260208120601f850160051c81016020861015612b0c5750805b601f850160051c820191505b8181101561132957828155600101612b18565b815167ffffffffffffffff811115612b4557612b45612519565b612b5981612b5384546127df565b84612ae5565b602080601f831160018114612b8e5760008415612b765750858301515b600019600386901b1c1916600185901b178555611329565b600085815260208120601f198616915b82811015612bbd57888601518255948401946001909101908401612b9e565b5085821015612bdb5787850151600019600388901b60f8161c191681555b5050505050600190811b01905550565b60008351612bfd8184602088016123a0565b835190830190612c118183602088016123a0565b01949350505050565b60008351612c2c8184602088016123a0565b612a2881840185612a66565b60208082526025908201527f4552433732313a207472616e736665722066726f6d20696e636f72726563742060408201526437bbb732b960d91b606082015260800190565b634e487b7160e01b600052603260045260246000fd5b808201808211156107ce576107ce612866565b600060018201612cb857612cb8612866565b5060010190565b60208082526032908201527f4552433732313a207472616e7366657220746f206e6f6e20455243373231526560408201527131b2b4bb32b91034b6b83632b6b2b73a32b960711b606082015260800190565b7f416363657373436f6e74726f6c3a206163636f756e7420000000000000000000815260008351612d498160178501602088016123a0565b7001034b99036b4b9b9b4b733903937b6329607d1b6017918401918201528351612d7a8160288401602088016123a0565b01602801949350505050565b6001600160a01b0385811682528416602082015260408101839052608060608201819052600090612db9908301846123c4565b9695505050505050565b600060208284031215612dd557600080fd5b81516121a68161236d565b600081612def57612def612866565b50600019019056feb19546dff01e856fb3f010c267a7b1c60363cf8a4664e21cc89c26224620214ea2646970667358221220e305a600d94a25347fa146860ed078c1c6be1fe7723435090875be753fc8c4f864736f6c63430008120033",
        "linkReferences": {}
    },
    "methodIdentifiers": {
        "DEFAULT_ADMIN_ROLE()": "a217fddf",
        "OWNER_ROLE()": "e58378bb",
        "ReceiverContractAddress_OriginalSubnet()": "baf7a1ee",
        "TELEPORTER_ROLE()": "49a3ea90",
        "approve(address,uint256)": "095ea7b3",
        "balanceOf(address)": "70a08231",
        "burn(uint256)": "42966c68",
        "changeBaseURI(string,bool,string)": "ceaa1620",
        "changeCreatorFees(uint96)": "175d28da",
        "changeOwner(address)": "a6f9dae1",
        "crossChainSolution()": "1c35bbe5",
        "crossChainSolutionVariables()": "681782a5",
        "getApproved(uint256)": "081812fc",
        "getRoleAdmin(bytes32)": "248a9ca3",
        "goBackToOriginalCollection(uint256,string)": "56ddf587",
        "grantRole(bytes32,address)": "2f2ff15d",
        "hasRole(bytes32,address)": "91d14854",
        "isApprovedForAll(address,address)": "e985e9c5",
        "name()": "06fdde03",
        "ownerOf(uint256)": "6352211e",
        "renounceRole(bytes32,address)": "36568abe",
        "revokeRole(bytes32,address)": "d547741f",
        "royaltyInfo(uint256,uint256)": "2a55205a",
        "safeMint(uint256,string)": "bb96e082",
        "safeTransferFrom(address,address,uint256)": "42842e0e",
        "safeTransferFrom(address,address,uint256,bytes)": "b88d4fde",
        "seeIfCanMint(uint256)": "ed321c0c",
        "setApprovalForAll(address,bool)": "a22cb465",
        "setOriginalSubnetReceiverContractAddres(address)": "7d188bfa",
        "setReceiverAddress(address)": "8279c7db",
        "supportsInterface(bytes4)": "01ffc9a7",
        "symbol()": "95d89b41",
        "teleporterSetMint(uint256,address,string)": "c673af36",
        "tokenURI(uint256)": "c87b56dd",
        "transferEthFunds(address,uint256)": "b1aa0d64",
        "transferFrom(address,address,uint256)": "23b872dd",
        "viewOwnerAddress()": "496bb328",
        "viewRecieverContractAddress()": "5777a262"
    },
    "id": 61
}