{
    "abi": [
        {
            "type": "constructor",
            "inputs": [
                {
                    "name": "_initialOwner",
                    "type": "address",
                    "internalType": "address"
                },
                {
                    "name": "_oldContract",
                    "type": "address",
                    "internalType": "address"
                },
                {
                    "name": "_costPerMint",
                    "type": "uint256",
                    "internalType": "uint256"
                },
                {
                    "name": "_maxTokens",
                    "type": "uint256",
                    "internalType": "uint256"
                },
                {
                    "name": "_destinationBlockchainID",
                    "type": "bytes32",
                    "internalType": "bytes32"
                }
            ],
            "stateMutability": "nonpayable"
        },
        {
            "type": "receive",
            "stateMutability": "payable"
        },
        {
            "type": "function",
            "name": "DEFAULT_ADMIN_ROLE",
            "inputs": [],
            "outputs": [
                {
                    "name": "",
                    "type": "bytes32",
                    "internalType": "bytes32"
                }
            ],
            "stateMutability": "view"
        },
        {
            "type": "function",
            "name": "OWNER_ROLE",
            "inputs": [],
            "outputs": [
                {
                    "name": "",
                    "type": "bytes32",
                    "internalType": "bytes32"
                }
            ],
            "stateMutability": "view"
        },
        {
            "type": "function",
            "name": "ReceiverContractAddress_NewSubnet",
            "inputs": [],
            "outputs": [
                {
                    "name": "",
                    "type": "address",
                    "internalType": "address"
                }
            ],
            "stateMutability": "view"
        },
        {
            "type": "function",
            "name": "TELEPORTER_ROLE",
            "inputs": [],
            "outputs": [
                {
                    "name": "",
                    "type": "bytes32",
                    "internalType": "bytes32"
                }
            ],
            "stateMutability": "view"
        },
        {
            "type": "function",
            "name": "changeCost",
            "inputs": [
                {
                    "name": "newCost",
                    "type": "uint256",
                    "internalType": "uint256"
                }
            ],
            "outputs": [],
            "stateMutability": "nonpayable"
        },
        {
            "type": "function",
            "name": "changeMaxTokens",
            "inputs": [
                {
                    "name": "newMaxTokens",
                    "type": "uint256",
                    "internalType": "uint256"
                }
            ],
            "outputs": [],
            "stateMutability": "nonpayable"
        },
        {
            "type": "function",
            "name": "changeOwner",
            "inputs": [
                {
                    "name": "newOwner",
                    "type": "address",
                    "internalType": "address"
                }
            ],
            "outputs": [],
            "stateMutability": "nonpayable"
        },
        {
            "type": "function",
            "name": "crossChainSolution",
            "inputs": [],
            "outputs": [
                {
                    "name": "",
                    "type": "uint8",
                    "internalType": "uint8"
                }
            ],
            "stateMutability": "pure"
        },
        {
            "type": "function",
            "name": "crossChainSolutionVariables",
            "inputs": [],
            "outputs": [
                {
                    "name": "",
                    "type": "bool",
                    "internalType": "bool"
                },
                {
                    "name": "",
                    "type": "address",
                    "internalType": "address"
                },
                {
                    "name": "",
                    "type": "bytes32",
                    "internalType": "bytes32"
                }
            ],
            "stateMutability": "view"
        },
        {
            "type": "function",
            "name": "getRoleAdmin",
            "inputs": [
                {
                    "name": "role",
                    "type": "bytes32",
                    "internalType": "bytes32"
                }
            ],
            "outputs": [
                {
                    "name": "",
                    "type": "bytes32",
                    "internalType": "bytes32"
                }
            ],
            "stateMutability": "view"
        },
        {
            "type": "function",
            "name": "grantRole",
            "inputs": [
                {
                    "name": "role",
                    "type": "bytes32",
                    "internalType": "bytes32"
                },
                {
                    "name": "account",
                    "type": "address",
                    "internalType": "address"
                }
            ],
            "outputs": [],
            "stateMutability": "nonpayable"
        },
        {
            "type": "function",
            "name": "hasRole",
            "inputs": [
                {
                    "name": "role",
                    "type": "bytes32",
                    "internalType": "bytes32"
                },
                {
                    "name": "account",
                    "type": "address",
                    "internalType": "address"
                }
            ],
            "outputs": [
                {
                    "name": "",
                    "type": "bool",
                    "internalType": "bool"
                }
            ],
            "stateMutability": "view"
        },
        {
            "type": "function",
            "name": "passMint",
            "inputs": [
                {
                    "name": "tokenID",
                    "type": "uint256",
                    "internalType": "uint256"
                },
                {
                    "name": "_signature",
                    "type": "string",
                    "internalType": "string"
                }
            ],
            "outputs": [
                {
                    "name": "",
                    "type": "uint256",
                    "internalType": "uint256"
                }
            ],
            "stateMutability": "payable"
        },
        {
            "type": "function",
            "name": "renounceRole",
            "inputs": [
                {
                    "name": "role",
                    "type": "bytes32",
                    "internalType": "bytes32"
                },
                {
                    "name": "account",
                    "type": "address",
                    "internalType": "address"
                }
            ],
            "outputs": [],
            "stateMutability": "nonpayable"
        },
        {
            "type": "function",
            "name": "revokeRole",
            "inputs": [
                {
                    "name": "role",
                    "type": "bytes32",
                    "internalType": "bytes32"
                },
                {
                    "name": "account",
                    "type": "address",
                    "internalType": "address"
                }
            ],
            "outputs": [],
            "stateMutability": "nonpayable"
        },
        {
            "type": "function",
            "name": "seeIfCanUnwrap",
            "inputs": [
                {
                    "name": "_tokenId",
                    "type": "uint256",
                    "internalType": "uint256"
                }
            ],
            "outputs": [
                {
                    "name": "",
                    "type": "bool",
                    "internalType": "bool"
                }
            ],
            "stateMutability": "view"
        },
        {
            "type": "function",
            "name": "seeOriginalContractAddress",
            "inputs": [],
            "outputs": [
                {
                    "name": "",
                    "type": "address",
                    "internalType": "address"
                }
            ],
            "stateMutability": "view"
        },
        {
            "type": "function",
            "name": "setNewSubnetReceiverContractAddress",
            "inputs": [
                {
                    "name": "_NewSubnetReceiverContractAddress",
                    "type": "address",
                    "internalType": "address"
                }
            ],
            "outputs": [],
            "stateMutability": "nonpayable"
        },
        {
            "type": "function",
            "name": "setReceiverAddress",
            "inputs": [
                {
                    "name": "_receiverAddress",
                    "type": "address",
                    "internalType": "address"
                }
            ],
            "outputs": [],
            "stateMutability": "nonpayable"
        },
        {
            "type": "function",
            "name": "supportsInterface",
            "inputs": [
                {
                    "name": "interfaceId",
                    "type": "bytes4",
                    "internalType": "bytes4"
                }
            ],
            "outputs": [
                {
                    "name": "",
                    "type": "bool",
                    "internalType": "bool"
                }
            ],
            "stateMutability": "view"
        },
        {
            "type": "function",
            "name": "teleporterSetIdToUnwrap",
            "inputs": [
                {
                    "name": "_tokenId",
                    "type": "uint256",
                    "internalType": "uint256"
                },
                {
                    "name": "_owner",
                    "type": "address",
                    "internalType": "address"
                },
                {
                    "name": "_signature",
                    "type": "string",
                    "internalType": "string"
                }
            ],
            "outputs": [],
            "stateMutability": "nonpayable"
        },
        {
            "type": "function",
            "name": "transferEthFunds",
            "inputs": [
                {
                    "name": "beneficiary",
                    "type": "address",
                    "internalType": "address payable"
                },
                {
                    "name": "amount",
                    "type": "uint256",
                    "internalType": "uint256"
                }
            ],
            "outputs": [],
            "stateMutability": "nonpayable"
        },
        {
            "type": "function",
            "name": "viewOwnerAddress",
            "inputs": [],
            "outputs": [
                {
                    "name": "",
                    "type": "address",
                    "internalType": "address"
                }
            ],
            "stateMutability": "view"
        },
        {
            "type": "function",
            "name": "viewRecieverContractAddress",
            "inputs": [],
            "outputs": [
                {
                    "name": "",
                    "type": "address",
                    "internalType": "address"
                }
            ],
            "stateMutability": "view"
        },
        {
            "type": "function",
            "name": "withdrawMyToken",
            "inputs": [
                {
                    "name": "_tokenId",
                    "type": "uint256",
                    "internalType": "uint256"
                },
                {
                    "name": "_signature",
                    "type": "string",
                    "internalType": "string"
                }
            ],
            "outputs": [],
            "stateMutability": "nonpayable"
        },
        {
            "type": "event",
            "name": "RoleAdminChanged",
            "inputs": [
                {
                    "name": "role",
                    "type": "bytes32",
                    "indexed": true,
                    "internalType": "bytes32"
                },
                {
                    "name": "previousAdminRole",
                    "type": "bytes32",
                    "indexed": true,
                    "internalType": "bytes32"
                },
                {
                    "name": "newAdminRole",
                    "type": "bytes32",
                    "indexed": true,
                    "internalType": "bytes32"
                }
            ],
            "anonymous": false
        },
        {
            "type": "event",
            "name": "RoleGranted",
            "inputs": [
                {
                    "name": "role",
                    "type": "bytes32",
                    "indexed": true,
                    "internalType": "bytes32"
                },
                {
                    "name": "account",
                    "type": "address",
                    "indexed": true,
                    "internalType": "address"
                },
                {
                    "name": "sender",
                    "type": "address",
                    "indexed": true,
                    "internalType": "address"
                }
            ],
            "anonymous": false
        },
        {
            "type": "event",
            "name": "RoleRevoked",
            "inputs": [
                {
                    "name": "role",
                    "type": "bytes32",
                    "indexed": true,
                    "internalType": "bytes32"
                },
                {
                    "name": "account",
                    "type": "address",
                    "indexed": true,
                    "internalType": "address"
                },
                {
                    "name": "sender",
                    "type": "address",
                    "indexed": true,
                    "internalType": "address"
                }
            ],
            "anonymous": false
        },
        {
            "type": "error",
            "name": "GmFamTreasuryAndWraper__AccessDenied",
            "inputs": []
        },
        {
            "type": "error",
            "name": "GmFamTreasuryAndWraper__MaxSupplyReached",
            "inputs": []
        },
        {
            "type": "error",
            "name": "GmFamTreasuryAndWraper__NotEnoughFunds",
            "inputs": []
        },
        {
            "type": "error",
            "name": "GmFamTreasuryAndWraper__OwnerMUSTSetUPTheReceiverContractFirst",
            "inputs": []
        },
        {
            "type": "error",
            "name": "GmFamTreasuryAndWraper__OwnerMustSetTheNewChainReceiverContractAddress",
            "inputs": []
        },
        {
            "type": "error",
            "name": "GmFamTreasuryAndWraper__ReceiverAddressAlreadySet",
            "inputs": []
        },
        {
            "type": "error",
            "name": "GmFamTreasuryAndWraper__TransferFailed",
            "inputs": []
        },
        {
            "type": "error",
            "name": "GmFamTreasuryAndWraper__YouAreNotTheOwner",
            "inputs": []
        },
        {
            "type": "error",
            "name": "GmFamTreasuryAndWraper__YouMUSTPayForMint",
            "inputs": []
        },
        {
            "type": "error",
            "name": "GmFamTreasuryAndWraper__YouMUSTUnwrapTheTokenFirst",
            "inputs": []
        },
        {
            "type": "error",
            "name": "GmFamTreasuryAndWraper__YouMUSTWrapTheTokenFirst",
            "inputs": []
        }
    ],
    "bytecode": {
        "object": "0x60a06040526006805460ff60a01b19169055600780546001600160a01b03191690553480156200002e57600080fd5b5060405162001e3b38038062001e3b83398101604081905262000051916200017c565b6200007d7fb19546dff01e856fb3f010c267a7b1c60363cf8a4664e21cc89c26224620214e86620000be565b600580546001600160a01b039687166001600160a01b03199182161790915560809190915260019290925560025560038054929093169116179055620001cf565b6000828152602081815260408083206001600160a01b038516845290915290205460ff166200015b576000828152602081815260408083206001600160a01b03851684529091529020805460ff191660011790556200011a3390565b6001600160a01b0316816001600160a01b0316837f2f8788117e7eff1d82e926ec794901d17c78024a50270940304540a733656f0d60405160405180910390a45b5050565b80516001600160a01b03811681146200017757600080fd5b919050565b600080600080600060a086880312156200019557600080fd5b620001a0866200015f565b9450620001b0602087016200015f565b6040870151606088015160809098015196999198509695945092505050565b608051611c49620001f26000396000818161036601526108320152611c496000f3fe60806040526004361061016a5760003560e01c8063681782a5116100d1578063a6f9dae11161008a578063d547741f11610064578063d547741f1461049d578063debc6817146104bd578063e47eaae4146104dd578063e58378bb146104fd57600080fd5b8063a6f9dae11461043d578063b10a95361461045d578063b1aa0d641461047d57600080fd5b8063681782a51461033c578063741bee33146103915780638279c7db146103b157806391d14854146103d15780639bc3a5ef146103f1578063a217fddf1461042857600080fd5b806336568abe1161012357806336568abe14610279578063496bb3281461029957806349a3ea90146102b7578063536257a8146102eb5780635777a262146102fe5780635cb85cd21461031c57600080fd5b806301ffc9a714610176578063150b44fd146101ab5780631c35bbe5146101dd578063248a9ca3146101f95780632df57550146102375780632f2ff15d1461025957600080fd5b3661017157005b600080fd5b34801561018257600080fd5b506101966101913660046114fd565b61051f565b60405190151581526020015b60405180910390f35b3480156101b757600080fd5b506003546001600160a01b03165b6040516001600160a01b0390911681526020016101a2565b3480156101e957600080fd5b50604051600281526020016101a2565b34801561020557600080fd5b50610229610214366004611527565b60009081526020819052604090206001015490565b6040519081526020016101a2565b34801561024357600080fd5b50610257610252366004611555565b610556565b005b34801561026557600080fd5b50610257610274366004611572565b6105ad565b34801561028557600080fd5b50610257610294366004611572565b6105d7565b3480156102a557600080fd5b506005546001600160a01b03166101c5565b3480156102c357600080fd5b506102297fa530591684edb8e247f0956f92e02a13ee688d96752d66afd292c690d952306981565b6102296102f9366004611645565b61065a565b34801561030a57600080fd5b506006546001600160a01b03166101c5565b34801561032857600080fd5b50610257610337366004611527565b610980565b34801561034857600080fd5b5060075460408051600081526001600160a01b0390921660208301527f0000000000000000000000000000000000000000000000000000000000000000908201526060016101a2565b34801561039d57600080fd5b506102576103ac36600461168c565b6109ba565b3480156103bd57600080fd5b506102576103cc366004611555565b610a75565b3480156103dd57600080fd5b506101966103ec366004611572565b610b26565b3480156103fd57600080fd5b5061019661040c366004611527565b600090815260086020526040902054600160a01b900460ff1690565b34801561043457600080fd5b50610229600081565b34801561044957600080fd5b50610257610458366004611555565b610b4f565b34801561046957600080fd5b506007546101c5906001600160a01b031681565b34801561048957600080fd5b506102576104983660046116e5565b610bd6565b3480156104a957600080fd5b506102576104b8366004611572565b610c6e565b3480156104c957600080fd5b506102576104d8366004611645565b610c93565b3480156104e957600080fd5b506102576104f8366004611527565b610e5e565b34801561050957600080fd5b50610229600080516020611bf483398151915281565b60006001600160e01b03198216637965db0b60e01b148061055057506301ffc9a760e01b6001600160e01b03198316145b92915050565b61056e600080516020611bf483398151915233610b26565b61058b57604051636123936f60e11b815260040160405180910390fd5b600780546001600160a01b0319166001600160a01b0392909216919091179055565b6000828152602081905260409020600101546105c881610e98565b6105d28383610ea5565b505050565b6001600160a01b038116331461064c5760405162461bcd60e51b815260206004820152602f60248201527f416363657373436f6e74726f6c3a2063616e206f6e6c792072656e6f756e636560448201526e103937b632b9903337b91039b2b63360891b60648201526084015b60405180910390fd5b6106568282610f29565b5050565b600060025460045410610680576040516316654fdb60e01b815260040160405180910390fd5b6001543410156106a357604051631d266a7360e01b815260040160405180910390fd5b6003546040516331a9108f60e11b8152600481018590526001600160a01b0390911690636352211e90602401602060405180830381865afa1580156106ec573d6000803e3d6000fd5b505050506040513d601f19601f820116820180604052508101906107109190611711565b6001600160a01b0316336001600160a01b031614610740576040516202895f60ed1b815260040160405180910390fd5b60405130903480156108fc02916000818181858888f193505050506107785760405163349189c560e21b815260040160405180910390fd5b6003546040516323b872dd60e01b8152336004820152306024820152604481018590526001600160a01b03909116906323b872dd90606401600060405180830381600087803b1580156107ca57600080fd5b505af11580156107de573d6000803e3d6000fd5b5050505060006107ed33610f8e565b6107f685611179565b8461080033610f8e565b61080934611179565b60405160200161081d959493929190611752565b60408051808303601f1901815260c0830182527f000000000000000000000000000000000000000000000000000000000000000083526007546001600160a01b031660208085019190915282518084018452600080825281830181905285850191909152622dc6c06060860152835181815291820190935290935090917350a46aa7b2ecbe2b1abb7df865b9a87f5eed8635916362448850919060808201908152602001856040516024016108d2919061182f565b60408051601f198184030181529181526020820180516001600160e01b0316636339d79b60e11b17905291525160e083901b6001600160e01b031916815261091d9190600401611886565b6020604051808303816000875af115801561093c573d6000803e3d6000fd5b505050506040513d601f19601f82011682018060405250810190610960919061190d565b6004805491925060006109728361193c565b909155509095945050505050565b610998600080516020611bf483398151915233610b26565b6109b557604051636123936f60e11b815260040160405180910390fd5b600155565b6109e47fa530591684edb8e247f0956f92e02a13ee688d96752d66afd292c690d952306933610b26565b610a0157604051636123936f60e11b815260040160405180910390fd5b604080516060810182526001600160a01b0380851682526001602080840182815284860187815260008a81526008909352959091208451815492511515600160a01b026001600160a81b031990931694169390931717825592519192909190820190610a6d90826119d5565b505050505050565b610a8d600080516020611bf483398151915233610b26565b610aaa57604051636123936f60e11b815260040160405180910390fd5b600654600160a01b900460ff1615610ad55760405163b8fcdc9560e01b815260040160405180910390fd5b610aff7fa530591684edb8e247f0956f92e02a13ee688d96752d66afd292c690d952306982610ea5565b600680546001600160a81b0319166001600160a01b0390921691909117600160a01b179055565b6000918252602082815260408084206001600160a01b0393909316845291905290205460ff1690565b610b67600080516020611bf483398151915233610b26565b610b8457604051636123936f60e11b815260040160405180910390fd5b610b9c600080516020611bf483398151915282610ea5565b610bb4600080516020611bf483398151915233610f29565b600580546001600160a01b0319166001600160a01b0392909216919091179055565b610bee600080516020611bf483398151915233610b26565b610c0b57604051636123936f60e11b815260040160405180910390fd5b80471015610c2c57604051639a2e5f9b60e01b815260040160405180910390fd5b6040516001600160a01b0383169082156108fc029083906000818181858888f193505050506106565760405163349189c560e21b815260040160405180910390fd5b600082815260208190526040902060010154610c8981610e98565b6105d28383610f29565b600082815260086020526040902054600160a01b900460ff16610cc957604051630ce5824960e41b815260040160405180910390fd5b6000828152600860205260409020546001600160a01b03163314610cff576040516202895f60ed1b815260040160405180910390fd5b80604051602001610d109190611a95565b60408051601f198184030181528282528051602091820120600086815260088352929092209192610d45926001019101611ab1565b6040516020818303038152906040528051906020012014610d7957604051630ce5824960e41b815260040160405180910390fd5b6003546040516323b872dd60e01b8152306004820152336024820152604481018490526001600160a01b03909116906323b872dd90606401600060405180830381600087803b158015610dcb57600080fd5b505af1158015610ddf573d6000803e3d6000fd5b50506040805160608101825260008082526020808301828152845180830186528381528486019081528984526008909252939091208251815494511515600160a01b026001600160a81b03199095166001600160a01b039190911617939093178355519093509091506001820190610e5790826119d5565b5050505050565b610e76600080516020611bf483398151915233610b26565b610e9357604051636123936f60e11b815260040160405180910390fd5b600255565b610ea28133611184565b50565b610eaf8282610b26565b610656576000828152602081815260408083206001600160a01b03851684529091529020805460ff19166001179055610ee53390565b6001600160a01b0316816001600160a01b0316837f2f8788117e7eff1d82e926ec794901d17c78024a50270940304540a733656f0d60405160405180910390a45050565b610f338282610b26565b15610656576000828152602081815260408083206001600160a01b0385168085529252808320805460ff1916905551339285917ff6391f5c32d9c69d2a47ea670b442974b53935d1edc7fd64eb21e047a839171b9190a45050565b604080518082018252601081526f181899199a1a9b1b9c1cb0b131b232b360811b60208201528151602a80825260608281019094526001600160a01b0385169291600091602082018180368337019050509050600360fc1b81600081518110610ff957610ff9611b27565b60200101906001600160f81b031916908160001a905350600f60fb1b8160018151811061102857611028611b27565b60200101906001600160f81b031916908160001a90535060005b6014811015611170578260048561105a84600c611b3d565b6020811061106a5761106a611b27565b1a60f81b6001600160f81b031916901c60f81c60ff168151811061109057611090611b27565b01602001516001600160f81b031916826110ab836002611b50565b6110b6906002611b3d565b815181106110c6576110c6611b27565b60200101906001600160f81b031916908160001a90535082846110ea83600c611b3d565b602081106110fa576110fa611b27565b825191901a600f1690811061111157611111611b27565b01602001516001600160f81b0319168261112c836002611b50565b611137906003611b3d565b8151811061114757611147611b27565b60200101906001600160f81b031916908160001a905350806111688161193c565b915050611042565b50949350505050565b6060610550826111dd565b61118e8282610b26565b6106565761119b81611270565b6111a6836020611282565b6040516020016111b7929190611b67565b60408051601f198184030181529082905262461bcd60e51b82526106439160040161182f565b606060006111ea83611425565b600101905060008167ffffffffffffffff81111561120a5761120a6115a2565b6040519080825280601f01601f191660200182016040528015611234576020820181803683370190505b5090508181016020015b600019016f181899199a1a9b1b9c1cb0b131b232b360811b600a86061a8153600a850494508461123e57509392505050565b60606105506001600160a01b03831660145b60606000611291836002611b50565b61129c906002611b3d565b67ffffffffffffffff8111156112b4576112b46115a2565b6040519080825280601f01601f1916602001820160405280156112de576020820181803683370190505b509050600360fc1b816000815181106112f9576112f9611b27565b60200101906001600160f81b031916908160001a905350600f60fb1b8160018151811061132857611328611b27565b60200101906001600160f81b031916908160001a905350600061134c846002611b50565b611357906001611b3d565b90505b60018111156113cf576f181899199a1a9b1b9c1cb0b131b232b360811b85600f166010811061138b5761138b611b27565b1a60f81b8282815181106113a1576113a1611b27565b60200101906001600160f81b031916908160001a90535060049490941c936113c881611bdc565b905061135a565b50831561141e5760405162461bcd60e51b815260206004820181905260248201527f537472696e67733a20686578206c656e67746820696e73756666696369656e746044820152606401610643565b9392505050565b60008072184f03e93ff9f4daa797ed6e38ed64bf6a1f0160401b83106114645772184f03e93ff9f4daa797ed6e38ed64bf6a1f0160401b830492506040015b6d04ee2d6d415b85acef81000000008310611490576d04ee2d6d415b85acef8100000000830492506020015b662386f26fc1000083106114ae57662386f26fc10000830492506010015b6305f5e10083106114c6576305f5e100830492506008015b61271083106114da57612710830492506004015b606483106114ec576064830492506002015b600a83106105505760010192915050565b60006020828403121561150f57600080fd5b81356001600160e01b03198116811461141e57600080fd5b60006020828403121561153957600080fd5b5035919050565b6001600160a01b0381168114610ea257600080fd5b60006020828403121561156757600080fd5b813561141e81611540565b6000806040838503121561158557600080fd5b82359150602083013561159781611540565b809150509250929050565b634e487b7160e01b600052604160045260246000fd5b600082601f8301126115c957600080fd5b813567ffffffffffffffff808211156115e4576115e46115a2565b604051601f8301601f19908116603f0116810190828211818310171561160c5761160c6115a2565b8160405283815286602085880101111561162557600080fd5b836020870160208301376000602085830101528094505050505092915050565b6000806040838503121561165857600080fd5b82359150602083013567ffffffffffffffff81111561167657600080fd5b611682858286016115b8565b9150509250929050565b6000806000606084860312156116a157600080fd5b8335925060208401356116b381611540565b9150604084013567ffffffffffffffff8111156116cf57600080fd5b6116db868287016115b8565b9150509250925092565b600080604083850312156116f857600080fd5b823561170381611540565b946020939093013593505050565b60006020828403121561172357600080fd5b815161141e81611540565b60005b83811015611749578181015183820152602001611731565b50506000910152565b6000603d60f81b808352875161176f816001860160208c0161172e565b8084019050600b60fa1b8060018301528851611792816002850160208d0161172e565b601f60fa1b6002939091019283015287516117b4816003850160208c0161172e565b6003920191820181905286516117d1816004850160208b0161172e565b600492019182015284516117ec81600584016020890161172e565b016005810191909152600601979650505050505050565b6000815180845261181b81602086016020860161172e565b601f01601f19169290920160200192915050565b60208152600061141e6020830184611803565b600081518084526020808501945080840160005b8381101561187b5781516001600160a01b031687529582019590820190600101611856565b509495945050505050565b60208152815160208201526000602083015160018060a01b03808216604085015260408501519150808251166060850152506020810151608084015250606083015160a0830152608083015160e060c08401526118e7610100840182611842565b905060a0840151601f198483030160e08501526119048282611803565b95945050505050565b60006020828403121561191f57600080fd5b5051919050565b634e487b7160e01b600052601160045260246000fd5b60006001820161194e5761194e611926565b5060010190565b600181811c9082168061196957607f821691505b60208210810361198957634e487b7160e01b600052602260045260246000fd5b50919050565b601f8211156105d257600081815260208120601f850160051c810160208610156119b65750805b601f850160051c820191505b81811015610a6d578281556001016119c2565b815167ffffffffffffffff8111156119ef576119ef6115a2565b611a03816119fd8454611955565b8461198f565b602080601f831160018114611a385760008415611a205750858301515b600019600386901b1c1916600185901b178555610a6d565b600085815260208120601f198616915b82811015611a6757888601518255948401946001909101908401611a48565b5085821015611a855787850151600019600388901b60f8161c191681555b5050505050600190811b01905550565b60008251611aa781846020870161172e565b9190910192915050565b6000808354611abf81611955565b60018281168015611ad75760018114611aec57611b1b565b60ff1984168752821515830287019450611b1b565b8760005260208060002060005b85811015611b125781548a820152908401908201611af9565b50505082870194505b50929695505050505050565b634e487b7160e01b600052603260045260246000fd5b8082018082111561055057610550611926565b808202811582820484141761055057610550611926565b7f416363657373436f6e74726f6c3a206163636f756e7420000000000000000000815260008351611b9f81601785016020880161172e565b7001034b99036b4b9b9b4b733903937b6329607d1b6017918401918201528351611bd081602884016020880161172e565b01602801949350505050565b600081611beb57611beb611926565b50600019019056feb19546dff01e856fb3f010c267a7b1c60363cf8a4664e21cc89c26224620214ea2646970667358221220d3f98576b74d48fe79234e3881c8bdc03a4146832e011ccd8d7fabba8dc53e1f64736f6c63430008120033",
        "linkReferences": {}
    },
    "methodIdentifiers": {
        "DEFAULT_ADMIN_ROLE()": "a217fddf",
        "OWNER_ROLE()": "e58378bb",
        "ReceiverContractAddress_NewSubnet()": "b10a9536",
        "TELEPORTER_ROLE()": "49a3ea90",
        "changeCost(uint256)": "5cb85cd2",
        "changeMaxTokens(uint256)": "e47eaae4",
        "changeOwner(address)": "a6f9dae1",
        "crossChainSolution()": "1c35bbe5",
        "crossChainSolutionVariables()": "681782a5",
        "getRoleAdmin(bytes32)": "248a9ca3",
        "grantRole(bytes32,address)": "2f2ff15d",
        "hasRole(bytes32,address)": "91d14854",
        "passMint(uint256,string)": "536257a8",
        "renounceRole(bytes32,address)": "36568abe",
        "revokeRole(bytes32,address)": "d547741f",
        "seeIfCanUnwrap(uint256)": "9bc3a5ef",
        "seeOriginalContractAddress()": "150b44fd",
        "setNewSubnetReceiverContractAddress(address)": "2df57550",
        "setReceiverAddress(address)": "8279c7db",
        "supportsInterface(bytes4)": "01ffc9a7",
        "teleporterSetIdToUnwrap(uint256,address,string)": "741bee33",
        "transferEthFunds(address,uint256)": "b1aa0d64",
        "viewOwnerAddress()": "496bb328",
        "viewRecieverContractAddress()": "5777a262",
        "withdrawMyToken(uint256,string)": "debc6817"
    },
    "id": 43
}