{
    "abi": [
        {
            "type": "constructor",
            "inputs": [
                {
                    "name": "_initialOwner",
                    "type": "address",
                    "internalType": "address"
                },
                {
                    "name": "_oldContract",
                    "type": "address",
                    "internalType": "address"
                },
                {
                    "name": "_costPerMint",
                    "type": "uint256",
                    "internalType": "uint256"
                },
                {
                    "name": "_maxTokens",
                    "type": "uint256",
                    "internalType": "uint256"
                },
                {
                    "name": "_destinationBlockchainID",
                    "type": "bytes32",
                    "internalType": "bytes32"
                }
            ],
            "stateMutability": "nonpayable"
        },
        {
            "type": "receive",
            "stateMutability": "payable"
        },
        {
            "type": "function",
            "name": "DEFAULT_ADMIN_ROLE",
            "inputs": [],
            "outputs": [
                {
                    "name": "",
                    "type": "bytes32",
                    "internalType": "bytes32"
                }
            ],
            "stateMutability": "view"
        },
        {
            "type": "function",
            "name": "OWNER_ROLE",
            "inputs": [],
            "outputs": [
                {
                    "name": "",
                    "type": "bytes32",
                    "internalType": "bytes32"
                }
            ],
            "stateMutability": "view"
        },
        {
            "type": "function",
            "name": "ReceiverContractAddress_NewSubnet",
            "inputs": [],
            "outputs": [
                {
                    "name": "",
                    "type": "address",
                    "internalType": "address"
                }
            ],
            "stateMutability": "view"
        },
        {
            "type": "function",
            "name": "TELEPORTER_ROLE",
            "inputs": [],
            "outputs": [
                {
                    "name": "",
                    "type": "bytes32",
                    "internalType": "bytes32"
                }
            ],
            "stateMutability": "view"
        },
        {
            "type": "function",
            "name": "changeCost",
            "inputs": [
                {
                    "name": "newCost",
                    "type": "uint256",
                    "internalType": "uint256"
                }
            ],
            "outputs": [],
            "stateMutability": "nonpayable"
        },
        {
            "type": "function",
            "name": "changeMaxTokens",
            "inputs": [
                {
                    "name": "newMaxTokens",
                    "type": "uint256",
                    "internalType": "uint256"
                }
            ],
            "outputs": [],
            "stateMutability": "nonpayable"
        },
        {
            "type": "function",
            "name": "changeOwner",
            "inputs": [
                {
                    "name": "newOwner",
                    "type": "address",
                    "internalType": "address"
                }
            ],
            "outputs": [],
            "stateMutability": "nonpayable"
        },
        {
            "type": "function",
            "name": "crossChainSolution",
            "inputs": [],
            "outputs": [
                {
                    "name": "",
                    "type": "uint8",
                    "internalType": "uint8"
                }
            ],
            "stateMutability": "pure"
        },
        {
            "type": "function",
            "name": "crossChainSolutionVariables",
            "inputs": [],
            "outputs": [
                {
                    "name": "",
                    "type": "bool",
                    "internalType": "bool"
                },
                {
                    "name": "",
                    "type": "address",
                    "internalType": "address"
                },
                {
                    "name": "",
                    "type": "bytes32",
                    "internalType": "bytes32"
                }
            ],
            "stateMutability": "view"
        },
        {
            "type": "function",
            "name": "getRoleAdmin",
            "inputs": [
                {
                    "name": "role",
                    "type": "bytes32",
                    "internalType": "bytes32"
                }
            ],
            "outputs": [
                {
                    "name": "",
                    "type": "bytes32",
                    "internalType": "bytes32"
                }
            ],
            "stateMutability": "view"
        },
        {
            "type": "function",
            "name": "grantRole",
            "inputs": [
                {
                    "name": "role",
                    "type": "bytes32",
                    "internalType": "bytes32"
                },
                {
                    "name": "account",
                    "type": "address",
                    "internalType": "address"
                }
            ],
            "outputs": [],
            "stateMutability": "nonpayable"
        },
        {
            "type": "function",
            "name": "hasRole",
            "inputs": [
                {
                    "name": "role",
                    "type": "bytes32",
                    "internalType": "bytes32"
                },
                {
                    "name": "account",
                    "type": "address",
                    "internalType": "address"
                }
            ],
            "outputs": [
                {
                    "name": "",
                    "type": "bool",
                    "internalType": "bool"
                }
            ],
            "stateMutability": "view"
        },
        {
            "type": "function",
            "name": "passMint",
            "inputs": [
                {
                    "name": "tokenID",
                    "type": "uint256",
                    "internalType": "uint256"
                },
                {
                    "name": "_signature",
                    "type": "string",
                    "internalType": "string"
                }
            ],
            "outputs": [
                {
                    "name": "",
                    "type": "uint256",
                    "internalType": "uint256"
                }
            ],
            "stateMutability": "payable"
        },
        {
            "type": "function",
            "name": "renounceRole",
            "inputs": [
                {
                    "name": "role",
                    "type": "bytes32",
                    "internalType": "bytes32"
                },
                {
                    "name": "account",
                    "type": "address",
                    "internalType": "address"
                }
            ],
            "outputs": [],
            "stateMutability": "nonpayable"
        },
        {
            "type": "function",
            "name": "revokeRole",
            "inputs": [
                {
                    "name": "role",
                    "type": "bytes32",
                    "internalType": "bytes32"
                },
                {
                    "name": "account",
                    "type": "address",
                    "internalType": "address"
                }
            ],
            "outputs": [],
            "stateMutability": "nonpayable"
        },
        {
            "type": "function",
            "name": "seeIfCanUnwrap",
            "inputs": [
                {
                    "name": "_tokenId",
                    "type": "uint256",
                    "internalType": "uint256"
                }
            ],
            "outputs": [
                {
                    "name": "",
                    "type": "bool",
                    "internalType": "bool"
                }
            ],
            "stateMutability": "view"
        },
        {
            "type": "function",
            "name": "setNewSubnetReceiverContractAddress",
            "inputs": [
                {
                    "name": "_NewSubnetReceiverContractAddress",
                    "type": "address",
                    "internalType": "address"
                }
            ],
            "outputs": [],
            "stateMutability": "nonpayable"
        },
        {
            "type": "function",
            "name": "setReceiverAddress",
            "inputs": [
                {
                    "name": "_receiverAddress",
                    "type": "address",
                    "internalType": "address"
                }
            ],
            "outputs": [],
            "stateMutability": "nonpayable"
        },
        {
            "type": "function",
            "name": "supportsInterface",
            "inputs": [
                {
                    "name": "interfaceId",
                    "type": "bytes4",
                    "internalType": "bytes4"
                }
            ],
            "outputs": [
                {
                    "name": "",
                    "type": "bool",
                    "internalType": "bool"
                }
            ],
            "stateMutability": "view"
        },
        {
            "type": "function",
            "name": "teleporterSetIdToUnwrap",
            "inputs": [
                {
                    "name": "_tokenId",
                    "type": "uint256",
                    "internalType": "uint256"
                },
                {
                    "name": "_owner",
                    "type": "address",
                    "internalType": "address"
                },
                {
                    "name": "_signature",
                    "type": "string",
                    "internalType": "string"
                }
            ],
            "outputs": [],
            "stateMutability": "nonpayable"
        },
        {
            "type": "function",
            "name": "transferEthFunds",
            "inputs": [
                {
                    "name": "beneficiary",
                    "type": "address",
                    "internalType": "address payable"
                },
                {
                    "name": "amount",
                    "type": "uint256",
                    "internalType": "uint256"
                }
            ],
            "outputs": [],
            "stateMutability": "nonpayable"
        },
        {
            "type": "function",
            "name": "viewOwnerAddress",
            "inputs": [],
            "outputs": [
                {
                    "name": "",
                    "type": "address",
                    "internalType": "address"
                }
            ],
            "stateMutability": "view"
        },
        {
            "type": "function",
            "name": "viewRecieverContractAddress",
            "inputs": [],
            "outputs": [
                {
                    "name": "",
                    "type": "address",
                    "internalType": "address"
                }
            ],
            "stateMutability": "view"
        },
        {
            "type": "function",
            "name": "withdrawMyToken",
            "inputs": [
                {
                    "name": "_tokenId",
                    "type": "uint256",
                    "internalType": "uint256"
                },
                {
                    "name": "_signature",
                    "type": "string",
                    "internalType": "string"
                }
            ],
            "outputs": [],
            "stateMutability": "nonpayable"
        },
        {
            "type": "event",
            "name": "RoleAdminChanged",
            "inputs": [
                {
                    "name": "role",
                    "type": "bytes32",
                    "indexed": true,
                    "internalType": "bytes32"
                },
                {
                    "name": "previousAdminRole",
                    "type": "bytes32",
                    "indexed": true,
                    "internalType": "bytes32"
                },
                {
                    "name": "newAdminRole",
                    "type": "bytes32",
                    "indexed": true,
                    "internalType": "bytes32"
                }
            ],
            "anonymous": false
        },
        {
            "type": "event",
            "name": "RoleGranted",
            "inputs": [
                {
                    "name": "role",
                    "type": "bytes32",
                    "indexed": true,
                    "internalType": "bytes32"
                },
                {
                    "name": "account",
                    "type": "address",
                    "indexed": true,
                    "internalType": "address"
                },
                {
                    "name": "sender",
                    "type": "address",
                    "indexed": true,
                    "internalType": "address"
                }
            ],
            "anonymous": false
        },
        {
            "type": "event",
            "name": "RoleRevoked",
            "inputs": [
                {
                    "name": "role",
                    "type": "bytes32",
                    "indexed": true,
                    "internalType": "bytes32"
                },
                {
                    "name": "account",
                    "type": "address",
                    "indexed": true,
                    "internalType": "address"
                },
                {
                    "name": "sender",
                    "type": "address",
                    "indexed": true,
                    "internalType": "address"
                }
            ],
            "anonymous": false
        },
        {
            "type": "error",
            "name": "GmFamTreasuryAndWraper__AccessDenied",
            "inputs": []
        },
        {
            "type": "error",
            "name": "GmFamTreasuryAndWraper__MaxSupplyReached",
            "inputs": []
        },
        {
            "type": "error",
            "name": "GmFamTreasuryAndWraper__NotEnoughFunds",
            "inputs": []
        },
        {
            "type": "error",
            "name": "GmFamTreasuryAndWraper__OwnerMUSTSetUPTheReceiverContractFirst",
            "inputs": []
        },
        {
            "type": "error",
            "name": "GmFamTreasuryAndWraper__OwnerMustSetTheNewChainReceiverContractAddress",
            "inputs": []
        },
        {
            "type": "error",
            "name": "GmFamTreasuryAndWraper__ReceiverAddressAlreadySet",
            "inputs": []
        },
        {
            "type": "error",
            "name": "GmFamTreasuryAndWraper__TransferFailed",
            "inputs": []
        },
        {
            "type": "error",
            "name": "GmFamTreasuryAndWraper__YouAreNotTheOwner",
            "inputs": []
        },
        {
            "type": "error",
            "name": "GmFamTreasuryAndWraper__YouMUSTPayForMint",
            "inputs": []
        },
        {
            "type": "error",
            "name": "GmFamTreasuryAndWraper__YouMUSTUnwrapTheTokenFirst",
            "inputs": []
        },
        {
            "type": "error",
            "name": "GmFamTreasuryAndWraper__YouMUSTWrapTheTokenFirst",
            "inputs": []
        }
    ],
    "bytecode": {
        "object": "0x60a06040526006805460ff60a01b19169055600780546001600160a01b03191690553480156200002e57600080fd5b5060405162001e0238038062001e0283398101604081905262000051916200017c565b6200007d7fb19546dff01e856fb3f010c267a7b1c60363cf8a4664e21cc89c26224620214e86620000be565b600580546001600160a01b039687166001600160a01b03199182161790915560809190915260019290925560025560038054929093169116179055620001cf565b6000828152602081815260408083206001600160a01b038516845290915290205460ff166200015b576000828152602081815260408083206001600160a01b03851684529091529020805460ff191660011790556200011a3390565b6001600160a01b0316816001600160a01b0316837f2f8788117e7eff1d82e926ec794901d17c78024a50270940304540a733656f0d60405160405180910390a45b5050565b80516001600160a01b03811681146200017757600080fd5b919050565b600080600080600060a086880312156200019557600080fd5b620001a0866200015f565b9450620001b0602087016200015f565b6040870151606088015160809098015196999198509695945092505050565b608051611c10620001f26000396000818161032d01526107f90152611c106000f3fe60806040526004361061014f5760003560e01c8063741bee33116100b6578063b10a95361161006f578063b10a953614610424578063b1aa0d6414610444578063d547741f14610464578063debc681714610484578063e47eaae4146104a4578063e58378bb146104c457600080fd5b8063741bee33146103585780638279c7db1461037857806391d14854146103985780639bc3a5ef146103b8578063a217fddf146103ef578063a6f9dae11461040457600080fd5b8063496bb32811610108578063496bb3281461024c57806349a3ea901461027e578063536257a8146102b25780635777a262146102c55780635cb85cd2146102e3578063681782a51461030357600080fd5b806301ffc9a71461015b5780631c35bbe514610190578063248a9ca3146101ac5780632df57550146101ea5780632f2ff15d1461020c57806336568abe1461022c57600080fd5b3661015657005b600080fd5b34801561016757600080fd5b5061017b6101763660046114c4565b6104e6565b60405190151581526020015b60405180910390f35b34801561019c57600080fd5b5060405160028152602001610187565b3480156101b857600080fd5b506101dc6101c73660046114ee565b60009081526020819052604090206001015490565b604051908152602001610187565b3480156101f657600080fd5b5061020a61020536600461151c565b61051d565b005b34801561021857600080fd5b5061020a610227366004611539565b610574565b34801561023857600080fd5b5061020a610247366004611539565b61059e565b34801561025857600080fd5b506005546001600160a01b03165b6040516001600160a01b039091168152602001610187565b34801561028a57600080fd5b506101dc7fa530591684edb8e247f0956f92e02a13ee688d96752d66afd292c690d952306981565b6101dc6102c036600461160c565b610621565b3480156102d157600080fd5b506006546001600160a01b0316610266565b3480156102ef57600080fd5b5061020a6102fe3660046114ee565b610947565b34801561030f57600080fd5b5060075460408051600081526001600160a01b0390921660208301527f000000000000000000000000000000000000000000000000000000000000000090820152606001610187565b34801561036457600080fd5b5061020a610373366004611653565b610981565b34801561038457600080fd5b5061020a61039336600461151c565b610a3c565b3480156103a457600080fd5b5061017b6103b3366004611539565b610aed565b3480156103c457600080fd5b5061017b6103d33660046114ee565b600090815260086020526040902054600160a01b900460ff1690565b3480156103fb57600080fd5b506101dc600081565b34801561041057600080fd5b5061020a61041f36600461151c565b610b16565b34801561043057600080fd5b50600754610266906001600160a01b031681565b34801561045057600080fd5b5061020a61045f3660046116ac565b610b9d565b34801561047057600080fd5b5061020a61047f366004611539565b610c35565b34801561049057600080fd5b5061020a61049f36600461160c565b610c5a565b3480156104b057600080fd5b5061020a6104bf3660046114ee565b610e25565b3480156104d057600080fd5b506101dc600080516020611bbb83398151915281565b60006001600160e01b03198216637965db0b60e01b148061051757506301ffc9a760e01b6001600160e01b03198316145b92915050565b610535600080516020611bbb83398151915233610aed565b61055257604051636123936f60e11b815260040160405180910390fd5b600780546001600160a01b0319166001600160a01b0392909216919091179055565b60008281526020819052604090206001015461058f81610e5f565b6105998383610e6c565b505050565b6001600160a01b03811633146106135760405162461bcd60e51b815260206004820152602f60248201527f416363657373436f6e74726f6c3a2063616e206f6e6c792072656e6f756e636560448201526e103937b632b9903337b91039b2b63360891b60648201526084015b60405180910390fd5b61061d8282610ef0565b5050565b600060025460045410610647576040516316654fdb60e01b815260040160405180910390fd5b60015434101561066a57604051631d266a7360e01b815260040160405180910390fd5b6003546040516331a9108f60e11b8152600481018590526001600160a01b0390911690636352211e90602401602060405180830381865afa1580156106b3573d6000803e3d6000fd5b505050506040513d601f19601f820116820180604052508101906106d791906116d8565b6001600160a01b0316336001600160a01b031614610707576040516202895f60ed1b815260040160405180910390fd5b60405130903480156108fc02916000818181858888f1935050505061073f5760405163349189c560e21b815260040160405180910390fd5b6003546040516323b872dd60e01b8152336004820152306024820152604481018590526001600160a01b03909116906323b872dd90606401600060405180830381600087803b15801561079157600080fd5b505af11580156107a5573d6000803e3d6000fd5b5050505060006107b433610f55565b6107bd85611140565b846107c733610f55565b6107d034611140565b6040516020016107e4959493929190611719565b60408051808303601f1901815260c0830182527f000000000000000000000000000000000000000000000000000000000000000083526007546001600160a01b031660208085019190915282518084018452600080825281830181905285850191909152622dc6c06060860152835181815291820190935290935090917350a46aa7b2ecbe2b1abb7df865b9a87f5eed86359163624488509190608082019081526020018560405160240161089991906117f6565b60408051601f198184030181529181526020820180516001600160e01b0316636339d79b60e11b17905291525160e083901b6001600160e01b03191681526108e4919060040161184d565b6020604051808303816000875af1158015610903573d6000803e3d6000fd5b505050506040513d601f19601f8201168201806040525081019061092791906118d4565b60048054919250600061093983611903565b909155509095945050505050565b61095f600080516020611bbb83398151915233610aed565b61097c57604051636123936f60e11b815260040160405180910390fd5b600155565b6109ab7fa530591684edb8e247f0956f92e02a13ee688d96752d66afd292c690d952306933610aed565b6109c857604051636123936f60e11b815260040160405180910390fd5b604080516060810182526001600160a01b0380851682526001602080840182815284860187815260008a81526008909352959091208451815492511515600160a01b026001600160a81b031990931694169390931717825592519192909190820190610a34908261199c565b505050505050565b610a54600080516020611bbb83398151915233610aed565b610a7157604051636123936f60e11b815260040160405180910390fd5b600654600160a01b900460ff1615610a9c5760405163b8fcdc9560e01b815260040160405180910390fd5b610ac67fa530591684edb8e247f0956f92e02a13ee688d96752d66afd292c690d952306982610e6c565b600680546001600160a81b0319166001600160a01b0390921691909117600160a01b179055565b6000918252602082815260408084206001600160a01b0393909316845291905290205460ff1690565b610b2e600080516020611bbb83398151915233610aed565b610b4b57604051636123936f60e11b815260040160405180910390fd5b610b63600080516020611bbb83398151915282610e6c565b610b7b600080516020611bbb83398151915233610ef0565b600580546001600160a01b0319166001600160a01b0392909216919091179055565b610bb5600080516020611bbb83398151915233610aed565b610bd257604051636123936f60e11b815260040160405180910390fd5b80471015610bf357604051639a2e5f9b60e01b815260040160405180910390fd5b6040516001600160a01b0383169082156108fc029083906000818181858888f1935050505061061d5760405163349189c560e21b815260040160405180910390fd5b600082815260208190526040902060010154610c5081610e5f565b6105998383610ef0565b600082815260086020526040902054600160a01b900460ff16610c9057604051630ce5824960e41b815260040160405180910390fd5b6000828152600860205260409020546001600160a01b03163314610cc6576040516202895f60ed1b815260040160405180910390fd5b80604051602001610cd79190611a5c565b60408051601f198184030181528282528051602091820120600086815260088352929092209192610d0c926001019101611a78565b6040516020818303038152906040528051906020012014610d4057604051630ce5824960e41b815260040160405180910390fd5b6003546040516323b872dd60e01b8152306004820152336024820152604481018490526001600160a01b03909116906323b872dd90606401600060405180830381600087803b158015610d9257600080fd5b505af1158015610da6573d6000803e3d6000fd5b50506040805160608101825260008082526020808301828152845180830186528381528486019081528984526008909252939091208251815494511515600160a01b026001600160a81b03199095166001600160a01b039190911617939093178355519093509091506001820190610e1e908261199c565b5050505050565b610e3d600080516020611bbb83398151915233610aed565b610e5a57604051636123936f60e11b815260040160405180910390fd5b600255565b610e69813361114b565b50565b610e768282610aed565b61061d576000828152602081815260408083206001600160a01b03851684529091529020805460ff19166001179055610eac3390565b6001600160a01b0316816001600160a01b0316837f2f8788117e7eff1d82e926ec794901d17c78024a50270940304540a733656f0d60405160405180910390a45050565b610efa8282610aed565b1561061d576000828152602081815260408083206001600160a01b0385168085529252808320805460ff1916905551339285917ff6391f5c32d9c69d2a47ea670b442974b53935d1edc7fd64eb21e047a839171b9190a45050565b604080518082018252601081526f181899199a1a9b1b9c1cb0b131b232b360811b60208201528151602a80825260608281019094526001600160a01b0385169291600091602082018180368337019050509050600360fc1b81600081518110610fc057610fc0611aee565b60200101906001600160f81b031916908160001a905350600f60fb1b81600181518110610fef57610fef611aee565b60200101906001600160f81b031916908160001a90535060005b6014811015611137578260048561102184600c611b04565b6020811061103157611031611aee565b1a60f81b6001600160f81b031916901c60f81c60ff168151811061105757611057611aee565b01602001516001600160f81b03191682611072836002611b17565b61107d906002611b04565b8151811061108d5761108d611aee565b60200101906001600160f81b031916908160001a90535082846110b183600c611b04565b602081106110c1576110c1611aee565b825191901a600f169081106110d8576110d8611aee565b01602001516001600160f81b031916826110f3836002611b17565b6110fe906003611b04565b8151811061110e5761110e611aee565b60200101906001600160f81b031916908160001a9053508061112f81611903565b915050611009565b50949350505050565b6060610517826111a4565b6111558282610aed565b61061d5761116281611237565b61116d836020611249565b60405160200161117e929190611b2e565b60408051601f198184030181529082905262461bcd60e51b825261060a916004016117f6565b606060006111b1836113ec565b600101905060008167ffffffffffffffff8111156111d1576111d1611569565b6040519080825280601f01601f1916602001820160405280156111fb576020820181803683370190505b5090508181016020015b600019016f181899199a1a9b1b9c1cb0b131b232b360811b600a86061a8153600a850494508461120557509392505050565b60606105176001600160a01b03831660145b60606000611258836002611b17565b611263906002611b04565b67ffffffffffffffff81111561127b5761127b611569565b6040519080825280601f01601f1916602001820160405280156112a5576020820181803683370190505b509050600360fc1b816000815181106112c0576112c0611aee565b60200101906001600160f81b031916908160001a905350600f60fb1b816001815181106112ef576112ef611aee565b60200101906001600160f81b031916908160001a9053506000611313846002611b17565b61131e906001611b04565b90505b6001811115611396576f181899199a1a9b1b9c1cb0b131b232b360811b85600f166010811061135257611352611aee565b1a60f81b82828151811061136857611368611aee565b60200101906001600160f81b031916908160001a90535060049490941c9361138f81611ba3565b9050611321565b5083156113e55760405162461bcd60e51b815260206004820181905260248201527f537472696e67733a20686578206c656e67746820696e73756666696369656e74604482015260640161060a565b9392505050565b60008072184f03e93ff9f4daa797ed6e38ed64bf6a1f0160401b831061142b5772184f03e93ff9f4daa797ed6e38ed64bf6a1f0160401b830492506040015b6d04ee2d6d415b85acef81000000008310611457576d04ee2d6d415b85acef8100000000830492506020015b662386f26fc10000831061147557662386f26fc10000830492506010015b6305f5e100831061148d576305f5e100830492506008015b61271083106114a157612710830492506004015b606483106114b3576064830492506002015b600a83106105175760010192915050565b6000602082840312156114d657600080fd5b81356001600160e01b0319811681146113e557600080fd5b60006020828403121561150057600080fd5b5035919050565b6001600160a01b0381168114610e6957600080fd5b60006020828403121561152e57600080fd5b81356113e581611507565b6000806040838503121561154c57600080fd5b82359150602083013561155e81611507565b809150509250929050565b634e487b7160e01b600052604160045260246000fd5b600082601f83011261159057600080fd5b813567ffffffffffffffff808211156115ab576115ab611569565b604051601f8301601f19908116603f011681019082821181831017156115d3576115d3611569565b816040528381528660208588010111156115ec57600080fd5b836020870160208301376000602085830101528094505050505092915050565b6000806040838503121561161f57600080fd5b82359150602083013567ffffffffffffffff81111561163d57600080fd5b6116498582860161157f565b9150509250929050565b60008060006060848603121561166857600080fd5b83359250602084013561167a81611507565b9150604084013567ffffffffffffffff81111561169657600080fd5b6116a28682870161157f565b9150509250925092565b600080604083850312156116bf57600080fd5b82356116ca81611507565b946020939093013593505050565b6000602082840312156116ea57600080fd5b81516113e581611507565b60005b838110156117105781810151838201526020016116f8565b50506000910152565b6000603d60f81b8083528751611736816001860160208c016116f5565b8084019050600b60fa1b8060018301528851611759816002850160208d016116f5565b601f60fa1b60029390910192830152875161177b816003850160208c016116f5565b600392019182018190528651611798816004850160208b016116f5565b600492019182015284516117b38160058401602089016116f5565b016005810191909152600601979650505050505050565b600081518084526117e28160208601602086016116f5565b601f01601f19169290920160200192915050565b6020815260006113e560208301846117ca565b600081518084526020808501945080840160005b838110156118425781516001600160a01b03168752958201959082019060010161181d565b509495945050505050565b60208152815160208201526000602083015160018060a01b03808216604085015260408501519150808251166060850152506020810151608084015250606083015160a0830152608083015160e060c08401526118ae610100840182611809565b905060a0840151601f198483030160e08501526118cb82826117ca565b95945050505050565b6000602082840312156118e657600080fd5b5051919050565b634e487b7160e01b600052601160045260246000fd5b600060018201611915576119156118ed565b5060010190565b600181811c9082168061193057607f821691505b60208210810361195057634e487b7160e01b600052602260045260246000fd5b50919050565b601f82111561059957600081815260208120601f850160051c8101602086101561197d5750805b601f850160051c820191505b81811015610a3457828155600101611989565b815167ffffffffffffffff8111156119b6576119b6611569565b6119ca816119c4845461191c565b84611956565b602080601f8311600181146119ff57600084156119e75750858301515b600019600386901b1c1916600185901b178555610a34565b600085815260208120601f198616915b82811015611a2e57888601518255948401946001909101908401611a0f565b5085821015611a4c5787850151600019600388901b60f8161c191681555b5050505050600190811b01905550565b60008251611a6e8184602087016116f5565b9190910192915050565b6000808354611a868161191c565b60018281168015611a9e5760018114611ab357611ae2565b60ff1984168752821515830287019450611ae2565b8760005260208060002060005b85811015611ad95781548a820152908401908201611ac0565b50505082870194505b50929695505050505050565b634e487b7160e01b600052603260045260246000fd5b80820180821115610517576105176118ed565b8082028115828204841417610517576105176118ed565b7f416363657373436f6e74726f6c3a206163636f756e7420000000000000000000815260008351611b668160178501602088016116f5565b7001034b99036b4b9b9b4b733903937b6329607d1b6017918401918201528351611b978160288401602088016116f5565b01602801949350505050565b600081611bb257611bb26118ed565b50600019019056feb19546dff01e856fb3f010c267a7b1c60363cf8a4664e21cc89c26224620214ea264697066735822122093915642ce26cdcc1c090f4fad2ad2c65943d83a2c4074bdfe95842802dd6a4c64736f6c63430008120033",
        "linkReferences": {}
    },
    "methodIdentifiers": {
        "DEFAULT_ADMIN_ROLE()": "a217fddf",
        "OWNER_ROLE()": "e58378bb",
        "ReceiverContractAddress_NewSubnet()": "b10a9536",
        "TELEPORTER_ROLE()": "49a3ea90",
        "changeCost(uint256)": "5cb85cd2",
        "changeMaxTokens(uint256)": "e47eaae4",
        "changeOwner(address)": "a6f9dae1",
        "crossChainSolution()": "1c35bbe5",
        "crossChainSolutionVariables()": "681782a5",
        "getRoleAdmin(bytes32)": "248a9ca3",
        "grantRole(bytes32,address)": "2f2ff15d",
        "hasRole(bytes32,address)": "91d14854",
        "passMint(uint256,string)": "536257a8",
        "renounceRole(bytes32,address)": "36568abe",
        "revokeRole(bytes32,address)": "d547741f",
        "seeIfCanUnwrap(uint256)": "9bc3a5ef",
        "setNewSubnetReceiverContractAddress(address)": "2df57550",
        "setReceiverAddress(address)": "8279c7db",
        "supportsInterface(bytes4)": "01ffc9a7",
        "teleporterSetIdToUnwrap(uint256,address,string)": "741bee33",
        "transferEthFunds(address,uint256)": "b1aa0d64",
        "viewOwnerAddress()": "496bb328",
        "viewRecieverContractAddress()": "5777a262",
        "withdrawMyToken(uint256,string)": "debc6817"
    },
    "id": 65
}